{
  "contractName": "CommunityWallet",
  "abi": [
    {
      "anonymous": false,
      "inputs": [
        {
          "indexed": false,
          "internalType": "string",
          "name": "nonce",
          "type": "string"
        },
        {
          "indexed": false,
          "internalType": "uint256",
          "name": "amount",
          "type": "uint256"
        }
      ],
      "name": "EthClaimed",
      "type": "event"
    },
    {
      "anonymous": false,
      "inputs": [
        {
          "indexed": false,
          "internalType": "uint256",
          "name": "amount",
          "type": "uint256"
        }
      ],
      "name": "EthDeposited",
      "type": "event"
    },
    {
      "anonymous": false,
      "inputs": [
        {
          "indexed": true,
          "internalType": "address",
          "name": "previousOwner",
          "type": "address"
        },
        {
          "indexed": true,
          "internalType": "address",
          "name": "newOwner",
          "type": "address"
        }
      ],
      "name": "OwnershipTransferred",
      "type": "event"
    },
    {
      "inputs": [],
      "name": "owner",
      "outputs": [
        {
          "internalType": "address",
          "name": "",
          "type": "address"
        }
      ],
      "stateMutability": "view",
      "type": "function",
      "constant": true
    },
    {
      "inputs": [],
      "name": "renounceOwnership",
      "outputs": [],
      "stateMutability": "nonpayable",
      "type": "function"
    },
    {
      "inputs": [
        {
          "internalType": "address",
          "name": "newOwner",
          "type": "address"
        }
      ],
      "name": "transferOwnership",
      "outputs": [],
      "stateMutability": "nonpayable",
      "type": "function"
    },
    {
      "inputs": [],
      "name": "deposit",
      "outputs": [],
      "stateMutability": "payable",
      "type": "function",
      "payable": true
    },
    {
      "inputs": [
        {
          "internalType": "uint256",
          "name": "_amount",
          "type": "uint256"
        },
        {
          "internalType": "string",
          "name": "_nonce",
          "type": "string"
        },
        {
          "internalType": "bytes",
          "name": "_signature",
          "type": "bytes"
        }
      ],
      "name": "claim",
      "outputs": [],
      "stateMutability": "nonpayable",
      "type": "function"
    }
  ],
  "bytecode": "0x608060405234801561001057600080fd5b5061002d61002261003260201b60201c565b61003a60201b60201c565b6100fe565b600033905090565b60008060009054906101000a900473ffffffffffffffffffffffffffffffffffffffff169050816000806101000a81548173ffffffffffffffffffffffffffffffffffffffff021916908373ffffffffffffffffffffffffffffffffffffffff1602179055508173ffffffffffffffffffffffffffffffffffffffff168173ffffffffffffffffffffffffffffffffffffffff167f8be0079c531659141344cd1fd0a4f28419497f9722a3daafe3b4186f6b6457e060405160405180910390a35050565b6114888061010d6000396000f3fe60806040526004361061004a5760003560e01c8063715018a61461004f5780638da5cb5b14610066578063d0e30db014610091578063d2c34d3f1461009b578063f2fde38b146100c4575b600080fd5b34801561005b57600080fd5b506100646100ed565b005b34801561007257600080fd5b5061007b610175565b6040516100889190610a96565b60405180910390f35b61009961019e565b005b3480156100a757600080fd5b506100c260048036038101906100bd9190610ce2565b610253565b005b3480156100d057600080fd5b506100eb60048036038101906100e69190610d99565b610439565b005b6100f5610531565b73ffffffffffffffffffffffffffffffffffffffff16610113610175565b73ffffffffffffffffffffffffffffffffffffffff1614610169576040517f08c379a000000000000000000000000000000000000000000000000000000000815260040161016090610e23565b60405180910390fd5b6101736000610539565b565b60008060009054906101000a900473ffffffffffffffffffffffffffffffffffffffff16905090565b6101a6610531565b73ffffffffffffffffffffffffffffffffffffffff166101c4610175565b73ffffffffffffffffffffffffffffffffffffffff161461021a576040517f08c379a000000000000000000000000000000000000000000000000000000000815260040161021190610e23565b60405180910390fd5b7f44863bc9b335caf97ca3a3ab6fb67776965a88292ed53b0679f8eae4a67b630c346040516102499190610e52565b60405180910390a1565b60006102608484846105fd565b905061026a610175565b73ffffffffffffffffffffffffffffffffffffffff168173ffffffffffffffffffffffffffffffffffffffff16146102d7576040517f08c379a00000000000000000000000000000000000000000000000000000000081526004016102ce90610eb9565b60405180910390fd5b6001836040516102e79190610f53565b908152602001604051809103902060009054906101000a900460ff1615610343576040517f08c379a000000000000000000000000000000000000000000000000000000000815260040161033a90610eb9565b60405180910390fd5b60008411610386576040517f08c379a000000000000000000000000000000000000000000000000000000000815260040161037d90610fb6565b60405180910390fd5b3373ffffffffffffffffffffffffffffffffffffffff166108fc859081150290604051600060405180830381858888f193505050506103c457600080fd5b600180846040516103d59190610f53565b908152602001604051809103902060006101000a81548160ff0219169083151502179055507fc75c366c54f3a0cb00da812673cc8c1eb79fe2afc56c2d476b7365db5abbeade838560405161042b92919061100f565b60405180910390a150505050565b610441610531565b73ffffffffffffffffffffffffffffffffffffffff1661045f610175565b73ffffffffffffffffffffffffffffffffffffffff16146104b5576040517f08c379a00000000000000000000000000000000000000000000000000000000081526004016104ac90610e23565b60405180910390fd5b600073ffffffffffffffffffffffffffffffffffffffff168173ffffffffffffffffffffffffffffffffffffffff161415610525576040517f08c379a000000000000000000000000000000000000000000000000000000000815260040161051c906110b1565b60405180910390fd5b61052e81610539565b50565b600033905090565b60008060009054906101000a900473ffffffffffffffffffffffffffffffffffffffff169050816000806101000a81548173ffffffffffffffffffffffffffffffffffffffff021916908373ffffffffffffffffffffffffffffffffffffffff1602179055508173ffffffffffffffffffffffffffffffffffffffff168173ffffffffffffffffffffffffffffffffffffffff167f8be0079c531659141344cd1fd0a4f28419497f9722a3daafe3b4186f6b6457e060405160405180910390a35050565b60006106428261063486866040516020016106199291906110f2565b6040516020818303038152906040528051906020012061064b565b61067b90919063ffffffff16565b90509392505050565b60008160405160200161065e9190611191565b604051602081830303815290604052805190602001209050919050565b600080600061068a85856106a2565b9150915061069781610725565b819250505092915050565b6000806041835114156106e45760008060006020860151925060408601519150606086015160001a90506106d8878285856108fa565b9450945050505061071e565b60408351141561071557600080602085015191506040850151905061070a868383610a07565b93509350505061071e565b60006002915091505b9250929050565b60006004811115610739576107386111b7565b5b81600481111561074c5761074b6111b7565b5b1415610757576108f7565b6001600481111561076b5761076a6111b7565b5b81600481111561077e5761077d6111b7565b5b14156107bf576040517f08c379a00000000000000000000000000000000000000000000000000000000081526004016107b690611232565b60405180910390fd5b600260048111156107d3576107d26111b7565b5b8160048111156107e6576107e56111b7565b5b1415610827576040517f08c379a000000000000000000000000000000000000000000000000000000000815260040161081e9061129e565b60405180910390fd5b6003600481111561083b5761083a6111b7565b5b81600481111561084e5761084d6111b7565b5b141561088f576040517f08c379a000000000000000000000000000000000000000000000000000000000815260040161088690611330565b60405180910390fd5b6004808111156108a2576108a16111b7565b5b8160048111156108b5576108b46111b7565b5b14156108f6576040517f08c379a00000000000000000000000000000000000000000000000000000000081526004016108ed906113c2565b60405180910390fd5b5b50565b6000807f7fffffffffffffffffffffffffffffff5d576e7357a4501ddfe92f46681b20a08360001c11156109355760006003915091506109fe565b601b8560ff161415801561094d5750601c8560ff1614155b1561095f5760006004915091506109fe565b600060018787878760405160008152602001604052604051610984949392919061140d565b6020604051602081039080840390855afa1580156109a6573d6000803e3d6000fd5b505050602060405103519050600073ffffffffffffffffffffffffffffffffffffffff168173ffffffffffffffffffffffffffffffffffffffff1614156109f5576000600192509250506109fe565b80600092509250505b94509492505050565b6000806000807f7fffffffffffffffffffffffffffffffffffffffffffffffffffffffffffffff85169150601b8560ff1c019050610a47878288856108fa565b935093505050935093915050565b600073ffffffffffffffffffffffffffffffffffffffff82169050919050565b6000610a8082610a55565b9050919050565b610a9081610a75565b82525050565b6000602082019050610aab6000830184610a87565b92915050565b6000604051905090565b600080fd5b600080fd5b6000819050919050565b610ad881610ac5565b8114610ae357600080fd5b50565b600081359050610af581610acf565b92915050565b600080fd5b600080fd5b6000601f19601f8301169050919050565b7f4e487b7100000000000000000000000000000000000000000000000000000000600052604160045260246000fd5b610b4e82610b05565b810181811067ffffffffffffffff82111715610b6d57610b6c610b16565b5b80604052505050565b6000610b80610ab1565b9050610b8c8282610b45565b919050565b600067ffffffffffffffff821115610bac57610bab610b16565b5b610bb582610b05565b9050602081019050919050565b82818337600083830152505050565b6000610be4610bdf84610b91565b610b76565b905082815260208101848484011115610c0057610bff610b00565b5b610c0b848285610bc2565b509392505050565b600082601f830112610c2857610c27610afb565b5b8135610c38848260208601610bd1565b91505092915050565b600067ffffffffffffffff821115610c5c57610c5b610b16565b5b610c6582610b05565b9050602081019050919050565b6000610c85610c8084610c41565b610b76565b905082815260208101848484011115610ca157610ca0610b00565b5b610cac848285610bc2565b509392505050565b600082601f830112610cc957610cc8610afb565b5b8135610cd9848260208601610c72565b91505092915050565b600080600060608486031215610cfb57610cfa610abb565b5b6000610d0986828701610ae6565b935050602084013567ffffffffffffffff811115610d2a57610d29610ac0565b5b610d3686828701610c13565b925050604084013567ffffffffffffffff811115610d5757610d56610ac0565b5b610d6386828701610cb4565b9150509250925092565b610d7681610a75565b8114610d8157600080fd5b50565b600081359050610d9381610d6d565b92915050565b600060208284031215610daf57610dae610abb565b5b6000610dbd84828501610d84565b91505092915050565b600082825260208201905092915050565b7f4f776e61626c653a2063616c6c6572206973206e6f7420746865206f776e6572600082015250565b6000610e0d602083610dc6565b9150610e1882610dd7565b602082019050919050565b60006020820190508181036000830152610e3c81610e00565b9050919050565b610e4c81610ac5565b82525050565b6000602082019050610e676000830184610e43565b92915050565b7f4e6f7420617574686f72697a656420746f20636c61696d000000000000000000600082015250565b6000610ea3601783610dc6565b9150610eae82610e6d565b602082019050919050565b60006020820190508181036000830152610ed281610e96565b9050919050565b600081519050919050565b600081905092915050565b60005b83811015610f0d578082015181840152602081019050610ef2565b83811115610f1c576000848401525b50505050565b6000610f2d82610ed9565b610f378185610ee4565b9350610f47818560208601610eef565b80840191505092915050565b6000610f5f8284610f22565b915081905092915050565b7f5468657265206973206e6f20616d6f756e74206c65667420746f20636c61696d600082015250565b6000610fa0602083610dc6565b9150610fab82610f6a565b602082019050919050565b60006020820190508181036000830152610fcf81610f93565b9050919050565b6000610fe182610ed9565b610feb8185610dc6565b9350610ffb818560208601610eef565b61100481610b05565b840191505092915050565b600060408201905081810360008301526110298185610fd6565b90506110386020830184610e43565b9392505050565b7f4f776e61626c653a206e6577206f776e657220697320746865207a65726f206160008201527f6464726573730000000000000000000000000000000000000000000000000000602082015250565b600061109b602683610dc6565b91506110a68261103f565b604082019050919050565b600060208201905081810360008301526110ca8161108e565b9050919050565b6000819050919050565b6110ec6110e782610ac5565b6110d1565b82525050565b60006110fe82856110db565b60208201915061110e8284610f22565b91508190509392505050565b7f19457468657265756d205369676e6564204d6573736167653a0a333200000000600082015250565b6000611150601c83610ee4565b915061115b8261111a565b601c82019050919050565b6000819050919050565b6000819050919050565b61118b61118682611166565b611170565b82525050565b600061119c82611143565b91506111a8828461117a565b60208201915081905092915050565b7f4e487b7100000000000000000000000000000000000000000000000000000000600052602160045260246000fd5b7f45434453413a20696e76616c6964207369676e61747572650000000000000000600082015250565b600061121c601883610dc6565b9150611227826111e6565b602082019050919050565b6000602082019050818103600083015261124b8161120f565b9050919050565b7f45434453413a20696e76616c6964207369676e6174757265206c656e67746800600082015250565b6000611288601f83610dc6565b915061129382611252565b602082019050919050565b600060208201905081810360008301526112b78161127b565b9050919050565b7f45434453413a20696e76616c6964207369676e6174757265202773272076616c60008201527f7565000000000000000000000000000000000000000000000000000000000000602082015250565b600061131a602283610dc6565b9150611325826112be565b604082019050919050565b600060208201905081810360008301526113498161130d565b9050919050565b7f45434453413a20696e76616c6964207369676e6174757265202776272076616c60008201527f7565000000000000000000000000000000000000000000000000000000000000602082015250565b60006113ac602283610dc6565b91506113b782611350565b604082019050919050565b600060208201905081810360008301526113db8161139f565b9050919050565b6113eb81611166565b82525050565b600060ff82169050919050565b611407816113f1565b82525050565b600060808201905061142260008301876113e2565b61142f60208301866113fe565b61143c60408301856113e2565b61144960608301846113e2565b9594505050505056fea2646970667358221220bf2bd9a66cff1d160ab082097be7fec066f6debbf69389bb2bacd2eae24e541e64736f6c63430008090033",
  "immutableReferences": {},
  "source": "// SPDX-License-Identifier: MIT\npragma solidity ^0.8.9;\n\nimport \"@openzeppelin/contracts/access/Ownable.sol\";\nimport \"@openzeppelin/contracts/utils/cryptography/ECDSA.sol\";\n\ncontract CommunityWallet is Ownable {\n  using ECDSA for bytes32;\n\n  event EthDeposited(uint256 amount);\n  event EthClaimed(string nonce, uint256 amount);\n\n  mapping(string => bool) private _usedNonces;\n\n  function deposit() public payable onlyOwner{\n      emit EthDeposited(msg.value);\n  }\n\n  function claim(uint256 _amount, string memory _nonce, bytes memory _signature) public {\n      address signer = recoverSigner(_amount, _nonce, _signature);\n      require(signer == owner(), \"Not authorized to claim\");\n      require(!_usedNonces[_nonce], \"Not authorized to claim\");\n\n      require(_amount > 0, \"There is no amount left to claim\");\n      require(payable(msg.sender).send(_amount));\n\n      _usedNonces[_nonce] = true;\n\n      emit EthClaimed(_nonce, _amount);\n  }\n\n  function recoverSigner(uint256 _amount, string memory nonce, bytes memory _signature) private pure returns (address){\n      return keccak256(abi.encodePacked(_amount, nonce)).toEthSignedMessageHash().recover(_signature);\n  }\n}",
  "sourcePath": "/home/doss/projects/voodollz/packages/contract/contracts/CommunityWallet.sol",
  "compiler": {
    "name": "solc",
    "version": "0.8.9+commit.e5eed63a.Emscripten.clang"
  },
  "schemaVersion": "3.4.3",
  "updatedAt": "2021-10-28T17:50:48.546Z",
  "networkType": "ethereum",
  "devdoc": {
    "kind": "dev",
    "methods": {
      "owner()": {
        "details": "Returns the address of the current owner."
      },
      "renounceOwnership()": {
        "details": "Leaves the contract without owner. It will not be possible to call `onlyOwner` functions anymore. Can only be called by the current owner. NOTE: Renouncing ownership will leave the contract without an owner, thereby removing any functionality that is only available to the owner."
      },
      "transferOwnership(address)": {
        "details": "Transfers ownership of the contract to a new account (`newOwner`). Can only be called by the current owner."
      }
    },
    "version": 1
  },
  "userdoc": {
    "kind": "user",
    "methods": {},
    "version": 1
  }
}