{
  "contractName": "CommunityWallet",
  "abi": [
    {
      "anonymous": false,
      "inputs": [
        {
          "indexed": false,
          "internalType": "string",
          "name": "nonce",
          "type": "string"
        },
        {
          "indexed": false,
          "internalType": "uint256",
          "name": "amount",
          "type": "uint256"
        }
      ],
      "name": "EthClaimed",
      "type": "event"
    },
    {
      "anonymous": false,
      "inputs": [
        {
          "indexed": false,
          "internalType": "uint256",
          "name": "amount",
          "type": "uint256"
        }
      ],
      "name": "EthDeposited",
      "type": "event"
    },
    {
      "anonymous": false,
      "inputs": [
        {
          "indexed": true,
          "internalType": "address",
          "name": "previousOwner",
          "type": "address"
        },
        {
          "indexed": true,
          "internalType": "address",
          "name": "newOwner",
          "type": "address"
        }
      ],
      "name": "OwnershipTransferred",
      "type": "event"
    },
    {
      "inputs": [],
      "name": "owner",
      "outputs": [
        {
          "internalType": "address",
          "name": "",
          "type": "address"
        }
      ],
      "stateMutability": "view",
      "type": "function",
      "constant": true
    },
    {
      "inputs": [],
      "name": "renounceOwnership",
      "outputs": [],
      "stateMutability": "nonpayable",
      "type": "function"
    },
    {
      "inputs": [
        {
          "internalType": "address",
          "name": "newOwner",
          "type": "address"
        }
      ],
      "name": "transferOwnership",
      "outputs": [],
      "stateMutability": "nonpayable",
      "type": "function"
    },
    {
      "inputs": [],
      "name": "deposit",
      "outputs": [],
      "stateMutability": "payable",
      "type": "function",
      "payable": true
    },
    {
      "inputs": [
        {
          "internalType": "uint256",
          "name": "_amount",
          "type": "uint256"
        },
        {
          "internalType": "string",
          "name": "_nonce",
          "type": "string"
        },
        {
          "internalType": "bytes",
          "name": "_signature",
          "type": "bytes"
        }
      ],
      "name": "claim",
      "outputs": [],
      "stateMutability": "nonpayable",
      "type": "function"
    }
  ],
  "bytecode": "0x608060405234801561001057600080fd5b5061002d61002261003260201b60201c565b61003a60201b60201c565b6100fe565b600033905090565b60008060009054906101000a900473ffffffffffffffffffffffffffffffffffffffff169050816000806101000a81548173ffffffffffffffffffffffffffffffffffffffff021916908373ffffffffffffffffffffffffffffffffffffffff1602179055508173ffffffffffffffffffffffffffffffffffffffff168173ffffffffffffffffffffffffffffffffffffffff167f8be0079c531659141344cd1fd0a4f28419497f9722a3daafe3b4186f6b6457e060405160405180910390a35050565b61140c8061010d6000396000f3fe60806040526004361061004a5760003560e01c8063715018a61461004f5780638da5cb5b14610066578063d0e30db014610091578063d2c34d3f1461009b578063f2fde38b146100c4575b600080fd5b34801561005b57600080fd5b506100646100ed565b005b34801561007257600080fd5b5061007b610175565b6040516100889190610a1a565b60405180910390f35b61009961019e565b005b3480156100a757600080fd5b506100c260048036038101906100bd9190610c66565b6101d7565b005b3480156100d057600080fd5b506100eb60048036038101906100e69190610d1d565b6103bd565b005b6100f56104b5565b73ffffffffffffffffffffffffffffffffffffffff16610113610175565b73ffffffffffffffffffffffffffffffffffffffff1614610169576040517f08c379a000000000000000000000000000000000000000000000000000000000815260040161016090610da7565b60405180910390fd5b61017360006104bd565b565b60008060009054906101000a900473ffffffffffffffffffffffffffffffffffffffff16905090565b7f44863bc9b335caf97ca3a3ab6fb67776965a88292ed53b0679f8eae4a67b630c346040516101cd9190610dd6565b60405180910390a1565b60006101e4848484610581565b90506101ee610175565b73ffffffffffffffffffffffffffffffffffffffff168173ffffffffffffffffffffffffffffffffffffffff161461025b576040517f08c379a000000000000000000000000000000000000000000000000000000000815260040161025290610e3d565b60405180910390fd5b60018360405161026b9190610ed7565b908152602001604051809103902060009054906101000a900460ff16156102c7576040517f08c379a00000000000000000000000000000000000000000000000000000000081526004016102be90610e3d565b60405180910390fd5b6000841161030a576040517f08c379a000000000000000000000000000000000000000000000000000000000815260040161030190610f3a565b60405180910390fd5b3373ffffffffffffffffffffffffffffffffffffffff166108fc859081150290604051600060405180830381858888f1935050505061034857600080fd5b600180846040516103599190610ed7565b908152602001604051809103902060006101000a81548160ff0219169083151502179055507fc75c366c54f3a0cb00da812673cc8c1eb79fe2afc56c2d476b7365db5abbeade83856040516103af929190610f93565b60405180910390a150505050565b6103c56104b5565b73ffffffffffffffffffffffffffffffffffffffff166103e3610175565b73ffffffffffffffffffffffffffffffffffffffff1614610439576040517f08c379a000000000000000000000000000000000000000000000000000000000815260040161043090610da7565b60405180910390fd5b600073ffffffffffffffffffffffffffffffffffffffff168173ffffffffffffffffffffffffffffffffffffffff1614156104a9576040517f08c379a00000000000000000000000000000000000000000000000000000000081526004016104a090611035565b60405180910390fd5b6104b2816104bd565b50565b600033905090565b60008060009054906101000a900473ffffffffffffffffffffffffffffffffffffffff169050816000806101000a81548173ffffffffffffffffffffffffffffffffffffffff021916908373ffffffffffffffffffffffffffffffffffffffff1602179055508173ffffffffffffffffffffffffffffffffffffffff168173ffffffffffffffffffffffffffffffffffffffff167f8be0079c531659141344cd1fd0a4f28419497f9722a3daafe3b4186f6b6457e060405160405180910390a35050565b60006105c6826105b8868660405160200161059d929190611076565b604051602081830303815290604052805190602001206105cf565b6105ff90919063ffffffff16565b90509392505050565b6000816040516020016105e29190611115565b604051602081830303815290604052805190602001209050919050565b600080600061060e8585610626565b9150915061061b816106a9565b819250505092915050565b6000806041835114156106685760008060006020860151925060408601519150606086015160001a905061065c8782858561087e565b945094505050506106a2565b60408351141561069957600080602085015191506040850151905061068e86838361098b565b9350935050506106a2565b60006002915091505b9250929050565b600060048111156106bd576106bc61113b565b5b8160048111156106d0576106cf61113b565b5b14156106db5761087b565b600160048111156106ef576106ee61113b565b5b8160048111156107025761070161113b565b5b1415610743576040517f08c379a000000000000000000000000000000000000000000000000000000000815260040161073a906111b6565b60405180910390fd5b600260048111156107575761075661113b565b5b81600481111561076a5761076961113b565b5b14156107ab576040517f08c379a00000000000000000000000000000000000000000000000000000000081526004016107a290611222565b60405180910390fd5b600360048111156107bf576107be61113b565b5b8160048111156107d2576107d161113b565b5b1415610813576040517f08c379a000000000000000000000000000000000000000000000000000000000815260040161080a906112b4565b60405180910390fd5b6004808111156108265761082561113b565b5b8160048111156108395761083861113b565b5b141561087a576040517f08c379a000000000000000000000000000000000000000000000000000000000815260040161087190611346565b60405180910390fd5b5b50565b6000807f7fffffffffffffffffffffffffffffff5d576e7357a4501ddfe92f46681b20a08360001c11156108b9576000600391509150610982565b601b8560ff16141580156108d15750601c8560ff1614155b156108e3576000600491509150610982565b6000600187878787604051600081526020016040526040516109089493929190611391565b6020604051602081039080840390855afa15801561092a573d6000803e3d6000fd5b505050602060405103519050600073ffffffffffffffffffffffffffffffffffffffff168173ffffffffffffffffffffffffffffffffffffffff16141561097957600060019250925050610982565b80600092509250505b94509492505050565b6000806000807f7fffffffffffffffffffffffffffffffffffffffffffffffffffffffffffffff85169150601b8560ff1c0190506109cb8782888561087e565b935093505050935093915050565b600073ffffffffffffffffffffffffffffffffffffffff82169050919050565b6000610a04826109d9565b9050919050565b610a14816109f9565b82525050565b6000602082019050610a2f6000830184610a0b565b92915050565b6000604051905090565b600080fd5b600080fd5b6000819050919050565b610a5c81610a49565b8114610a6757600080fd5b50565b600081359050610a7981610a53565b92915050565b600080fd5b600080fd5b6000601f19601f8301169050919050565b7f4e487b7100000000000000000000000000000000000000000000000000000000600052604160045260246000fd5b610ad282610a89565b810181811067ffffffffffffffff82111715610af157610af0610a9a565b5b80604052505050565b6000610b04610a35565b9050610b108282610ac9565b919050565b600067ffffffffffffffff821115610b3057610b2f610a9a565b5b610b3982610a89565b9050602081019050919050565b82818337600083830152505050565b6000610b68610b6384610b15565b610afa565b905082815260208101848484011115610b8457610b83610a84565b5b610b8f848285610b46565b509392505050565b600082601f830112610bac57610bab610a7f565b5b8135610bbc848260208601610b55565b91505092915050565b600067ffffffffffffffff821115610be057610bdf610a9a565b5b610be982610a89565b9050602081019050919050565b6000610c09610c0484610bc5565b610afa565b905082815260208101848484011115610c2557610c24610a84565b5b610c30848285610b46565b509392505050565b600082601f830112610c4d57610c4c610a7f565b5b8135610c5d848260208601610bf6565b91505092915050565b600080600060608486031215610c7f57610c7e610a3f565b5b6000610c8d86828701610a6a565b935050602084013567ffffffffffffffff811115610cae57610cad610a44565b5b610cba86828701610b97565b925050604084013567ffffffffffffffff811115610cdb57610cda610a44565b5b610ce786828701610c38565b9150509250925092565b610cfa816109f9565b8114610d0557600080fd5b50565b600081359050610d1781610cf1565b92915050565b600060208284031215610d3357610d32610a3f565b5b6000610d4184828501610d08565b91505092915050565b600082825260208201905092915050565b7f4f776e61626c653a2063616c6c6572206973206e6f7420746865206f776e6572600082015250565b6000610d91602083610d4a565b9150610d9c82610d5b565b602082019050919050565b60006020820190508181036000830152610dc081610d84565b9050919050565b610dd081610a49565b82525050565b6000602082019050610deb6000830184610dc7565b92915050565b7f4e6f7420617574686f72697a656420746f20636c61696d000000000000000000600082015250565b6000610e27601783610d4a565b9150610e3282610df1565b602082019050919050565b60006020820190508181036000830152610e5681610e1a565b9050919050565b600081519050919050565b600081905092915050565b60005b83811015610e91578082015181840152602081019050610e76565b83811115610ea0576000848401525b50505050565b6000610eb182610e5d565b610ebb8185610e68565b9350610ecb818560208601610e73565b80840191505092915050565b6000610ee38284610ea6565b915081905092915050565b7f5468657265206973206e6f20616d6f756e74206c65667420746f20636c61696d600082015250565b6000610f24602083610d4a565b9150610f2f82610eee565b602082019050919050565b60006020820190508181036000830152610f5381610f17565b9050919050565b6000610f6582610e5d565b610f6f8185610d4a565b9350610f7f818560208601610e73565b610f8881610a89565b840191505092915050565b60006040820190508181036000830152610fad8185610f5a565b9050610fbc6020830184610dc7565b9392505050565b7f4f776e61626c653a206e6577206f776e657220697320746865207a65726f206160008201527f6464726573730000000000000000000000000000000000000000000000000000602082015250565b600061101f602683610d4a565b915061102a82610fc3565b604082019050919050565b6000602082019050818103600083015261104e81611012565b9050919050565b6000819050919050565b61107061106b82610a49565b611055565b82525050565b6000611082828561105f565b6020820191506110928284610ea6565b91508190509392505050565b7f19457468657265756d205369676e6564204d6573736167653a0a333200000000600082015250565b60006110d4601c83610e68565b91506110df8261109e565b601c82019050919050565b6000819050919050565b6000819050919050565b61110f61110a826110ea565b6110f4565b82525050565b6000611120826110c7565b915061112c82846110fe565b60208201915081905092915050565b7f4e487b7100000000000000000000000000000000000000000000000000000000600052602160045260246000fd5b7f45434453413a20696e76616c6964207369676e61747572650000000000000000600082015250565b60006111a0601883610d4a565b91506111ab8261116a565b602082019050919050565b600060208201905081810360008301526111cf81611193565b9050919050565b7f45434453413a20696e76616c6964207369676e6174757265206c656e67746800600082015250565b600061120c601f83610d4a565b9150611217826111d6565b602082019050919050565b6000602082019050818103600083015261123b816111ff565b9050919050565b7f45434453413a20696e76616c6964207369676e6174757265202773272076616c60008201527f7565000000000000000000000000000000000000000000000000000000000000602082015250565b600061129e602283610d4a565b91506112a982611242565b604082019050919050565b600060208201905081810360008301526112cd81611291565b9050919050565b7f45434453413a20696e76616c6964207369676e6174757265202776272076616c60008201527f7565000000000000000000000000000000000000000000000000000000000000602082015250565b6000611330602283610d4a565b915061133b826112d4565b604082019050919050565b6000602082019050818103600083015261135f81611323565b9050919050565b61136f816110ea565b82525050565b600060ff82169050919050565b61138b81611375565b82525050565b60006080820190506113a66000830187611366565b6113b36020830186611382565b6113c06040830185611366565b6113cd6060830184611366565b9594505050505056fea26469706673582212208a2031eeca6a545e32c4b6cc2f520ee810cc4c3e33b4303a4a5afd1c0b9c6d8664736f6c63430008090033",
  "immutableReferences": {},
  "source": "// SPDX-License-Identifier: MIT\npragma solidity ^0.8.9;\n\nimport \"@openzeppelin/contracts/access/Ownable.sol\";\nimport \"@openzeppelin/contracts/utils/cryptography/ECDSA.sol\";\n\ncontract CommunityWallet is Ownable {\n  using ECDSA for bytes32;\n\n  event EthDeposited(uint256 amount);\n  event EthClaimed(string nonce, uint256 amount);\n\n  mapping(string => bool) private _usedNonces;\n\n  function deposit() public payable {\n      emit EthDeposited(msg.value);\n  }\n\n  function claim(uint256 _amount, string memory _nonce, bytes memory _signature) public {\n      address signer = recoverSigner(_amount, _nonce, _signature);\n      require(signer == owner(), \"Not authorized to claim\");\n      require(!_usedNonces[_nonce], \"Not authorized to claim\");\n\n      require(_amount > 0, \"There is no amount left to claim\");\n      require(payable(msg.sender).send(_amount));\n\n      _usedNonces[_nonce] = true;\n\n      emit EthClaimed(_nonce, _amount);\n  }\n\n  function recoverSigner(uint256 _amount, string memory _nonce, bytes memory _signature) private pure returns (address){\n      return keccak256(abi.encodePacked(_amount, _nonce)).toEthSignedMessageHash().recover(_signature);\n  }\n}",
  "sourcePath": "/home/doss/projects/voodollz/packages/contract/contracts/CommunityWallet.sol",
  "compiler": {
    "name": "solc",
    "version": "0.8.9+commit.e5eed63a.Emscripten.clang"
  },
  "schemaVersion": "3.4.3",
  "updatedAt": "2021-11-08T13:55:23.882Z",
  "networkType": "ethereum",
  "devdoc": {
    "kind": "dev",
    "methods": {
      "owner()": {
        "details": "Returns the address of the current owner."
      },
      "renounceOwnership()": {
        "details": "Leaves the contract without owner. It will not be possible to call `onlyOwner` functions anymore. Can only be called by the current owner. NOTE: Renouncing ownership will leave the contract without an owner, thereby removing any functionality that is only available to the owner."
      },
      "transferOwnership(address)": {
        "details": "Transfers ownership of the contract to a new account (`newOwner`). Can only be called by the current owner."
      }
    },
    "version": 1
  },
  "userdoc": {
    "kind": "user",
    "methods": {},
    "version": 1
  }
}