{
  "contractName": "Voodollz",
  "abi": [
    {
      "inputs": [
        {
          "internalType": "string",
          "name": "_baseTokenURI",
          "type": "string"
        }
      ],
      "stateMutability": "nonpayable",
      "type": "constructor"
    },
    {
      "anonymous": false,
      "inputs": [
        {
          "indexed": true,
          "internalType": "address",
          "name": "owner",
          "type": "address"
        },
        {
          "indexed": true,
          "internalType": "address",
          "name": "approved",
          "type": "address"
        },
        {
          "indexed": true,
          "internalType": "uint256",
          "name": "tokenId",
          "type": "uint256"
        }
      ],
      "name": "Approval",
      "type": "event"
    },
    {
      "anonymous": false,
      "inputs": [
        {
          "indexed": true,
          "internalType": "address",
          "name": "owner",
          "type": "address"
        },
        {
          "indexed": true,
          "internalType": "address",
          "name": "operator",
          "type": "address"
        },
        {
          "indexed": false,
          "internalType": "bool",
          "name": "approved",
          "type": "bool"
        }
      ],
      "name": "ApprovalForAll",
      "type": "event"
    },
    {
      "anonymous": false,
      "inputs": [
        {
          "indexed": true,
          "internalType": "address",
          "name": "previousOwner",
          "type": "address"
        },
        {
          "indexed": true,
          "internalType": "address",
          "name": "newOwner",
          "type": "address"
        }
      ],
      "name": "OwnershipTransferred",
      "type": "event"
    },
    {
      "anonymous": false,
      "inputs": [
        {
          "indexed": false,
          "internalType": "address",
          "name": "account",
          "type": "address"
        }
      ],
      "name": "Paused",
      "type": "event"
    },
    {
      "anonymous": false,
      "inputs": [
        {
          "indexed": false,
          "internalType": "address",
          "name": "account",
          "type": "address"
        }
      ],
      "name": "Presaled",
      "type": "event"
    },
    {
      "anonymous": false,
      "inputs": [
        {
          "indexed": true,
          "internalType": "address",
          "name": "from",
          "type": "address"
        },
        {
          "indexed": true,
          "internalType": "address",
          "name": "to",
          "type": "address"
        },
        {
          "indexed": true,
          "internalType": "uint256",
          "name": "tokenId",
          "type": "uint256"
        }
      ],
      "name": "Transfer",
      "type": "event"
    },
    {
      "anonymous": false,
      "inputs": [
        {
          "indexed": false,
          "internalType": "address",
          "name": "account",
          "type": "address"
        }
      ],
      "name": "Unpaused",
      "type": "event"
    },
    {
      "anonymous": false,
      "inputs": [
        {
          "indexed": false,
          "internalType": "address",
          "name": "account",
          "type": "address"
        }
      ],
      "name": "Unpresaled",
      "type": "event"
    },
    {
      "inputs": [],
      "name": "MAX_TOKEN_COUNT",
      "outputs": [
        {
          "internalType": "uint256",
          "name": "",
          "type": "uint256"
        }
      ],
      "stateMutability": "view",
      "type": "function",
      "constant": true
    },
    {
      "inputs": [],
      "name": "PRICE",
      "outputs": [
        {
          "internalType": "uint256",
          "name": "",
          "type": "uint256"
        }
      ],
      "stateMutability": "view",
      "type": "function",
      "constant": true
    },
    {
      "inputs": [
        {
          "internalType": "address",
          "name": "to",
          "type": "address"
        },
        {
          "internalType": "uint256",
          "name": "tokenId",
          "type": "uint256"
        }
      ],
      "name": "approve",
      "outputs": [],
      "stateMutability": "nonpayable",
      "type": "function"
    },
    {
      "inputs": [
        {
          "internalType": "address",
          "name": "owner",
          "type": "address"
        }
      ],
      "name": "balanceOf",
      "outputs": [
        {
          "internalType": "uint256",
          "name": "",
          "type": "uint256"
        }
      ],
      "stateMutability": "view",
      "type": "function",
      "constant": true
    },
    {
      "inputs": [],
      "name": "baseTokenURI",
      "outputs": [
        {
          "internalType": "string",
          "name": "",
          "type": "string"
        }
      ],
      "stateMutability": "view",
      "type": "function",
      "constant": true
    },
    {
      "inputs": [
        {
          "internalType": "uint256",
          "name": "tokenId",
          "type": "uint256"
        }
      ],
      "name": "getApproved",
      "outputs": [
        {
          "internalType": "address",
          "name": "",
          "type": "address"
        }
      ],
      "stateMutability": "view",
      "type": "function",
      "constant": true
    },
    {
      "inputs": [
        {
          "internalType": "address",
          "name": "owner",
          "type": "address"
        },
        {
          "internalType": "address",
          "name": "operator",
          "type": "address"
        }
      ],
      "name": "isApprovedForAll",
      "outputs": [
        {
          "internalType": "bool",
          "name": "",
          "type": "bool"
        }
      ],
      "stateMutability": "view",
      "type": "function",
      "constant": true
    },
    {
      "inputs": [],
      "name": "name",
      "outputs": [
        {
          "internalType": "string",
          "name": "",
          "type": "string"
        }
      ],
      "stateMutability": "view",
      "type": "function",
      "constant": true
    },
    {
      "inputs": [],
      "name": "owner",
      "outputs": [
        {
          "internalType": "address",
          "name": "",
          "type": "address"
        }
      ],
      "stateMutability": "view",
      "type": "function",
      "constant": true
    },
    {
      "inputs": [
        {
          "internalType": "uint256",
          "name": "tokenId",
          "type": "uint256"
        }
      ],
      "name": "ownerOf",
      "outputs": [
        {
          "internalType": "address",
          "name": "",
          "type": "address"
        }
      ],
      "stateMutability": "view",
      "type": "function",
      "constant": true
    },
    {
      "inputs": [],
      "name": "paused",
      "outputs": [
        {
          "internalType": "bool",
          "name": "",
          "type": "bool"
        }
      ],
      "stateMutability": "view",
      "type": "function",
      "constant": true
    },
    {
      "inputs": [],
      "name": "presaled",
      "outputs": [
        {
          "internalType": "bool",
          "name": "",
          "type": "bool"
        }
      ],
      "stateMutability": "view",
      "type": "function",
      "constant": true
    },
    {
      "inputs": [],
      "name": "renounceOwnership",
      "outputs": [],
      "stateMutability": "nonpayable",
      "type": "function"
    },
    {
      "inputs": [
        {
          "internalType": "address",
          "name": "from",
          "type": "address"
        },
        {
          "internalType": "address",
          "name": "to",
          "type": "address"
        },
        {
          "internalType": "uint256",
          "name": "tokenId",
          "type": "uint256"
        }
      ],
      "name": "safeTransferFrom",
      "outputs": [],
      "stateMutability": "nonpayable",
      "type": "function"
    },
    {
      "inputs": [
        {
          "internalType": "address",
          "name": "from",
          "type": "address"
        },
        {
          "internalType": "address",
          "name": "to",
          "type": "address"
        },
        {
          "internalType": "uint256",
          "name": "tokenId",
          "type": "uint256"
        },
        {
          "internalType": "bytes",
          "name": "_data",
          "type": "bytes"
        }
      ],
      "name": "safeTransferFrom",
      "outputs": [],
      "stateMutability": "nonpayable",
      "type": "function"
    },
    {
      "inputs": [
        {
          "internalType": "address",
          "name": "operator",
          "type": "address"
        },
        {
          "internalType": "bool",
          "name": "approved",
          "type": "bool"
        }
      ],
      "name": "setApprovalForAll",
      "outputs": [],
      "stateMutability": "nonpayable",
      "type": "function"
    },
    {
      "inputs": [
        {
          "internalType": "bytes4",
          "name": "interfaceId",
          "type": "bytes4"
        }
      ],
      "name": "supportsInterface",
      "outputs": [
        {
          "internalType": "bool",
          "name": "",
          "type": "bool"
        }
      ],
      "stateMutability": "view",
      "type": "function",
      "constant": true
    },
    {
      "inputs": [],
      "name": "symbol",
      "outputs": [
        {
          "internalType": "string",
          "name": "",
          "type": "string"
        }
      ],
      "stateMutability": "view",
      "type": "function",
      "constant": true
    },
    {
      "inputs": [
        {
          "internalType": "uint256",
          "name": "index",
          "type": "uint256"
        }
      ],
      "name": "tokenByIndex",
      "outputs": [
        {
          "internalType": "uint256",
          "name": "",
          "type": "uint256"
        }
      ],
      "stateMutability": "view",
      "type": "function",
      "constant": true
    },
    {
      "inputs": [
        {
          "internalType": "address",
          "name": "owner",
          "type": "address"
        },
        {
          "internalType": "uint256",
          "name": "index",
          "type": "uint256"
        }
      ],
      "name": "tokenOfOwnerByIndex",
      "outputs": [
        {
          "internalType": "uint256",
          "name": "",
          "type": "uint256"
        }
      ],
      "stateMutability": "view",
      "type": "function",
      "constant": true
    },
    {
      "inputs": [
        {
          "internalType": "uint256",
          "name": "tokenId",
          "type": "uint256"
        }
      ],
      "name": "tokenURI",
      "outputs": [
        {
          "internalType": "string",
          "name": "",
          "type": "string"
        }
      ],
      "stateMutability": "view",
      "type": "function",
      "constant": true
    },
    {
      "inputs": [],
      "name": "totalSupply",
      "outputs": [
        {
          "internalType": "uint256",
          "name": "",
          "type": "uint256"
        }
      ],
      "stateMutability": "view",
      "type": "function",
      "constant": true
    },
    {
      "inputs": [
        {
          "internalType": "address",
          "name": "from",
          "type": "address"
        },
        {
          "internalType": "address",
          "name": "to",
          "type": "address"
        },
        {
          "internalType": "uint256",
          "name": "tokenId",
          "type": "uint256"
        }
      ],
      "name": "transferFrom",
      "outputs": [],
      "stateMutability": "nonpayable",
      "type": "function"
    },
    {
      "inputs": [
        {
          "internalType": "address",
          "name": "newOwner",
          "type": "address"
        }
      ],
      "name": "transferOwnership",
      "outputs": [],
      "stateMutability": "nonpayable",
      "type": "function"
    },
    {
      "inputs": [
        {
          "internalType": "uint256",
          "name": "_amount",
          "type": "uint256"
        }
      ],
      "name": "mint",
      "outputs": [],
      "stateMutability": "payable",
      "type": "function",
      "payable": true
    },
    {
      "inputs": [
        {
          "internalType": "uint256",
          "name": "_amount",
          "type": "uint256"
        },
        {
          "internalType": "bytes",
          "name": "_signature",
          "type": "bytes"
        }
      ],
      "name": "presaleMint",
      "outputs": [],
      "stateMutability": "payable",
      "type": "function",
      "payable": true
    },
    {
      "inputs": [
        {
          "internalType": "address",
          "name": "_to",
          "type": "address"
        }
      ],
      "name": "giveAway",
      "outputs": [],
      "stateMutability": "nonpayable",
      "type": "function"
    },
    {
      "inputs": [
        {
          "internalType": "uint256",
          "name": "tokenId",
          "type": "uint256"
        }
      ],
      "name": "burn",
      "outputs": [],
      "stateMutability": "nonpayable",
      "type": "function"
    },
    {
      "inputs": [
        {
          "internalType": "address",
          "name": "_owner",
          "type": "address"
        }
      ],
      "name": "tokensOfOwner",
      "outputs": [
        {
          "internalType": "uint256[]",
          "name": "",
          "type": "uint256[]"
        }
      ],
      "stateMutability": "view",
      "type": "function",
      "constant": true
    },
    {
      "inputs": [
        {
          "internalType": "string",
          "name": "_baseTokenURI",
          "type": "string"
        }
      ],
      "name": "setBaseURI",
      "outputs": [],
      "stateMutability": "nonpayable",
      "type": "function"
    },
    {
      "inputs": [],
      "name": "pause",
      "outputs": [],
      "stateMutability": "nonpayable",
      "type": "function"
    },
    {
      "inputs": [],
      "name": "unpause",
      "outputs": [],
      "stateMutability": "nonpayable",
      "type": "function"
    },
    {
      "inputs": [],
      "name": "presale",
      "outputs": [],
      "stateMutability": "nonpayable",
      "type": "function"
    },
    {
      "inputs": [],
      "name": "unpresale",
      "outputs": [],
      "stateMutability": "nonpayable",
      "type": "function"
    }
  ],
  "bytecode": "0x60806040526096600b553480156200001657600080fd5b5060405162005bae38038062005bae83398181016040528101906200003c919062000688565b6040518060400160405280600881526020017f566f6f646f6c6c7a0000000000000000000000000000000000000000000000008152506040518060400160405280600881526020017f566f6f646f6c6c7a0000000000000000000000000000000000000000000000008152508160009080519060200190620000c09291906200043b565b508060019080519060200190620000d99291906200043b565b505050620000fc620000f06200013f60201b60201c565b6200014760201b60201c565b6000600a60146101000a81548160ff02191690831515021790555062000128816200020d60201b60201c565b62000138620002b860201b60201c565b5062000895565b600033905090565b6000600a60009054906101000a900473ffffffffffffffffffffffffffffffffffffffff16905081600a60006101000a81548173ffffffffffffffffffffffffffffffffffffffff021916908373ffffffffffffffffffffffffffffffffffffffff1602179055508173ffffffffffffffffffffffffffffffffffffffff168173ffffffffffffffffffffffffffffffffffffffff167f8be0079c531659141344cd1fd0a4f28419497f9722a3daafe3b4186f6b6457e060405160405180910390a35050565b6200021d6200013f60201b60201c565b73ffffffffffffffffffffffffffffffffffffffff16620002436200035960201b60201c565b73ffffffffffffffffffffffffffffffffffffffff16146200029c576040517f08c379a000000000000000000000000000000000000000000000000000000000815260040162000293906200073a565b60405180910390fd5b80600c9080519060200190620002b49291906200043b565b5050565b620002c86200013f60201b60201c565b73ffffffffffffffffffffffffffffffffffffffff16620002ee6200035960201b60201c565b73ffffffffffffffffffffffffffffffffffffffff161462000347576040517f08c379a00000000000000000000000000000000000000000000000000000000081526004016200033e906200073a565b60405180910390fd5b620003576200038360201b60201c565b565b6000600a60009054906101000a900473ffffffffffffffffffffffffffffffffffffffff16905090565b600a60159054906101000a900460ff1615620003d6576040517f08c379a0000000000000000000000000000000000000000000000000000000008152600401620003cd90620007ac565b60405180910390fd5b6001600a60156101000a81548160ff0219169083151502179055507fb1412a7cd96bc4195d633c938189c320dcbeb2cff60c1b8bdd872678fb3514b4620004226200013f60201b60201c565b60405162000431919062000813565b60405180910390a1565b82805462000449906200085f565b90600052602060002090601f0160209004810192826200046d5760008555620004b9565b82601f106200048857805160ff1916838001178555620004b9565b82800160010185558215620004b9579182015b82811115620004b85782518255916020019190600101906200049b565b5b509050620004c89190620004cc565b5090565b5b80821115620004e7576000816000905550600101620004cd565b5090565b6000604051905090565b600080fd5b600080fd5b600080fd5b600080fd5b6000601f19601f8301169050919050565b7f4e487b7100000000000000000000000000000000000000000000000000000000600052604160045260246000fd5b620005548262000509565b810181811067ffffffffffffffff821117156200057657620005756200051a565b5b80604052505050565b60006200058b620004eb565b905062000599828262000549565b919050565b600067ffffffffffffffff821115620005bc57620005bb6200051a565b5b620005c78262000509565b9050602081019050919050565b60005b83811015620005f4578082015181840152602081019050620005d7565b8381111562000604576000848401525b50505050565b6000620006216200061b846200059e565b6200057f565b90508281526020810184848401111562000640576200063f62000504565b5b6200064d848285620005d4565b509392505050565b600082601f8301126200066d576200066c620004ff565b5b81516200067f8482602086016200060a565b91505092915050565b600060208284031215620006a157620006a0620004f5565b5b600082015167ffffffffffffffff811115620006c257620006c1620004fa565b5b620006d08482850162000655565b91505092915050565b600082825260208201905092915050565b7f4f776e61626c653a2063616c6c6572206973206e6f7420746865206f776e6572600082015250565b600062000722602083620006d9565b91506200072f82620006ea565b602082019050919050565b60006020820190508181036000830152620007558162000713565b9050919050565b7f50726573616c6520636c6f736564000000000000000000000000000000000000600082015250565b600062000794600e83620006d9565b9150620007a1826200075c565b602082019050919050565b60006020820190508181036000830152620007c78162000785565b9050919050565b600073ffffffffffffffffffffffffffffffffffffffff82169050919050565b6000620007fb82620007ce565b9050919050565b6200080d81620007ee565b82525050565b60006020820190506200082a600083018462000802565b92915050565b7f4e487b7100000000000000000000000000000000000000000000000000000000600052602260045260246000fd5b600060028204905060018216806200087857607f821691505b602082108114156200088f576200088e62000830565b5b50919050565b61530980620008a56000396000f3fe6080604052600436106101f95760003560e01c80638456cb591161010d578063a22cb465116100a0578063d547cfb71161006f578063d547cfb7146106fe578063e985e9c514610729578063f2fde38b14610766578063fd24a8541461078f578063fdea8e0b146107ab576101f9565b8063a22cb46514610644578063b88d4fde1461066d578063c87b56dd14610696578063d0bbb0d7146106d3576101f9565b80638da5cb5b116100dc5780638da5cb5b146105a957806395d89b41146105d45780639e240785146105ff578063a0712d6814610628576101f9565b80638456cb59146105135780638462151c1461052a57806385493853146105675780638d859f3e1461057e576101f9565b806342842e0e1161019057806355f804b31161015f57806355f804b31461042e5780635c975abb146104575780636352211e1461048257806370a08231146104bf578063715018a6146104fc576101f9565b806342842e0e1461037457806342966c681461039d5780634cb2f9ea146103c65780634f6ccce7146103f1576101f9565b806318160ddd116101cc57806318160ddd146102cc57806323b872dd146102f75780632f745c59146103205780633f4ba83a1461035d576101f9565b806301ffc9a7146101fe57806306fdde031461023b578063081812fc14610266578063095ea7b3146102a3575b600080fd5b34801561020a57600080fd5b50610225600480360381019061022091906135c2565b6107c2565b604051610232919061360a565b60405180910390f35b34801561024757600080fd5b5061025061083c565b60405161025d91906136be565b60405180910390f35b34801561027257600080fd5b5061028d60048036038101906102889190613716565b6108ce565b60405161029a9190613784565b60405180910390f35b3480156102af57600080fd5b506102ca60048036038101906102c591906137cb565b610953565b005b3480156102d857600080fd5b506102e1610a6b565b6040516102ee919061381a565b60405180910390f35b34801561030357600080fd5b5061031e60048036038101906103199190613835565b610a78565b005b34801561032c57600080fd5b50610347600480360381019061034291906137cb565b610ad8565b604051610354919061381a565b60405180910390f35b34801561036957600080fd5b50610372610b7d565b005b34801561038057600080fd5b5061039b60048036038101906103969190613835565b610c03565b005b3480156103a957600080fd5b506103c460048036038101906103bf9190613716565b610c23565b005b3480156103d257600080fd5b506103db610c78565b6040516103e8919061360a565b60405180910390f35b3480156103fd57600080fd5b5061041860048036038101906104139190613716565b610c8f565b604051610425919061381a565b60405180910390f35b34801561043a57600080fd5b50610455600480360381019061045091906139bd565b610d00565b005b34801561046357600080fd5b5061046c610d96565b604051610479919061360a565b60405180910390f35b34801561048e57600080fd5b506104a960048036038101906104a49190613716565b610dad565b6040516104b69190613784565b60405180910390f35b3480156104cb57600080fd5b506104e660048036038101906104e19190613a06565b610e5f565b6040516104f3919061381a565b60405180910390f35b34801561050857600080fd5b50610511610f17565b005b34801561051f57600080fd5b50610528610f9f565b005b34801561053657600080fd5b50610551600480360381019061054c9190613a06565b611025565b60405161055e9190613af1565b60405180910390f35b34801561057357600080fd5b5061057c6110d3565b005b34801561058a57600080fd5b50610593611159565b6040516105a0919061381a565b60405180910390f35b3480156105b557600080fd5b506105be611164565b6040516105cb9190613784565b60405180910390f35b3480156105e057600080fd5b506105e961118e565b6040516105f691906136be565b60405180910390f35b34801561060b57600080fd5b5061062660048036038101906106219190613a06565b611220565b005b610642600480360381019061063d9190613716565b6113b5565b005b34801561065057600080fd5b5061066b60048036038101906106669190613b3f565b611411565b005b34801561067957600080fd5b50610694600480360381019061068f9190613c20565b611592565b005b3480156106a257600080fd5b506106bd60048036038101906106b89190613716565b6115f4565b6040516106ca91906136be565b60405180910390f35b3480156106df57600080fd5b506106e861169b565b6040516106f5919061381a565b60405180910390f35b34801561070a57600080fd5b506107136116a1565b60405161072091906136be565b60405180910390f35b34801561073557600080fd5b50610750600480360381019061074b9190613ca3565b61172f565b60405161075d919061360a565b60405180910390f35b34801561077257600080fd5b5061078d60048036038101906107889190613a06565b6117c3565b005b6107a960048036038101906107a49190613ce3565b6118bb565b005b3480156107b757600080fd5b506107c061199b565b005b60007f780e9d63000000000000000000000000000000000000000000000000000000007bffffffffffffffffffffffffffffffffffffffffffffffffffffffff1916827bffffffffffffffffffffffffffffffffffffffffffffffffffffffff19161480610835575061083482611a21565b5b9050919050565b60606000805461084b90613d6e565b80601f016020809104026020016040519081016040528092919081815260200182805461087790613d6e565b80156108c45780601f10610899576101008083540402835291602001916108c4565b820191906000526020600020905b8154815290600101906020018083116108a757829003601f168201915b5050505050905090565b60006108d982611b03565b610918576040517f08c379a000000000000000000000000000000000000000000000000000000000815260040161090f90613e12565b60405180910390fd5b6004600083815260200190815260200160002060009054906101000a900473ffffffffffffffffffffffffffffffffffffffff169050919050565b600061095e82610dad565b90508073ffffffffffffffffffffffffffffffffffffffff168373ffffffffffffffffffffffffffffffffffffffff1614156109cf576040517f08c379a00000000000000000000000000000000000000000000000000000000081526004016109c690613ea4565b60405180910390fd5b8073ffffffffffffffffffffffffffffffffffffffff166109ee611b6f565b73ffffffffffffffffffffffffffffffffffffffff161480610a1d5750610a1c81610a17611b6f565b61172f565b5b610a5c576040517f08c379a0000000000000000000000000000000000000000000000000000000008152600401610a5390613f36565b60405180910390fd5b610a668383611b77565b505050565b6000600880549050905090565b610a89610a83611b6f565b82611c30565b610ac8576040517f08c379a0000000000000000000000000000000000000000000000000000000008152600401610abf90613fc8565b60405180910390fd5b610ad3838383611d0e565b505050565b6000610ae383610e5f565b8210610b24576040517f08c379a0000000000000000000000000000000000000000000000000000000008152600401610b1b9061405a565b60405180910390fd5b600660008473ffffffffffffffffffffffffffffffffffffffff1673ffffffffffffffffffffffffffffffffffffffff168152602001908152602001600020600083815260200190815260200160002054905092915050565b610b85611b6f565b73ffffffffffffffffffffffffffffffffffffffff16610ba3611164565b73ffffffffffffffffffffffffffffffffffffffff1614610bf9576040517f08c379a0000000000000000000000000000000000000000000000000000000008152600401610bf0906140c6565b60405180910390fd5b610c01611f6a565b565b610c1e83838360405180602001604052806000815250611592565b505050565b610c2d3382611c30565b610c6c576040517f08c379a0000000000000000000000000000000000000000000000000000000008152600401610c6390614132565b60405180910390fd5b610c758161200c565b50565b6000600a60159054906101000a900460ff16905090565b6000610c99610a6b565b8210610cda576040517f08c379a0000000000000000000000000000000000000000000000000000000008152600401610cd1906141c4565b60405180910390fd5b60088281548110610cee57610ced6141e4565b5b90600052602060002001549050919050565b610d08611b6f565b73ffffffffffffffffffffffffffffffffffffffff16610d26611164565b73ffffffffffffffffffffffffffffffffffffffff1614610d7c576040517f08c379a0000000000000000000000000000000000000000000000000000000008152600401610d73906140c6565b60405180910390fd5b80600c9080519060200190610d929291906134b3565b5050565b6000600a60149054906101000a900460ff16905090565b6000806002600084815260200190815260200160002060009054906101000a900473ffffffffffffffffffffffffffffffffffffffff169050600073ffffffffffffffffffffffffffffffffffffffff168173ffffffffffffffffffffffffffffffffffffffff161415610e56576040517f08c379a0000000000000000000000000000000000000000000000000000000008152600401610e4d90614285565b60405180910390fd5b80915050919050565b60008073ffffffffffffffffffffffffffffffffffffffff168273ffffffffffffffffffffffffffffffffffffffff161415610ed0576040517f08c379a0000000000000000000000000000000000000000000000000000000008152600401610ec790614317565b60405180910390fd5b600360008373ffffffffffffffffffffffffffffffffffffffff1673ffffffffffffffffffffffffffffffffffffffff168152602001908152602001600020549050919050565b610f1f611b6f565b73ffffffffffffffffffffffffffffffffffffffff16610f3d611164565b73ffffffffffffffffffffffffffffffffffffffff1614610f93576040517f08c379a0000000000000000000000000000000000000000000000000000000008152600401610f8a906140c6565b60405180910390fd5b610f9d600061211d565b565b610fa7611b6f565b73ffffffffffffffffffffffffffffffffffffffff16610fc5611164565b73ffffffffffffffffffffffffffffffffffffffff161461101b576040517f08c379a0000000000000000000000000000000000000000000000000000000008152600401611012906140c6565b60405180910390fd5b6110236121e3565b565b6060600061103283610e5f565b905060008167ffffffffffffffff8111156110505761104f613892565b5b60405190808252806020026020018201604052801561107e5781602001602082028036833780820191505090505b50905060005b828110156110c8576110968582610ad8565b8282815181106110a9576110a86141e4565b5b60200260200101818152505080806110c090614366565b915050611084565b508092505050919050565b6110db611b6f565b73ffffffffffffffffffffffffffffffffffffffff166110f9611164565b73ffffffffffffffffffffffffffffffffffffffff161461114f576040517f08c379a0000000000000000000000000000000000000000000000000000000008152600401611146906140c6565b60405180910390fd5b611157612286565b565b66b1a2bc2ec5000081565b6000600a60009054906101000a900473ffffffffffffffffffffffffffffffffffffffff16905090565b60606001805461119d90613d6e565b80601f01602080910402602001604051908101604052809291908181526020018280546111c990613d6e565b80156112165780601f106111eb57610100808354040283529160200191611216565b820191906000526020600020905b8154815290600101906020018083116111f957829003601f168201915b5050505050905090565b611228611b6f565b73ffffffffffffffffffffffffffffffffffffffff16611246611164565b73ffffffffffffffffffffffffffffffffffffffff161461129c576040517f08c379a0000000000000000000000000000000000000000000000000000000008152600401611293906140c6565b60405180910390fd5b6112a4610d96565b156112e4576040517f08c379a00000000000000000000000000000000000000000000000000000000081526004016112db906143fb565b60405180910390fd5b6127106112ef610a6b565b1061132f576040517f08c379a000000000000000000000000000000000000000000000000000000000815260040161132690614467565b60405180910390fd5b6000600b5411611374576040517f08c379a000000000000000000000000000000000000000000000000000000000815260040161136b906144d3565b60405180910390fd5b611398816001600b54609661138991906144f3565b6113939190614527565b612330565b6001600b60008282546113ab91906144f3565b9250508190555050565b600a60159054906101000a900460ff1615611405576040517f08c379a00000000000000000000000000000000000000000000000000000000081526004016113fc906145c9565b60405180910390fd5b61140e8161234e565b50565b611419611b6f565b73ffffffffffffffffffffffffffffffffffffffff168273ffffffffffffffffffffffffffffffffffffffff161415611487576040517f08c379a000000000000000000000000000000000000000000000000000000000815260040161147e90614635565b60405180910390fd5b8060056000611494611b6f565b73ffffffffffffffffffffffffffffffffffffffff1673ffffffffffffffffffffffffffffffffffffffff16815260200190815260200160002060008473ffffffffffffffffffffffffffffffffffffffff1673ffffffffffffffffffffffffffffffffffffffff16815260200190815260200160002060006101000a81548160ff0219169083151502179055508173ffffffffffffffffffffffffffffffffffffffff16611541611b6f565b73ffffffffffffffffffffffffffffffffffffffff167f17307eab39ab6107e8899845ad3d59bd9653f200f220920489ca2b5937696c3183604051611586919061360a565b60405180910390a35050565b6115a361159d611b6f565b83611c30565b6115e2576040517f08c379a00000000000000000000000000000000000000000000000000000000081526004016115d990613fc8565b60405180910390fd5b6115ee84848484612508565b50505050565b60606115ff82611b03565b61163e576040517f08c379a0000000000000000000000000000000000000000000000000000000008152600401611635906146c7565b60405180910390fd5b6000611648612564565b905060008151116116685760405180602001604052806000815250611693565b80611672846125f6565b604051602001611683929190614723565b6040516020818303038152906040525b915050919050565b61271081565b600c80546116ae90613d6e565b80601f01602080910402602001604051908101604052809291908181526020018280546116da90613d6e565b80156117275780601f106116fc57610100808354040283529160200191611727565b820191906000526020600020905b81548152906001019060200180831161170a57829003601f168201915b505050505081565b6000600560008473ffffffffffffffffffffffffffffffffffffffff1673ffffffffffffffffffffffffffffffffffffffff16815260200190815260200160002060008373ffffffffffffffffffffffffffffffffffffffff1673ffffffffffffffffffffffffffffffffffffffff16815260200190815260200160002060009054906101000a900460ff16905092915050565b6117cb611b6f565b73ffffffffffffffffffffffffffffffffffffffff166117e9611164565b73ffffffffffffffffffffffffffffffffffffffff161461183f576040517f08c379a0000000000000000000000000000000000000000000000000000000008152600401611836906140c6565b60405180910390fd5b600073ffffffffffffffffffffffffffffffffffffffff168173ffffffffffffffffffffffffffffffffffffffff1614156118af576040517f08c379a00000000000000000000000000000000000000000000000000000000081526004016118a6906147b9565b60405180910390fd5b6118b88161211d565b50565b600a60159054906101000a900460ff1661190a576040517f08c379a000000000000000000000000000000000000000000000000000000000815260040161190190614825565b60405180910390fd5b60006119163383612757565b9050611920611164565b73ffffffffffffffffffffffffffffffffffffffff168173ffffffffffffffffffffffffffffffffffffffff161461198d576040517f08c379a000000000000000000000000000000000000000000000000000000000815260040161198490614891565b60405180910390fd5b6119968361234e565b505050565b6119a3611b6f565b73ffffffffffffffffffffffffffffffffffffffff166119c1611164565b73ffffffffffffffffffffffffffffffffffffffff1614611a17576040517f08c379a0000000000000000000000000000000000000000000000000000000008152600401611a0e906140c6565b60405180910390fd5b611a1f6127a2565b565b60007f80ac58cd000000000000000000000000000000000000000000000000000000007bffffffffffffffffffffffffffffffffffffffffffffffffffffffff1916827bffffffffffffffffffffffffffffffffffffffffffffffffffffffff19161480611aec57507f5b5e139f000000000000000000000000000000000000000000000000000000007bffffffffffffffffffffffffffffffffffffffffffffffffffffffff1916827bffffffffffffffffffffffffffffffffffffffffffffffffffffffff1916145b80611afc5750611afb8261284d565b5b9050919050565b60008073ffffffffffffffffffffffffffffffffffffffff166002600084815260200190815260200160002060009054906101000a900473ffffffffffffffffffffffffffffffffffffffff1673ffffffffffffffffffffffffffffffffffffffff1614159050919050565b600033905090565b816004600083815260200190815260200160002060006101000a81548173ffffffffffffffffffffffffffffffffffffffff021916908373ffffffffffffffffffffffffffffffffffffffff160217905550808273ffffffffffffffffffffffffffffffffffffffff16611bea83610dad565b73ffffffffffffffffffffffffffffffffffffffff167f8c5be1e5ebec7d5bd14f71427d1e84f3dd0314c0f7b2291e5b200ac8c7c3b92560405160405180910390a45050565b6000611c3b82611b03565b611c7a576040517f08c379a0000000000000000000000000000000000000000000000000000000008152600401611c7190614923565b60405180910390fd5b6000611c8583610dad565b90508073ffffffffffffffffffffffffffffffffffffffff168473ffffffffffffffffffffffffffffffffffffffff161480611cf457508373ffffffffffffffffffffffffffffffffffffffff16611cdc846108ce565b73ffffffffffffffffffffffffffffffffffffffff16145b80611d055750611d04818561172f565b5b91505092915050565b8273ffffffffffffffffffffffffffffffffffffffff16611d2e82610dad565b73ffffffffffffffffffffffffffffffffffffffff1614611d84576040517f08c379a0000000000000000000000000000000000000000000000000000000008152600401611d7b906149b5565b60405180910390fd5b600073ffffffffffffffffffffffffffffffffffffffff168273ffffffffffffffffffffffffffffffffffffffff161415611df4576040517f08c379a0000000000000000000000000000000000000000000000000000000008152600401611deb90614a47565b60405180910390fd5b611dff8383836128b7565b611e0a600082611b77565b6001600360008573ffffffffffffffffffffffffffffffffffffffff1673ffffffffffffffffffffffffffffffffffffffff1681526020019081526020016000206000828254611e5a91906144f3565b925050819055506001600360008473ffffffffffffffffffffffffffffffffffffffff1673ffffffffffffffffffffffffffffffffffffffff1681526020019081526020016000206000828254611eb19190614527565b92505081905550816002600083815260200190815260200160002060006101000a81548173ffffffffffffffffffffffffffffffffffffffff021916908373ffffffffffffffffffffffffffffffffffffffff160217905550808273ffffffffffffffffffffffffffffffffffffffff168473ffffffffffffffffffffffffffffffffffffffff167fddf252ad1be2c89b69c2b068fc378daa952ba7f163c4a11628f55a4df523b3ef60405160405180910390a4505050565b611f72610d96565b611fb1576040517f08c379a0000000000000000000000000000000000000000000000000000000008152600401611fa890614ab3565b60405180910390fd5b6000600a60146101000a81548160ff0219169083151502179055507f5db9ee0a495bf2e6ff9c91a7834c1ba4fdd244a5e8aa4e537bd38aeae4b073aa611ff5611b6f565b6040516120029190613784565b60405180910390a1565b600061201782610dad565b9050612025816000846128b7565b612030600083611b77565b6001600360008373ffffffffffffffffffffffffffffffffffffffff1673ffffffffffffffffffffffffffffffffffffffff168152602001908152602001600020600082825461208091906144f3565b925050819055506002600083815260200190815260200160002060006101000a81549073ffffffffffffffffffffffffffffffffffffffff021916905581600073ffffffffffffffffffffffffffffffffffffffff168273ffffffffffffffffffffffffffffffffffffffff167fddf252ad1be2c89b69c2b068fc378daa952ba7f163c4a11628f55a4df523b3ef60405160405180910390a45050565b6000600a60009054906101000a900473ffffffffffffffffffffffffffffffffffffffff16905081600a60006101000a81548173ffffffffffffffffffffffffffffffffffffffff021916908373ffffffffffffffffffffffffffffffffffffffff1602179055508173ffffffffffffffffffffffffffffffffffffffff168173ffffffffffffffffffffffffffffffffffffffff167f8be0079c531659141344cd1fd0a4f28419497f9722a3daafe3b4186f6b6457e060405160405180910390a35050565b6121eb610d96565b1561222b576040517f08c379a0000000000000000000000000000000000000000000000000000000008152600401612222906143fb565b60405180910390fd5b6001600a60146101000a81548160ff0219169083151502179055507f62e78cea01bee320cd4e420270b5ea74000d11b0c9f74754ebdbfc544b05a25861226f611b6f565b60405161227c9190613784565b60405180910390a1565b600a60159054906101000a900460ff166122d5576040517f08c379a00000000000000000000000000000000000000000000000000000000081526004016122cc90614825565b60405180910390fd5b6000600a60156101000a81548160ff0219169083151502179055507f9e209206b95275a497262e47a30901f0716b2d6d19618dd5e9b7b68237e7cb71612319611b6f565b6040516123269190613784565b60405180910390a1565b61234a8282604051806020016040528060008152506129cb565b5050565b612356610d96565b15612396576040517f08c379a000000000000000000000000000000000000000000000000000000000815260040161238d906143fb565b60405180910390fd5b6005816123a233610e5f565b6123ac9190614527565b11156123ed576040517f08c379a00000000000000000000000000000000000000000000000000000000081526004016123e490614b45565b60405180910390fd5b60966127106123fc91906144f3565b81612405610a6b565b61240f9190614527565b1115612450576040517f08c379a000000000000000000000000000000000000000000000000000000000815260040161244790614467565b60405180910390fd5b8066b1a2bc2ec500006124639190614b65565b3410156124a5576040517f08c379a000000000000000000000000000000000000000000000000000000000815260040161249c90614c0b565b60405180910390fd5b60005b81811015612504576000600160966124be610a6b565b6124c89190614527565b6124d29190614527565b90506127106124df610a6b565b10156124f0576124ef3382612330565b5b5080806124fc90614366565b9150506124a8565b5050565b612513848484611d0e565b61251f84848484612a26565b61255e576040517f08c379a000000000000000000000000000000000000000000000000000000000815260040161255590614c9d565b60405180910390fd5b50505050565b6060600c805461257390613d6e565b80601f016020809104026020016040519081016040528092919081815260200182805461259f90613d6e565b80156125ec5780601f106125c1576101008083540402835291602001916125ec565b820191906000526020600020905b8154815290600101906020018083116125cf57829003601f168201915b5050505050905090565b6060600082141561263e576040518060400160405280600181526020017f30000000000000000000000000000000000000000000000000000000000000008152509050612752565b600082905060005b6000821461267057808061265990614366565b915050600a826126699190614cec565b9150612646565b60008167ffffffffffffffff81111561268c5761268b613892565b5b6040519080825280601f01601f1916602001820160405280156126be5781602001600182028036833780820191505090505b5090505b6000851461274b576001826126d791906144f3565b9150600a856126e69190614d1d565b60306126f29190614527565b60f81b818381518110612708576127076141e4565b5b60200101907effffffffffffffffffffffffffffffffffffffffffffffffffffffffffffff1916908160001a905350600a856127449190614cec565b94506126c2565b8093505050505b919050565b600061279a8261278c856040516020016127719190614d96565b60405160208183030381529060405280519060200120612bbd565b612bed90919063ffffffff16565b905092915050565b600a60159054906101000a900460ff16156127f2576040517f08c379a00000000000000000000000000000000000000000000000000000000081526004016127e9906145c9565b60405180910390fd5b6001600a60156101000a81548160ff0219169083151502179055507fb1412a7cd96bc4195d633c938189c320dcbeb2cff60c1b8bdd872678fb3514b4612836611b6f565b6040516128439190613784565b60405180910390a1565b60007f01ffc9a7000000000000000000000000000000000000000000000000000000007bffffffffffffffffffffffffffffffffffffffffffffffffffffffff1916827bffffffffffffffffffffffffffffffffffffffffffffffffffffffff1916149050919050565b6128c2838383612c14565b600073ffffffffffffffffffffffffffffffffffffffff168373ffffffffffffffffffffffffffffffffffffffff1614156129055761290081612c19565b612944565b8173ffffffffffffffffffffffffffffffffffffffff168373ffffffffffffffffffffffffffffffffffffffff1614612943576129428382612c62565b5b5b600073ffffffffffffffffffffffffffffffffffffffff168273ffffffffffffffffffffffffffffffffffffffff1614156129875761298281612dcf565b6129c6565b8273ffffffffffffffffffffffffffffffffffffffff168273ffffffffffffffffffffffffffffffffffffffff16146129c5576129c48282612ea0565b5b5b505050565b6129d58383612f1f565b6129e26000848484612a26565b612a21576040517f08c379a0000000000000000000000000000000000000000000000000000000008152600401612a1890614c9d565b60405180910390fd5b505050565b6000612a478473ffffffffffffffffffffffffffffffffffffffff166130ed565b15612bb0578373ffffffffffffffffffffffffffffffffffffffff1663150b7a02612a70611b6f565b8786866040518563ffffffff1660e01b8152600401612a929493929190614e06565b602060405180830381600087803b158015612aac57600080fd5b505af1925050508015612add57506040513d601f19601f82011682018060405250810190612ada9190614e67565b60015b612b60573d8060008114612b0d576040519150601f19603f3d011682016040523d82523d6000602084013e612b12565b606091505b50600081511415612b58576040517f08c379a0000000000000000000000000000000000000000000000000000000008152600401612b4f90614c9d565b60405180910390fd5b805181602001fd5b63150b7a0260e01b7bffffffffffffffffffffffffffffffffffffffffffffffffffffffff1916817bffffffffffffffffffffffffffffffffffffffffffffffffffffffff191614915050612bb5565b600190505b949350505050565b600081604051602001612bd09190614f0b565b604051602081830303815290604052805190602001209050919050565b6000806000612bfc8585613100565b91509150612c0981613183565b819250505092915050565b505050565b6008805490506009600083815260200190815260200160002081905550600881908060018154018082558091505060019003906000526020600020016000909190919091505550565b60006001612c6f84610e5f565b612c7991906144f3565b9050600060076000848152602001908152602001600020549050818114612d5e576000600660008673ffffffffffffffffffffffffffffffffffffffff1673ffffffffffffffffffffffffffffffffffffffff168152602001908152602001600020600084815260200190815260200160002054905080600660008773ffffffffffffffffffffffffffffffffffffffff1673ffffffffffffffffffffffffffffffffffffffff168152602001908152602001600020600084815260200190815260200160002081905550816007600083815260200190815260200160002081905550505b6007600084815260200190815260200160002060009055600660008573ffffffffffffffffffffffffffffffffffffffff1673ffffffffffffffffffffffffffffffffffffffff16815260200190815260200160002060008381526020019081526020016000206000905550505050565b60006001600880549050612de391906144f3565b9050600060096000848152602001908152602001600020549050600060088381548110612e1357612e126141e4565b5b906000526020600020015490508060088381548110612e3557612e346141e4565b5b906000526020600020018190555081600960008381526020019081526020016000208190555060096000858152602001908152602001600020600090556008805480612e8457612e83614f31565b5b6001900381819060005260206000200160009055905550505050565b6000612eab83610e5f565b905081600660008573ffffffffffffffffffffffffffffffffffffffff1673ffffffffffffffffffffffffffffffffffffffff168152602001908152602001600020600083815260200190815260200160002081905550806007600084815260200190815260200160002081905550505050565b600073ffffffffffffffffffffffffffffffffffffffff168273ffffffffffffffffffffffffffffffffffffffff161415612f8f576040517f08c379a0000000000000000000000000000000000000000000000000000000008152600401612f8690614fac565b60405180910390fd5b612f9881611b03565b15612fd8576040517f08c379a0000000000000000000000000000000000000000000000000000000008152600401612fcf90615018565b60405180910390fd5b612fe4600083836128b7565b6001600360008473ffffffffffffffffffffffffffffffffffffffff1673ffffffffffffffffffffffffffffffffffffffff16815260200190815260200160002060008282546130349190614527565b92505081905550816002600083815260200190815260200160002060006101000a81548173ffffffffffffffffffffffffffffffffffffffff021916908373ffffffffffffffffffffffffffffffffffffffff160217905550808273ffffffffffffffffffffffffffffffffffffffff16600073ffffffffffffffffffffffffffffffffffffffff167fddf252ad1be2c89b69c2b068fc378daa952ba7f163c4a11628f55a4df523b3ef60405160405180910390a45050565b600080823b905060008111915050919050565b6000806041835114156131425760008060006020860151925060408601519150606086015160001a905061313687828585613358565b9450945050505061317c565b604083511415613173576000806020850151915060408501519050613168868383613465565b93509350505061317c565b60006002915091505b9250929050565b6000600481111561319757613196615038565b5b8160048111156131aa576131a9615038565b5b14156131b557613355565b600160048111156131c9576131c8615038565b5b8160048111156131dc576131db615038565b5b141561321d576040517f08c379a0000000000000000000000000000000000000000000000000000000008152600401613214906150b3565b60405180910390fd5b6002600481111561323157613230615038565b5b81600481111561324457613243615038565b5b1415613285576040517f08c379a000000000000000000000000000000000000000000000000000000000815260040161327c9061511f565b60405180910390fd5b6003600481111561329957613298615038565b5b8160048111156132ac576132ab615038565b5b14156132ed576040517f08c379a00000000000000000000000000000000000000000000000000000000081526004016132e4906151b1565b60405180910390fd5b600480811115613300576132ff615038565b5b81600481111561331357613312615038565b5b1415613354576040517f08c379a000000000000000000000000000000000000000000000000000000000815260040161334b90615243565b60405180910390fd5b5b50565b6000807f7fffffffffffffffffffffffffffffff5d576e7357a4501ddfe92f46681b20a08360001c111561339357600060039150915061345c565b601b8560ff16141580156133ab5750601c8560ff1614155b156133bd57600060049150915061345c565b6000600187878787604051600081526020016040526040516133e2949392919061528e565b6020604051602081039080840390855afa158015613404573d6000803e3d6000fd5b505050602060405103519050600073ffffffffffffffffffffffffffffffffffffffff168173ffffffffffffffffffffffffffffffffffffffff1614156134535760006001925092505061345c565b80600092509250505b94509492505050565b6000806000807f7fffffffffffffffffffffffffffffffffffffffffffffffffffffffffffffff85169150601b8560ff1c0190506134a587828885613358565b935093505050935093915050565b8280546134bf90613d6e565b90600052602060002090601f0160209004810192826134e15760008555613528565b82601f106134fa57805160ff1916838001178555613528565b82800160010185558215613528579182015b8281111561352757825182559160200191906001019061350c565b5b5090506135359190613539565b5090565b5b8082111561355257600081600090555060010161353a565b5090565b6000604051905090565b600080fd5b600080fd5b60007fffffffff0000000000000000000000000000000000000000000000000000000082169050919050565b61359f8161356a565b81146135aa57600080fd5b50565b6000813590506135bc81613596565b92915050565b6000602082840312156135d8576135d7613560565b5b60006135e6848285016135ad565b91505092915050565b60008115159050919050565b613604816135ef565b82525050565b600060208201905061361f60008301846135fb565b92915050565b600081519050919050565b600082825260208201905092915050565b60005b8381101561365f578082015181840152602081019050613644565b8381111561366e576000848401525b50505050565b6000601f19601f8301169050919050565b600061369082613625565b61369a8185613630565b93506136aa818560208601613641565b6136b381613674565b840191505092915050565b600060208201905081810360008301526136d88184613685565b905092915050565b6000819050919050565b6136f3816136e0565b81146136fe57600080fd5b50565b600081359050613710816136ea565b92915050565b60006020828403121561372c5761372b613560565b5b600061373a84828501613701565b91505092915050565b600073ffffffffffffffffffffffffffffffffffffffff82169050919050565b600061376e82613743565b9050919050565b61377e81613763565b82525050565b60006020820190506137996000830184613775565b92915050565b6137a881613763565b81146137b357600080fd5b50565b6000813590506137c58161379f565b92915050565b600080604083850312156137e2576137e1613560565b5b60006137f0858286016137b6565b925050602061380185828601613701565b9150509250929050565b613814816136e0565b82525050565b600060208201905061382f600083018461380b565b92915050565b60008060006060848603121561384e5761384d613560565b5b600061385c868287016137b6565b935050602061386d868287016137b6565b925050604061387e86828701613701565b9150509250925092565b600080fd5b600080fd5b7f4e487b7100000000000000000000000000000000000000000000000000000000600052604160045260246000fd5b6138ca82613674565b810181811067ffffffffffffffff821117156138e9576138e8613892565b5b80604052505050565b60006138fc613556565b905061390882826138c1565b919050565b600067ffffffffffffffff82111561392857613927613892565b5b61393182613674565b9050602081019050919050565b82818337600083830152505050565b600061396061395b8461390d565b6138f2565b90508281526020810184848401111561397c5761397b61388d565b5b61398784828561393e565b509392505050565b600082601f8301126139a4576139a3613888565b5b81356139b484826020860161394d565b91505092915050565b6000602082840312156139d3576139d2613560565b5b600082013567ffffffffffffffff8111156139f1576139f0613565565b5b6139fd8482850161398f565b91505092915050565b600060208284031215613a1c57613a1b613560565b5b6000613a2a848285016137b6565b91505092915050565b600081519050919050565b600082825260208201905092915050565b6000819050602082019050919050565b613a68816136e0565b82525050565b6000613a7a8383613a5f565b60208301905092915050565b6000602082019050919050565b6000613a9e82613a33565b613aa88185613a3e565b9350613ab383613a4f565b8060005b83811015613ae4578151613acb8882613a6e565b9750613ad683613a86565b925050600181019050613ab7565b5085935050505092915050565b60006020820190508181036000830152613b0b8184613a93565b905092915050565b613b1c816135ef565b8114613b2757600080fd5b50565b600081359050613b3981613b13565b92915050565b60008060408385031215613b5657613b55613560565b5b6000613b64858286016137b6565b9250506020613b7585828601613b2a565b9150509250929050565b600067ffffffffffffffff821115613b9a57613b99613892565b5b613ba382613674565b9050602081019050919050565b6000613bc3613bbe84613b7f565b6138f2565b905082815260208101848484011115613bdf57613bde61388d565b5b613bea84828561393e565b509392505050565b600082601f830112613c0757613c06613888565b5b8135613c17848260208601613bb0565b91505092915050565b60008060008060808587031215613c3a57613c39613560565b5b6000613c48878288016137b6565b9450506020613c59878288016137b6565b9350506040613c6a87828801613701565b925050606085013567ffffffffffffffff811115613c8b57613c8a613565565b5b613c9787828801613bf2565b91505092959194509250565b60008060408385031215613cba57613cb9613560565b5b6000613cc8858286016137b6565b9250506020613cd9858286016137b6565b9150509250929050565b60008060408385031215613cfa57613cf9613560565b5b6000613d0885828601613701565b925050602083013567ffffffffffffffff811115613d2957613d28613565565b5b613d3585828601613bf2565b9150509250929050565b7f4e487b7100000000000000000000000000000000000000000000000000000000600052602260045260246000fd5b60006002820490506001821680613d8657607f821691505b60208210811415613d9a57613d99613d3f565b5b50919050565b7f4552433732313a20617070726f76656420717565727920666f72206e6f6e657860008201527f697374656e7420746f6b656e0000000000000000000000000000000000000000602082015250565b6000613dfc602c83613630565b9150613e0782613da0565b604082019050919050565b60006020820190508181036000830152613e2b81613def565b9050919050565b7f4552433732313a20617070726f76616c20746f2063757272656e74206f776e6560008201527f7200000000000000000000000000000000000000000000000000000000000000602082015250565b6000613e8e602183613630565b9150613e9982613e32565b604082019050919050565b60006020820190508181036000830152613ebd81613e81565b9050919050565b7f4552433732313a20617070726f76652063616c6c6572206973206e6f74206f7760008201527f6e6572206e6f7220617070726f76656420666f7220616c6c0000000000000000602082015250565b6000613f20603883613630565b9150613f2b82613ec4565b604082019050919050565b60006020820190508181036000830152613f4f81613f13565b9050919050565b7f4552433732313a207472616e736665722063616c6c6572206973206e6f74206f60008201527f776e6572206e6f7220617070726f766564000000000000000000000000000000602082015250565b6000613fb2603183613630565b9150613fbd82613f56565b604082019050919050565b60006020820190508181036000830152613fe181613fa5565b9050919050565b7f455243373231456e756d657261626c653a206f776e657220696e646578206f7560008201527f74206f6620626f756e6473000000000000000000000000000000000000000000602082015250565b6000614044602b83613630565b915061404f82613fe8565b604082019050919050565b6000602082019050818103600083015261407381614037565b9050919050565b7f4f776e61626c653a2063616c6c6572206973206e6f7420746865206f776e6572600082015250565b60006140b0602083613630565b91506140bb8261407a565b602082019050919050565b600060208201905081810360008301526140df816140a3565b9050919050565b7f43616c6c6572206973206e6f74206f776e6572206e6f7220617070726f766564600082015250565b600061411c602083613630565b9150614127826140e6565b602082019050919050565b6000602082019050818103600083015261414b8161410f565b9050919050565b7f455243373231456e756d657261626c653a20676c6f62616c20696e646578206f60008201527f7574206f6620626f756e64730000000000000000000000000000000000000000602082015250565b60006141ae602c83613630565b91506141b982614152565b604082019050919050565b600060208201905081810360008301526141dd816141a1565b9050919050565b7f4e487b7100000000000000000000000000000000000000000000000000000000600052603260045260246000fd5b7f4552433732313a206f776e657220717565727920666f72206e6f6e657869737460008201527f656e7420746f6b656e0000000000000000000000000000000000000000000000602082015250565b600061426f602983613630565b915061427a82614213565b604082019050919050565b6000602082019050818103600083015261429e81614262565b9050919050565b7f4552433732313a2062616c616e636520717565727920666f7220746865207a6560008201527f726f206164647265737300000000000000000000000000000000000000000000602082015250565b6000614301602a83613630565b915061430c826142a5565b604082019050919050565b60006020820190508181036000830152614330816142f4565b9050919050565b7f4e487b7100000000000000000000000000000000000000000000000000000000600052601160045260246000fd5b6000614371826136e0565b91507fffffffffffffffffffffffffffffffffffffffffffffffffffffffffffffffff8214156143a4576143a3614337565b5b600182019050919050565b7f5061757361626c653a2070617573656400000000000000000000000000000000600082015250565b60006143e5601083613630565b91506143f0826143af565b602082019050919050565b60006020820190508181036000830152614414816143d8565b9050919050565b7f45786365656473206d6178696d756d20566f6f646f6c6c7a20737570706c7900600082015250565b6000614451601f83613630565b915061445c8261441b565b602082019050919050565b6000602082019050818103600083015261448081614444565b9050919050565b7f4578636565647320726573657276656420566f6f646f6c6c7a20737570706c79600082015250565b60006144bd602083613630565b91506144c882614487565b602082019050919050565b600060208201905081810360008301526144ec816144b0565b9050919050565b60006144fe826136e0565b9150614509836136e0565b92508282101561451c5761451b614337565b5b828203905092915050565b6000614532826136e0565b915061453d836136e0565b9250827fffffffffffffffffffffffffffffffffffffffffffffffffffffffffffffffff0382111561457257614571614337565b5b828201905092915050565b7f50726573616c6520636c6f736564000000000000000000000000000000000000600082015250565b60006145b3600e83613630565b91506145be8261457d565b602082019050919050565b600060208201905081810360008301526145e2816145a6565b9050919050565b7f4552433732313a20617070726f766520746f2063616c6c657200000000000000600082015250565b600061461f601983613630565b915061462a826145e9565b602082019050919050565b6000602082019050818103600083015261464e81614612565b9050919050565b7f4552433732314d657461646174613a2055524920717565727920666f72206e6f60008201527f6e6578697374656e7420746f6b656e0000000000000000000000000000000000602082015250565b60006146b1602f83613630565b91506146bc82614655565b604082019050919050565b600060208201905081810360008301526146e0816146a4565b9050919050565b600081905092915050565b60006146fd82613625565b61470781856146e7565b9350614717818560208601613641565b80840191505092915050565b600061472f82856146f2565b915061473b82846146f2565b91508190509392505050565b7f4f776e61626c653a206e6577206f776e657220697320746865207a65726f206160008201527f6464726573730000000000000000000000000000000000000000000000000000602082015250565b60006147a3602683613630565b91506147ae82614747565b604082019050919050565b600060208201905081810360008301526147d281614796565b9050919050565b7f53616c6520636c6f736564000000000000000000000000000000000000000000600082015250565b600061480f600b83613630565b915061481a826147d9565b602082019050919050565b6000602082019050818103600083015261483e81614802565b9050919050565b7f4e6f7420617574686f72697a656420746f206d696e7400000000000000000000600082015250565b600061487b601683613630565b915061488682614845565b602082019050919050565b600060208201905081810360008301526148aa8161486e565b9050919050565b7f4552433732313a206f70657261746f7220717565727920666f72206e6f6e657860008201527f697374656e7420746f6b656e0000000000000000000000000000000000000000602082015250565b600061490d602c83613630565b9150614918826148b1565b604082019050919050565b6000602082019050818103600083015261493c81614900565b9050919050565b7f4552433732313a207472616e73666572206f6620746f6b656e2074686174206960008201527f73206e6f74206f776e0000000000000000000000000000000000000000000000602082015250565b600061499f602983613630565b91506149aa82614943565b604082019050919050565b600060208201905081810360008301526149ce81614992565b9050919050565b7f4552433732313a207472616e7366657220746f20746865207a65726f2061646460008201527f7265737300000000000000000000000000000000000000000000000000000000602082015250565b6000614a31602483613630565b9150614a3c826149d5565b604082019050919050565b60006020820190508181036000830152614a6081614a24565b9050919050565b7f5061757361626c653a206e6f7420706175736564000000000000000000000000600082015250565b6000614a9d601483613630565b9150614aa882614a67565b602082019050919050565b60006020820190508181036000830152614acc81614a90565b9050919050565b7f43616e206f6e6c79206d696e74203520746f6b656e732061742061646472657360008201527f7300000000000000000000000000000000000000000000000000000000000000602082015250565b6000614b2f602183613630565b9150614b3a82614ad3565b604082019050919050565b60006020820190508181036000830152614b5e81614b22565b9050919050565b6000614b70826136e0565b9150614b7b836136e0565b9250817fffffffffffffffffffffffffffffffffffffffffffffffffffffffffffffffff0483118215151615614bb457614bb3614337565b5b828202905092915050565b7f45746865722076616c75652073656e74206973206e6f7420636f727265637400600082015250565b6000614bf5601f83613630565b9150614c0082614bbf565b602082019050919050565b60006020820190508181036000830152614c2481614be8565b9050919050565b7f4552433732313a207472616e7366657220746f206e6f6e20455243373231526560008201527f63656976657220696d706c656d656e7465720000000000000000000000000000602082015250565b6000614c87603283613630565b9150614c9282614c2b565b604082019050919050565b60006020820190508181036000830152614cb681614c7a565b9050919050565b7f4e487b7100000000000000000000000000000000000000000000000000000000600052601260045260246000fd5b6000614cf7826136e0565b9150614d02836136e0565b925082614d1257614d11614cbd565b5b828204905092915050565b6000614d28826136e0565b9150614d33836136e0565b925082614d4357614d42614cbd565b5b828206905092915050565b60008160601b9050919050565b6000614d6682614d4e565b9050919050565b6000614d7882614d5b565b9050919050565b614d90614d8b82613763565b614d6d565b82525050565b6000614da28284614d7f565b60148201915081905092915050565b600081519050919050565b600082825260208201905092915050565b6000614dd882614db1565b614de28185614dbc565b9350614df2818560208601613641565b614dfb81613674565b840191505092915050565b6000608082019050614e1b6000830187613775565b614e286020830186613775565b614e35604083018561380b565b8181036060830152614e478184614dcd565b905095945050505050565b600081519050614e6181613596565b92915050565b600060208284031215614e7d57614e7c613560565b5b6000614e8b84828501614e52565b91505092915050565b7f19457468657265756d205369676e6564204d6573736167653a0a333200000000600082015250565b6000614eca601c836146e7565b9150614ed582614e94565b601c82019050919050565b6000819050919050565b6000819050919050565b614f05614f0082614ee0565b614eea565b82525050565b6000614f1682614ebd565b9150614f228284614ef4565b60208201915081905092915050565b7f4e487b7100000000000000000000000000000000000000000000000000000000600052603160045260246000fd5b7f4552433732313a206d696e7420746f20746865207a65726f2061646472657373600082015250565b6000614f96602083613630565b9150614fa182614f60565b602082019050919050565b60006020820190508181036000830152614fc581614f89565b9050919050565b7f4552433732313a20746f6b656e20616c7265616479206d696e74656400000000600082015250565b6000615002601c83613630565b915061500d82614fcc565b602082019050919050565b6000602082019050818103600083015261503181614ff5565b9050919050565b7f4e487b7100000000000000000000000000000000000000000000000000000000600052602160045260246000fd5b7f45434453413a20696e76616c6964207369676e61747572650000000000000000600082015250565b600061509d601883613630565b91506150a882615067565b602082019050919050565b600060208201905081810360008301526150cc81615090565b9050919050565b7f45434453413a20696e76616c6964207369676e6174757265206c656e67746800600082015250565b6000615109601f83613630565b9150615114826150d3565b602082019050919050565b60006020820190508181036000830152615138816150fc565b9050919050565b7f45434453413a20696e76616c6964207369676e6174757265202773272076616c60008201527f7565000000000000000000000000000000000000000000000000000000000000602082015250565b600061519b602283613630565b91506151a68261513f565b604082019050919050565b600060208201905081810360008301526151ca8161518e565b9050919050565b7f45434453413a20696e76616c6964207369676e6174757265202776272076616c60008201527f7565000000000000000000000000000000000000000000000000000000000000602082015250565b600061522d602283613630565b9150615238826151d1565b604082019050919050565b6000602082019050818103600083015261525c81615220565b9050919050565b61526c81614ee0565b82525050565b600060ff82169050919050565b61528881615272565b82525050565b60006080820190506152a36000830187615263565b6152b0602083018661527f565b6152bd6040830185615263565b6152ca6060830184615263565b9594505050505056fea264697066735822122055ea63c7e8527bc20270b71be872b95bcde503bb189d101701e9d31dbc8f4cdb64736f6c63430008090033",
  "immutableReferences": {},
  "source": "// SPDX-License-Identifier: MIT\npragma solidity ^0.8.9;\n\nimport \"@openzeppelin/contracts/token/ERC721/extensions/ERC721Enumerable.sol\";\nimport \"@openzeppelin/contracts/access/Ownable.sol\";\nimport \"@openzeppelin/contracts/security/Pausable.sol\";\nimport \"@openzeppelin/contracts/utils/cryptography/ECDSA.sol\";\n\nimport \"./Presalable.sol\";\n\ncontract Voodollz is ERC721Enumerable, Ownable, Pausable, Presalable {\n    using ECDSA for bytes32;\n\n    uint256 private constant _RESERVED = 150;\n    uint256 private _reservedLeft = _RESERVED;\n\n    string public baseTokenURI;\n    \n    uint256 public constant MAX_TOKEN_COUNT = 10000;\n    uint256 public constant PRICE = 0.05 ether;\n\n    constructor(string memory _baseTokenURI) ERC721(\"Voodollz\", \"Voodollz\")  {\n        setBaseURI(_baseTokenURI);\n        presale();\n    }\n\n    // Mint methods\n\n    function _mintVoodollz(uint256 _amount) private whenNotPaused {\n        require(balanceOf(msg.sender) + _amount <= 5, \"Can only mint 5 tokens at address\");\n        require(totalSupply() + _amount <= MAX_TOKEN_COUNT - _RESERVED, \"Exceeds maximum Voodollz supply\");\n        require(msg.value >= PRICE * _amount, \"Ether value sent is not correct\");\n    \n        for(uint256 i = 0; i < _amount; i++) {\n            uint256 mintIndex = totalSupply() + _RESERVED + 1;\n            if (totalSupply() < MAX_TOKEN_COUNT) {\n                _safeMint(msg.sender, mintIndex);\n            }\n        }\n    }\n\n    function mint(uint256 _amount) public payable whenNotPresaled {\n        _mintVoodollz(_amount);\n    }\n\n    function presaleMint(uint256 _amount, bytes memory _signature) public payable whenPresaled {        \n        address signer = recoverSigner(msg.sender, _signature);\n        require(signer == owner(), \"Not authorized to mint\");\n\n        _mintVoodollz(_amount);\n    }\n\n    // Give methods\n    \n    function giveAway(address _to) public onlyOwner whenNotPaused {\n        require(totalSupply() < MAX_TOKEN_COUNT, \"Exceeds maximum Voodollz supply\");\n        require(_reservedLeft > 0, \"Exceeds reserved Voodollz supply\");\n\n        _safeMint(_to, _RESERVED - _reservedLeft + 1);\n\n        _reservedLeft -= 1;\n    }\n\n    // Burn methods\n    \n    function burn(uint256 tokenId) public virtual {\n        require(_isApprovedOrOwner(msg.sender, tokenId), \"Caller is not owner nor approved\");\n        _burn(tokenId);\n    }\n\n    // Service methods\n\n    function tokensOfOwner(address _owner) public view returns(uint256[] memory){\n        uint256 tokenCount = balanceOf(_owner);\n        uint256[] memory tokensId = new uint256[](tokenCount);\n\n        for(uint256 i; i < tokenCount; i++){\n            tokensId[i] = tokenOfOwnerByIndex(_owner, i);\n        }\n\n        return tokensId;\n    }\n\n    function recoverSigner(address _wallet, bytes memory _signature) private pure returns (address){\n        return keccak256(abi.encodePacked(_wallet)).toEthSignedMessageHash().recover(_signature);\n    }\n    \n    function _baseURI() internal view virtual override returns (string memory) {\n        return baseTokenURI;\n    }\n\n    function setBaseURI(string memory _baseTokenURI) public onlyOwner {\n        baseTokenURI = _baseTokenURI;\n    }\n\n    function pause() public onlyOwner {\n        _pause();\n    }\n\n    function unpause() public onlyOwner {\n        _unpause();\n    }\n\n    function presale() public onlyOwner {\n        _presale();\n    }\n\n    function unpresale() public onlyOwner {\n        _unpresale();\n    }\n}",
  "sourcePath": "/home/doss/projects/voodollz/packages/contract/contracts/Voodollz.sol",
  "compiler": {
    "name": "solc",
    "version": "0.8.9+commit.e5eed63a.Emscripten.clang"
  },
  "schemaVersion": "3.4.3",
  "updatedAt": "2021-10-27T12:38:34.405Z",
  "networkType": "ethereum",
  "devdoc": {
    "kind": "dev",
    "methods": {
      "approve(address,uint256)": {
        "details": "See {IERC721-approve}."
      },
      "balanceOf(address)": {
        "details": "See {IERC721-balanceOf}."
      },
      "getApproved(uint256)": {
        "details": "See {IERC721-getApproved}."
      },
      "isApprovedForAll(address,address)": {
        "details": "See {IERC721-isApprovedForAll}."
      },
      "name()": {
        "details": "See {IERC721Metadata-name}."
      },
      "owner()": {
        "details": "Returns the address of the current owner."
      },
      "ownerOf(uint256)": {
        "details": "See {IERC721-ownerOf}."
      },
      "paused()": {
        "details": "Returns true if the contract is paused, and false otherwise."
      },
      "renounceOwnership()": {
        "details": "Leaves the contract without owner. It will not be possible to call `onlyOwner` functions anymore. Can only be called by the current owner. NOTE: Renouncing ownership will leave the contract without an owner, thereby removing any functionality that is only available to the owner."
      },
      "safeTransferFrom(address,address,uint256)": {
        "details": "See {IERC721-safeTransferFrom}."
      },
      "safeTransferFrom(address,address,uint256,bytes)": {
        "details": "See {IERC721-safeTransferFrom}."
      },
      "setApprovalForAll(address,bool)": {
        "details": "See {IERC721-setApprovalForAll}."
      },
      "supportsInterface(bytes4)": {
        "details": "See {IERC165-supportsInterface}."
      },
      "symbol()": {
        "details": "See {IERC721Metadata-symbol}."
      },
      "tokenByIndex(uint256)": {
        "details": "See {IERC721Enumerable-tokenByIndex}."
      },
      "tokenOfOwnerByIndex(address,uint256)": {
        "details": "See {IERC721Enumerable-tokenOfOwnerByIndex}."
      },
      "tokenURI(uint256)": {
        "details": "See {IERC721Metadata-tokenURI}."
      },
      "totalSupply()": {
        "details": "See {IERC721Enumerable-totalSupply}."
      },
      "transferFrom(address,address,uint256)": {
        "details": "See {IERC721-transferFrom}."
      },
      "transferOwnership(address)": {
        "details": "Transfers ownership of the contract to a new account (`newOwner`). Can only be called by the current owner."
      }
    },
    "version": 1
  },
  "userdoc": {
    "kind": "user",
    "methods": {},
    "version": 1
  }
}