{
  "contractName": "Voodollz",
  "abi": [
    {
      "inputs": [
        {
          "internalType": "string",
          "name": "_baseTokenURI",
          "type": "string"
        }
      ],
      "stateMutability": "nonpayable",
      "type": "constructor"
    },
    {
      "anonymous": false,
      "inputs": [
        {
          "indexed": true,
          "internalType": "address",
          "name": "owner",
          "type": "address"
        },
        {
          "indexed": true,
          "internalType": "address",
          "name": "approved",
          "type": "address"
        },
        {
          "indexed": true,
          "internalType": "uint256",
          "name": "tokenId",
          "type": "uint256"
        }
      ],
      "name": "Approval",
      "type": "event"
    },
    {
      "anonymous": false,
      "inputs": [
        {
          "indexed": true,
          "internalType": "address",
          "name": "owner",
          "type": "address"
        },
        {
          "indexed": true,
          "internalType": "address",
          "name": "operator",
          "type": "address"
        },
        {
          "indexed": false,
          "internalType": "bool",
          "name": "approved",
          "type": "bool"
        }
      ],
      "name": "ApprovalForAll",
      "type": "event"
    },
    {
      "anonymous": false,
      "inputs": [
        {
          "indexed": false,
          "internalType": "string",
          "name": "_nonce",
          "type": "string"
        },
        {
          "indexed": false,
          "internalType": "uint256",
          "name": "amount",
          "type": "uint256"
        }
      ],
      "name": "EthClaimed",
      "type": "event"
    },
    {
      "anonymous": false,
      "inputs": [
        {
          "indexed": false,
          "internalType": "uint256",
          "name": "amount",
          "type": "uint256"
        }
      ],
      "name": "EthDeposited",
      "type": "event"
    },
    {
      "anonymous": false,
      "inputs": [
        {
          "indexed": true,
          "internalType": "address",
          "name": "previousOwner",
          "type": "address"
        },
        {
          "indexed": true,
          "internalType": "address",
          "name": "newOwner",
          "type": "address"
        }
      ],
      "name": "OwnershipTransferred",
      "type": "event"
    },
    {
      "anonymous": false,
      "inputs": [
        {
          "indexed": false,
          "internalType": "address",
          "name": "account",
          "type": "address"
        }
      ],
      "name": "Paused",
      "type": "event"
    },
    {
      "anonymous": false,
      "inputs": [
        {
          "indexed": false,
          "internalType": "address",
          "name": "account",
          "type": "address"
        }
      ],
      "name": "Presaled",
      "type": "event"
    },
    {
      "anonymous": false,
      "inputs": [
        {
          "indexed": true,
          "internalType": "address",
          "name": "from",
          "type": "address"
        },
        {
          "indexed": true,
          "internalType": "address",
          "name": "to",
          "type": "address"
        },
        {
          "indexed": true,
          "internalType": "uint256",
          "name": "tokenId",
          "type": "uint256"
        }
      ],
      "name": "Transfer",
      "type": "event"
    },
    {
      "anonymous": false,
      "inputs": [
        {
          "indexed": false,
          "internalType": "address",
          "name": "account",
          "type": "address"
        }
      ],
      "name": "Unpaused",
      "type": "event"
    },
    {
      "anonymous": false,
      "inputs": [
        {
          "indexed": false,
          "internalType": "address",
          "name": "account",
          "type": "address"
        }
      ],
      "name": "Unpresaled",
      "type": "event"
    },
    {
      "inputs": [],
      "name": "MAX_TOKEN_COUNT",
      "outputs": [
        {
          "internalType": "uint256",
          "name": "",
          "type": "uint256"
        }
      ],
      "stateMutability": "view",
      "type": "function",
      "constant": true
    },
    {
      "inputs": [],
      "name": "PRICE",
      "outputs": [
        {
          "internalType": "uint256",
          "name": "",
          "type": "uint256"
        }
      ],
      "stateMutability": "view",
      "type": "function",
      "constant": true
    },
    {
      "inputs": [
        {
          "internalType": "address",
          "name": "to",
          "type": "address"
        },
        {
          "internalType": "uint256",
          "name": "tokenId",
          "type": "uint256"
        }
      ],
      "name": "approve",
      "outputs": [],
      "stateMutability": "nonpayable",
      "type": "function"
    },
    {
      "inputs": [
        {
          "internalType": "address",
          "name": "owner",
          "type": "address"
        }
      ],
      "name": "balanceOf",
      "outputs": [
        {
          "internalType": "uint256",
          "name": "",
          "type": "uint256"
        }
      ],
      "stateMutability": "view",
      "type": "function",
      "constant": true
    },
    {
      "inputs": [],
      "name": "baseTokenURI",
      "outputs": [
        {
          "internalType": "string",
          "name": "",
          "type": "string"
        }
      ],
      "stateMutability": "view",
      "type": "function",
      "constant": true
    },
    {
      "inputs": [
        {
          "internalType": "uint256",
          "name": "tokenId",
          "type": "uint256"
        }
      ],
      "name": "getApproved",
      "outputs": [
        {
          "internalType": "address",
          "name": "",
          "type": "address"
        }
      ],
      "stateMutability": "view",
      "type": "function",
      "constant": true
    },
    {
      "inputs": [
        {
          "internalType": "address",
          "name": "owner",
          "type": "address"
        },
        {
          "internalType": "address",
          "name": "operator",
          "type": "address"
        }
      ],
      "name": "isApprovedForAll",
      "outputs": [
        {
          "internalType": "bool",
          "name": "",
          "type": "bool"
        }
      ],
      "stateMutability": "view",
      "type": "function",
      "constant": true
    },
    {
      "inputs": [],
      "name": "name",
      "outputs": [
        {
          "internalType": "string",
          "name": "",
          "type": "string"
        }
      ],
      "stateMutability": "view",
      "type": "function",
      "constant": true
    },
    {
      "inputs": [],
      "name": "owner",
      "outputs": [
        {
          "internalType": "address",
          "name": "",
          "type": "address"
        }
      ],
      "stateMutability": "view",
      "type": "function",
      "constant": true
    },
    {
      "inputs": [
        {
          "internalType": "uint256",
          "name": "tokenId",
          "type": "uint256"
        }
      ],
      "name": "ownerOf",
      "outputs": [
        {
          "internalType": "address",
          "name": "",
          "type": "address"
        }
      ],
      "stateMutability": "view",
      "type": "function",
      "constant": true
    },
    {
      "inputs": [],
      "name": "paused",
      "outputs": [
        {
          "internalType": "bool",
          "name": "",
          "type": "bool"
        }
      ],
      "stateMutability": "view",
      "type": "function",
      "constant": true
    },
    {
      "inputs": [],
      "name": "presaled",
      "outputs": [
        {
          "internalType": "bool",
          "name": "",
          "type": "bool"
        }
      ],
      "stateMutability": "view",
      "type": "function",
      "constant": true
    },
    {
      "inputs": [],
      "name": "renounceOwnership",
      "outputs": [],
      "stateMutability": "nonpayable",
      "type": "function"
    },
    {
      "inputs": [
        {
          "internalType": "address",
          "name": "from",
          "type": "address"
        },
        {
          "internalType": "address",
          "name": "to",
          "type": "address"
        },
        {
          "internalType": "uint256",
          "name": "tokenId",
          "type": "uint256"
        }
      ],
      "name": "safeTransferFrom",
      "outputs": [],
      "stateMutability": "nonpayable",
      "type": "function"
    },
    {
      "inputs": [
        {
          "internalType": "address",
          "name": "from",
          "type": "address"
        },
        {
          "internalType": "address",
          "name": "to",
          "type": "address"
        },
        {
          "internalType": "uint256",
          "name": "tokenId",
          "type": "uint256"
        },
        {
          "internalType": "bytes",
          "name": "_data",
          "type": "bytes"
        }
      ],
      "name": "safeTransferFrom",
      "outputs": [],
      "stateMutability": "nonpayable",
      "type": "function"
    },
    {
      "inputs": [
        {
          "internalType": "address",
          "name": "operator",
          "type": "address"
        },
        {
          "internalType": "bool",
          "name": "approved",
          "type": "bool"
        }
      ],
      "name": "setApprovalForAll",
      "outputs": [],
      "stateMutability": "nonpayable",
      "type": "function"
    },
    {
      "inputs": [
        {
          "internalType": "bytes4",
          "name": "interfaceId",
          "type": "bytes4"
        }
      ],
      "name": "supportsInterface",
      "outputs": [
        {
          "internalType": "bool",
          "name": "",
          "type": "bool"
        }
      ],
      "stateMutability": "view",
      "type": "function",
      "constant": true
    },
    {
      "inputs": [],
      "name": "symbol",
      "outputs": [
        {
          "internalType": "string",
          "name": "",
          "type": "string"
        }
      ],
      "stateMutability": "view",
      "type": "function",
      "constant": true
    },
    {
      "inputs": [
        {
          "internalType": "uint256",
          "name": "index",
          "type": "uint256"
        }
      ],
      "name": "tokenByIndex",
      "outputs": [
        {
          "internalType": "uint256",
          "name": "",
          "type": "uint256"
        }
      ],
      "stateMutability": "view",
      "type": "function",
      "constant": true
    },
    {
      "inputs": [
        {
          "internalType": "address",
          "name": "owner",
          "type": "address"
        },
        {
          "internalType": "uint256",
          "name": "index",
          "type": "uint256"
        }
      ],
      "name": "tokenOfOwnerByIndex",
      "outputs": [
        {
          "internalType": "uint256",
          "name": "",
          "type": "uint256"
        }
      ],
      "stateMutability": "view",
      "type": "function",
      "constant": true
    },
    {
      "inputs": [
        {
          "internalType": "uint256",
          "name": "tokenId",
          "type": "uint256"
        }
      ],
      "name": "tokenURI",
      "outputs": [
        {
          "internalType": "string",
          "name": "",
          "type": "string"
        }
      ],
      "stateMutability": "view",
      "type": "function",
      "constant": true
    },
    {
      "inputs": [],
      "name": "totalSupply",
      "outputs": [
        {
          "internalType": "uint256",
          "name": "",
          "type": "uint256"
        }
      ],
      "stateMutability": "view",
      "type": "function",
      "constant": true
    },
    {
      "inputs": [
        {
          "internalType": "address",
          "name": "from",
          "type": "address"
        },
        {
          "internalType": "address",
          "name": "to",
          "type": "address"
        },
        {
          "internalType": "uint256",
          "name": "tokenId",
          "type": "uint256"
        }
      ],
      "name": "transferFrom",
      "outputs": [],
      "stateMutability": "nonpayable",
      "type": "function"
    },
    {
      "inputs": [
        {
          "internalType": "address",
          "name": "newOwner",
          "type": "address"
        }
      ],
      "name": "transferOwnership",
      "outputs": [],
      "stateMutability": "nonpayable",
      "type": "function"
    },
    {
      "inputs": [
        {
          "internalType": "uint256",
          "name": "_amount",
          "type": "uint256"
        }
      ],
      "name": "mint",
      "outputs": [],
      "stateMutability": "payable",
      "type": "function",
      "payable": true
    },
    {
      "inputs": [
        {
          "internalType": "uint256",
          "name": "_amount",
          "type": "uint256"
        },
        {
          "internalType": "bytes",
          "name": "_signature",
          "type": "bytes"
        }
      ],
      "name": "presaleMint",
      "outputs": [],
      "stateMutability": "payable",
      "type": "function",
      "payable": true
    },
    {
      "inputs": [
        {
          "internalType": "address",
          "name": "_to",
          "type": "address"
        }
      ],
      "name": "giveAway",
      "outputs": [],
      "stateMutability": "nonpayable",
      "type": "function"
    },
    {
      "inputs": [],
      "name": "deposit",
      "outputs": [],
      "stateMutability": "payable",
      "type": "function",
      "payable": true
    },
    {
      "inputs": [
        {
          "internalType": "uint256",
          "name": "_amount",
          "type": "uint256"
        },
        {
          "internalType": "string",
          "name": "_nonce",
          "type": "string"
        },
        {
          "internalType": "bytes",
          "name": "_signature",
          "type": "bytes"
        }
      ],
      "name": "claim",
      "outputs": [],
      "stateMutability": "nonpayable",
      "type": "function"
    },
    {
      "inputs": [
        {
          "internalType": "address",
          "name": "_owner",
          "type": "address"
        }
      ],
      "name": "tokensOfOwner",
      "outputs": [
        {
          "internalType": "uint256[]",
          "name": "",
          "type": "uint256[]"
        }
      ],
      "stateMutability": "view",
      "type": "function",
      "constant": true
    },
    {
      "inputs": [
        {
          "internalType": "uint256",
          "name": "tokenId",
          "type": "uint256"
        }
      ],
      "name": "burn",
      "outputs": [],
      "stateMutability": "nonpayable",
      "type": "function"
    },
    {
      "inputs": [
        {
          "internalType": "string",
          "name": "_baseTokenURI",
          "type": "string"
        }
      ],
      "name": "setBaseURI",
      "outputs": [],
      "stateMutability": "nonpayable",
      "type": "function"
    },
    {
      "inputs": [],
      "name": "pause",
      "outputs": [],
      "stateMutability": "nonpayable",
      "type": "function"
    },
    {
      "inputs": [],
      "name": "unpause",
      "outputs": [],
      "stateMutability": "nonpayable",
      "type": "function"
    },
    {
      "inputs": [],
      "name": "presale",
      "outputs": [],
      "stateMutability": "nonpayable",
      "type": "function"
    },
    {
      "inputs": [],
      "name": "unpresale",
      "outputs": [],
      "stateMutability": "nonpayable",
      "type": "function"
    }
  ],
  "bytecode": "0x60806040526096600b556000600c553480156200001b57600080fd5b50604051620060e0380380620060e083398181016040528101906200004191906200068d565b6040518060400160405280600881526020017f566f6f646f6c6c7a0000000000000000000000000000000000000000000000008152506040518060400160405280600881526020017f566f6f646f6c6c7a0000000000000000000000000000000000000000000000008152508160009080519060200190620000c592919062000440565b508060019080519060200190620000de92919062000440565b50505062000101620000f56200014460201b60201c565b6200014c60201b60201c565b6000600a60146101000a81548160ff0219169083151502179055506200012d816200021260201b60201c565b6200013d620002bd60201b60201c565b506200089a565b600033905090565b6000600a60009054906101000a900473ffffffffffffffffffffffffffffffffffffffff16905081600a60006101000a81548173ffffffffffffffffffffffffffffffffffffffff021916908373ffffffffffffffffffffffffffffffffffffffff1602179055508173ffffffffffffffffffffffffffffffffffffffff168173ffffffffffffffffffffffffffffffffffffffff167f8be0079c531659141344cd1fd0a4f28419497f9722a3daafe3b4186f6b6457e060405160405180910390a35050565b620002226200014460201b60201c565b73ffffffffffffffffffffffffffffffffffffffff16620002486200035e60201b60201c565b73ffffffffffffffffffffffffffffffffffffffff1614620002a1576040517f08c379a000000000000000000000000000000000000000000000000000000000815260040162000298906200073f565b60405180910390fd5b80600d9080519060200190620002b992919062000440565b5050565b620002cd6200014460201b60201c565b73ffffffffffffffffffffffffffffffffffffffff16620002f36200035e60201b60201c565b73ffffffffffffffffffffffffffffffffffffffff16146200034c576040517f08c379a000000000000000000000000000000000000000000000000000000000815260040162000343906200073f565b60405180910390fd5b6200035c6200038860201b60201c565b565b6000600a60009054906101000a900473ffffffffffffffffffffffffffffffffffffffff16905090565b600a60159054906101000a900460ff1615620003db576040517f08c379a0000000000000000000000000000000000000000000000000000000008152600401620003d290620007b1565b60405180910390fd5b6001600a60156101000a81548160ff0219169083151502179055507fb1412a7cd96bc4195d633c938189c320dcbeb2cff60c1b8bdd872678fb3514b4620004276200014460201b60201c565b60405162000436919062000818565b60405180910390a1565b8280546200044e9062000864565b90600052602060002090601f016020900481019282620004725760008555620004be565b82601f106200048d57805160ff1916838001178555620004be565b82800160010185558215620004be579182015b82811115620004bd578251825591602001919060010190620004a0565b5b509050620004cd9190620004d1565b5090565b5b80821115620004ec576000816000905550600101620004d2565b5090565b6000604051905090565b600080fd5b600080fd5b600080fd5b600080fd5b6000601f19601f8301169050919050565b7f4e487b7100000000000000000000000000000000000000000000000000000000600052604160045260246000fd5b62000559826200050e565b810181811067ffffffffffffffff821117156200057b576200057a6200051f565b5b80604052505050565b600062000590620004f0565b90506200059e82826200054e565b919050565b600067ffffffffffffffff821115620005c157620005c06200051f565b5b620005cc826200050e565b9050602081019050919050565b60005b83811015620005f9578082015181840152602081019050620005dc565b8381111562000609576000848401525b50505050565b6000620006266200062084620005a3565b62000584565b90508281526020810184848401111562000645576200064462000509565b5b62000652848285620005d9565b509392505050565b600082601f83011262000672576200067162000504565b5b8151620006848482602086016200060f565b91505092915050565b600060208284031215620006a657620006a5620004fa565b5b600082015167ffffffffffffffff811115620006c757620006c6620004ff565b5b620006d5848285016200065a565b91505092915050565b600082825260208201905092915050565b7f4f776e61626c653a2063616c6c6572206973206e6f7420746865206f776e6572600082015250565b600062000727602083620006de565b91506200073482620006ef565b602082019050919050565b600060208201905081810360008301526200075a8162000718565b9050919050565b7f50726573616c6520636c6f736564000000000000000000000000000000000000600082015250565b600062000799600e83620006de565b9150620007a68262000761565b602082019050919050565b60006020820190508181036000830152620007cc816200078a565b9050919050565b600073ffffffffffffffffffffffffffffffffffffffff82169050919050565b60006200080082620007d3565b9050919050565b6200081281620007f3565b82525050565b60006020820190506200082f600083018462000807565b92915050565b7f4e487b7100000000000000000000000000000000000000000000000000000000600052602260045260246000fd5b600060028204905060018216806200087d57607f821691505b6020821081141562000894576200089362000835565b5b50919050565b61583680620008aa6000396000f3fe60806040526004361061020f5760003560e01c80638462151c11610118578063c87b56dd116100a0578063d547cfb71161006f578063d547cfb714610747578063e985e9c514610772578063f2fde38b146107af578063fd24a854146107d8578063fdea8e0b146107f45761020f565b8063c87b56dd146106ac578063d0bbb0d7146106e9578063d0e30db014610714578063d2c34d3f1461071e5761020f565b806395d89b41116100e757806395d89b41146105ea5780639e24078514610615578063a0712d681461063e578063a22cb4651461065a578063b88d4fde146106835761020f565b80638462151c14610540578063854938531461057d5780638d859f3e146105945780638da5cb5b146105bf5761020f565b806342966c681161019b5780635c975abb1161016a5780635c975abb1461046d5780636352211e1461049857806370a08231146104d5578063715018a6146105125780638456cb59146105295761020f565b806342966c68146103b35780634cb2f9ea146103dc5780634f6ccce71461040757806355f804b3146104445761020f565b806318160ddd116101e257806318160ddd146102e257806323b872dd1461030d5780632f745c59146103365780633f4ba83a1461037357806342842e0e1461038a5761020f565b806301ffc9a71461021457806306fdde0314610251578063081812fc1461027c578063095ea7b3146102b9575b600080fd5b34801561022057600080fd5b5061023b600480360381019061023691906138fc565b61080b565b6040516102489190613944565b60405180910390f35b34801561025d57600080fd5b50610266610885565b60405161027391906139f8565b60405180910390f35b34801561028857600080fd5b506102a3600480360381019061029e9190613a50565b610917565b6040516102b09190613abe565b60405180910390f35b3480156102c557600080fd5b506102e060048036038101906102db9190613b05565b61099c565b005b3480156102ee57600080fd5b506102f7610ab4565b6040516103049190613b54565b60405180910390f35b34801561031957600080fd5b50610334600480360381019061032f9190613b6f565b610ac1565b005b34801561034257600080fd5b5061035d60048036038101906103589190613b05565b610b21565b60405161036a9190613b54565b60405180910390f35b34801561037f57600080fd5b50610388610bc6565b005b34801561039657600080fd5b506103b160048036038101906103ac9190613b6f565b610c4c565b005b3480156103bf57600080fd5b506103da60048036038101906103d59190613a50565b610c6c565b005b3480156103e857600080fd5b506103f1610cc1565b6040516103fe9190613944565b60405180910390f35b34801561041357600080fd5b5061042e60048036038101906104299190613a50565b610cd8565b60405161043b9190613b54565b60405180910390f35b34801561045057600080fd5b5061046b60048036038101906104669190613cf7565b610d49565b005b34801561047957600080fd5b50610482610ddf565b60405161048f9190613944565b60405180910390f35b3480156104a457600080fd5b506104bf60048036038101906104ba9190613a50565b610df6565b6040516104cc9190613abe565b60405180910390f35b3480156104e157600080fd5b506104fc60048036038101906104f79190613d40565b610ea8565b6040516105099190613b54565b60405180910390f35b34801561051e57600080fd5b50610527610f60565b005b34801561053557600080fd5b5061053e610fe8565b005b34801561054c57600080fd5b5061056760048036038101906105629190613d40565b61106e565b6040516105749190613e2b565b60405180910390f35b34801561058957600080fd5b5061059261111c565b005b3480156105a057600080fd5b506105a96111a2565b6040516105b69190613b54565b60405180910390f35b3480156105cb57600080fd5b506105d46111ad565b6040516105e19190613abe565b60405180910390f35b3480156105f657600080fd5b506105ff6111d7565b60405161060c91906139f8565b60405180910390f35b34801561062157600080fd5b5061063c60048036038101906106379190613d40565b611269565b005b61065860048036038101906106539190613a50565b6113fe565b005b34801561066657600080fd5b50610681600480360381019061067c9190613e79565b61145a565b005b34801561068f57600080fd5b506106aa60048036038101906106a59190613f5a565b6115db565b005b3480156106b857600080fd5b506106d360048036038101906106ce9190613a50565b61163d565b6040516106e091906139f8565b60405180910390f35b3480156106f557600080fd5b506106fe6116e4565b60405161070b9190613b54565b60405180910390f35b61071c6116ea565b005b34801561072a57600080fd5b5061074560048036038101906107409190613fdd565b6117a6565b005b34801561075357600080fd5b5061075c61198d565b60405161076991906139f8565b60405180910390f35b34801561077e57600080fd5b5061079960048036038101906107949190614068565b611a1b565b6040516107a69190613944565b60405180910390f35b3480156107bb57600080fd5b506107d660048036038101906107d19190613d40565b611aaf565b005b6107f260048036038101906107ed91906140a8565b611ba7565b005b34801561080057600080fd5b50610809611c87565b005b60007f780e9d63000000000000000000000000000000000000000000000000000000007bffffffffffffffffffffffffffffffffffffffffffffffffffffffff1916827bffffffffffffffffffffffffffffffffffffffffffffffffffffffff1916148061087e575061087d82611d0d565b5b9050919050565b60606000805461089490614133565b80601f01602080910402602001604051908101604052809291908181526020018280546108c090614133565b801561090d5780601f106108e25761010080835404028352916020019161090d565b820191906000526020600020905b8154815290600101906020018083116108f057829003601f168201915b5050505050905090565b600061092282611def565b610961576040517f08c379a0000000000000000000000000000000000000000000000000000000008152600401610958906141d7565b60405180910390fd5b6004600083815260200190815260200160002060009054906101000a900473ffffffffffffffffffffffffffffffffffffffff169050919050565b60006109a782610df6565b90508073ffffffffffffffffffffffffffffffffffffffff168373ffffffffffffffffffffffffffffffffffffffff161415610a18576040517f08c379a0000000000000000000000000000000000000000000000000000000008152600401610a0f90614269565b60405180910390fd5b8073ffffffffffffffffffffffffffffffffffffffff16610a37611e5b565b73ffffffffffffffffffffffffffffffffffffffff161480610a665750610a6581610a60611e5b565b611a1b565b5b610aa5576040517f08c379a0000000000000000000000000000000000000000000000000000000008152600401610a9c906142fb565b60405180910390fd5b610aaf8383611e63565b505050565b6000600880549050905090565b610ad2610acc611e5b565b82611f1c565b610b11576040517f08c379a0000000000000000000000000000000000000000000000000000000008152600401610b089061438d565b60405180910390fd5b610b1c838383611ffa565b505050565b6000610b2c83610ea8565b8210610b6d576040517f08c379a0000000000000000000000000000000000000000000000000000000008152600401610b649061441f565b60405180910390fd5b600660008473ffffffffffffffffffffffffffffffffffffffff1673ffffffffffffffffffffffffffffffffffffffff168152602001908152602001600020600083815260200190815260200160002054905092915050565b610bce611e5b565b73ffffffffffffffffffffffffffffffffffffffff16610bec6111ad565b73ffffffffffffffffffffffffffffffffffffffff1614610c42576040517f08c379a0000000000000000000000000000000000000000000000000000000008152600401610c399061448b565b60405180910390fd5b610c4a612256565b565b610c67838383604051806020016040528060008152506115db565b505050565b610c763382611f1c565b610cb5576040517f08c379a0000000000000000000000000000000000000000000000000000000008152600401610cac906144f7565b60405180910390fd5b610cbe816122f8565b50565b6000600a60159054906101000a900460ff16905090565b6000610ce2610ab4565b8210610d23576040517f08c379a0000000000000000000000000000000000000000000000000000000008152600401610d1a90614589565b60405180910390fd5b60088281548110610d3757610d366145a9565b5b90600052602060002001549050919050565b610d51611e5b565b73ffffffffffffffffffffffffffffffffffffffff16610d6f6111ad565b73ffffffffffffffffffffffffffffffffffffffff1614610dc5576040517f08c379a0000000000000000000000000000000000000000000000000000000008152600401610dbc9061448b565b60405180910390fd5b80600d9080519060200190610ddb9291906137ed565b5050565b6000600a60149054906101000a900460ff16905090565b6000806002600084815260200190815260200160002060009054906101000a900473ffffffffffffffffffffffffffffffffffffffff169050600073ffffffffffffffffffffffffffffffffffffffff168173ffffffffffffffffffffffffffffffffffffffff161415610e9f576040517f08c379a0000000000000000000000000000000000000000000000000000000008152600401610e969061464a565b60405180910390fd5b80915050919050565b60008073ffffffffffffffffffffffffffffffffffffffff168273ffffffffffffffffffffffffffffffffffffffff161415610f19576040517f08c379a0000000000000000000000000000000000000000000000000000000008152600401610f10906146dc565b60405180910390fd5b600360008373ffffffffffffffffffffffffffffffffffffffff1673ffffffffffffffffffffffffffffffffffffffff168152602001908152602001600020549050919050565b610f68611e5b565b73ffffffffffffffffffffffffffffffffffffffff16610f866111ad565b73ffffffffffffffffffffffffffffffffffffffff1614610fdc576040517f08c379a0000000000000000000000000000000000000000000000000000000008152600401610fd39061448b565b60405180910390fd5b610fe66000612409565b565b610ff0611e5b565b73ffffffffffffffffffffffffffffffffffffffff1661100e6111ad565b73ffffffffffffffffffffffffffffffffffffffff1614611064576040517f08c379a000000000000000000000000000000000000000000000000000000000815260040161105b9061448b565b60405180910390fd5b61106c6124cf565b565b6060600061107b83610ea8565b905060008167ffffffffffffffff81111561109957611098613bcc565b5b6040519080825280602002602001820160405280156110c75781602001602082028036833780820191505090505b50905060005b82811015611111576110df8582610b21565b8282815181106110f2576110f16145a9565b5b60200260200101818152505080806111099061472b565b9150506110cd565b508092505050919050565b611124611e5b565b73ffffffffffffffffffffffffffffffffffffffff166111426111ad565b73ffffffffffffffffffffffffffffffffffffffff1614611198576040517f08c379a000000000000000000000000000000000000000000000000000000000815260040161118f9061448b565b60405180910390fd5b6111a0612572565b565b66b1a2bc2ec5000081565b6000600a60009054906101000a900473ffffffffffffffffffffffffffffffffffffffff16905090565b6060600180546111e690614133565b80601f016020809104026020016040519081016040528092919081815260200182805461121290614133565b801561125f5780601f106112345761010080835404028352916020019161125f565b820191906000526020600020905b81548152906001019060200180831161124257829003601f168201915b5050505050905090565b611271611e5b565b73ffffffffffffffffffffffffffffffffffffffff1661128f6111ad565b73ffffffffffffffffffffffffffffffffffffffff16146112e5576040517f08c379a00000000000000000000000000000000000000000000000000000000081526004016112dc9061448b565b60405180910390fd5b6112ed610ddf565b1561132d576040517f08c379a0000000000000000000000000000000000000000000000000000000008152600401611324906147c0565b60405180910390fd5b612710611338610ab4565b10611378576040517f08c379a000000000000000000000000000000000000000000000000000000000815260040161136f9061482c565b60405180910390fd5b6000600b54116113bd576040517f08c379a00000000000000000000000000000000000000000000000000000000081526004016113b490614898565b60405180910390fd5b6113e1816001600b5460966113d291906148b8565b6113dc91906148ec565b61261c565b6001600b60008282546113f491906148b8565b9250508190555050565b600a60159054906101000a900460ff161561144e576040517f08c379a00000000000000000000000000000000000000000000000000000000081526004016114459061498e565b60405180910390fd5b6114578161263a565b50565b611462611e5b565b73ffffffffffffffffffffffffffffffffffffffff168273ffffffffffffffffffffffffffffffffffffffff1614156114d0576040517f08c379a00000000000000000000000000000000000000000000000000000000081526004016114c7906149fa565b60405180910390fd5b80600560006114dd611e5b565b73ffffffffffffffffffffffffffffffffffffffff1673ffffffffffffffffffffffffffffffffffffffff16815260200190815260200160002060008473ffffffffffffffffffffffffffffffffffffffff1673ffffffffffffffffffffffffffffffffffffffff16815260200190815260200160002060006101000a81548160ff0219169083151502179055508173ffffffffffffffffffffffffffffffffffffffff1661158a611e5b565b73ffffffffffffffffffffffffffffffffffffffff167f17307eab39ab6107e8899845ad3d59bd9653f200f220920489ca2b5937696c31836040516115cf9190613944565b60405180910390a35050565b6115ec6115e6611e5b565b83611f1c565b61162b576040517f08c379a00000000000000000000000000000000000000000000000000000000081526004016116229061438d565b60405180910390fd5b611637848484846127f4565b50505050565b606061164882611def565b611687576040517f08c379a000000000000000000000000000000000000000000000000000000000815260040161167e90614a8c565b60405180910390fd5b6000611691612850565b905060008151116116b157604051806020016040528060008152506116dc565b806116bb846128e2565b6040516020016116cc929190614ae8565b6040516020818303038152906040525b915050919050565b61271081565b6116f2611e5b565b73ffffffffffffffffffffffffffffffffffffffff166117106111ad565b73ffffffffffffffffffffffffffffffffffffffff1614611766576040517f08c379a000000000000000000000000000000000000000000000000000000000815260040161175d9061448b565b60405180910390fd5b34600c819055507f44863bc9b335caf97ca3a3ab6fb67776965a88292ed53b0679f8eae4a67b630c3460405161179c9190613b54565b60405180910390a1565b60006117b3848484612a43565b90506117bd6111ad565b73ffffffffffffffffffffffffffffffffffffffff168173ffffffffffffffffffffffffffffffffffffffff161461182a576040517f08c379a000000000000000000000000000000000000000000000000000000000815260040161182190614b58565b60405180910390fd5b600e8360405161183a9190614b78565b908152602001604051809103902060009054906101000a900460ff1615611896576040517f08c379a000000000000000000000000000000000000000000000000000000000815260040161188d90614b58565b60405180910390fd5b600084116118d9576040517f08c379a00000000000000000000000000000000000000000000000000000000081526004016118d090614bdb565b60405180910390fd5b3373ffffffffffffffffffffffffffffffffffffffff166108fc859081150290604051600060405180830381858888f1935050505061191757600080fd5b6001600e846040516119299190614b78565b908152602001604051809103902060006101000a81548160ff0219169083151502179055507fc75c366c54f3a0cb00da812673cc8c1eb79fe2afc56c2d476b7365db5abbeade838560405161197f929190614bfb565b60405180910390a150505050565b600d805461199a90614133565b80601f01602080910402602001604051908101604052809291908181526020018280546119c690614133565b8015611a135780601f106119e857610100808354040283529160200191611a13565b820191906000526020600020905b8154815290600101906020018083116119f657829003601f168201915b505050505081565b6000600560008473ffffffffffffffffffffffffffffffffffffffff1673ffffffffffffffffffffffffffffffffffffffff16815260200190815260200160002060008373ffffffffffffffffffffffffffffffffffffffff1673ffffffffffffffffffffffffffffffffffffffff16815260200190815260200160002060009054906101000a900460ff16905092915050565b611ab7611e5b565b73ffffffffffffffffffffffffffffffffffffffff16611ad56111ad565b73ffffffffffffffffffffffffffffffffffffffff1614611b2b576040517f08c379a0000000000000000000000000000000000000000000000000000000008152600401611b229061448b565b60405180910390fd5b600073ffffffffffffffffffffffffffffffffffffffff168173ffffffffffffffffffffffffffffffffffffffff161415611b9b576040517f08c379a0000000000000000000000000000000000000000000000000000000008152600401611b9290614c9d565b60405180910390fd5b611ba481612409565b50565b600a60159054906101000a900460ff16611bf6576040517f08c379a0000000000000000000000000000000000000000000000000000000008152600401611bed90614d09565b60405180910390fd5b6000611c023383612a91565b9050611c0c6111ad565b73ffffffffffffffffffffffffffffffffffffffff168173ffffffffffffffffffffffffffffffffffffffff1614611c79576040517f08c379a0000000000000000000000000000000000000000000000000000000008152600401611c7090614d75565b60405180910390fd5b611c828361263a565b505050565b611c8f611e5b565b73ffffffffffffffffffffffffffffffffffffffff16611cad6111ad565b73ffffffffffffffffffffffffffffffffffffffff1614611d03576040517f08c379a0000000000000000000000000000000000000000000000000000000008152600401611cfa9061448b565b60405180910390fd5b611d0b612adc565b565b60007f80ac58cd000000000000000000000000000000000000000000000000000000007bffffffffffffffffffffffffffffffffffffffffffffffffffffffff1916827bffffffffffffffffffffffffffffffffffffffffffffffffffffffff19161480611dd857507f5b5e139f000000000000000000000000000000000000000000000000000000007bffffffffffffffffffffffffffffffffffffffffffffffffffffffff1916827bffffffffffffffffffffffffffffffffffffffffffffffffffffffff1916145b80611de85750611de782612b87565b5b9050919050565b60008073ffffffffffffffffffffffffffffffffffffffff166002600084815260200190815260200160002060009054906101000a900473ffffffffffffffffffffffffffffffffffffffff1673ffffffffffffffffffffffffffffffffffffffff1614159050919050565b600033905090565b816004600083815260200190815260200160002060006101000a81548173ffffffffffffffffffffffffffffffffffffffff021916908373ffffffffffffffffffffffffffffffffffffffff160217905550808273ffffffffffffffffffffffffffffffffffffffff16611ed683610df6565b73ffffffffffffffffffffffffffffffffffffffff167f8c5be1e5ebec7d5bd14f71427d1e84f3dd0314c0f7b2291e5b200ac8c7c3b92560405160405180910390a45050565b6000611f2782611def565b611f66576040517f08c379a0000000000000000000000000000000000000000000000000000000008152600401611f5d90614e07565b60405180910390fd5b6000611f7183610df6565b90508073ffffffffffffffffffffffffffffffffffffffff168473ffffffffffffffffffffffffffffffffffffffff161480611fe057508373ffffffffffffffffffffffffffffffffffffffff16611fc884610917565b73ffffffffffffffffffffffffffffffffffffffff16145b80611ff15750611ff08185611a1b565b5b91505092915050565b8273ffffffffffffffffffffffffffffffffffffffff1661201a82610df6565b73ffffffffffffffffffffffffffffffffffffffff1614612070576040517f08c379a000000000000000000000000000000000000000000000000000000000815260040161206790614e99565b60405180910390fd5b600073ffffffffffffffffffffffffffffffffffffffff168273ffffffffffffffffffffffffffffffffffffffff1614156120e0576040517f08c379a00000000000000000000000000000000000000000000000000000000081526004016120d790614f2b565b60405180910390fd5b6120eb838383612bf1565b6120f6600082611e63565b6001600360008573ffffffffffffffffffffffffffffffffffffffff1673ffffffffffffffffffffffffffffffffffffffff168152602001908152602001600020600082825461214691906148b8565b925050819055506001600360008473ffffffffffffffffffffffffffffffffffffffff1673ffffffffffffffffffffffffffffffffffffffff168152602001908152602001600020600082825461219d91906148ec565b92505081905550816002600083815260200190815260200160002060006101000a81548173ffffffffffffffffffffffffffffffffffffffff021916908373ffffffffffffffffffffffffffffffffffffffff160217905550808273ffffffffffffffffffffffffffffffffffffffff168473ffffffffffffffffffffffffffffffffffffffff167fddf252ad1be2c89b69c2b068fc378daa952ba7f163c4a11628f55a4df523b3ef60405160405180910390a4505050565b61225e610ddf565b61229d576040517f08c379a000000000000000000000000000000000000000000000000000000000815260040161229490614f97565b60405180910390fd5b6000600a60146101000a81548160ff0219169083151502179055507f5db9ee0a495bf2e6ff9c91a7834c1ba4fdd244a5e8aa4e537bd38aeae4b073aa6122e1611e5b565b6040516122ee9190613abe565b60405180910390a1565b600061230382610df6565b905061231181600084612bf1565b61231c600083611e63565b6001600360008373ffffffffffffffffffffffffffffffffffffffff1673ffffffffffffffffffffffffffffffffffffffff168152602001908152602001600020600082825461236c91906148b8565b925050819055506002600083815260200190815260200160002060006101000a81549073ffffffffffffffffffffffffffffffffffffffff021916905581600073ffffffffffffffffffffffffffffffffffffffff168273ffffffffffffffffffffffffffffffffffffffff167fddf252ad1be2c89b69c2b068fc378daa952ba7f163c4a11628f55a4df523b3ef60405160405180910390a45050565b6000600a60009054906101000a900473ffffffffffffffffffffffffffffffffffffffff16905081600a60006101000a81548173ffffffffffffffffffffffffffffffffffffffff021916908373ffffffffffffffffffffffffffffffffffffffff1602179055508173ffffffffffffffffffffffffffffffffffffffff168173ffffffffffffffffffffffffffffffffffffffff167f8be0079c531659141344cd1fd0a4f28419497f9722a3daafe3b4186f6b6457e060405160405180910390a35050565b6124d7610ddf565b15612517576040517f08c379a000000000000000000000000000000000000000000000000000000000815260040161250e906147c0565b60405180910390fd5b6001600a60146101000a81548160ff0219169083151502179055507f62e78cea01bee320cd4e420270b5ea74000d11b0c9f74754ebdbfc544b05a25861255b611e5b565b6040516125689190613abe565b60405180910390a1565b600a60159054906101000a900460ff166125c1576040517f08c379a00000000000000000000000000000000000000000000000000000000081526004016125b890614d09565b60405180910390fd5b6000600a60156101000a81548160ff0219169083151502179055507f9e209206b95275a497262e47a30901f0716b2d6d19618dd5e9b7b68237e7cb71612605611e5b565b6040516126129190613abe565b60405180910390a1565b612636828260405180602001604052806000815250612d05565b5050565b612642610ddf565b15612682576040517f08c379a0000000000000000000000000000000000000000000000000000000008152600401612679906147c0565b60405180910390fd5b60058161268e33610ea8565b61269891906148ec565b11156126d9576040517f08c379a00000000000000000000000000000000000000000000000000000000081526004016126d090615029565b60405180910390fd5b60966127106126e891906148b8565b816126f1610ab4565b6126fb91906148ec565b111561273c576040517f08c379a00000000000000000000000000000000000000000000000000000000081526004016127339061482c565b60405180910390fd5b8066b1a2bc2ec5000061274f9190615049565b341015612791576040517f08c379a0000000000000000000000000000000000000000000000000000000008152600401612788906150ef565b60405180910390fd5b60005b818110156127f0576000600160966127aa610ab4565b6127b491906148ec565b6127be91906148ec565b90506127106127cb610ab4565b10156127dc576127db338261261c565b5b5080806127e89061472b565b915050612794565b5050565b6127ff848484611ffa565b61280b84848484612d60565b61284a576040517f08c379a000000000000000000000000000000000000000000000000000000000815260040161284190615181565b60405180910390fd5b50505050565b6060600d805461285f90614133565b80601f016020809104026020016040519081016040528092919081815260200182805461288b90614133565b80156128d85780601f106128ad576101008083540402835291602001916128d8565b820191906000526020600020905b8154815290600101906020018083116128bb57829003601f168201915b5050505050905090565b6060600082141561292a576040518060400160405280600181526020017f30000000000000000000000000000000000000000000000000000000000000008152509050612a3e565b600082905060005b6000821461295c5780806129459061472b565b915050600a8261295591906151d0565b9150612932565b60008167ffffffffffffffff81111561297857612977613bcc565b5b6040519080825280601f01601f1916602001820160405280156129aa5781602001600182028036833780820191505090505b5090505b60008514612a37576001826129c391906148b8565b9150600a856129d29190615201565b60306129de91906148ec565b60f81b8183815181106129f4576129f36145a9565b5b60200101907effffffffffffffffffffffffffffffffffffffffffffffffffffffffffffff1916908160001a905350600a85612a3091906151d0565b94506129ae565b8093505050505b919050565b6000612a8882612a7a8686604051602001612a5f929190615253565b60405160208183030381529060405280519060200120612ef7565b612f2790919063ffffffff16565b90509392505050565b6000612ad482612ac685604051602001612aab91906152c3565b60405160208183030381529060405280519060200120612ef7565b612f2790919063ffffffff16565b905092915050565b600a60159054906101000a900460ff1615612b2c576040517f08c379a0000000000000000000000000000000000000000000000000000000008152600401612b239061498e565b60405180910390fd5b6001600a60156101000a81548160ff0219169083151502179055507fb1412a7cd96bc4195d633c938189c320dcbeb2cff60c1b8bdd872678fb3514b4612b70611e5b565b604051612b7d9190613abe565b60405180910390a1565b60007f01ffc9a7000000000000000000000000000000000000000000000000000000007bffffffffffffffffffffffffffffffffffffffffffffffffffffffff1916827bffffffffffffffffffffffffffffffffffffffffffffffffffffffff1916149050919050565b612bfc838383612f4e565b600073ffffffffffffffffffffffffffffffffffffffff168373ffffffffffffffffffffffffffffffffffffffff161415612c3f57612c3a81612f53565b612c7e565b8173ffffffffffffffffffffffffffffffffffffffff168373ffffffffffffffffffffffffffffffffffffffff1614612c7d57612c7c8382612f9c565b5b5b600073ffffffffffffffffffffffffffffffffffffffff168273ffffffffffffffffffffffffffffffffffffffff161415612cc157612cbc81613109565b612d00565b8273ffffffffffffffffffffffffffffffffffffffff168273ffffffffffffffffffffffffffffffffffffffff1614612cff57612cfe82826131da565b5b5b505050565b612d0f8383613259565b612d1c6000848484612d60565b612d5b576040517f08c379a0000000000000000000000000000000000000000000000000000000008152600401612d5290615181565b60405180910390fd5b505050565b6000612d818473ffffffffffffffffffffffffffffffffffffffff16613427565b15612eea578373ffffffffffffffffffffffffffffffffffffffff1663150b7a02612daa611e5b565b8786866040518563ffffffff1660e01b8152600401612dcc9493929190615333565b602060405180830381600087803b158015612de657600080fd5b505af1925050508015612e1757506040513d601f19601f82011682018060405250810190612e149190615394565b60015b612e9a573d8060008114612e47576040519150601f19603f3d011682016040523d82523d6000602084013e612e4c565b606091505b50600081511415612e92576040517f08c379a0000000000000000000000000000000000000000000000000000000008152600401612e8990615181565b60405180910390fd5b805181602001fd5b63150b7a0260e01b7bffffffffffffffffffffffffffffffffffffffffffffffffffffffff1916817bffffffffffffffffffffffffffffffffffffffffffffffffffffffff191614915050612eef565b600190505b949350505050565b600081604051602001612f0a9190615438565b604051602081830303815290604052805190602001209050919050565b6000806000612f36858561343a565b91509150612f43816134bd565b819250505092915050565b505050565b6008805490506009600083815260200190815260200160002081905550600881908060018154018082558091505060019003906000526020600020016000909190919091505550565b60006001612fa984610ea8565b612fb391906148b8565b9050600060076000848152602001908152602001600020549050818114613098576000600660008673ffffffffffffffffffffffffffffffffffffffff1673ffffffffffffffffffffffffffffffffffffffff168152602001908152602001600020600084815260200190815260200160002054905080600660008773ffffffffffffffffffffffffffffffffffffffff1673ffffffffffffffffffffffffffffffffffffffff168152602001908152602001600020600084815260200190815260200160002081905550816007600083815260200190815260200160002081905550505b6007600084815260200190815260200160002060009055600660008573ffffffffffffffffffffffffffffffffffffffff1673ffffffffffffffffffffffffffffffffffffffff16815260200190815260200160002060008381526020019081526020016000206000905550505050565b6000600160088054905061311d91906148b8565b905060006009600084815260200190815260200160002054905060006008838154811061314d5761314c6145a9565b5b90600052602060002001549050806008838154811061316f5761316e6145a9565b5b9060005260206000200181905550816009600083815260200190815260200160002081905550600960008581526020019081526020016000206000905560088054806131be576131bd61545e565b5b6001900381819060005260206000200160009055905550505050565b60006131e583610ea8565b905081600660008573ffffffffffffffffffffffffffffffffffffffff1673ffffffffffffffffffffffffffffffffffffffff168152602001908152602001600020600083815260200190815260200160002081905550806007600084815260200190815260200160002081905550505050565b600073ffffffffffffffffffffffffffffffffffffffff168273ffffffffffffffffffffffffffffffffffffffff1614156132c9576040517f08c379a00000000000000000000000000000000000000000000000000000000081526004016132c0906154d9565b60405180910390fd5b6132d281611def565b15613312576040517f08c379a000000000000000000000000000000000000000000000000000000000815260040161330990615545565b60405180910390fd5b61331e60008383612bf1565b6001600360008473ffffffffffffffffffffffffffffffffffffffff1673ffffffffffffffffffffffffffffffffffffffff168152602001908152602001600020600082825461336e91906148ec565b92505081905550816002600083815260200190815260200160002060006101000a81548173ffffffffffffffffffffffffffffffffffffffff021916908373ffffffffffffffffffffffffffffffffffffffff160217905550808273ffffffffffffffffffffffffffffffffffffffff16600073ffffffffffffffffffffffffffffffffffffffff167fddf252ad1be2c89b69c2b068fc378daa952ba7f163c4a11628f55a4df523b3ef60405160405180910390a45050565b600080823b905060008111915050919050565b60008060418351141561347c5760008060006020860151925060408601519150606086015160001a905061347087828585613692565b945094505050506134b6565b6040835114156134ad5760008060208501519150604085015190506134a286838361379f565b9350935050506134b6565b60006002915091505b9250929050565b600060048111156134d1576134d0615565565b5b8160048111156134e4576134e3615565565b5b14156134ef5761368f565b6001600481111561350357613502615565565b5b81600481111561351657613515615565565b5b1415613557576040517f08c379a000000000000000000000000000000000000000000000000000000000815260040161354e906155e0565b60405180910390fd5b6002600481111561356b5761356a615565565b5b81600481111561357e5761357d615565565b5b14156135bf576040517f08c379a00000000000000000000000000000000000000000000000000000000081526004016135b69061564c565b60405180910390fd5b600360048111156135d3576135d2615565565b5b8160048111156135e6576135e5615565565b5b1415613627576040517f08c379a000000000000000000000000000000000000000000000000000000000815260040161361e906156de565b60405180910390fd5b60048081111561363a57613639615565565b5b81600481111561364d5761364c615565565b5b141561368e576040517f08c379a000000000000000000000000000000000000000000000000000000000815260040161368590615770565b60405180910390fd5b5b50565b6000807f7fffffffffffffffffffffffffffffff5d576e7357a4501ddfe92f46681b20a08360001c11156136cd576000600391509150613796565b601b8560ff16141580156136e55750601c8560ff1614155b156136f7576000600491509150613796565b60006001878787876040516000815260200160405260405161371c94939291906157bb565b6020604051602081039080840390855afa15801561373e573d6000803e3d6000fd5b505050602060405103519050600073ffffffffffffffffffffffffffffffffffffffff168173ffffffffffffffffffffffffffffffffffffffff16141561378d57600060019250925050613796565b80600092509250505b94509492505050565b6000806000807f7fffffffffffffffffffffffffffffffffffffffffffffffffffffffffffffff85169150601b8560ff1c0190506137df87828885613692565b935093505050935093915050565b8280546137f990614133565b90600052602060002090601f01602090048101928261381b5760008555613862565b82601f1061383457805160ff1916838001178555613862565b82800160010185558215613862579182015b82811115613861578251825591602001919060010190613846565b5b50905061386f9190613873565b5090565b5b8082111561388c576000816000905550600101613874565b5090565b6000604051905090565b600080fd5b600080fd5b60007fffffffff0000000000000000000000000000000000000000000000000000000082169050919050565b6138d9816138a4565b81146138e457600080fd5b50565b6000813590506138f6816138d0565b92915050565b6000602082840312156139125761391161389a565b5b6000613920848285016138e7565b91505092915050565b60008115159050919050565b61393e81613929565b82525050565b60006020820190506139596000830184613935565b92915050565b600081519050919050565b600082825260208201905092915050565b60005b8381101561399957808201518184015260208101905061397e565b838111156139a8576000848401525b50505050565b6000601f19601f8301169050919050565b60006139ca8261395f565b6139d4818561396a565b93506139e481856020860161397b565b6139ed816139ae565b840191505092915050565b60006020820190508181036000830152613a1281846139bf565b905092915050565b6000819050919050565b613a2d81613a1a565b8114613a3857600080fd5b50565b600081359050613a4a81613a24565b92915050565b600060208284031215613a6657613a6561389a565b5b6000613a7484828501613a3b565b91505092915050565b600073ffffffffffffffffffffffffffffffffffffffff82169050919050565b6000613aa882613a7d565b9050919050565b613ab881613a9d565b82525050565b6000602082019050613ad36000830184613aaf565b92915050565b613ae281613a9d565b8114613aed57600080fd5b50565b600081359050613aff81613ad9565b92915050565b60008060408385031215613b1c57613b1b61389a565b5b6000613b2a85828601613af0565b9250506020613b3b85828601613a3b565b9150509250929050565b613b4e81613a1a565b82525050565b6000602082019050613b696000830184613b45565b92915050565b600080600060608486031215613b8857613b8761389a565b5b6000613b9686828701613af0565b9350506020613ba786828701613af0565b9250506040613bb886828701613a3b565b9150509250925092565b600080fd5b600080fd5b7f4e487b7100000000000000000000000000000000000000000000000000000000600052604160045260246000fd5b613c04826139ae565b810181811067ffffffffffffffff82111715613c2357613c22613bcc565b5b80604052505050565b6000613c36613890565b9050613c428282613bfb565b919050565b600067ffffffffffffffff821115613c6257613c61613bcc565b5b613c6b826139ae565b9050602081019050919050565b82818337600083830152505050565b6000613c9a613c9584613c47565b613c2c565b905082815260208101848484011115613cb657613cb5613bc7565b5b613cc1848285613c78565b509392505050565b600082601f830112613cde57613cdd613bc2565b5b8135613cee848260208601613c87565b91505092915050565b600060208284031215613d0d57613d0c61389a565b5b600082013567ffffffffffffffff811115613d2b57613d2a61389f565b5b613d3784828501613cc9565b91505092915050565b600060208284031215613d5657613d5561389a565b5b6000613d6484828501613af0565b91505092915050565b600081519050919050565b600082825260208201905092915050565b6000819050602082019050919050565b613da281613a1a565b82525050565b6000613db48383613d99565b60208301905092915050565b6000602082019050919050565b6000613dd882613d6d565b613de28185613d78565b9350613ded83613d89565b8060005b83811015613e1e578151613e058882613da8565b9750613e1083613dc0565b925050600181019050613df1565b5085935050505092915050565b60006020820190508181036000830152613e458184613dcd565b905092915050565b613e5681613929565b8114613e6157600080fd5b50565b600081359050613e7381613e4d565b92915050565b60008060408385031215613e9057613e8f61389a565b5b6000613e9e85828601613af0565b9250506020613eaf85828601613e64565b9150509250929050565b600067ffffffffffffffff821115613ed457613ed3613bcc565b5b613edd826139ae565b9050602081019050919050565b6000613efd613ef884613eb9565b613c2c565b905082815260208101848484011115613f1957613f18613bc7565b5b613f24848285613c78565b509392505050565b600082601f830112613f4157613f40613bc2565b5b8135613f51848260208601613eea565b91505092915050565b60008060008060808587031215613f7457613f7361389a565b5b6000613f8287828801613af0565b9450506020613f9387828801613af0565b9350506040613fa487828801613a3b565b925050606085013567ffffffffffffffff811115613fc557613fc461389f565b5b613fd187828801613f2c565b91505092959194509250565b600080600060608486031215613ff657613ff561389a565b5b600061400486828701613a3b565b935050602084013567ffffffffffffffff8111156140255761402461389f565b5b61403186828701613cc9565b925050604084013567ffffffffffffffff8111156140525761405161389f565b5b61405e86828701613f2c565b9150509250925092565b6000806040838503121561407f5761407e61389a565b5b600061408d85828601613af0565b925050602061409e85828601613af0565b9150509250929050565b600080604083850312156140bf576140be61389a565b5b60006140cd85828601613a3b565b925050602083013567ffffffffffffffff8111156140ee576140ed61389f565b5b6140fa85828601613f2c565b9150509250929050565b7f4e487b7100000000000000000000000000000000000000000000000000000000600052602260045260246000fd5b6000600282049050600182168061414b57607f821691505b6020821081141561415f5761415e614104565b5b50919050565b7f4552433732313a20617070726f76656420717565727920666f72206e6f6e657860008201527f697374656e7420746f6b656e0000000000000000000000000000000000000000602082015250565b60006141c1602c8361396a565b91506141cc82614165565b604082019050919050565b600060208201905081810360008301526141f0816141b4565b9050919050565b7f4552433732313a20617070726f76616c20746f2063757272656e74206f776e6560008201527f7200000000000000000000000000000000000000000000000000000000000000602082015250565b600061425360218361396a565b915061425e826141f7565b604082019050919050565b6000602082019050818103600083015261428281614246565b9050919050565b7f4552433732313a20617070726f76652063616c6c6572206973206e6f74206f7760008201527f6e6572206e6f7220617070726f76656420666f7220616c6c0000000000000000602082015250565b60006142e560388361396a565b91506142f082614289565b604082019050919050565b60006020820190508181036000830152614314816142d8565b9050919050565b7f4552433732313a207472616e736665722063616c6c6572206973206e6f74206f60008201527f776e6572206e6f7220617070726f766564000000000000000000000000000000602082015250565b600061437760318361396a565b91506143828261431b565b604082019050919050565b600060208201905081810360008301526143a68161436a565b9050919050565b7f455243373231456e756d657261626c653a206f776e657220696e646578206f7560008201527f74206f6620626f756e6473000000000000000000000000000000000000000000602082015250565b6000614409602b8361396a565b9150614414826143ad565b604082019050919050565b60006020820190508181036000830152614438816143fc565b9050919050565b7f4f776e61626c653a2063616c6c6572206973206e6f7420746865206f776e6572600082015250565b600061447560208361396a565b91506144808261443f565b602082019050919050565b600060208201905081810360008301526144a481614468565b9050919050565b7f43616c6c6572206973206e6f74206f776e6572206e6f7220617070726f766564600082015250565b60006144e160208361396a565b91506144ec826144ab565b602082019050919050565b60006020820190508181036000830152614510816144d4565b9050919050565b7f455243373231456e756d657261626c653a20676c6f62616c20696e646578206f60008201527f7574206f6620626f756e64730000000000000000000000000000000000000000602082015250565b6000614573602c8361396a565b915061457e82614517565b604082019050919050565b600060208201905081810360008301526145a281614566565b9050919050565b7f4e487b7100000000000000000000000000000000000000000000000000000000600052603260045260246000fd5b7f4552433732313a206f776e657220717565727920666f72206e6f6e657869737460008201527f656e7420746f6b656e0000000000000000000000000000000000000000000000602082015250565b600061463460298361396a565b915061463f826145d8565b604082019050919050565b6000602082019050818103600083015261466381614627565b9050919050565b7f4552433732313a2062616c616e636520717565727920666f7220746865207a6560008201527f726f206164647265737300000000000000000000000000000000000000000000602082015250565b60006146c6602a8361396a565b91506146d18261466a565b604082019050919050565b600060208201905081810360008301526146f5816146b9565b9050919050565b7f4e487b7100000000000000000000000000000000000000000000000000000000600052601160045260246000fd5b600061473682613a1a565b91507fffffffffffffffffffffffffffffffffffffffffffffffffffffffffffffffff821415614769576147686146fc565b5b600182019050919050565b7f5061757361626c653a2070617573656400000000000000000000000000000000600082015250565b60006147aa60108361396a565b91506147b582614774565b602082019050919050565b600060208201905081810360008301526147d98161479d565b9050919050565b7f45786365656473206d6178696d756d20566f6f646f6c6c7a20737570706c7900600082015250565b6000614816601f8361396a565b9150614821826147e0565b602082019050919050565b6000602082019050818103600083015261484581614809565b9050919050565b7f4578636565647320726573657276656420566f6f646f6c6c7a20737570706c79600082015250565b600061488260208361396a565b915061488d8261484c565b602082019050919050565b600060208201905081810360008301526148b181614875565b9050919050565b60006148c382613a1a565b91506148ce83613a1a565b9250828210156148e1576148e06146fc565b5b828203905092915050565b60006148f782613a1a565b915061490283613a1a565b9250827fffffffffffffffffffffffffffffffffffffffffffffffffffffffffffffffff03821115614937576149366146fc565b5b828201905092915050565b7f50726573616c6520636c6f736564000000000000000000000000000000000000600082015250565b6000614978600e8361396a565b915061498382614942565b602082019050919050565b600060208201905081810360008301526149a78161496b565b9050919050565b7f4552433732313a20617070726f766520746f2063616c6c657200000000000000600082015250565b60006149e460198361396a565b91506149ef826149ae565b602082019050919050565b60006020820190508181036000830152614a13816149d7565b9050919050565b7f4552433732314d657461646174613a2055524920717565727920666f72206e6f60008201527f6e6578697374656e7420746f6b656e0000000000000000000000000000000000602082015250565b6000614a76602f8361396a565b9150614a8182614a1a565b604082019050919050565b60006020820190508181036000830152614aa581614a69565b9050919050565b600081905092915050565b6000614ac28261395f565b614acc8185614aac565b9350614adc81856020860161397b565b80840191505092915050565b6000614af48285614ab7565b9150614b008284614ab7565b91508190509392505050565b7f4e6f7420617574686f72697a656420746f20636c61696d000000000000000000600082015250565b6000614b4260178361396a565b9150614b4d82614b0c565b602082019050919050565b60006020820190508181036000830152614b7181614b35565b9050919050565b6000614b848284614ab7565b915081905092915050565b7f5468657265206973206e6f20616d6f756e74206c65667420746f20636c61696d600082015250565b6000614bc560208361396a565b9150614bd082614b8f565b602082019050919050565b60006020820190508181036000830152614bf481614bb8565b9050919050565b60006040820190508181036000830152614c1581856139bf565b9050614c246020830184613b45565b9392505050565b7f4f776e61626c653a206e6577206f776e657220697320746865207a65726f206160008201527f6464726573730000000000000000000000000000000000000000000000000000602082015250565b6000614c8760268361396a565b9150614c9282614c2b565b604082019050919050565b60006020820190508181036000830152614cb681614c7a565b9050919050565b7f53616c6520636c6f736564000000000000000000000000000000000000000000600082015250565b6000614cf3600b8361396a565b9150614cfe82614cbd565b602082019050919050565b60006020820190508181036000830152614d2281614ce6565b9050919050565b7f4e6f7420617574686f72697a656420746f206d696e7400000000000000000000600082015250565b6000614d5f60168361396a565b9150614d6a82614d29565b602082019050919050565b60006020820190508181036000830152614d8e81614d52565b9050919050565b7f4552433732313a206f70657261746f7220717565727920666f72206e6f6e657860008201527f697374656e7420746f6b656e0000000000000000000000000000000000000000602082015250565b6000614df1602c8361396a565b9150614dfc82614d95565b604082019050919050565b60006020820190508181036000830152614e2081614de4565b9050919050565b7f4552433732313a207472616e73666572206f6620746f6b656e2074686174206960008201527f73206e6f74206f776e0000000000000000000000000000000000000000000000602082015250565b6000614e8360298361396a565b9150614e8e82614e27565b604082019050919050565b60006020820190508181036000830152614eb281614e76565b9050919050565b7f4552433732313a207472616e7366657220746f20746865207a65726f2061646460008201527f7265737300000000000000000000000000000000000000000000000000000000602082015250565b6000614f1560248361396a565b9150614f2082614eb9565b604082019050919050565b60006020820190508181036000830152614f4481614f08565b9050919050565b7f5061757361626c653a206e6f7420706175736564000000000000000000000000600082015250565b6000614f8160148361396a565b9150614f8c82614f4b565b602082019050919050565b60006020820190508181036000830152614fb081614f74565b9050919050565b7f43616e206f6e6c79206d696e74203520746f6b656e732061742061646472657360008201527f7300000000000000000000000000000000000000000000000000000000000000602082015250565b600061501360218361396a565b915061501e82614fb7565b604082019050919050565b6000602082019050818103600083015261504281615006565b9050919050565b600061505482613a1a565b915061505f83613a1a565b9250817fffffffffffffffffffffffffffffffffffffffffffffffffffffffffffffffff0483118215151615615098576150976146fc565b5b828202905092915050565b7f45746865722076616c75652073656e74206973206e6f7420636f727265637400600082015250565b60006150d9601f8361396a565b91506150e4826150a3565b602082019050919050565b60006020820190508181036000830152615108816150cc565b9050919050565b7f4552433732313a207472616e7366657220746f206e6f6e20455243373231526560008201527f63656976657220696d706c656d656e7465720000000000000000000000000000602082015250565b600061516b60328361396a565b91506151768261510f565b604082019050919050565b6000602082019050818103600083015261519a8161515e565b9050919050565b7f4e487b7100000000000000000000000000000000000000000000000000000000600052601260045260246000fd5b60006151db82613a1a565b91506151e683613a1a565b9250826151f6576151f56151a1565b5b828204905092915050565b600061520c82613a1a565b915061521783613a1a565b925082615227576152266151a1565b5b828206905092915050565b6000819050919050565b61524d61524882613a1a565b615232565b82525050565b600061525f828561523c565b60208201915061526f8284614ab7565b91508190509392505050565b60008160601b9050919050565b60006152938261527b565b9050919050565b60006152a582615288565b9050919050565b6152bd6152b882613a9d565b61529a565b82525050565b60006152cf82846152ac565b60148201915081905092915050565b600081519050919050565b600082825260208201905092915050565b6000615305826152de565b61530f81856152e9565b935061531f81856020860161397b565b615328816139ae565b840191505092915050565b60006080820190506153486000830187613aaf565b6153556020830186613aaf565b6153626040830185613b45565b818103606083015261537481846152fa565b905095945050505050565b60008151905061538e816138d0565b92915050565b6000602082840312156153aa576153a961389a565b5b60006153b88482850161537f565b91505092915050565b7f19457468657265756d205369676e6564204d6573736167653a0a333200000000600082015250565b60006153f7601c83614aac565b9150615402826153c1565b601c82019050919050565b6000819050919050565b6000819050919050565b61543261542d8261540d565b615417565b82525050565b6000615443826153ea565b915061544f8284615421565b60208201915081905092915050565b7f4e487b7100000000000000000000000000000000000000000000000000000000600052603160045260246000fd5b7f4552433732313a206d696e7420746f20746865207a65726f2061646472657373600082015250565b60006154c360208361396a565b91506154ce8261548d565b602082019050919050565b600060208201905081810360008301526154f2816154b6565b9050919050565b7f4552433732313a20746f6b656e20616c7265616479206d696e74656400000000600082015250565b600061552f601c8361396a565b915061553a826154f9565b602082019050919050565b6000602082019050818103600083015261555e81615522565b9050919050565b7f4e487b7100000000000000000000000000000000000000000000000000000000600052602160045260246000fd5b7f45434453413a20696e76616c6964207369676e61747572650000000000000000600082015250565b60006155ca60188361396a565b91506155d582615594565b602082019050919050565b600060208201905081810360008301526155f9816155bd565b9050919050565b7f45434453413a20696e76616c6964207369676e6174757265206c656e67746800600082015250565b6000615636601f8361396a565b915061564182615600565b602082019050919050565b6000602082019050818103600083015261566581615629565b9050919050565b7f45434453413a20696e76616c6964207369676e6174757265202773272076616c60008201527f7565000000000000000000000000000000000000000000000000000000000000602082015250565b60006156c860228361396a565b91506156d38261566c565b604082019050919050565b600060208201905081810360008301526156f7816156bb565b9050919050565b7f45434453413a20696e76616c6964207369676e6174757265202776272076616c60008201527f7565000000000000000000000000000000000000000000000000000000000000602082015250565b600061575a60228361396a565b9150615765826156fe565b604082019050919050565b600060208201905081810360008301526157898161574d565b9050919050565b6157998161540d565b82525050565b600060ff82169050919050565b6157b58161579f565b82525050565b60006080820190506157d06000830187615790565b6157dd60208301866157ac565b6157ea6040830185615790565b6157f76060830184615790565b9594505050505056fea2646970667358221220297d6aa7b888320410f20e62a3f2728e52efed5e4d6d20a5472c5c26a141ae0e64736f6c63430008090033",
  "immutableReferences": {},
  "source": "// SPDX-License-Identifier: MIT\npragma solidity ^0.8.0;\n\nimport \"@openzeppelin/contracts/token/ERC721/extensions/ERC721Enumerable.sol\";\nimport \"@openzeppelin/contracts/access/Ownable.sol\";\nimport \"@openzeppelin/contracts/security/Pausable.sol\";\nimport \"@openzeppelin/contracts/utils/cryptography/ECDSA.sol\";\n\nimport \"./Presalable.sol\";\n\ncontract Voodollz is ERC721Enumerable, Ownable, Pausable, Presalable {\n    using ECDSA for bytes32;\n\n    event EthDeposited(uint256 amount);\n    event EthClaimed(string _nonce, uint256 amount);\n\n    uint256 private constant _RESERVED = 150;\n    uint256 private _reservedLeft = _RESERVED;\n    uint256 private _ethDeposited = 0 ether;\n\n    string public baseTokenURI;\n    \n    uint256 public constant MAX_TOKEN_COUNT = 10000;\n    uint256 public constant PRICE = 0.05 ether;\n\n    mapping(string => bool) private _usedNonces;\n\n    constructor(string memory _baseTokenURI) ERC721(\"Voodollz\", \"Voodollz\")  {\n        setBaseURI(_baseTokenURI);\n        presale();\n    }\n\n    // Mint methods\n\n    function _mintVoodollz(uint256 _amount) private whenNotPaused {\n        require(balanceOf(msg.sender) + _amount <= 5, \"Can only mint 5 tokens at address\");\n        require(totalSupply() + _amount <= MAX_TOKEN_COUNT - _RESERVED, \"Exceeds maximum Voodollz supply\");\n        require(msg.value >= PRICE * _amount, \"Ether value sent is not correct\");\n    \n        for(uint256 i = 0; i < _amount; i++) {\n            uint256 mintIndex = totalSupply() + _RESERVED + 1;\n            if (totalSupply() < MAX_TOKEN_COUNT) {\n                _safeMint(msg.sender, mintIndex);\n            }\n        }\n    }\n\n    function mint(uint256 _amount) public payable whenNotPresaled {\n        _mintVoodollz(_amount);\n    }\n\n    function presaleMint(uint256 _amount, bytes memory _signature) public payable whenPresaled {        \n        address signer = recoverSigner(msg.sender, _signature);\n        require(signer == owner(), \"Not authorized to mint\");\n\n        _mintVoodollz(_amount);\n    }\n\n    // Give methods\n    \n    function giveAway(address _to) public onlyOwner whenNotPaused {\n        require(totalSupply() < MAX_TOKEN_COUNT, \"Exceeds maximum Voodollz supply\");\n        require(_reservedLeft > 0, \"Exceeds reserved Voodollz supply\");\n\n        _safeMint(_to, _RESERVED - _reservedLeft + 1);\n\n        _reservedLeft -= 1;\n    }\n\n    // Community wallet methods\n\n    function deposit() public payable onlyOwner{\n        _ethDeposited = msg.value;\n\n        emit EthDeposited(msg.value);\n    }\n\n    function claim(uint256 _amount, string memory _nonce, bytes memory _signature) public {\n        address signer = recoverSigner(_amount, _nonce, _signature);\n        require(signer == owner(), \"Not authorized to claim\");\n        require(!_usedNonces[_nonce], \"Not authorized to claim\");\n\n        require(_amount > 0, \"There is no amount left to claim\");\n        require(payable(msg.sender).send(_amount));\n\n        _usedNonces[_nonce] = true;\n\n        emit EthClaimed(_nonce, _amount);\n    }\n\n    function tokensOfOwner(address _owner) public view returns(uint256[] memory){\n        uint256 tokenCount = balanceOf(_owner);\n        uint256[] memory tokensId = new uint256[](tokenCount);\n\n        for(uint256 i; i < tokenCount; i++){\n            tokensId[i] = tokenOfOwnerByIndex(_owner, i);\n        }\n\n        return tokensId;\n    }\n\n    // Burn methods\n    \n    function burn(uint256 tokenId) public virtual {\n        require(_isApprovedOrOwner(msg.sender, tokenId), \"Caller is not owner nor approved\");\n        _burn(tokenId);\n    }\n\n    // Service methods\n\n    function recoverSigner(address _wallet, bytes memory _signature) private pure returns (address){\n        return keccak256(abi.encodePacked(_wallet)).toEthSignedMessageHash().recover(_signature);\n    }\n\n    function recoverSigner(uint256 _amount, string memory nonce, bytes memory _signature) private pure returns (address){\n        return keccak256(abi.encodePacked(_amount, nonce)).toEthSignedMessageHash().recover(_signature);\n    }\n    \n    function _baseURI() internal view virtual override returns (string memory) {\n        return baseTokenURI;\n    }\n\n    function setBaseURI(string memory _baseTokenURI) public onlyOwner {\n        baseTokenURI = _baseTokenURI;\n    }\n\n    function pause() public onlyOwner {\n        _pause();\n    }\n\n    function unpause() public onlyOwner {\n        _unpause();\n    }\n\n    function presale() public onlyOwner {\n        _presale();\n    }\n\n    function unpresale() public onlyOwner {\n        _unpresale();\n    }\n}",
  "sourcePath": "/home/doss/projects/voodollz/packages/contract/contracts/Voodollz.sol",
  "compiler": {
    "name": "solc",
    "version": "0.8.9+commit.e5eed63a.Emscripten.clang"
  },
  "schemaVersion": "3.4.3",
  "updatedAt": "2021-10-26T22:04:06.055Z",
  "networkType": "ethereum",
  "devdoc": {
    "kind": "dev",
    "methods": {
      "approve(address,uint256)": {
        "details": "See {IERC721-approve}."
      },
      "balanceOf(address)": {
        "details": "See {IERC721-balanceOf}."
      },
      "getApproved(uint256)": {
        "details": "See {IERC721-getApproved}."
      },
      "isApprovedForAll(address,address)": {
        "details": "See {IERC721-isApprovedForAll}."
      },
      "name()": {
        "details": "See {IERC721Metadata-name}."
      },
      "owner()": {
        "details": "Returns the address of the current owner."
      },
      "ownerOf(uint256)": {
        "details": "See {IERC721-ownerOf}."
      },
      "paused()": {
        "details": "Returns true if the contract is paused, and false otherwise."
      },
      "renounceOwnership()": {
        "details": "Leaves the contract without owner. It will not be possible to call `onlyOwner` functions anymore. Can only be called by the current owner. NOTE: Renouncing ownership will leave the contract without an owner, thereby removing any functionality that is only available to the owner."
      },
      "safeTransferFrom(address,address,uint256)": {
        "details": "See {IERC721-safeTransferFrom}."
      },
      "safeTransferFrom(address,address,uint256,bytes)": {
        "details": "See {IERC721-safeTransferFrom}."
      },
      "setApprovalForAll(address,bool)": {
        "details": "See {IERC721-setApprovalForAll}."
      },
      "supportsInterface(bytes4)": {
        "details": "See {IERC165-supportsInterface}."
      },
      "symbol()": {
        "details": "See {IERC721Metadata-symbol}."
      },
      "tokenByIndex(uint256)": {
        "details": "See {IERC721Enumerable-tokenByIndex}."
      },
      "tokenOfOwnerByIndex(address,uint256)": {
        "details": "See {IERC721Enumerable-tokenOfOwnerByIndex}."
      },
      "tokenURI(uint256)": {
        "details": "See {IERC721Metadata-tokenURI}."
      },
      "totalSupply()": {
        "details": "See {IERC721Enumerable-totalSupply}."
      },
      "transferFrom(address,address,uint256)": {
        "details": "See {IERC721-transferFrom}."
      },
      "transferOwnership(address)": {
        "details": "Transfers ownership of the contract to a new account (`newOwner`). Can only be called by the current owner."
      }
    },
    "version": 1
  },
  "userdoc": {
    "kind": "user",
    "methods": {},
    "version": 1
  }
}