{
  "contractName": "Voodollz",
  "abi": [
    {
      "inputs": [
        {
          "internalType": "string",
          "name": "_baseTokenURI",
          "type": "string"
        }
      ],
      "stateMutability": "nonpayable",
      "type": "constructor"
    },
    {
      "anonymous": false,
      "inputs": [
        {
          "indexed": true,
          "internalType": "address",
          "name": "owner",
          "type": "address"
        },
        {
          "indexed": true,
          "internalType": "address",
          "name": "approved",
          "type": "address"
        },
        {
          "indexed": true,
          "internalType": "uint256",
          "name": "tokenId",
          "type": "uint256"
        }
      ],
      "name": "Approval",
      "type": "event"
    },
    {
      "anonymous": false,
      "inputs": [
        {
          "indexed": true,
          "internalType": "address",
          "name": "owner",
          "type": "address"
        },
        {
          "indexed": true,
          "internalType": "address",
          "name": "operator",
          "type": "address"
        },
        {
          "indexed": false,
          "internalType": "bool",
          "name": "approved",
          "type": "bool"
        }
      ],
      "name": "ApprovalForAll",
      "type": "event"
    },
    {
      "anonymous": false,
      "inputs": [
        {
          "indexed": true,
          "internalType": "address",
          "name": "previousOwner",
          "type": "address"
        },
        {
          "indexed": true,
          "internalType": "address",
          "name": "newOwner",
          "type": "address"
        }
      ],
      "name": "OwnershipTransferred",
      "type": "event"
    },
    {
      "anonymous": false,
      "inputs": [
        {
          "indexed": false,
          "internalType": "address",
          "name": "account",
          "type": "address"
        }
      ],
      "name": "Paused",
      "type": "event"
    },
    {
      "anonymous": false,
      "inputs": [
        {
          "indexed": false,
          "internalType": "address",
          "name": "account",
          "type": "address"
        }
      ],
      "name": "Presaled",
      "type": "event"
    },
    {
      "anonymous": false,
      "inputs": [
        {
          "indexed": true,
          "internalType": "address",
          "name": "from",
          "type": "address"
        },
        {
          "indexed": true,
          "internalType": "address",
          "name": "to",
          "type": "address"
        },
        {
          "indexed": true,
          "internalType": "uint256",
          "name": "tokenId",
          "type": "uint256"
        }
      ],
      "name": "Transfer",
      "type": "event"
    },
    {
      "anonymous": false,
      "inputs": [
        {
          "indexed": false,
          "internalType": "address",
          "name": "account",
          "type": "address"
        }
      ],
      "name": "Unpaused",
      "type": "event"
    },
    {
      "anonymous": false,
      "inputs": [
        {
          "indexed": false,
          "internalType": "address",
          "name": "account",
          "type": "address"
        }
      ],
      "name": "Unpresaled",
      "type": "event"
    },
    {
      "inputs": [],
      "name": "MAX_TOKEN_COUNT",
      "outputs": [
        {
          "internalType": "uint256",
          "name": "",
          "type": "uint256"
        }
      ],
      "stateMutability": "view",
      "type": "function",
      "constant": true
    },
    {
      "inputs": [],
      "name": "PRICE",
      "outputs": [
        {
          "internalType": "uint256",
          "name": "",
          "type": "uint256"
        }
      ],
      "stateMutability": "view",
      "type": "function",
      "constant": true
    },
    {
      "inputs": [
        {
          "internalType": "address",
          "name": "to",
          "type": "address"
        },
        {
          "internalType": "uint256",
          "name": "tokenId",
          "type": "uint256"
        }
      ],
      "name": "approve",
      "outputs": [],
      "stateMutability": "nonpayable",
      "type": "function"
    },
    {
      "inputs": [
        {
          "internalType": "address",
          "name": "owner",
          "type": "address"
        }
      ],
      "name": "balanceOf",
      "outputs": [
        {
          "internalType": "uint256",
          "name": "",
          "type": "uint256"
        }
      ],
      "stateMutability": "view",
      "type": "function",
      "constant": true
    },
    {
      "inputs": [],
      "name": "baseTokenURI",
      "outputs": [
        {
          "internalType": "string",
          "name": "",
          "type": "string"
        }
      ],
      "stateMutability": "view",
      "type": "function",
      "constant": true
    },
    {
      "inputs": [
        {
          "internalType": "uint256",
          "name": "tokenId",
          "type": "uint256"
        }
      ],
      "name": "getApproved",
      "outputs": [
        {
          "internalType": "address",
          "name": "",
          "type": "address"
        }
      ],
      "stateMutability": "view",
      "type": "function",
      "constant": true
    },
    {
      "inputs": [
        {
          "internalType": "address",
          "name": "owner",
          "type": "address"
        },
        {
          "internalType": "address",
          "name": "operator",
          "type": "address"
        }
      ],
      "name": "isApprovedForAll",
      "outputs": [
        {
          "internalType": "bool",
          "name": "",
          "type": "bool"
        }
      ],
      "stateMutability": "view",
      "type": "function",
      "constant": true
    },
    {
      "inputs": [],
      "name": "name",
      "outputs": [
        {
          "internalType": "string",
          "name": "",
          "type": "string"
        }
      ],
      "stateMutability": "view",
      "type": "function",
      "constant": true
    },
    {
      "inputs": [],
      "name": "owner",
      "outputs": [
        {
          "internalType": "address",
          "name": "",
          "type": "address"
        }
      ],
      "stateMutability": "view",
      "type": "function",
      "constant": true
    },
    {
      "inputs": [
        {
          "internalType": "uint256",
          "name": "tokenId",
          "type": "uint256"
        }
      ],
      "name": "ownerOf",
      "outputs": [
        {
          "internalType": "address",
          "name": "",
          "type": "address"
        }
      ],
      "stateMutability": "view",
      "type": "function",
      "constant": true
    },
    {
      "inputs": [],
      "name": "paused",
      "outputs": [
        {
          "internalType": "bool",
          "name": "",
          "type": "bool"
        }
      ],
      "stateMutability": "view",
      "type": "function",
      "constant": true
    },
    {
      "inputs": [],
      "name": "presaled",
      "outputs": [
        {
          "internalType": "bool",
          "name": "",
          "type": "bool"
        }
      ],
      "stateMutability": "view",
      "type": "function",
      "constant": true
    },
    {
      "inputs": [],
      "name": "renounceOwnership",
      "outputs": [],
      "stateMutability": "nonpayable",
      "type": "function"
    },
    {
      "inputs": [
        {
          "internalType": "address",
          "name": "from",
          "type": "address"
        },
        {
          "internalType": "address",
          "name": "to",
          "type": "address"
        },
        {
          "internalType": "uint256",
          "name": "tokenId",
          "type": "uint256"
        }
      ],
      "name": "safeTransferFrom",
      "outputs": [],
      "stateMutability": "nonpayable",
      "type": "function"
    },
    {
      "inputs": [
        {
          "internalType": "address",
          "name": "from",
          "type": "address"
        },
        {
          "internalType": "address",
          "name": "to",
          "type": "address"
        },
        {
          "internalType": "uint256",
          "name": "tokenId",
          "type": "uint256"
        },
        {
          "internalType": "bytes",
          "name": "_data",
          "type": "bytes"
        }
      ],
      "name": "safeTransferFrom",
      "outputs": [],
      "stateMutability": "nonpayable",
      "type": "function"
    },
    {
      "inputs": [
        {
          "internalType": "address",
          "name": "operator",
          "type": "address"
        },
        {
          "internalType": "bool",
          "name": "approved",
          "type": "bool"
        }
      ],
      "name": "setApprovalForAll",
      "outputs": [],
      "stateMutability": "nonpayable",
      "type": "function"
    },
    {
      "inputs": [
        {
          "internalType": "bytes4",
          "name": "interfaceId",
          "type": "bytes4"
        }
      ],
      "name": "supportsInterface",
      "outputs": [
        {
          "internalType": "bool",
          "name": "",
          "type": "bool"
        }
      ],
      "stateMutability": "view",
      "type": "function",
      "constant": true
    },
    {
      "inputs": [],
      "name": "symbol",
      "outputs": [
        {
          "internalType": "string",
          "name": "",
          "type": "string"
        }
      ],
      "stateMutability": "view",
      "type": "function",
      "constant": true
    },
    {
      "inputs": [
        {
          "internalType": "uint256",
          "name": "index",
          "type": "uint256"
        }
      ],
      "name": "tokenByIndex",
      "outputs": [
        {
          "internalType": "uint256",
          "name": "",
          "type": "uint256"
        }
      ],
      "stateMutability": "view",
      "type": "function",
      "constant": true
    },
    {
      "inputs": [
        {
          "internalType": "address",
          "name": "owner",
          "type": "address"
        },
        {
          "internalType": "uint256",
          "name": "index",
          "type": "uint256"
        }
      ],
      "name": "tokenOfOwnerByIndex",
      "outputs": [
        {
          "internalType": "uint256",
          "name": "",
          "type": "uint256"
        }
      ],
      "stateMutability": "view",
      "type": "function",
      "constant": true
    },
    {
      "inputs": [
        {
          "internalType": "uint256",
          "name": "tokenId",
          "type": "uint256"
        }
      ],
      "name": "tokenURI",
      "outputs": [
        {
          "internalType": "string",
          "name": "",
          "type": "string"
        }
      ],
      "stateMutability": "view",
      "type": "function",
      "constant": true
    },
    {
      "inputs": [],
      "name": "totalSupply",
      "outputs": [
        {
          "internalType": "uint256",
          "name": "",
          "type": "uint256"
        }
      ],
      "stateMutability": "view",
      "type": "function",
      "constant": true
    },
    {
      "inputs": [
        {
          "internalType": "address",
          "name": "from",
          "type": "address"
        },
        {
          "internalType": "address",
          "name": "to",
          "type": "address"
        },
        {
          "internalType": "uint256",
          "name": "tokenId",
          "type": "uint256"
        }
      ],
      "name": "transferFrom",
      "outputs": [],
      "stateMutability": "nonpayable",
      "type": "function"
    },
    {
      "inputs": [
        {
          "internalType": "address",
          "name": "newOwner",
          "type": "address"
        }
      ],
      "name": "transferOwnership",
      "outputs": [],
      "stateMutability": "nonpayable",
      "type": "function"
    },
    {
      "inputs": [
        {
          "internalType": "uint256",
          "name": "_amount",
          "type": "uint256"
        }
      ],
      "name": "mint",
      "outputs": [],
      "stateMutability": "payable",
      "type": "function",
      "payable": true
    },
    {
      "inputs": [
        {
          "internalType": "uint256",
          "name": "_amount",
          "type": "uint256"
        },
        {
          "internalType": "bytes",
          "name": "_signature",
          "type": "bytes"
        }
      ],
      "name": "presaleMint",
      "outputs": [],
      "stateMutability": "payable",
      "type": "function",
      "payable": true
    },
    {
      "inputs": [
        {
          "internalType": "address",
          "name": "_to",
          "type": "address"
        }
      ],
      "name": "giveAway",
      "outputs": [],
      "stateMutability": "nonpayable",
      "type": "function"
    },
    {
      "inputs": [
        {
          "internalType": "uint256",
          "name": "tokenId",
          "type": "uint256"
        }
      ],
      "name": "burn",
      "outputs": [],
      "stateMutability": "nonpayable",
      "type": "function"
    },
    {
      "inputs": [
        {
          "internalType": "address",
          "name": "_owner",
          "type": "address"
        }
      ],
      "name": "tokensOfOwner",
      "outputs": [
        {
          "internalType": "uint256[]",
          "name": "",
          "type": "uint256[]"
        }
      ],
      "stateMutability": "view",
      "type": "function",
      "constant": true
    },
    {
      "inputs": [
        {
          "internalType": "string",
          "name": "_baseTokenURI",
          "type": "string"
        }
      ],
      "name": "setBaseURI",
      "outputs": [],
      "stateMutability": "nonpayable",
      "type": "function"
    },
    {
      "inputs": [],
      "name": "pause",
      "outputs": [],
      "stateMutability": "nonpayable",
      "type": "function"
    },
    {
      "inputs": [],
      "name": "unpause",
      "outputs": [],
      "stateMutability": "nonpayable",
      "type": "function"
    },
    {
      "inputs": [],
      "name": "presale",
      "outputs": [],
      "stateMutability": "nonpayable",
      "type": "function"
    },
    {
      "inputs": [],
      "name": "unpresale",
      "outputs": [],
      "stateMutability": "nonpayable",
      "type": "function"
    }
  ],
  "bytecode": "0x608060405260405180602001604052806096815250600c6000820151816000015550503480156200002f57600080fd5b5060405162005b3d38038062005b3d8339818101604052810190620000559190620006a1565b6040518060400160405280600881526020017f5a6c6c6f646f6f760000000000000000000000000000000000000000000000008152506040518060400160405280600481526020017f5a4c4456000000000000000000000000000000000000000000000000000000008152508160009080519060200190620000d992919062000454565b508060019080519060200190620000f292919062000454565b50505062000115620001096200015860201b60201c565b6200016060201b60201c565b6000600a60146101000a81548160ff02191690831515021790555062000141816200022660201b60201c565b62000151620002d160201b60201c565b50620008ae565b600033905090565b6000600a60009054906101000a900473ffffffffffffffffffffffffffffffffffffffff16905081600a60006101000a81548173ffffffffffffffffffffffffffffffffffffffff021916908373ffffffffffffffffffffffffffffffffffffffff1602179055508173ffffffffffffffffffffffffffffffffffffffff168173ffffffffffffffffffffffffffffffffffffffff167f8be0079c531659141344cd1fd0a4f28419497f9722a3daafe3b4186f6b6457e060405160405180910390a35050565b620002366200015860201b60201c565b73ffffffffffffffffffffffffffffffffffffffff166200025c6200037260201b60201c565b73ffffffffffffffffffffffffffffffffffffffff1614620002b5576040517f08c379a0000000000000000000000000000000000000000000000000000000008152600401620002ac9062000753565b60405180910390fd5b80600b9080519060200190620002cd92919062000454565b5050565b620002e16200015860201b60201c565b73ffffffffffffffffffffffffffffffffffffffff16620003076200037260201b60201c565b73ffffffffffffffffffffffffffffffffffffffff161462000360576040517f08c379a0000000000000000000000000000000000000000000000000000000008152600401620003579062000753565b60405180910390fd5b620003706200039c60201b60201c565b565b6000600a60009054906101000a900473ffffffffffffffffffffffffffffffffffffffff16905090565b600a60159054906101000a900460ff1615620003ef576040517f08c379a0000000000000000000000000000000000000000000000000000000008152600401620003e690620007c5565b60405180910390fd5b6001600a60156101000a81548160ff0219169083151502179055507fb1412a7cd96bc4195d633c938189c320dcbeb2cff60c1b8bdd872678fb3514b46200043b6200015860201b60201c565b6040516200044a91906200082c565b60405180910390a1565b828054620004629062000878565b90600052602060002090601f016020900481019282620004865760008555620004d2565b82601f10620004a157805160ff1916838001178555620004d2565b82800160010185558215620004d2579182015b82811115620004d1578251825591602001919060010190620004b4565b5b509050620004e19190620004e5565b5090565b5b8082111562000500576000816000905550600101620004e6565b5090565b6000604051905090565b600080fd5b600080fd5b600080fd5b600080fd5b6000601f19601f8301169050919050565b7f4e487b7100000000000000000000000000000000000000000000000000000000600052604160045260246000fd5b6200056d8262000522565b810181811067ffffffffffffffff821117156200058f576200058e62000533565b5b80604052505050565b6000620005a462000504565b9050620005b2828262000562565b919050565b600067ffffffffffffffff821115620005d557620005d462000533565b5b620005e08262000522565b9050602081019050919050565b60005b838110156200060d578082015181840152602081019050620005f0565b838111156200061d576000848401525b50505050565b60006200063a6200063484620005b7565b62000598565b9050828152602081018484840111156200065957620006586200051d565b5b62000666848285620005ed565b509392505050565b600082601f83011262000686576200068562000518565b5b81516200069884826020860162000623565b91505092915050565b600060208284031215620006ba57620006b96200050e565b5b600082015167ffffffffffffffff811115620006db57620006da62000513565b5b620006e9848285016200066e565b91505092915050565b600082825260208201905092915050565b7f4f776e61626c653a2063616c6c6572206973206e6f7420746865206f776e6572600082015250565b60006200073b602083620006f2565b9150620007488262000703565b602082019050919050565b600060208201905081810360008301526200076e816200072c565b9050919050565b7f50726573616c6520636c6f736564000000000000000000000000000000000000600082015250565b6000620007ad600e83620006f2565b9150620007ba8262000775565b602082019050919050565b60006020820190508181036000830152620007e0816200079e565b9050919050565b600073ffffffffffffffffffffffffffffffffffffffff82169050919050565b60006200081482620007e7565b9050919050565b620008268162000807565b82525050565b60006020820190506200084360008301846200081b565b92915050565b7f4e487b7100000000000000000000000000000000000000000000000000000000600052602260045260246000fd5b600060028204905060018216806200089157607f821691505b60208210811415620008a857620008a762000849565b5b50919050565b61527f80620008be6000396000f3fe6080604052600436106101f95760003560e01c80638456cb591161010d578063a22cb465116100a0578063d547cfb71161006f578063d547cfb7146106fe578063e985e9c514610729578063f2fde38b14610766578063fd24a8541461078f578063fdea8e0b146107ab576101f9565b8063a22cb46514610644578063b88d4fde1461066d578063c87b56dd14610696578063d0bbb0d7146106d3576101f9565b80638da5cb5b116100dc5780638da5cb5b146105a957806395d89b41146105d45780639e240785146105ff578063a0712d6814610628576101f9565b80638456cb59146105135780638462151c1461052a57806385493853146105675780638d859f3e1461057e576101f9565b806342842e0e1161019057806355f804b31161015f57806355f804b31461042e5780635c975abb146104575780636352211e1461048257806370a08231146104bf578063715018a6146104fc576101f9565b806342842e0e1461037457806342966c681461039d5780634cb2f9ea146103c65780634f6ccce7146103f1576101f9565b806318160ddd116101cc57806318160ddd146102cc57806323b872dd146102f75780632f745c59146103205780633f4ba83a1461035d576101f9565b806301ffc9a7146101fe57806306fdde031461023b578063081812fc14610266578063095ea7b3146102a3575b600080fd5b34801561020a57600080fd5b5061022560048036038101906102209190613538565b6107c2565b6040516102329190613580565b60405180910390f35b34801561024757600080fd5b5061025061083c565b60405161025d9190613634565b60405180910390f35b34801561027257600080fd5b5061028d6004803603810190610288919061368c565b6108ce565b60405161029a91906136fa565b60405180910390f35b3480156102af57600080fd5b506102ca60048036038101906102c59190613741565b610953565b005b3480156102d857600080fd5b506102e1610a6b565b6040516102ee9190613790565b60405180910390f35b34801561030357600080fd5b5061031e600480360381019061031991906137ab565b610a78565b005b34801561032c57600080fd5b5061034760048036038101906103429190613741565b610ad8565b6040516103549190613790565b60405180910390f35b34801561036957600080fd5b50610372610b7d565b005b34801561038057600080fd5b5061039b600480360381019061039691906137ab565b610c03565b005b3480156103a957600080fd5b506103c460048036038101906103bf919061368c565b610c23565b005b3480156103d257600080fd5b506103db610c78565b6040516103e89190613580565b60405180910390f35b3480156103fd57600080fd5b506104186004803603810190610413919061368c565b610c8f565b6040516104259190613790565b60405180910390f35b34801561043a57600080fd5b5061045560048036038101906104509190613933565b610d00565b005b34801561046357600080fd5b5061046c610d96565b6040516104799190613580565b60405180910390f35b34801561048e57600080fd5b506104a960048036038101906104a4919061368c565b610dad565b6040516104b691906136fa565b60405180910390f35b3480156104cb57600080fd5b506104e660048036038101906104e1919061397c565b610e5f565b6040516104f39190613790565b60405180910390f35b34801561050857600080fd5b50610511610f17565b005b34801561051f57600080fd5b50610528610f9f565b005b34801561053657600080fd5b50610551600480360381019061054c919061397c565b611025565b60405161055e9190613a67565b60405180910390f35b34801561057357600080fd5b5061057c6110d3565b005b34801561058a57600080fd5b50610593611159565b6040516105a09190613790565b60405180910390f35b3480156105b557600080fd5b506105be611165565b6040516105cb91906136fa565b60405180910390f35b3480156105e057600080fd5b506105e961118f565b6040516105f69190613634565b60405180910390f35b34801561060b57600080fd5b506106266004803603810190610621919061397c565b611221565b005b610642600480360381019061063d919061368c565b611309565b005b34801561065057600080fd5b5061066b60048036038101906106669190613ab5565b61136e565b005b34801561067957600080fd5b50610694600480360381019061068f9190613b96565b6114ef565b005b3480156106a257600080fd5b506106bd60048036038101906106b8919061368c565b611551565b6040516106ca9190613634565b60405180910390f35b3480156106df57600080fd5b506106e86115f8565b6040516106f59190613790565b60405180910390f35b34801561070a57600080fd5b506107136115fe565b6040516107209190613634565b60405180910390f35b34801561073557600080fd5b50610750600480360381019061074b9190613c19565b61168c565b60405161075d9190613580565b60405180910390f35b34801561077257600080fd5b5061078d6004803603810190610788919061397c565b611720565b005b6107a960048036038101906107a49190613c59565b611818565b005b3480156107b757600080fd5b506107c061190d565b005b60007f780e9d63000000000000000000000000000000000000000000000000000000007bffffffffffffffffffffffffffffffffffffffffffffffffffffffff1916827bffffffffffffffffffffffffffffffffffffffffffffffffffffffff19161480610835575061083482611993565b5b9050919050565b60606000805461084b90613ce4565b80601f016020809104026020016040519081016040528092919081815260200182805461087790613ce4565b80156108c45780601f10610899576101008083540402835291602001916108c4565b820191906000526020600020905b8154815290600101906020018083116108a757829003601f168201915b5050505050905090565b60006108d982611a75565b610918576040517f08c379a000000000000000000000000000000000000000000000000000000000815260040161090f90613d88565b60405180910390fd5b6004600083815260200190815260200160002060009054906101000a900473ffffffffffffffffffffffffffffffffffffffff169050919050565b600061095e82610dad565b90508073ffffffffffffffffffffffffffffffffffffffff168373ffffffffffffffffffffffffffffffffffffffff1614156109cf576040517f08c379a00000000000000000000000000000000000000000000000000000000081526004016109c690613e1a565b60405180910390fd5b8073ffffffffffffffffffffffffffffffffffffffff166109ee611ae1565b73ffffffffffffffffffffffffffffffffffffffff161480610a1d5750610a1c81610a17611ae1565b61168c565b5b610a5c576040517f08c379a0000000000000000000000000000000000000000000000000000000008152600401610a5390613eac565b60405180910390fd5b610a668383611ae9565b505050565b6000600880549050905090565b610a89610a83611ae1565b82611ba2565b610ac8576040517f08c379a0000000000000000000000000000000000000000000000000000000008152600401610abf90613f3e565b60405180910390fd5b610ad3838383611c80565b505050565b6000610ae383610e5f565b8210610b24576040517f08c379a0000000000000000000000000000000000000000000000000000000008152600401610b1b90613fd0565b60405180910390fd5b600660008473ffffffffffffffffffffffffffffffffffffffff1673ffffffffffffffffffffffffffffffffffffffff168152602001908152602001600020600083815260200190815260200160002054905092915050565b610b85611ae1565b73ffffffffffffffffffffffffffffffffffffffff16610ba3611165565b73ffffffffffffffffffffffffffffffffffffffff1614610bf9576040517f08c379a0000000000000000000000000000000000000000000000000000000008152600401610bf09061403c565b60405180910390fd5b610c01611edc565b565b610c1e838383604051806020016040528060008152506114ef565b505050565b610c2d3382611ba2565b610c6c576040517f08c379a0000000000000000000000000000000000000000000000000000000008152600401610c63906140a8565b60405180910390fd5b610c7581611f7e565b50565b6000600a60159054906101000a900460ff16905090565b6000610c99610a6b565b8210610cda576040517f08c379a0000000000000000000000000000000000000000000000000000000008152600401610cd19061413a565b60405180910390fd5b60088281548110610cee57610ced61415a565b5b90600052602060002001549050919050565b610d08611ae1565b73ffffffffffffffffffffffffffffffffffffffff16610d26611165565b73ffffffffffffffffffffffffffffffffffffffff1614610d7c576040517f08c379a0000000000000000000000000000000000000000000000000000000008152600401610d739061403c565b60405180910390fd5b80600b9080519060200190610d92929190613429565b5050565b6000600a60149054906101000a900460ff16905090565b6000806002600084815260200190815260200160002060009054906101000a900473ffffffffffffffffffffffffffffffffffffffff169050600073ffffffffffffffffffffffffffffffffffffffff168173ffffffffffffffffffffffffffffffffffffffff161415610e56576040517f08c379a0000000000000000000000000000000000000000000000000000000008152600401610e4d906141fb565b60405180910390fd5b80915050919050565b60008073ffffffffffffffffffffffffffffffffffffffff168273ffffffffffffffffffffffffffffffffffffffff161415610ed0576040517f08c379a0000000000000000000000000000000000000000000000000000000008152600401610ec79061428d565b60405180910390fd5b600360008373ffffffffffffffffffffffffffffffffffffffff1673ffffffffffffffffffffffffffffffffffffffff168152602001908152602001600020549050919050565b610f1f611ae1565b73ffffffffffffffffffffffffffffffffffffffff16610f3d611165565b73ffffffffffffffffffffffffffffffffffffffff1614610f93576040517f08c379a0000000000000000000000000000000000000000000000000000000008152600401610f8a9061403c565b60405180910390fd5b610f9d600061208f565b565b610fa7611ae1565b73ffffffffffffffffffffffffffffffffffffffff16610fc5611165565b73ffffffffffffffffffffffffffffffffffffffff161461101b576040517f08c379a00000000000000000000000000000000000000000000000000000000081526004016110129061403c565b60405180910390fd5b611023612155565b565b6060600061103283610e5f565b905060008167ffffffffffffffff8111156110505761104f613808565b5b60405190808252806020026020018201604052801561107e5781602001602082028036833780820191505090505b50905060005b828110156110c8576110968582610ad8565b8282815181106110a9576110a861415a565b5b60200260200101818152505080806110c0906142dc565b915050611084565b508092505050919050565b6110db611ae1565b73ffffffffffffffffffffffffffffffffffffffff166110f9611165565b73ffffffffffffffffffffffffffffffffffffffff161461114f576040517f08c379a00000000000000000000000000000000000000000000000000000000081526004016111469061403c565b60405180910390fd5b6111576121f8565b565b67016345785d8a000081565b6000600a60009054906101000a900473ffffffffffffffffffffffffffffffffffffffff16905090565b60606001805461119e90613ce4565b80601f01602080910402602001604051908101604052809291908181526020018280546111ca90613ce4565b80156112175780601f106111ec57610100808354040283529160200191611217565b820191906000526020600020905b8154815290600101906020018083116111fa57829003601f168201915b5050505050905090565b611229611ae1565b73ffffffffffffffffffffffffffffffffffffffff16611247611165565b73ffffffffffffffffffffffffffffffffffffffff161461129d576040517f08c379a00000000000000000000000000000000000000000000000000000000081526004016112949061403c565b60405180910390fd5b60966112a9600d6122a2565b106112e9576040517f08c379a00000000000000000000000000000000000000000000000000000000081526004016112e090614371565b60405180910390fd5b6112f3600d6122b0565b61130681611301600d6122a2565b6122c6565b50565b600a60159054906101000a900460ff1615611359576040517f08c379a0000000000000000000000000000000000000000000000000000000008152600401611350906143dd565b60405180910390fd5b61136b8167016345785d8a00006122e4565b50565b611376611ae1565b73ffffffffffffffffffffffffffffffffffffffff168273ffffffffffffffffffffffffffffffffffffffff1614156113e4576040517f08c379a00000000000000000000000000000000000000000000000000000000081526004016113db90614449565b60405180910390fd5b80600560006113f1611ae1565b73ffffffffffffffffffffffffffffffffffffffff1673ffffffffffffffffffffffffffffffffffffffff16815260200190815260200160002060008473ffffffffffffffffffffffffffffffffffffffff1673ffffffffffffffffffffffffffffffffffffffff16815260200190815260200160002060006101000a81548160ff0219169083151502179055508173ffffffffffffffffffffffffffffffffffffffff1661149e611ae1565b73ffffffffffffffffffffffffffffffffffffffff167f17307eab39ab6107e8899845ad3d59bd9653f200f220920489ca2b5937696c31836040516114e39190613580565b60405180910390a35050565b6115006114fa611ae1565b83611ba2565b61153f576040517f08c379a000000000000000000000000000000000000000000000000000000000815260040161153690613f3e565b60405180910390fd5b61154b8484848461247e565b50505050565b606061155c82611a75565b61159b576040517f08c379a0000000000000000000000000000000000000000000000000000000008152600401611592906144db565b60405180910390fd5b60006115a56124da565b905060008151116115c557604051806020016040528060008152506115f0565b806115cf8461256c565b6040516020016115e0929190614537565b6040516020818303038152906040525b915050919050565b61271081565b600b805461160b90613ce4565b80601f016020809104026020016040519081016040528092919081815260200182805461163790613ce4565b80156116845780601f1061165957610100808354040283529160200191611684565b820191906000526020600020905b81548152906001019060200180831161166757829003601f168201915b505050505081565b6000600560008473ffffffffffffffffffffffffffffffffffffffff1673ffffffffffffffffffffffffffffffffffffffff16815260200190815260200160002060008373ffffffffffffffffffffffffffffffffffffffff1673ffffffffffffffffffffffffffffffffffffffff16815260200190815260200160002060009054906101000a900460ff16905092915050565b611728611ae1565b73ffffffffffffffffffffffffffffffffffffffff16611746611165565b73ffffffffffffffffffffffffffffffffffffffff161461179c576040517f08c379a00000000000000000000000000000000000000000000000000000000081526004016117939061403c565b60405180910390fd5b600073ffffffffffffffffffffffffffffffffffffffff168173ffffffffffffffffffffffffffffffffffffffff16141561180c576040517f08c379a0000000000000000000000000000000000000000000000000000000008152600401611803906145cd565b60405180910390fd5b6118158161208f565b50565b600a60159054906101000a900460ff16611867576040517f08c379a000000000000000000000000000000000000000000000000000000000815260040161185e90614639565b60405180910390fd5b600061187333836126cd565b905061187d611165565b73ffffffffffffffffffffffffffffffffffffffff168173ffffffffffffffffffffffffffffffffffffffff16146118ea576040517f08c379a00000000000000000000000000000000000000000000000000000000081526004016118e1906146a5565b60405180910390fd5b61190883600267016345785d8a000061190391906146f4565b6122e4565b505050565b611915611ae1565b73ffffffffffffffffffffffffffffffffffffffff16611933611165565b73ffffffffffffffffffffffffffffffffffffffff1614611989576040517f08c379a00000000000000000000000000000000000000000000000000000000081526004016119809061403c565b60405180910390fd5b611991612718565b565b60007f80ac58cd000000000000000000000000000000000000000000000000000000007bffffffffffffffffffffffffffffffffffffffffffffffffffffffff1916827bffffffffffffffffffffffffffffffffffffffffffffffffffffffff19161480611a5e57507f5b5e139f000000000000000000000000000000000000000000000000000000007bffffffffffffffffffffffffffffffffffffffffffffffffffffffff1916827bffffffffffffffffffffffffffffffffffffffffffffffffffffffff1916145b80611a6e5750611a6d826127c3565b5b9050919050565b60008073ffffffffffffffffffffffffffffffffffffffff166002600084815260200190815260200160002060009054906101000a900473ffffffffffffffffffffffffffffffffffffffff1673ffffffffffffffffffffffffffffffffffffffff1614159050919050565b600033905090565b816004600083815260200190815260200160002060006101000a81548173ffffffffffffffffffffffffffffffffffffffff021916908373ffffffffffffffffffffffffffffffffffffffff160217905550808273ffffffffffffffffffffffffffffffffffffffff16611b5c83610dad565b73ffffffffffffffffffffffffffffffffffffffff167f8c5be1e5ebec7d5bd14f71427d1e84f3dd0314c0f7b2291e5b200ac8c7c3b92560405160405180910390a45050565b6000611bad82611a75565b611bec576040517f08c379a0000000000000000000000000000000000000000000000000000000008152600401611be390614797565b60405180910390fd5b6000611bf783610dad565b90508073ffffffffffffffffffffffffffffffffffffffff168473ffffffffffffffffffffffffffffffffffffffff161480611c6657508373ffffffffffffffffffffffffffffffffffffffff16611c4e846108ce565b73ffffffffffffffffffffffffffffffffffffffff16145b80611c775750611c76818561168c565b5b91505092915050565b8273ffffffffffffffffffffffffffffffffffffffff16611ca082610dad565b73ffffffffffffffffffffffffffffffffffffffff1614611cf6576040517f08c379a0000000000000000000000000000000000000000000000000000000008152600401611ced90614829565b60405180910390fd5b600073ffffffffffffffffffffffffffffffffffffffff168273ffffffffffffffffffffffffffffffffffffffff161415611d66576040517f08c379a0000000000000000000000000000000000000000000000000000000008152600401611d5d906148bb565b60405180910390fd5b611d7183838361282d565b611d7c600082611ae9565b6001600360008573ffffffffffffffffffffffffffffffffffffffff1673ffffffffffffffffffffffffffffffffffffffff1681526020019081526020016000206000828254611dcc91906148db565b925050819055506001600360008473ffffffffffffffffffffffffffffffffffffffff1673ffffffffffffffffffffffffffffffffffffffff1681526020019081526020016000206000828254611e23919061490f565b92505081905550816002600083815260200190815260200160002060006101000a81548173ffffffffffffffffffffffffffffffffffffffff021916908373ffffffffffffffffffffffffffffffffffffffff160217905550808273ffffffffffffffffffffffffffffffffffffffff168473ffffffffffffffffffffffffffffffffffffffff167fddf252ad1be2c89b69c2b068fc378daa952ba7f163c4a11628f55a4df523b3ef60405160405180910390a4505050565b611ee4610d96565b611f23576040517f08c379a0000000000000000000000000000000000000000000000000000000008152600401611f1a906149b1565b60405180910390fd5b6000600a60146101000a81548160ff0219169083151502179055507f5db9ee0a495bf2e6ff9c91a7834c1ba4fdd244a5e8aa4e537bd38aeae4b073aa611f67611ae1565b604051611f7491906136fa565b60405180910390a1565b6000611f8982610dad565b9050611f978160008461282d565b611fa2600083611ae9565b6001600360008373ffffffffffffffffffffffffffffffffffffffff1673ffffffffffffffffffffffffffffffffffffffff1681526020019081526020016000206000828254611ff291906148db565b925050819055506002600083815260200190815260200160002060006101000a81549073ffffffffffffffffffffffffffffffffffffffff021916905581600073ffffffffffffffffffffffffffffffffffffffff168273ffffffffffffffffffffffffffffffffffffffff167fddf252ad1be2c89b69c2b068fc378daa952ba7f163c4a11628f55a4df523b3ef60405160405180910390a45050565b6000600a60009054906101000a900473ffffffffffffffffffffffffffffffffffffffff16905081600a60006101000a81548173ffffffffffffffffffffffffffffffffffffffff021916908373ffffffffffffffffffffffffffffffffffffffff1602179055508173ffffffffffffffffffffffffffffffffffffffff168173ffffffffffffffffffffffffffffffffffffffff167f8be0079c531659141344cd1fd0a4f28419497f9722a3daafe3b4186f6b6457e060405160405180910390a35050565b61215d610d96565b1561219d576040517f08c379a000000000000000000000000000000000000000000000000000000000815260040161219490614a1d565b60405180910390fd5b6001600a60146101000a81548160ff0219169083151502179055507f62e78cea01bee320cd4e420270b5ea74000d11b0c9f74754ebdbfc544b05a2586121e1611ae1565b6040516121ee91906136fa565b60405180910390a1565b600a60159054906101000a900460ff16612247576040517f08c379a000000000000000000000000000000000000000000000000000000000815260040161223e90614639565b60405180910390fd5b6000600a60156101000a81548160ff0219169083151502179055507f9e209206b95275a497262e47a30901f0716b2d6d19618dd5e9b7b68237e7cb7161228b611ae1565b60405161229891906136fa565b60405180910390a1565b600081600001549050919050565b6001816000016000828254019250508190555050565b6122e0828260405180602001604052806000815250612941565b5050565b6122ec610d96565b1561232c576040517f08c379a000000000000000000000000000000000000000000000000000000000815260040161232390614a1d565b60405180910390fd5b60058261233833610e5f565b612342919061490f565b1115612383576040517f08c379a000000000000000000000000000000000000000000000000000000000815260040161237a90614aaf565b60405180910390fd5b61271082612391600c6122a2565b61239b919061490f565b11156123dc576040517f08c379a00000000000000000000000000000000000000000000000000000000081526004016123d390614b1b565b60405180910390fd5b81816123e89190614b3b565b34101561242a576040517f08c379a000000000000000000000000000000000000000000000000000000000815260040161242190614be1565b60405180910390fd5b60005b8281101561247957612710612442600c6122a2565b101561246657612452600c6122b0565b61246533612460600c6122a2565b6122c6565b5b8080612471906142dc565b91505061242d565b505050565b612489848484611c80565b6124958484848461299c565b6124d4576040517f08c379a00000000000000000000000000000000000000000000000000000000081526004016124cb90614c73565b60405180910390fd5b50505050565b6060600b80546124e990613ce4565b80601f016020809104026020016040519081016040528092919081815260200182805461251590613ce4565b80156125625780601f1061253757610100808354040283529160200191612562565b820191906000526020600020905b81548152906001019060200180831161254557829003601f168201915b5050505050905090565b606060008214156125b4576040518060400160405280600181526020017f300000000000000000000000000000000000000000000000000000000000000081525090506126c8565b600082905060005b600082146125e65780806125cf906142dc565b915050600a826125df91906146f4565b91506125bc565b60008167ffffffffffffffff81111561260257612601613808565b5b6040519080825280601f01601f1916602001820160405280156126345781602001600182028036833780820191505090505b5090505b600085146126c15760018261264d91906148db565b9150600a8561265c9190614c93565b6030612668919061490f565b60f81b81838151811061267e5761267d61415a565b5b60200101907effffffffffffffffffffffffffffffffffffffffffffffffffffffffffffff1916908160001a905350600a856126ba91906146f4565b9450612638565b8093505050505b919050565b600061271082612702856040516020016126e79190614d0c565b60405160208183030381529060405280519060200120612b33565b612b6390919063ffffffff16565b905092915050565b600a60159054906101000a900460ff1615612768576040517f08c379a000000000000000000000000000000000000000000000000000000000815260040161275f906143dd565b60405180910390fd5b6001600a60156101000a81548160ff0219169083151502179055507fb1412a7cd96bc4195d633c938189c320dcbeb2cff60c1b8bdd872678fb3514b46127ac611ae1565b6040516127b991906136fa565b60405180910390a1565b60007f01ffc9a7000000000000000000000000000000000000000000000000000000007bffffffffffffffffffffffffffffffffffffffffffffffffffffffff1916827bffffffffffffffffffffffffffffffffffffffffffffffffffffffff1916149050919050565b612838838383612b8a565b600073ffffffffffffffffffffffffffffffffffffffff168373ffffffffffffffffffffffffffffffffffffffff16141561287b5761287681612b8f565b6128ba565b8173ffffffffffffffffffffffffffffffffffffffff168373ffffffffffffffffffffffffffffffffffffffff16146128b9576128b88382612bd8565b5b5b600073ffffffffffffffffffffffffffffffffffffffff168273ffffffffffffffffffffffffffffffffffffffff1614156128fd576128f881612d45565b61293c565b8273ffffffffffffffffffffffffffffffffffffffff168273ffffffffffffffffffffffffffffffffffffffff161461293b5761293a8282612e16565b5b5b505050565b61294b8383612e95565b612958600084848461299c565b612997576040517f08c379a000000000000000000000000000000000000000000000000000000000815260040161298e90614c73565b60405180910390fd5b505050565b60006129bd8473ffffffffffffffffffffffffffffffffffffffff16613063565b15612b26578373ffffffffffffffffffffffffffffffffffffffff1663150b7a026129e6611ae1565b8786866040518563ffffffff1660e01b8152600401612a089493929190614d7c565b602060405180830381600087803b158015612a2257600080fd5b505af1925050508015612a5357506040513d601f19601f82011682018060405250810190612a509190614ddd565b60015b612ad6573d8060008114612a83576040519150601f19603f3d011682016040523d82523d6000602084013e612a88565b606091505b50600081511415612ace576040517f08c379a0000000000000000000000000000000000000000000000000000000008152600401612ac590614c73565b60405180910390fd5b805181602001fd5b63150b7a0260e01b7bffffffffffffffffffffffffffffffffffffffffffffffffffffffff1916817bffffffffffffffffffffffffffffffffffffffffffffffffffffffff191614915050612b2b565b600190505b949350505050565b600081604051602001612b469190614e81565b604051602081830303815290604052805190602001209050919050565b6000806000612b728585613076565b91509150612b7f816130f9565b819250505092915050565b505050565b6008805490506009600083815260200190815260200160002081905550600881908060018154018082558091505060019003906000526020600020016000909190919091505550565b60006001612be584610e5f565b612bef91906148db565b9050600060076000848152602001908152602001600020549050818114612cd4576000600660008673ffffffffffffffffffffffffffffffffffffffff1673ffffffffffffffffffffffffffffffffffffffff168152602001908152602001600020600084815260200190815260200160002054905080600660008773ffffffffffffffffffffffffffffffffffffffff1673ffffffffffffffffffffffffffffffffffffffff168152602001908152602001600020600084815260200190815260200160002081905550816007600083815260200190815260200160002081905550505b6007600084815260200190815260200160002060009055600660008573ffffffffffffffffffffffffffffffffffffffff1673ffffffffffffffffffffffffffffffffffffffff16815260200190815260200160002060008381526020019081526020016000206000905550505050565b60006001600880549050612d5991906148db565b9050600060096000848152602001908152602001600020549050600060088381548110612d8957612d8861415a565b5b906000526020600020015490508060088381548110612dab57612daa61415a565b5b906000526020600020018190555081600960008381526020019081526020016000208190555060096000858152602001908152602001600020600090556008805480612dfa57612df9614ea7565b5b6001900381819060005260206000200160009055905550505050565b6000612e2183610e5f565b905081600660008573ffffffffffffffffffffffffffffffffffffffff1673ffffffffffffffffffffffffffffffffffffffff168152602001908152602001600020600083815260200190815260200160002081905550806007600084815260200190815260200160002081905550505050565b600073ffffffffffffffffffffffffffffffffffffffff168273ffffffffffffffffffffffffffffffffffffffff161415612f05576040517f08c379a0000000000000000000000000000000000000000000000000000000008152600401612efc90614f22565b60405180910390fd5b612f0e81611a75565b15612f4e576040517f08c379a0000000000000000000000000000000000000000000000000000000008152600401612f4590614f8e565b60405180910390fd5b612f5a6000838361282d565b6001600360008473ffffffffffffffffffffffffffffffffffffffff1673ffffffffffffffffffffffffffffffffffffffff1681526020019081526020016000206000828254612faa919061490f565b92505081905550816002600083815260200190815260200160002060006101000a81548173ffffffffffffffffffffffffffffffffffffffff021916908373ffffffffffffffffffffffffffffffffffffffff160217905550808273ffffffffffffffffffffffffffffffffffffffff16600073ffffffffffffffffffffffffffffffffffffffff167fddf252ad1be2c89b69c2b068fc378daa952ba7f163c4a11628f55a4df523b3ef60405160405180910390a45050565b600080823b905060008111915050919050565b6000806041835114156130b85760008060006020860151925060408601519150606086015160001a90506130ac878285856132ce565b945094505050506130f2565b6040835114156130e95760008060208501519150604085015190506130de8683836133db565b9350935050506130f2565b60006002915091505b9250929050565b6000600481111561310d5761310c614fae565b5b8160048111156131205761311f614fae565b5b141561312b576132cb565b6001600481111561313f5761313e614fae565b5b81600481111561315257613151614fae565b5b1415613193576040517f08c379a000000000000000000000000000000000000000000000000000000000815260040161318a90615029565b60405180910390fd5b600260048111156131a7576131a6614fae565b5b8160048111156131ba576131b9614fae565b5b14156131fb576040517f08c379a00000000000000000000000000000000000000000000000000000000081526004016131f290615095565b60405180910390fd5b6003600481111561320f5761320e614fae565b5b81600481111561322257613221614fae565b5b1415613263576040517f08c379a000000000000000000000000000000000000000000000000000000000815260040161325a90615127565b60405180910390fd5b60048081111561327657613275614fae565b5b81600481111561328957613288614fae565b5b14156132ca576040517f08c379a00000000000000000000000000000000000000000000000000000000081526004016132c1906151b9565b60405180910390fd5b5b50565b6000807f7fffffffffffffffffffffffffffffff5d576e7357a4501ddfe92f46681b20a08360001c11156133095760006003915091506133d2565b601b8560ff16141580156133215750601c8560ff1614155b156133335760006004915091506133d2565b6000600187878787604051600081526020016040526040516133589493929190615204565b6020604051602081039080840390855afa15801561337a573d6000803e3d6000fd5b505050602060405103519050600073ffffffffffffffffffffffffffffffffffffffff168173ffffffffffffffffffffffffffffffffffffffff1614156133c9576000600192509250506133d2565b80600092509250505b94509492505050565b6000806000807f7fffffffffffffffffffffffffffffffffffffffffffffffffffffffffffffff85169150601b8560ff1c01905061341b878288856132ce565b935093505050935093915050565b82805461343590613ce4565b90600052602060002090601f016020900481019282613457576000855561349e565b82601f1061347057805160ff191683800117855561349e565b8280016001018555821561349e579182015b8281111561349d578251825591602001919060010190613482565b5b5090506134ab91906134af565b5090565b5b808211156134c85760008160009055506001016134b0565b5090565b6000604051905090565b600080fd5b600080fd5b60007fffffffff0000000000000000000000000000000000000000000000000000000082169050919050565b613515816134e0565b811461352057600080fd5b50565b6000813590506135328161350c565b92915050565b60006020828403121561354e5761354d6134d6565b5b600061355c84828501613523565b91505092915050565b60008115159050919050565b61357a81613565565b82525050565b60006020820190506135956000830184613571565b92915050565b600081519050919050565b600082825260208201905092915050565b60005b838110156135d55780820151818401526020810190506135ba565b838111156135e4576000848401525b50505050565b6000601f19601f8301169050919050565b60006136068261359b565b61361081856135a6565b93506136208185602086016135b7565b613629816135ea565b840191505092915050565b6000602082019050818103600083015261364e81846135fb565b905092915050565b6000819050919050565b61366981613656565b811461367457600080fd5b50565b60008135905061368681613660565b92915050565b6000602082840312156136a2576136a16134d6565b5b60006136b084828501613677565b91505092915050565b600073ffffffffffffffffffffffffffffffffffffffff82169050919050565b60006136e4826136b9565b9050919050565b6136f4816136d9565b82525050565b600060208201905061370f60008301846136eb565b92915050565b61371e816136d9565b811461372957600080fd5b50565b60008135905061373b81613715565b92915050565b60008060408385031215613758576137576134d6565b5b60006137668582860161372c565b925050602061377785828601613677565b9150509250929050565b61378a81613656565b82525050565b60006020820190506137a56000830184613781565b92915050565b6000806000606084860312156137c4576137c36134d6565b5b60006137d28682870161372c565b93505060206137e38682870161372c565b92505060406137f486828701613677565b9150509250925092565b600080fd5b600080fd5b7f4e487b7100000000000000000000000000000000000000000000000000000000600052604160045260246000fd5b613840826135ea565b810181811067ffffffffffffffff8211171561385f5761385e613808565b5b80604052505050565b60006138726134cc565b905061387e8282613837565b919050565b600067ffffffffffffffff82111561389e5761389d613808565b5b6138a7826135ea565b9050602081019050919050565b82818337600083830152505050565b60006138d66138d184613883565b613868565b9050828152602081018484840111156138f2576138f1613803565b5b6138fd8482856138b4565b509392505050565b600082601f83011261391a576139196137fe565b5b813561392a8482602086016138c3565b91505092915050565b600060208284031215613949576139486134d6565b5b600082013567ffffffffffffffff811115613967576139666134db565b5b61397384828501613905565b91505092915050565b600060208284031215613992576139916134d6565b5b60006139a08482850161372c565b91505092915050565b600081519050919050565b600082825260208201905092915050565b6000819050602082019050919050565b6139de81613656565b82525050565b60006139f083836139d5565b60208301905092915050565b6000602082019050919050565b6000613a14826139a9565b613a1e81856139b4565b9350613a29836139c5565b8060005b83811015613a5a578151613a4188826139e4565b9750613a4c836139fc565b925050600181019050613a2d565b5085935050505092915050565b60006020820190508181036000830152613a818184613a09565b905092915050565b613a9281613565565b8114613a9d57600080fd5b50565b600081359050613aaf81613a89565b92915050565b60008060408385031215613acc57613acb6134d6565b5b6000613ada8582860161372c565b9250506020613aeb85828601613aa0565b9150509250929050565b600067ffffffffffffffff821115613b1057613b0f613808565b5b613b19826135ea565b9050602081019050919050565b6000613b39613b3484613af5565b613868565b905082815260208101848484011115613b5557613b54613803565b5b613b608482856138b4565b509392505050565b600082601f830112613b7d57613b7c6137fe565b5b8135613b8d848260208601613b26565b91505092915050565b60008060008060808587031215613bb057613baf6134d6565b5b6000613bbe8782880161372c565b9450506020613bcf8782880161372c565b9350506040613be087828801613677565b925050606085013567ffffffffffffffff811115613c0157613c006134db565b5b613c0d87828801613b68565b91505092959194509250565b60008060408385031215613c3057613c2f6134d6565b5b6000613c3e8582860161372c565b9250506020613c4f8582860161372c565b9150509250929050565b60008060408385031215613c7057613c6f6134d6565b5b6000613c7e85828601613677565b925050602083013567ffffffffffffffff811115613c9f57613c9e6134db565b5b613cab85828601613b68565b9150509250929050565b7f4e487b7100000000000000000000000000000000000000000000000000000000600052602260045260246000fd5b60006002820490506001821680613cfc57607f821691505b60208210811415613d1057613d0f613cb5565b5b50919050565b7f4552433732313a20617070726f76656420717565727920666f72206e6f6e657860008201527f697374656e7420746f6b656e0000000000000000000000000000000000000000602082015250565b6000613d72602c836135a6565b9150613d7d82613d16565b604082019050919050565b60006020820190508181036000830152613da181613d65565b9050919050565b7f4552433732313a20617070726f76616c20746f2063757272656e74206f776e6560008201527f7200000000000000000000000000000000000000000000000000000000000000602082015250565b6000613e046021836135a6565b9150613e0f82613da8565b604082019050919050565b60006020820190508181036000830152613e3381613df7565b9050919050565b7f4552433732313a20617070726f76652063616c6c6572206973206e6f74206f7760008201527f6e6572206e6f7220617070726f76656420666f7220616c6c0000000000000000602082015250565b6000613e966038836135a6565b9150613ea182613e3a565b604082019050919050565b60006020820190508181036000830152613ec581613e89565b9050919050565b7f4552433732313a207472616e736665722063616c6c6572206973206e6f74206f60008201527f776e6572206e6f7220617070726f766564000000000000000000000000000000602082015250565b6000613f286031836135a6565b9150613f3382613ecc565b604082019050919050565b60006020820190508181036000830152613f5781613f1b565b9050919050565b7f455243373231456e756d657261626c653a206f776e657220696e646578206f7560008201527f74206f6620626f756e6473000000000000000000000000000000000000000000602082015250565b6000613fba602b836135a6565b9150613fc582613f5e565b604082019050919050565b60006020820190508181036000830152613fe981613fad565b9050919050565b7f4f776e61626c653a2063616c6c6572206973206e6f7420746865206f776e6572600082015250565b60006140266020836135a6565b915061403182613ff0565b602082019050919050565b6000602082019050818103600083015261405581614019565b9050919050565b7f43616c6c6572206973206e6f74206f776e6572206e6f7220617070726f766564600082015250565b60006140926020836135a6565b915061409d8261405c565b602082019050919050565b600060208201905081810360008301526140c181614085565b9050919050565b7f455243373231456e756d657261626c653a20676c6f62616c20696e646578206f60008201527f7574206f6620626f756e64730000000000000000000000000000000000000000602082015250565b6000614124602c836135a6565b915061412f826140c8565b604082019050919050565b6000602082019050818103600083015261415381614117565b9050919050565b7f4e487b7100000000000000000000000000000000000000000000000000000000600052603260045260246000fd5b7f4552433732313a206f776e657220717565727920666f72206e6f6e657869737460008201527f656e7420746f6b656e0000000000000000000000000000000000000000000000602082015250565b60006141e56029836135a6565b91506141f082614189565b604082019050919050565b60006020820190508181036000830152614214816141d8565b9050919050565b7f4552433732313a2062616c616e636520717565727920666f7220746865207a6560008201527f726f206164647265737300000000000000000000000000000000000000000000602082015250565b6000614277602a836135a6565b91506142828261421b565b604082019050919050565b600060208201905081810360008301526142a68161426a565b9050919050565b7f4e487b7100000000000000000000000000000000000000000000000000000000600052601160045260246000fd5b60006142e782613656565b91507fffffffffffffffffffffffffffffffffffffffffffffffffffffffffffffffff82141561431a576143196142ad565b5b600182019050919050565b7f4578636565647320726573657276656420566f6f646f6c6c7a20737570706c79600082015250565b600061435b6020836135a6565b915061436682614325565b602082019050919050565b6000602082019050818103600083015261438a8161434e565b9050919050565b7f50726573616c6520636c6f736564000000000000000000000000000000000000600082015250565b60006143c7600e836135a6565b91506143d282614391565b602082019050919050565b600060208201905081810360008301526143f6816143ba565b9050919050565b7f4552433732313a20617070726f766520746f2063616c6c657200000000000000600082015250565b60006144336019836135a6565b915061443e826143fd565b602082019050919050565b6000602082019050818103600083015261446281614426565b9050919050565b7f4552433732314d657461646174613a2055524920717565727920666f72206e6f60008201527f6e6578697374656e7420746f6b656e0000000000000000000000000000000000602082015250565b60006144c5602f836135a6565b91506144d082614469565b604082019050919050565b600060208201905081810360008301526144f4816144b8565b9050919050565b600081905092915050565b60006145118261359b565b61451b81856144fb565b935061452b8185602086016135b7565b80840191505092915050565b60006145438285614506565b915061454f8284614506565b91508190509392505050565b7f4f776e61626c653a206e6577206f776e657220697320746865207a65726f206160008201527f6464726573730000000000000000000000000000000000000000000000000000602082015250565b60006145b76026836135a6565b91506145c28261455b565b604082019050919050565b600060208201905081810360008301526145e6816145aa565b9050919050565b7f53616c6520636c6f736564000000000000000000000000000000000000000000600082015250565b6000614623600b836135a6565b915061462e826145ed565b602082019050919050565b6000602082019050818103600083015261465281614616565b9050919050565b7f4e6f7420617574686f72697a656420746f206d696e7400000000000000000000600082015250565b600061468f6016836135a6565b915061469a82614659565b602082019050919050565b600060208201905081810360008301526146be81614682565b9050919050565b7f4e487b7100000000000000000000000000000000000000000000000000000000600052601260045260246000fd5b60006146ff82613656565b915061470a83613656565b92508261471a576147196146c5565b5b828204905092915050565b7f4552433732313a206f70657261746f7220717565727920666f72206e6f6e657860008201527f697374656e7420746f6b656e0000000000000000000000000000000000000000602082015250565b6000614781602c836135a6565b915061478c82614725565b604082019050919050565b600060208201905081810360008301526147b081614774565b9050919050565b7f4552433732313a207472616e73666572206f6620746f6b656e2074686174206960008201527f73206e6f74206f776e0000000000000000000000000000000000000000000000602082015250565b60006148136029836135a6565b915061481e826147b7565b604082019050919050565b6000602082019050818103600083015261484281614806565b9050919050565b7f4552433732313a207472616e7366657220746f20746865207a65726f2061646460008201527f7265737300000000000000000000000000000000000000000000000000000000602082015250565b60006148a56024836135a6565b91506148b082614849565b604082019050919050565b600060208201905081810360008301526148d481614898565b9050919050565b60006148e682613656565b91506148f183613656565b925082821015614904576149036142ad565b5b828203905092915050565b600061491a82613656565b915061492583613656565b9250827fffffffffffffffffffffffffffffffffffffffffffffffffffffffffffffffff0382111561495a576149596142ad565b5b828201905092915050565b7f5061757361626c653a206e6f7420706175736564000000000000000000000000600082015250565b600061499b6014836135a6565b91506149a682614965565b602082019050919050565b600060208201905081810360008301526149ca8161498e565b9050919050565b7f5061757361626c653a2070617573656400000000000000000000000000000000600082015250565b6000614a076010836135a6565b9150614a12826149d1565b602082019050919050565b60006020820190508181036000830152614a36816149fa565b9050919050565b7f43616e206f6e6c79206d696e74203520746f6b656e732061742061646472657360008201527f7300000000000000000000000000000000000000000000000000000000000000602082015250565b6000614a996021836135a6565b9150614aa482614a3d565b604082019050919050565b60006020820190508181036000830152614ac881614a8c565b9050919050565b7f45786365656473206d6178696d756d20566f6f646f6c6c7a20737570706c7900600082015250565b6000614b05601f836135a6565b9150614b1082614acf565b602082019050919050565b60006020820190508181036000830152614b3481614af8565b9050919050565b6000614b4682613656565b9150614b5183613656565b9250817fffffffffffffffffffffffffffffffffffffffffffffffffffffffffffffffff0483118215151615614b8a57614b896142ad565b5b828202905092915050565b7f45746865722076616c75652073656e74206973206e6f7420636f727265637400600082015250565b6000614bcb601f836135a6565b9150614bd682614b95565b602082019050919050565b60006020820190508181036000830152614bfa81614bbe565b9050919050565b7f4552433732313a207472616e7366657220746f206e6f6e20455243373231526560008201527f63656976657220696d706c656d656e7465720000000000000000000000000000602082015250565b6000614c5d6032836135a6565b9150614c6882614c01565b604082019050919050565b60006020820190508181036000830152614c8c81614c50565b9050919050565b6000614c9e82613656565b9150614ca983613656565b925082614cb957614cb86146c5565b5b828206905092915050565b60008160601b9050919050565b6000614cdc82614cc4565b9050919050565b6000614cee82614cd1565b9050919050565b614d06614d01826136d9565b614ce3565b82525050565b6000614d188284614cf5565b60148201915081905092915050565b600081519050919050565b600082825260208201905092915050565b6000614d4e82614d27565b614d588185614d32565b9350614d688185602086016135b7565b614d71816135ea565b840191505092915050565b6000608082019050614d9160008301876136eb565b614d9e60208301866136eb565b614dab6040830185613781565b8181036060830152614dbd8184614d43565b905095945050505050565b600081519050614dd78161350c565b92915050565b600060208284031215614df357614df26134d6565b5b6000614e0184828501614dc8565b91505092915050565b7f19457468657265756d205369676e6564204d6573736167653a0a333200000000600082015250565b6000614e40601c836144fb565b9150614e4b82614e0a565b601c82019050919050565b6000819050919050565b6000819050919050565b614e7b614e7682614e56565b614e60565b82525050565b6000614e8c82614e33565b9150614e988284614e6a565b60208201915081905092915050565b7f4e487b7100000000000000000000000000000000000000000000000000000000600052603160045260246000fd5b7f4552433732313a206d696e7420746f20746865207a65726f2061646472657373600082015250565b6000614f0c6020836135a6565b9150614f1782614ed6565b602082019050919050565b60006020820190508181036000830152614f3b81614eff565b9050919050565b7f4552433732313a20746f6b656e20616c7265616479206d696e74656400000000600082015250565b6000614f78601c836135a6565b9150614f8382614f42565b602082019050919050565b60006020820190508181036000830152614fa781614f6b565b9050919050565b7f4e487b7100000000000000000000000000000000000000000000000000000000600052602160045260246000fd5b7f45434453413a20696e76616c6964207369676e61747572650000000000000000600082015250565b60006150136018836135a6565b915061501e82614fdd565b602082019050919050565b6000602082019050818103600083015261504281615006565b9050919050565b7f45434453413a20696e76616c6964207369676e6174757265206c656e67746800600082015250565b600061507f601f836135a6565b915061508a82615049565b602082019050919050565b600060208201905081810360008301526150ae81615072565b9050919050565b7f45434453413a20696e76616c6964207369676e6174757265202773272076616c60008201527f7565000000000000000000000000000000000000000000000000000000000000602082015250565b60006151116022836135a6565b915061511c826150b5565b604082019050919050565b6000602082019050818103600083015261514081615104565b9050919050565b7f45434453413a20696e76616c6964207369676e6174757265202776272076616c60008201527f7565000000000000000000000000000000000000000000000000000000000000602082015250565b60006151a36022836135a6565b91506151ae82615147565b604082019050919050565b600060208201905081810360008301526151d281615196565b9050919050565b6151e281614e56565b82525050565b600060ff82169050919050565b6151fe816151e8565b82525050565b600060808201905061521960008301876151d9565b61522660208301866151f5565b61523360408301856151d9565b61524060608301846151d9565b9594505050505056fea264697066735822122088c9f7b6a9b6275d336294cfd3dec72f852cf9aac98d2082ab210388a638015c64736f6c63430008090033",
  "immutableReferences": {},
  "source": "// SPDX-License-Identifier: MIT\npragma solidity ^0.8.9;\n\nimport \"@openzeppelin/contracts/token/ERC721/extensions/ERC721Enumerable.sol\";\nimport \"@openzeppelin/contracts/access/Ownable.sol\";\nimport \"@openzeppelin/contracts/security/Pausable.sol\";\nimport \"@openzeppelin/contracts/utils/cryptography/ECDSA.sol\";\nimport \"@openzeppelin/contracts/utils/Counters.sol\";\n\nimport \"./Presalable.sol\";\n\ncontract Voodollz is ERC721Enumerable, Ownable, Pausable, Presalable {\n    using ECDSA for bytes32;\n    using Counters for Counters.Counter;\n\n    uint256 private constant _RESERVED = 150;\n\n    string public baseTokenURI;\n    \n    uint256 public constant MAX_TOKEN_COUNT = 10000;\n    uint256 public constant PRICE = 0.1 ether;\n    \n    Counters.Counter private _tokenIdCounter = Counters.Counter(_RESERVED);\n    Counters.Counter private _giveTokenIdCounter;\n\n    constructor(string memory _baseTokenURI) ERC721(\"Zllodoov\", \"ZLDV\")  {\n        setBaseURI(_baseTokenURI);\n        presale();\n    }\n\n    // Mint methods\n\n    function _mintVoodollz(uint256 _amount, uint256 _price) private whenNotPaused {\n        require(balanceOf(msg.sender) + _amount <= 5, \"Can only mint 5 tokens at address\");\n        require(_tokenIdCounter.current() + _amount <= MAX_TOKEN_COUNT, \"Exceeds maximum Voodollz supply\");\n        require(msg.value >= _price * _amount, \"Ether value sent is not correct\");\n    \n        for(uint256 i = 0; i < _amount; i++) {\n            if (_tokenIdCounter.current() < MAX_TOKEN_COUNT) {\n                _tokenIdCounter.increment();\n                _safeMint(msg.sender, _tokenIdCounter.current());\n            }\n        }\n    }\n\n    function mint(uint256 _amount) public payable whenNotPresaled {\n        _mintVoodollz(_amount, PRICE);\n    }\n\n    function presaleMint(uint256 _amount, bytes memory _signature) public payable whenPresaled {        \n        address signer = recoverSigner(msg.sender, _signature);\n        require(signer == owner(), \"Not authorized to mint\");\n\n        _mintVoodollz(_amount, PRICE / 2);\n    }\n\n    // Give methods\n    \n    function giveAway(address _to) public onlyOwner {\n        require(_giveTokenIdCounter.current() < _RESERVED, \"Exceeds reserved Voodollz supply\");\n\n        _giveTokenIdCounter.increment();\n        _safeMint(_to, _giveTokenIdCounter.current());\n    }\n\n    // Burn methods\n    \n    function burn(uint256 tokenId) public virtual {\n        require(_isApprovedOrOwner(msg.sender, tokenId), \"Caller is not owner nor approved\");\n        _burn(tokenId);\n    }\n\n    // Service methods\n\n    function tokensOfOwner(address _owner) public view returns(uint256[] memory){\n        uint256 tokenCount = balanceOf(_owner);\n        uint256[] memory tokensId = new uint256[](tokenCount);\n\n        for(uint256 i; i < tokenCount; i++){\n            tokensId[i] = tokenOfOwnerByIndex(_owner, i);\n        }\n\n        return tokensId;\n    }\n\n    function recoverSigner(address _wallet, bytes memory _signature) private pure returns (address){\n        return keccak256(abi.encodePacked(_wallet)).toEthSignedMessageHash().recover(_signature);\n    }\n    \n    function _baseURI() internal view virtual override returns (string memory) {\n        return baseTokenURI;\n    }\n\n    function setBaseURI(string memory _baseTokenURI) public onlyOwner {\n        baseTokenURI = _baseTokenURI;\n    }\n\n    function pause() public onlyOwner {\n        _pause();\n    }\n\n    function unpause() public onlyOwner {\n        _unpause();\n    }\n\n    function presale() public onlyOwner {\n        _presale();\n    }\n\n    function unpresale() public onlyOwner {\n        _unpresale();\n    }\n}",
  "sourcePath": "/home/doss/projects/voodollz/packages/contract/contracts/Voodollz.sol",
  "compiler": {
    "name": "solc",
    "version": "0.8.9+commit.e5eed63a.Emscripten.clang"
  },
  "schemaVersion": "3.4.3",
  "updatedAt": "2021-10-28T17:50:48.490Z",
  "networkType": "ethereum",
  "devdoc": {
    "kind": "dev",
    "methods": {
      "approve(address,uint256)": {
        "details": "See {IERC721-approve}."
      },
      "balanceOf(address)": {
        "details": "See {IERC721-balanceOf}."
      },
      "getApproved(uint256)": {
        "details": "See {IERC721-getApproved}."
      },
      "isApprovedForAll(address,address)": {
        "details": "See {IERC721-isApprovedForAll}."
      },
      "name()": {
        "details": "See {IERC721Metadata-name}."
      },
      "owner()": {
        "details": "Returns the address of the current owner."
      },
      "ownerOf(uint256)": {
        "details": "See {IERC721-ownerOf}."
      },
      "paused()": {
        "details": "Returns true if the contract is paused, and false otherwise."
      },
      "renounceOwnership()": {
        "details": "Leaves the contract without owner. It will not be possible to call `onlyOwner` functions anymore. Can only be called by the current owner. NOTE: Renouncing ownership will leave the contract without an owner, thereby removing any functionality that is only available to the owner."
      },
      "safeTransferFrom(address,address,uint256)": {
        "details": "See {IERC721-safeTransferFrom}."
      },
      "safeTransferFrom(address,address,uint256,bytes)": {
        "details": "See {IERC721-safeTransferFrom}."
      },
      "setApprovalForAll(address,bool)": {
        "details": "See {IERC721-setApprovalForAll}."
      },
      "supportsInterface(bytes4)": {
        "details": "See {IERC165-supportsInterface}."
      },
      "symbol()": {
        "details": "See {IERC721Metadata-symbol}."
      },
      "tokenByIndex(uint256)": {
        "details": "See {IERC721Enumerable-tokenByIndex}."
      },
      "tokenOfOwnerByIndex(address,uint256)": {
        "details": "See {IERC721Enumerable-tokenOfOwnerByIndex}."
      },
      "tokenURI(uint256)": {
        "details": "See {IERC721Metadata-tokenURI}."
      },
      "totalSupply()": {
        "details": "See {IERC721Enumerable-totalSupply}."
      },
      "transferFrom(address,address,uint256)": {
        "details": "See {IERC721-transferFrom}."
      },
      "transferOwnership(address)": {
        "details": "Transfers ownership of the contract to a new account (`newOwner`). Can only be called by the current owner."
      }
    },
    "version": 1
  },
  "userdoc": {
    "kind": "user",
    "methods": {},
    "version": 1
  }
}