{
  "contractName": "Voodollz",
  "abi": [
    {
      "inputs": [
        {
          "internalType": "string",
          "name": "_baseTokenURI",
          "type": "string"
        }
      ],
      "stateMutability": "nonpayable",
      "type": "constructor"
    },
    {
      "anonymous": false,
      "inputs": [
        {
          "indexed": true,
          "internalType": "address",
          "name": "owner",
          "type": "address"
        },
        {
          "indexed": true,
          "internalType": "address",
          "name": "approved",
          "type": "address"
        },
        {
          "indexed": true,
          "internalType": "uint256",
          "name": "tokenId",
          "type": "uint256"
        }
      ],
      "name": "Approval",
      "type": "event"
    },
    {
      "anonymous": false,
      "inputs": [
        {
          "indexed": true,
          "internalType": "address",
          "name": "owner",
          "type": "address"
        },
        {
          "indexed": true,
          "internalType": "address",
          "name": "operator",
          "type": "address"
        },
        {
          "indexed": false,
          "internalType": "bool",
          "name": "approved",
          "type": "bool"
        }
      ],
      "name": "ApprovalForAll",
      "type": "event"
    },
    {
      "anonymous": false,
      "inputs": [
        {
          "indexed": false,
          "internalType": "address",
          "name": "to",
          "type": "address"
        },
        {
          "indexed": false,
          "internalType": "uint256",
          "name": "amount",
          "type": "uint256"
        }
      ],
      "name": "EthClaimed",
      "type": "event"
    },
    {
      "anonymous": false,
      "inputs": [
        {
          "indexed": false,
          "internalType": "uint256",
          "name": "amount",
          "type": "uint256"
        }
      ],
      "name": "EthDeposited",
      "type": "event"
    },
    {
      "anonymous": false,
      "inputs": [
        {
          "indexed": true,
          "internalType": "address",
          "name": "previousOwner",
          "type": "address"
        },
        {
          "indexed": true,
          "internalType": "address",
          "name": "newOwner",
          "type": "address"
        }
      ],
      "name": "OwnershipTransferred",
      "type": "event"
    },
    {
      "anonymous": false,
      "inputs": [
        {
          "indexed": false,
          "internalType": "address",
          "name": "account",
          "type": "address"
        }
      ],
      "name": "Paused",
      "type": "event"
    },
    {
      "anonymous": false,
      "inputs": [
        {
          "indexed": false,
          "internalType": "address",
          "name": "account",
          "type": "address"
        }
      ],
      "name": "Presaled",
      "type": "event"
    },
    {
      "anonymous": false,
      "inputs": [
        {
          "indexed": true,
          "internalType": "address",
          "name": "from",
          "type": "address"
        },
        {
          "indexed": true,
          "internalType": "address",
          "name": "to",
          "type": "address"
        },
        {
          "indexed": true,
          "internalType": "uint256",
          "name": "tokenId",
          "type": "uint256"
        }
      ],
      "name": "Transfer",
      "type": "event"
    },
    {
      "anonymous": false,
      "inputs": [
        {
          "indexed": false,
          "internalType": "address",
          "name": "account",
          "type": "address"
        }
      ],
      "name": "Unpaused",
      "type": "event"
    },
    {
      "anonymous": false,
      "inputs": [
        {
          "indexed": false,
          "internalType": "address",
          "name": "account",
          "type": "address"
        }
      ],
      "name": "Unpresaled",
      "type": "event"
    },
    {
      "inputs": [],
      "name": "MAX_TOKEN_COUNT",
      "outputs": [
        {
          "internalType": "uint256",
          "name": "",
          "type": "uint256"
        }
      ],
      "stateMutability": "view",
      "type": "function",
      "constant": true
    },
    {
      "inputs": [],
      "name": "PRICE",
      "outputs": [
        {
          "internalType": "uint256",
          "name": "",
          "type": "uint256"
        }
      ],
      "stateMutability": "view",
      "type": "function",
      "constant": true
    },
    {
      "inputs": [
        {
          "internalType": "address",
          "name": "to",
          "type": "address"
        },
        {
          "internalType": "uint256",
          "name": "tokenId",
          "type": "uint256"
        }
      ],
      "name": "approve",
      "outputs": [],
      "stateMutability": "nonpayable",
      "type": "function"
    },
    {
      "inputs": [
        {
          "internalType": "address",
          "name": "owner",
          "type": "address"
        }
      ],
      "name": "balanceOf",
      "outputs": [
        {
          "internalType": "uint256",
          "name": "",
          "type": "uint256"
        }
      ],
      "stateMutability": "view",
      "type": "function",
      "constant": true
    },
    {
      "inputs": [],
      "name": "baseTokenURI",
      "outputs": [
        {
          "internalType": "string",
          "name": "",
          "type": "string"
        }
      ],
      "stateMutability": "view",
      "type": "function",
      "constant": true
    },
    {
      "inputs": [
        {
          "internalType": "uint256",
          "name": "tokenId",
          "type": "uint256"
        }
      ],
      "name": "getApproved",
      "outputs": [
        {
          "internalType": "address",
          "name": "",
          "type": "address"
        }
      ],
      "stateMutability": "view",
      "type": "function",
      "constant": true
    },
    {
      "inputs": [
        {
          "internalType": "address",
          "name": "owner",
          "type": "address"
        },
        {
          "internalType": "address",
          "name": "operator",
          "type": "address"
        }
      ],
      "name": "isApprovedForAll",
      "outputs": [
        {
          "internalType": "bool",
          "name": "",
          "type": "bool"
        }
      ],
      "stateMutability": "view",
      "type": "function",
      "constant": true
    },
    {
      "inputs": [],
      "name": "name",
      "outputs": [
        {
          "internalType": "string",
          "name": "",
          "type": "string"
        }
      ],
      "stateMutability": "view",
      "type": "function",
      "constant": true
    },
    {
      "inputs": [],
      "name": "owner",
      "outputs": [
        {
          "internalType": "address",
          "name": "",
          "type": "address"
        }
      ],
      "stateMutability": "view",
      "type": "function",
      "constant": true
    },
    {
      "inputs": [
        {
          "internalType": "uint256",
          "name": "tokenId",
          "type": "uint256"
        }
      ],
      "name": "ownerOf",
      "outputs": [
        {
          "internalType": "address",
          "name": "",
          "type": "address"
        }
      ],
      "stateMutability": "view",
      "type": "function",
      "constant": true
    },
    {
      "inputs": [],
      "name": "paused",
      "outputs": [
        {
          "internalType": "bool",
          "name": "",
          "type": "bool"
        }
      ],
      "stateMutability": "view",
      "type": "function",
      "constant": true
    },
    {
      "inputs": [],
      "name": "presaled",
      "outputs": [
        {
          "internalType": "bool",
          "name": "",
          "type": "bool"
        }
      ],
      "stateMutability": "view",
      "type": "function",
      "constant": true
    },
    {
      "inputs": [],
      "name": "renounceOwnership",
      "outputs": [],
      "stateMutability": "nonpayable",
      "type": "function"
    },
    {
      "inputs": [
        {
          "internalType": "address",
          "name": "from",
          "type": "address"
        },
        {
          "internalType": "address",
          "name": "to",
          "type": "address"
        },
        {
          "internalType": "uint256",
          "name": "tokenId",
          "type": "uint256"
        }
      ],
      "name": "safeTransferFrom",
      "outputs": [],
      "stateMutability": "nonpayable",
      "type": "function"
    },
    {
      "inputs": [
        {
          "internalType": "address",
          "name": "from",
          "type": "address"
        },
        {
          "internalType": "address",
          "name": "to",
          "type": "address"
        },
        {
          "internalType": "uint256",
          "name": "tokenId",
          "type": "uint256"
        },
        {
          "internalType": "bytes",
          "name": "_data",
          "type": "bytes"
        }
      ],
      "name": "safeTransferFrom",
      "outputs": [],
      "stateMutability": "nonpayable",
      "type": "function"
    },
    {
      "inputs": [
        {
          "internalType": "address",
          "name": "operator",
          "type": "address"
        },
        {
          "internalType": "bool",
          "name": "approved",
          "type": "bool"
        }
      ],
      "name": "setApprovalForAll",
      "outputs": [],
      "stateMutability": "nonpayable",
      "type": "function"
    },
    {
      "inputs": [
        {
          "internalType": "bytes4",
          "name": "interfaceId",
          "type": "bytes4"
        }
      ],
      "name": "supportsInterface",
      "outputs": [
        {
          "internalType": "bool",
          "name": "",
          "type": "bool"
        }
      ],
      "stateMutability": "view",
      "type": "function",
      "constant": true
    },
    {
      "inputs": [],
      "name": "symbol",
      "outputs": [
        {
          "internalType": "string",
          "name": "",
          "type": "string"
        }
      ],
      "stateMutability": "view",
      "type": "function",
      "constant": true
    },
    {
      "inputs": [
        {
          "internalType": "uint256",
          "name": "index",
          "type": "uint256"
        }
      ],
      "name": "tokenByIndex",
      "outputs": [
        {
          "internalType": "uint256",
          "name": "",
          "type": "uint256"
        }
      ],
      "stateMutability": "view",
      "type": "function",
      "constant": true
    },
    {
      "inputs": [
        {
          "internalType": "address",
          "name": "owner",
          "type": "address"
        },
        {
          "internalType": "uint256",
          "name": "index",
          "type": "uint256"
        }
      ],
      "name": "tokenOfOwnerByIndex",
      "outputs": [
        {
          "internalType": "uint256",
          "name": "",
          "type": "uint256"
        }
      ],
      "stateMutability": "view",
      "type": "function",
      "constant": true
    },
    {
      "inputs": [
        {
          "internalType": "uint256",
          "name": "tokenId",
          "type": "uint256"
        }
      ],
      "name": "tokenURI",
      "outputs": [
        {
          "internalType": "string",
          "name": "",
          "type": "string"
        }
      ],
      "stateMutability": "view",
      "type": "function",
      "constant": true
    },
    {
      "inputs": [],
      "name": "totalSupply",
      "outputs": [
        {
          "internalType": "uint256",
          "name": "",
          "type": "uint256"
        }
      ],
      "stateMutability": "view",
      "type": "function",
      "constant": true
    },
    {
      "inputs": [
        {
          "internalType": "address",
          "name": "from",
          "type": "address"
        },
        {
          "internalType": "address",
          "name": "to",
          "type": "address"
        },
        {
          "internalType": "uint256",
          "name": "tokenId",
          "type": "uint256"
        }
      ],
      "name": "transferFrom",
      "outputs": [],
      "stateMutability": "nonpayable",
      "type": "function"
    },
    {
      "inputs": [
        {
          "internalType": "address",
          "name": "newOwner",
          "type": "address"
        }
      ],
      "name": "transferOwnership",
      "outputs": [],
      "stateMutability": "nonpayable",
      "type": "function"
    },
    {
      "inputs": [
        {
          "internalType": "uint256",
          "name": "_amount",
          "type": "uint256"
        }
      ],
      "name": "mint",
      "outputs": [],
      "stateMutability": "payable",
      "type": "function",
      "payable": true
    },
    {
      "inputs": [
        {
          "internalType": "uint256",
          "name": "_amount",
          "type": "uint256"
        },
        {
          "internalType": "bytes",
          "name": "_signature",
          "type": "bytes"
        }
      ],
      "name": "presaleMint",
      "outputs": [],
      "stateMutability": "payable",
      "type": "function",
      "payable": true
    },
    {
      "inputs": [
        {
          "internalType": "address",
          "name": "_wallet",
          "type": "address"
        },
        {
          "internalType": "bytes",
          "name": "_signature",
          "type": "bytes"
        }
      ],
      "name": "recoverSigner",
      "outputs": [
        {
          "internalType": "address",
          "name": "",
          "type": "address"
        }
      ],
      "stateMutability": "pure",
      "type": "function",
      "constant": true
    },
    {
      "inputs": [
        {
          "internalType": "address",
          "name": "_to",
          "type": "address"
        }
      ],
      "name": "giveAway",
      "outputs": [],
      "stateMutability": "nonpayable",
      "type": "function"
    },
    {
      "inputs": [],
      "name": "deposit",
      "outputs": [],
      "stateMutability": "payable",
      "type": "function",
      "payable": true
    },
    {
      "inputs": [
        {
          "internalType": "address",
          "name": "owner",
          "type": "address"
        }
      ],
      "name": "claimableBalance",
      "outputs": [
        {
          "internalType": "uint256",
          "name": "",
          "type": "uint256"
        }
      ],
      "stateMutability": "view",
      "type": "function",
      "constant": true
    },
    {
      "inputs": [],
      "name": "claim",
      "outputs": [],
      "stateMutability": "nonpayable",
      "type": "function"
    },
    {
      "inputs": [
        {
          "internalType": "uint256",
          "name": "tokenId",
          "type": "uint256"
        }
      ],
      "name": "burn",
      "outputs": [],
      "stateMutability": "nonpayable",
      "type": "function"
    },
    {
      "inputs": [
        {
          "internalType": "string",
          "name": "_baseTokenURI",
          "type": "string"
        }
      ],
      "name": "setBaseURI",
      "outputs": [],
      "stateMutability": "nonpayable",
      "type": "function"
    },
    {
      "inputs": [],
      "name": "pause",
      "outputs": [],
      "stateMutability": "nonpayable",
      "type": "function"
    },
    {
      "inputs": [],
      "name": "unpause",
      "outputs": [],
      "stateMutability": "nonpayable",
      "type": "function"
    },
    {
      "inputs": [],
      "name": "presale",
      "outputs": [],
      "stateMutability": "nonpayable",
      "type": "function"
    },
    {
      "inputs": [],
      "name": "unpresale",
      "outputs": [],
      "stateMutability": "nonpayable",
      "type": "function"
    }
  ],
  "bytecode": "0x60806040526096600b553480156200001657600080fd5b5060405162005f4138038062005f4183398181016040528101906200003c919062000688565b6040518060400160405280600881526020017f566f6f646f6c6c7a0000000000000000000000000000000000000000000000008152506040518060400160405280600881526020017f566f6f646f6c6c7a0000000000000000000000000000000000000000000000008152508160009080519060200190620000c09291906200043b565b508060019080519060200190620000d99291906200043b565b505050620000fc620000f06200013f60201b60201c565b6200014760201b60201c565b6000600a60146101000a81548160ff02191690831515021790555062000128816200020d60201b60201c565b62000138620002b860201b60201c565b5062000895565b600033905090565b6000600a60009054906101000a900473ffffffffffffffffffffffffffffffffffffffff16905081600a60006101000a81548173ffffffffffffffffffffffffffffffffffffffff021916908373ffffffffffffffffffffffffffffffffffffffff1602179055508173ffffffffffffffffffffffffffffffffffffffff168173ffffffffffffffffffffffffffffffffffffffff167f8be0079c531659141344cd1fd0a4f28419497f9722a3daafe3b4186f6b6457e060405160405180910390a35050565b6200021d6200013f60201b60201c565b73ffffffffffffffffffffffffffffffffffffffff16620002436200035960201b60201c565b73ffffffffffffffffffffffffffffffffffffffff16146200029c576040517f08c379a000000000000000000000000000000000000000000000000000000000815260040162000293906200073a565b60405180910390fd5b80600d9080519060200190620002b49291906200043b565b5050565b620002c86200013f60201b60201c565b73ffffffffffffffffffffffffffffffffffffffff16620002ee6200035960201b60201c565b73ffffffffffffffffffffffffffffffffffffffff161462000347576040517f08c379a00000000000000000000000000000000000000000000000000000000081526004016200033e906200073a565b60405180910390fd5b620003576200038360201b60201c565b565b6000600a60009054906101000a900473ffffffffffffffffffffffffffffffffffffffff16905090565b600a60159054906101000a900460ff1615620003d6576040517f08c379a0000000000000000000000000000000000000000000000000000000008152600401620003cd90620007ac565b60405180910390fd5b6001600a60156101000a81548160ff0219169083151502179055507fb1412a7cd96bc4195d633c938189c320dcbeb2cff60c1b8bdd872678fb3514b4620004226200013f60201b60201c565b60405162000431919062000813565b60405180910390a1565b82805462000449906200085f565b90600052602060002090601f0160209004810192826200046d5760008555620004b9565b82601f106200048857805160ff1916838001178555620004b9565b82800160010185558215620004b9579182015b82811115620004b85782518255916020019190600101906200049b565b5b509050620004c89190620004cc565b5090565b5b80821115620004e7576000816000905550600101620004cd565b5090565b6000604051905090565b600080fd5b600080fd5b600080fd5b600080fd5b6000601f19601f8301169050919050565b7f4e487b7100000000000000000000000000000000000000000000000000000000600052604160045260246000fd5b620005548262000509565b810181811067ffffffffffffffff821117156200057657620005756200051a565b5b80604052505050565b60006200058b620004eb565b905062000599828262000549565b919050565b600067ffffffffffffffff821115620005bc57620005bb6200051a565b5b620005c78262000509565b9050602081019050919050565b60005b83811015620005f4578082015181840152602081019050620005d7565b8381111562000604576000848401525b50505050565b6000620006216200061b846200059e565b6200057f565b90508281526020810184848401111562000640576200063f62000504565b5b6200064d848285620005d4565b509392505050565b600082601f8301126200066d576200066c620004ff565b5b81516200067f8482602086016200060a565b91505092915050565b600060208284031215620006a157620006a0620004f5565b5b600082015167ffffffffffffffff811115620006c257620006c1620004fa565b5b620006d08482850162000655565b91505092915050565b600082825260208201905092915050565b7f4f776e61626c653a2063616c6c6572206973206e6f7420746865206f776e6572600082015250565b600062000722602083620006d9565b91506200072f82620006ea565b602082019050919050565b60006020820190508181036000830152620007558162000713565b9050919050565b7f50726573616c6520636c6f736564000000000000000000000000000000000000600082015250565b600062000794600e83620006d9565b9150620007a1826200075c565b602082019050919050565b60006020820190508181036000830152620007c78162000785565b9050919050565b600073ffffffffffffffffffffffffffffffffffffffff82169050919050565b6000620007fb82620007ce565b9050919050565b6200080d81620007ee565b82525050565b60006020820190506200082a600083018462000802565b92915050565b7f4e487b7100000000000000000000000000000000000000000000000000000000600052602260045260246000fd5b600060028204905060018216806200087857607f821691505b602082108114156200088f576200088e62000830565b5b50919050565b61569c80620008a56000396000f3fe60806040526004361061021a5760003560e01c8063715018a611610123578063b88d4fde116100ab578063e53e3a041161006f578063e53e3a041461076b578063e985e9c5146107a8578063f2fde38b146107e5578063fd24a8541461080e578063fdea8e0b1461082a5761021a565b8063b88d4fde146106a5578063c87b56dd146106ce578063d0bbb0d71461070b578063d0e30db014610736578063d547cfb7146107405761021a565b80638da5cb5b116100f25780638da5cb5b146105e157806395d89b411461060c5780639e24078514610637578063a0712d6814610660578063a22cb4651461067c5761021a565b8063715018a6146105715780638456cb5914610588578063854938531461059f5780638d859f3e146105b65761021a565b806342966c68116101a657806355f804b31161017557806355f804b3146104665780635c975abb1461048f57806360f3309b146104ba5780636352211e146104f757806370a08231146105345761021a565b806342966c68146103be5780634cb2f9ea146103e75780634e71d92d146104125780634f6ccce7146104295761021a565b806318160ddd116101ed57806318160ddd146102ed57806323b872dd146103185780632f745c59146103415780633f4ba83a1461037e57806342842e0e146103955761021a565b806301ffc9a71461021f57806306fdde031461025c578063081812fc14610287578063095ea7b3146102c4575b600080fd5b34801561022b57600080fd5b50610246600480360381019061024191906138d8565b610841565b6040516102539190613920565b60405180910390f35b34801561026857600080fd5b506102716108bb565b60405161027e91906139d4565b60405180910390f35b34801561029357600080fd5b506102ae60048036038101906102a99190613a2c565b61094d565b6040516102bb9190613a9a565b60405180910390f35b3480156102d057600080fd5b506102eb60048036038101906102e69190613ae1565b6109d2565b005b3480156102f957600080fd5b50610302610aea565b60405161030f9190613b30565b60405180910390f35b34801561032457600080fd5b5061033f600480360381019061033a9190613b4b565b610af7565b005b34801561034d57600080fd5b5061036860048036038101906103639190613ae1565b610b57565b6040516103759190613b30565b60405180910390f35b34801561038a57600080fd5b50610393610bfc565b005b3480156103a157600080fd5b506103bc60048036038101906103b79190613b4b565b610c82565b005b3480156103ca57600080fd5b506103e560048036038101906103e09190613a2c565b610ca2565b005b3480156103f357600080fd5b506103fc610cf7565b6040516104099190613920565b60405180910390f35b34801561041e57600080fd5b50610427610d0e565b005b34801561043557600080fd5b50610450600480360381019061044b9190613a2c565b610e42565b60405161045d9190613b30565b60405180910390f35b34801561047257600080fd5b5061048d60048036038101906104889190613cd3565b610eb3565b005b34801561049b57600080fd5b506104a4610f49565b6040516104b19190613920565b60405180910390f35b3480156104c657600080fd5b506104e160048036038101906104dc9190613d1c565b610f60565b6040516104ee9190613b30565b60405180910390f35b34801561050357600080fd5b5061051e60048036038101906105199190613a2c565b610fc7565b60405161052b9190613a9a565b60405180910390f35b34801561054057600080fd5b5061055b60048036038101906105569190613d1c565b611079565b6040516105689190613b30565b60405180910390f35b34801561057d57600080fd5b50610586611131565b005b34801561059457600080fd5b5061059d6111b9565b005b3480156105ab57600080fd5b506105b461123f565b005b3480156105c257600080fd5b506105cb6112c5565b6040516105d89190613b30565b60405180910390f35b3480156105ed57600080fd5b506105f66112d0565b6040516106039190613a9a565b60405180910390f35b34801561061857600080fd5b506106216112fa565b60405161062e91906139d4565b60405180910390f35b34801561064357600080fd5b5061065e60048036038101906106599190613d1c565b61138c565b005b61067a60048036038101906106759190613a2c565b611521565b005b34801561068857600080fd5b506106a3600480360381019061069e9190613d75565b61157d565b005b3480156106b157600080fd5b506106cc60048036038101906106c79190613e56565b6116fe565b005b3480156106da57600080fd5b506106f560048036038101906106f09190613a2c565b611760565b60405161070291906139d4565b60405180910390f35b34801561071757600080fd5b50610720611807565b60405161072d9190613b30565b60405180910390f35b61073e61180d565b005b34801561074c57600080fd5b506107556119b7565b60405161076291906139d4565b60405180910390f35b34801561077757600080fd5b50610792600480360381019061078d9190613ed9565b611a45565b60405161079f9190613a9a565b60405180910390f35b3480156107b457600080fd5b506107cf60048036038101906107ca9190613f35565b611a90565b6040516107dc9190613920565b60405180910390f35b3480156107f157600080fd5b5061080c60048036038101906108079190613d1c565b611b24565b005b61082860048036038101906108239190613f75565b611c1c565b005b34801561083657600080fd5b5061083f611cfc565b005b60007f780e9d63000000000000000000000000000000000000000000000000000000007bffffffffffffffffffffffffffffffffffffffffffffffffffffffff1916827bffffffffffffffffffffffffffffffffffffffffffffffffffffffff191614806108b457506108b382611d82565b5b9050919050565b6060600080546108ca90614000565b80601f01602080910402602001604051908101604052809291908181526020018280546108f690614000565b80156109435780601f1061091857610100808354040283529160200191610943565b820191906000526020600020905b81548152906001019060200180831161092657829003601f168201915b5050505050905090565b600061095882611e64565b610997576040517f08c379a000000000000000000000000000000000000000000000000000000000815260040161098e906140a4565b60405180910390fd5b6004600083815260200190815260200160002060009054906101000a900473ffffffffffffffffffffffffffffffffffffffff169050919050565b60006109dd82610fc7565b90508073ffffffffffffffffffffffffffffffffffffffff168373ffffffffffffffffffffffffffffffffffffffff161415610a4e576040517f08c379a0000000000000000000000000000000000000000000000000000000008152600401610a4590614136565b60405180910390fd5b8073ffffffffffffffffffffffffffffffffffffffff16610a6d611ed0565b73ffffffffffffffffffffffffffffffffffffffff161480610a9c5750610a9b81610a96611ed0565b611a90565b5b610adb576040517f08c379a0000000000000000000000000000000000000000000000000000000008152600401610ad2906141c8565b60405180910390fd5b610ae58383611ed8565b505050565b6000600880549050905090565b610b08610b02611ed0565b82611f91565b610b47576040517f08c379a0000000000000000000000000000000000000000000000000000000008152600401610b3e9061425a565b60405180910390fd5b610b5283838361206f565b505050565b6000610b6283611079565b8210610ba3576040517f08c379a0000000000000000000000000000000000000000000000000000000008152600401610b9a906142ec565b60405180910390fd5b600660008473ffffffffffffffffffffffffffffffffffffffff1673ffffffffffffffffffffffffffffffffffffffff168152602001908152602001600020600083815260200190815260200160002054905092915050565b610c04611ed0565b73ffffffffffffffffffffffffffffffffffffffff16610c226112d0565b73ffffffffffffffffffffffffffffffffffffffff1614610c78576040517f08c379a0000000000000000000000000000000000000000000000000000000008152600401610c6f90614358565b60405180910390fd5b610c806122cb565b565b610c9d838383604051806020016040528060008152506116fe565b505050565b610cac3382611f91565b610ceb576040517f08c379a0000000000000000000000000000000000000000000000000000000008152600401610ce2906143c4565b60405180910390fd5b610cf48161236d565b50565b6000600a60159054906101000a900460ff16905090565b600080610d1a33611079565b905060005b81811015610d83576000610d333383610b57565b9050600c60008281526020019081526020016000205484610d549190614413565b93506000600c600083815260200190815260200160002081905550508080610d7b90614469565b915050610d1f565b5060008211610dc7576040517f08c379a0000000000000000000000000000000000000000000000000000000008152600401610dbe906144fe565b60405180910390fd5b3373ffffffffffffffffffffffffffffffffffffffff166108fc839081150290604051600060405180830381858888f19350505050610e0557600080fd5b7f0d7976053781e071cecf47e898ad2a6dc87621ca33734e96eb4b92453319e8c93383604051610e3692919061451e565b60405180910390a15050565b6000610e4c610aea565b8210610e8d576040517f08c379a0000000000000000000000000000000000000000000000000000000008152600401610e84906145b9565b60405180910390fd5b60088281548110610ea157610ea06145d9565b5b90600052602060002001549050919050565b610ebb611ed0565b73ffffffffffffffffffffffffffffffffffffffff16610ed96112d0565b73ffffffffffffffffffffffffffffffffffffffff1614610f2f576040517f08c379a0000000000000000000000000000000000000000000000000000000008152600401610f2690614358565b60405180910390fd5b80600d9080519060200190610f459291906137c9565b5050565b6000600a60149054906101000a900460ff16905090565b600080600090506000610f7284611079565b905060005b81811015610fbc57600c6000610f8d8784610b57565b81526020019081526020016000205483610fa79190614413565b92508080610fb490614469565b915050610f77565b508192505050919050565b6000806002600084815260200190815260200160002060009054906101000a900473ffffffffffffffffffffffffffffffffffffffff169050600073ffffffffffffffffffffffffffffffffffffffff168173ffffffffffffffffffffffffffffffffffffffff161415611070576040517f08c379a00000000000000000000000000000000000000000000000000000000081526004016110679061467a565b60405180910390fd5b80915050919050565b60008073ffffffffffffffffffffffffffffffffffffffff168273ffffffffffffffffffffffffffffffffffffffff1614156110ea576040517f08c379a00000000000000000000000000000000000000000000000000000000081526004016110e19061470c565b60405180910390fd5b600360008373ffffffffffffffffffffffffffffffffffffffff1673ffffffffffffffffffffffffffffffffffffffff168152602001908152602001600020549050919050565b611139611ed0565b73ffffffffffffffffffffffffffffffffffffffff166111576112d0565b73ffffffffffffffffffffffffffffffffffffffff16146111ad576040517f08c379a00000000000000000000000000000000000000000000000000000000081526004016111a490614358565b60405180910390fd5b6111b7600061247e565b565b6111c1611ed0565b73ffffffffffffffffffffffffffffffffffffffff166111df6112d0565b73ffffffffffffffffffffffffffffffffffffffff1614611235576040517f08c379a000000000000000000000000000000000000000000000000000000000815260040161122c90614358565b60405180910390fd5b61123d612544565b565b611247611ed0565b73ffffffffffffffffffffffffffffffffffffffff166112656112d0565b73ffffffffffffffffffffffffffffffffffffffff16146112bb576040517f08c379a00000000000000000000000000000000000000000000000000000000081526004016112b290614358565b60405180910390fd5b6112c36125e7565b565b66b1a2bc2ec5000081565b6000600a60009054906101000a900473ffffffffffffffffffffffffffffffffffffffff16905090565b60606001805461130990614000565b80601f016020809104026020016040519081016040528092919081815260200182805461133590614000565b80156113825780601f1061135757610100808354040283529160200191611382565b820191906000526020600020905b81548152906001019060200180831161136557829003601f168201915b5050505050905090565b611394611ed0565b73ffffffffffffffffffffffffffffffffffffffff166113b26112d0565b73ffffffffffffffffffffffffffffffffffffffff1614611408576040517f08c379a00000000000000000000000000000000000000000000000000000000081526004016113ff90614358565b60405180910390fd5b611410610f49565b15611450576040517f08c379a000000000000000000000000000000000000000000000000000000000815260040161144790614778565b60405180910390fd5b61271061145b610aea565b1061149b576040517f08c379a0000000000000000000000000000000000000000000000000000000008152600401611492906147e4565b60405180910390fd5b6000600b54116114e0576040517f08c379a00000000000000000000000000000000000000000000000000000000081526004016114d790614850565b60405180910390fd5b611504816001600b5460966114f59190614870565b6114ff9190614413565b612691565b6001600b60008282546115179190614870565b9250508190555050565b600a60159054906101000a900460ff1615611571576040517f08c379a0000000000000000000000000000000000000000000000000000000008152600401611568906148f0565b60405180910390fd5b61157a816126af565b50565b611585611ed0565b73ffffffffffffffffffffffffffffffffffffffff168273ffffffffffffffffffffffffffffffffffffffff1614156115f3576040517f08c379a00000000000000000000000000000000000000000000000000000000081526004016115ea9061495c565b60405180910390fd5b8060056000611600611ed0565b73ffffffffffffffffffffffffffffffffffffffff1673ffffffffffffffffffffffffffffffffffffffff16815260200190815260200160002060008473ffffffffffffffffffffffffffffffffffffffff1673ffffffffffffffffffffffffffffffffffffffff16815260200190815260200160002060006101000a81548160ff0219169083151502179055508173ffffffffffffffffffffffffffffffffffffffff166116ad611ed0565b73ffffffffffffffffffffffffffffffffffffffff167f17307eab39ab6107e8899845ad3d59bd9653f200f220920489ca2b5937696c31836040516116f29190613920565b60405180910390a35050565b61170f611709611ed0565b83611f91565b61174e576040517f08c379a00000000000000000000000000000000000000000000000000000000081526004016117459061425a565b60405180910390fd5b61175a84848484612869565b50505050565b606061176b82611e64565b6117aa576040517f08c379a00000000000000000000000000000000000000000000000000000000081526004016117a1906149ee565b60405180910390fd5b60006117b46128c5565b905060008151116117d457604051806020016040528060008152506117ff565b806117de84612957565b6040516020016117ef929190614a4a565b6040516020818303038152906040525b915050919050565b61271081565b611815611ed0565b73ffffffffffffffffffffffffffffffffffffffff166118336112d0565b73ffffffffffffffffffffffffffffffffffffffff1614611889576040517f08c379a000000000000000000000000000000000000000000000000000000000815260040161188090614358565b60405180910390fd5b6000611893610aea565b9050600081116118d8576040517f08c379a00000000000000000000000000000000000000000000000000000000081526004016118cf90614aba565b60405180910390fd5b6000341161191b576040517f08c379a000000000000000000000000000000000000000000000000000000000815260040161191290614b26565b60405180910390fd5b600081346119299190614b75565b905060005b8281101561197b5781600c600061194484610e42565b815260200190815260200160002060008282546119619190614413565b92505081905550808061197390614469565b91505061192e565b507f44863bc9b335caf97ca3a3ab6fb67776965a88292ed53b0679f8eae4a67b630c346040516119ab9190613b30565b60405180910390a15050565b600d80546119c490614000565b80601f01602080910402602001604051908101604052809291908181526020018280546119f090614000565b8015611a3d5780601f10611a1257610100808354040283529160200191611a3d565b820191906000526020600020905b815481529060010190602001808311611a2057829003601f168201915b505050505081565b6000611a8882611a7a85604051602001611a5f9190614bee565b60405160208183030381529060405280519060200120612ab8565b612ae890919063ffffffff16565b905092915050565b6000600560008473ffffffffffffffffffffffffffffffffffffffff1673ffffffffffffffffffffffffffffffffffffffff16815260200190815260200160002060008373ffffffffffffffffffffffffffffffffffffffff1673ffffffffffffffffffffffffffffffffffffffff16815260200190815260200160002060009054906101000a900460ff16905092915050565b611b2c611ed0565b73ffffffffffffffffffffffffffffffffffffffff16611b4a6112d0565b73ffffffffffffffffffffffffffffffffffffffff1614611ba0576040517f08c379a0000000000000000000000000000000000000000000000000000000008152600401611b9790614358565b60405180910390fd5b600073ffffffffffffffffffffffffffffffffffffffff168173ffffffffffffffffffffffffffffffffffffffff161415611c10576040517f08c379a0000000000000000000000000000000000000000000000000000000008152600401611c0790614c7b565b60405180910390fd5b611c198161247e565b50565b600a60159054906101000a900460ff16611c6b576040517f08c379a0000000000000000000000000000000000000000000000000000000008152600401611c6290614ce7565b60405180910390fd5b6000611c773383611a45565b9050611c816112d0565b73ffffffffffffffffffffffffffffffffffffffff168173ffffffffffffffffffffffffffffffffffffffff1614611cee576040517f08c379a0000000000000000000000000000000000000000000000000000000008152600401611ce590614d53565b60405180910390fd5b611cf7836126af565b505050565b611d04611ed0565b73ffffffffffffffffffffffffffffffffffffffff16611d226112d0565b73ffffffffffffffffffffffffffffffffffffffff1614611d78576040517f08c379a0000000000000000000000000000000000000000000000000000000008152600401611d6f90614358565b60405180910390fd5b611d80612b0f565b565b60007f80ac58cd000000000000000000000000000000000000000000000000000000007bffffffffffffffffffffffffffffffffffffffffffffffffffffffff1916827bffffffffffffffffffffffffffffffffffffffffffffffffffffffff19161480611e4d57507f5b5e139f000000000000000000000000000000000000000000000000000000007bffffffffffffffffffffffffffffffffffffffffffffffffffffffff1916827bffffffffffffffffffffffffffffffffffffffffffffffffffffffff1916145b80611e5d5750611e5c82612bba565b5b9050919050565b60008073ffffffffffffffffffffffffffffffffffffffff166002600084815260200190815260200160002060009054906101000a900473ffffffffffffffffffffffffffffffffffffffff1673ffffffffffffffffffffffffffffffffffffffff1614159050919050565b600033905090565b816004600083815260200190815260200160002060006101000a81548173ffffffffffffffffffffffffffffffffffffffff021916908373ffffffffffffffffffffffffffffffffffffffff160217905550808273ffffffffffffffffffffffffffffffffffffffff16611f4b83610fc7565b73ffffffffffffffffffffffffffffffffffffffff167f8c5be1e5ebec7d5bd14f71427d1e84f3dd0314c0f7b2291e5b200ac8c7c3b92560405160405180910390a45050565b6000611f9c82611e64565b611fdb576040517f08c379a0000000000000000000000000000000000000000000000000000000008152600401611fd290614de5565b60405180910390fd5b6000611fe683610fc7565b90508073ffffffffffffffffffffffffffffffffffffffff168473ffffffffffffffffffffffffffffffffffffffff16148061205557508373ffffffffffffffffffffffffffffffffffffffff1661203d8461094d565b73ffffffffffffffffffffffffffffffffffffffff16145b8061206657506120658185611a90565b5b91505092915050565b8273ffffffffffffffffffffffffffffffffffffffff1661208f82610fc7565b73ffffffffffffffffffffffffffffffffffffffff16146120e5576040517f08c379a00000000000000000000000000000000000000000000000000000000081526004016120dc90614e77565b60405180910390fd5b600073ffffffffffffffffffffffffffffffffffffffff168273ffffffffffffffffffffffffffffffffffffffff161415612155576040517f08c379a000000000000000000000000000000000000000000000000000000000815260040161214c90614f09565b60405180910390fd5b612160838383612c24565b61216b600082611ed8565b6001600360008573ffffffffffffffffffffffffffffffffffffffff1673ffffffffffffffffffffffffffffffffffffffff16815260200190815260200160002060008282546121bb9190614870565b925050819055506001600360008473ffffffffffffffffffffffffffffffffffffffff1673ffffffffffffffffffffffffffffffffffffffff16815260200190815260200160002060008282546122129190614413565b92505081905550816002600083815260200190815260200160002060006101000a81548173ffffffffffffffffffffffffffffffffffffffff021916908373ffffffffffffffffffffffffffffffffffffffff160217905550808273ffffffffffffffffffffffffffffffffffffffff168473ffffffffffffffffffffffffffffffffffffffff167fddf252ad1be2c89b69c2b068fc378daa952ba7f163c4a11628f55a4df523b3ef60405160405180910390a4505050565b6122d3610f49565b612312576040517f08c379a000000000000000000000000000000000000000000000000000000000815260040161230990614f75565b60405180910390fd5b6000600a60146101000a81548160ff0219169083151502179055507f5db9ee0a495bf2e6ff9c91a7834c1ba4fdd244a5e8aa4e537bd38aeae4b073aa612356611ed0565b6040516123639190613a9a565b60405180910390a1565b600061237882610fc7565b905061238681600084612c24565b612391600083611ed8565b6001600360008373ffffffffffffffffffffffffffffffffffffffff1673ffffffffffffffffffffffffffffffffffffffff16815260200190815260200160002060008282546123e19190614870565b925050819055506002600083815260200190815260200160002060006101000a81549073ffffffffffffffffffffffffffffffffffffffff021916905581600073ffffffffffffffffffffffffffffffffffffffff168273ffffffffffffffffffffffffffffffffffffffff167fddf252ad1be2c89b69c2b068fc378daa952ba7f163c4a11628f55a4df523b3ef60405160405180910390a45050565b6000600a60009054906101000a900473ffffffffffffffffffffffffffffffffffffffff16905081600a60006101000a81548173ffffffffffffffffffffffffffffffffffffffff021916908373ffffffffffffffffffffffffffffffffffffffff1602179055508173ffffffffffffffffffffffffffffffffffffffff168173ffffffffffffffffffffffffffffffffffffffff167f8be0079c531659141344cd1fd0a4f28419497f9722a3daafe3b4186f6b6457e060405160405180910390a35050565b61254c610f49565b1561258c576040517f08c379a000000000000000000000000000000000000000000000000000000000815260040161258390614778565b60405180910390fd5b6001600a60146101000a81548160ff0219169083151502179055507f62e78cea01bee320cd4e420270b5ea74000d11b0c9f74754ebdbfc544b05a2586125d0611ed0565b6040516125dd9190613a9a565b60405180910390a1565b600a60159054906101000a900460ff16612636576040517f08c379a000000000000000000000000000000000000000000000000000000000815260040161262d90614ce7565b60405180910390fd5b6000600a60156101000a81548160ff0219169083151502179055507f9e209206b95275a497262e47a30901f0716b2d6d19618dd5e9b7b68237e7cb7161267a611ed0565b6040516126879190613a9a565b60405180910390a1565b6126ab828260405180602001604052806000815250612d38565b5050565b6126b7610f49565b156126f7576040517f08c379a00000000000000000000000000000000000000000000000000000000081526004016126ee90614778565b60405180910390fd5b60058161270333611079565b61270d9190614413565b111561274e576040517f08c379a000000000000000000000000000000000000000000000000000000000815260040161274590615007565b60405180910390fd5b609661271061275d9190614870565b81612766610aea565b6127709190614413565b11156127b1576040517f08c379a00000000000000000000000000000000000000000000000000000000081526004016127a8906147e4565b60405180910390fd5b8066b1a2bc2ec500006127c49190615027565b341015612806576040517f08c379a00000000000000000000000000000000000000000000000000000000081526004016127fd90614b26565b60405180910390fd5b60005b818110156128655760006001609661281f610aea565b6128299190614413565b6128339190614413565b9050612710612840610aea565b1015612851576128503382612691565b5b50808061285d90614469565b915050612809565b5050565b61287484848461206f565b61288084848484612d93565b6128bf576040517f08c379a00000000000000000000000000000000000000000000000000000000081526004016128b6906150f3565b60405180910390fd5b50505050565b6060600d80546128d490614000565b80601f016020809104026020016040519081016040528092919081815260200182805461290090614000565b801561294d5780601f106129225761010080835404028352916020019161294d565b820191906000526020600020905b81548152906001019060200180831161293057829003601f168201915b5050505050905090565b6060600082141561299f576040518060400160405280600181526020017f30000000000000000000000000000000000000000000000000000000000000008152509050612ab3565b600082905060005b600082146129d15780806129ba90614469565b915050600a826129ca9190614b75565b91506129a7565b60008167ffffffffffffffff8111156129ed576129ec613ba8565b5b6040519080825280601f01601f191660200182016040528015612a1f5781602001600182028036833780820191505090505b5090505b60008514612aac57600182612a389190614870565b9150600a85612a479190615113565b6030612a539190614413565b60f81b818381518110612a6957612a686145d9565b5b60200101907effffffffffffffffffffffffffffffffffffffffffffffffffffffffffffff1916908160001a905350600a85612aa59190614b75565b9450612a23565b8093505050505b919050565b600081604051602001612acb91906151bb565b604051602081830303815290604052805190602001209050919050565b6000806000612af78585612f2a565b91509150612b0481612fad565b819250505092915050565b600a60159054906101000a900460ff1615612b5f576040517f08c379a0000000000000000000000000000000000000000000000000000000008152600401612b56906148f0565b60405180910390fd5b6001600a60156101000a81548160ff0219169083151502179055507fb1412a7cd96bc4195d633c938189c320dcbeb2cff60c1b8bdd872678fb3514b4612ba3611ed0565b604051612bb09190613a9a565b60405180910390a1565b60007f01ffc9a7000000000000000000000000000000000000000000000000000000007bffffffffffffffffffffffffffffffffffffffffffffffffffffffff1916827bffffffffffffffffffffffffffffffffffffffffffffffffffffffff1916149050919050565b612c2f838383613182565b600073ffffffffffffffffffffffffffffffffffffffff168373ffffffffffffffffffffffffffffffffffffffff161415612c7257612c6d81613187565b612cb1565b8173ffffffffffffffffffffffffffffffffffffffff168373ffffffffffffffffffffffffffffffffffffffff1614612cb057612caf83826131d0565b5b5b600073ffffffffffffffffffffffffffffffffffffffff168273ffffffffffffffffffffffffffffffffffffffff161415612cf457612cef8161333d565b612d33565b8273ffffffffffffffffffffffffffffffffffffffff168273ffffffffffffffffffffffffffffffffffffffff1614612d3257612d31828261340e565b5b5b505050565b612d42838361348d565b612d4f6000848484612d93565b612d8e576040517f08c379a0000000000000000000000000000000000000000000000000000000008152600401612d85906150f3565b60405180910390fd5b505050565b6000612db48473ffffffffffffffffffffffffffffffffffffffff1661365b565b15612f1d578373ffffffffffffffffffffffffffffffffffffffff1663150b7a02612ddd611ed0565b8786866040518563ffffffff1660e01b8152600401612dff9493929190615236565b602060405180830381600087803b158015612e1957600080fd5b505af1925050508015612e4a57506040513d601f19601f82011682018060405250810190612e479190615297565b60015b612ecd573d8060008114612e7a576040519150601f19603f3d011682016040523d82523d6000602084013e612e7f565b606091505b50600081511415612ec5576040517f08c379a0000000000000000000000000000000000000000000000000000000008152600401612ebc906150f3565b60405180910390fd5b805181602001fd5b63150b7a0260e01b7bffffffffffffffffffffffffffffffffffffffffffffffffffffffff1916817bffffffffffffffffffffffffffffffffffffffffffffffffffffffff191614915050612f22565b600190505b949350505050565b600080604183511415612f6c5760008060006020860151925060408601519150606086015160001a9050612f608782858561366e565b94509450505050612fa6565b604083511415612f9d576000806020850151915060408501519050612f9286838361377b565b935093505050612fa6565b60006002915091505b9250929050565b60006004811115612fc157612fc06152c4565b5b816004811115612fd457612fd36152c4565b5b1415612fdf5761317f565b60016004811115612ff357612ff26152c4565b5b816004811115613006576130056152c4565b5b1415613047576040517f08c379a000000000000000000000000000000000000000000000000000000000815260040161303e9061533f565b60405180910390fd5b6002600481111561305b5761305a6152c4565b5b81600481111561306e5761306d6152c4565b5b14156130af576040517f08c379a00000000000000000000000000000000000000000000000000000000081526004016130a6906153ab565b60405180910390fd5b600360048111156130c3576130c26152c4565b5b8160048111156130d6576130d56152c4565b5b1415613117576040517f08c379a000000000000000000000000000000000000000000000000000000000815260040161310e9061543d565b60405180910390fd5b60048081111561312a576131296152c4565b5b81600481111561313d5761313c6152c4565b5b141561317e576040517f08c379a0000000000000000000000000000000000000000000000000000000008152600401613175906154cf565b60405180910390fd5b5b50565b505050565b6008805490506009600083815260200190815260200160002081905550600881908060018154018082558091505060019003906000526020600020016000909190919091505550565b600060016131dd84611079565b6131e79190614870565b90506000600760008481526020019081526020016000205490508181146132cc576000600660008673ffffffffffffffffffffffffffffffffffffffff1673ffffffffffffffffffffffffffffffffffffffff168152602001908152602001600020600084815260200190815260200160002054905080600660008773ffffffffffffffffffffffffffffffffffffffff1673ffffffffffffffffffffffffffffffffffffffff168152602001908152602001600020600084815260200190815260200160002081905550816007600083815260200190815260200160002081905550505b6007600084815260200190815260200160002060009055600660008573ffffffffffffffffffffffffffffffffffffffff1673ffffffffffffffffffffffffffffffffffffffff16815260200190815260200160002060008381526020019081526020016000206000905550505050565b600060016008805490506133519190614870565b9050600060096000848152602001908152602001600020549050600060088381548110613381576133806145d9565b5b9060005260206000200154905080600883815481106133a3576133a26145d9565b5b9060005260206000200181905550816009600083815260200190815260200160002081905550600960008581526020019081526020016000206000905560088054806133f2576133f16154ef565b5b6001900381819060005260206000200160009055905550505050565b600061341983611079565b905081600660008573ffffffffffffffffffffffffffffffffffffffff1673ffffffffffffffffffffffffffffffffffffffff168152602001908152602001600020600083815260200190815260200160002081905550806007600084815260200190815260200160002081905550505050565b600073ffffffffffffffffffffffffffffffffffffffff168273ffffffffffffffffffffffffffffffffffffffff1614156134fd576040517f08c379a00000000000000000000000000000000000000000000000000000000081526004016134f49061556a565b60405180910390fd5b61350681611e64565b15613546576040517f08c379a000000000000000000000000000000000000000000000000000000000815260040161353d906155d6565b60405180910390fd5b61355260008383612c24565b6001600360008473ffffffffffffffffffffffffffffffffffffffff1673ffffffffffffffffffffffffffffffffffffffff16815260200190815260200160002060008282546135a29190614413565b92505081905550816002600083815260200190815260200160002060006101000a81548173ffffffffffffffffffffffffffffffffffffffff021916908373ffffffffffffffffffffffffffffffffffffffff160217905550808273ffffffffffffffffffffffffffffffffffffffff16600073ffffffffffffffffffffffffffffffffffffffff167fddf252ad1be2c89b69c2b068fc378daa952ba7f163c4a11628f55a4df523b3ef60405160405180910390a45050565b600080823b905060008111915050919050565b6000807f7fffffffffffffffffffffffffffffff5d576e7357a4501ddfe92f46681b20a08360001c11156136a9576000600391509150613772565b601b8560ff16141580156136c15750601c8560ff1614155b156136d3576000600491509150613772565b6000600187878787604051600081526020016040526040516136f89493929190615621565b6020604051602081039080840390855afa15801561371a573d6000803e3d6000fd5b505050602060405103519050600073ffffffffffffffffffffffffffffffffffffffff168173ffffffffffffffffffffffffffffffffffffffff16141561376957600060019250925050613772565b80600092509250505b94509492505050565b6000806000807f7fffffffffffffffffffffffffffffffffffffffffffffffffffffffffffffff85169150601b8560ff1c0190506137bb8782888561366e565b935093505050935093915050565b8280546137d590614000565b90600052602060002090601f0160209004810192826137f7576000855561383e565b82601f1061381057805160ff191683800117855561383e565b8280016001018555821561383e579182015b8281111561383d578251825591602001919060010190613822565b5b50905061384b919061384f565b5090565b5b80821115613868576000816000905550600101613850565b5090565b6000604051905090565b600080fd5b600080fd5b60007fffffffff0000000000000000000000000000000000000000000000000000000082169050919050565b6138b581613880565b81146138c057600080fd5b50565b6000813590506138d2816138ac565b92915050565b6000602082840312156138ee576138ed613876565b5b60006138fc848285016138c3565b91505092915050565b60008115159050919050565b61391a81613905565b82525050565b60006020820190506139356000830184613911565b92915050565b600081519050919050565b600082825260208201905092915050565b60005b8381101561397557808201518184015260208101905061395a565b83811115613984576000848401525b50505050565b6000601f19601f8301169050919050565b60006139a68261393b565b6139b08185613946565b93506139c0818560208601613957565b6139c98161398a565b840191505092915050565b600060208201905081810360008301526139ee818461399b565b905092915050565b6000819050919050565b613a09816139f6565b8114613a1457600080fd5b50565b600081359050613a2681613a00565b92915050565b600060208284031215613a4257613a41613876565b5b6000613a5084828501613a17565b91505092915050565b600073ffffffffffffffffffffffffffffffffffffffff82169050919050565b6000613a8482613a59565b9050919050565b613a9481613a79565b82525050565b6000602082019050613aaf6000830184613a8b565b92915050565b613abe81613a79565b8114613ac957600080fd5b50565b600081359050613adb81613ab5565b92915050565b60008060408385031215613af857613af7613876565b5b6000613b0685828601613acc565b9250506020613b1785828601613a17565b9150509250929050565b613b2a816139f6565b82525050565b6000602082019050613b456000830184613b21565b92915050565b600080600060608486031215613b6457613b63613876565b5b6000613b7286828701613acc565b9350506020613b8386828701613acc565b9250506040613b9486828701613a17565b9150509250925092565b600080fd5b600080fd5b7f4e487b7100000000000000000000000000000000000000000000000000000000600052604160045260246000fd5b613be08261398a565b810181811067ffffffffffffffff82111715613bff57613bfe613ba8565b5b80604052505050565b6000613c1261386c565b9050613c1e8282613bd7565b919050565b600067ffffffffffffffff821115613c3e57613c3d613ba8565b5b613c478261398a565b9050602081019050919050565b82818337600083830152505050565b6000613c76613c7184613c23565b613c08565b905082815260208101848484011115613c9257613c91613ba3565b5b613c9d848285613c54565b509392505050565b600082601f830112613cba57613cb9613b9e565b5b8135613cca848260208601613c63565b91505092915050565b600060208284031215613ce957613ce8613876565b5b600082013567ffffffffffffffff811115613d0757613d0661387b565b5b613d1384828501613ca5565b91505092915050565b600060208284031215613d3257613d31613876565b5b6000613d4084828501613acc565b91505092915050565b613d5281613905565b8114613d5d57600080fd5b50565b600081359050613d6f81613d49565b92915050565b60008060408385031215613d8c57613d8b613876565b5b6000613d9a85828601613acc565b9250506020613dab85828601613d60565b9150509250929050565b600067ffffffffffffffff821115613dd057613dcf613ba8565b5b613dd98261398a565b9050602081019050919050565b6000613df9613df484613db5565b613c08565b905082815260208101848484011115613e1557613e14613ba3565b5b613e20848285613c54565b509392505050565b600082601f830112613e3d57613e3c613b9e565b5b8135613e4d848260208601613de6565b91505092915050565b60008060008060808587031215613e7057613e6f613876565b5b6000613e7e87828801613acc565b9450506020613e8f87828801613acc565b9350506040613ea087828801613a17565b925050606085013567ffffffffffffffff811115613ec157613ec061387b565b5b613ecd87828801613e28565b91505092959194509250565b60008060408385031215613ef057613eef613876565b5b6000613efe85828601613acc565b925050602083013567ffffffffffffffff811115613f1f57613f1e61387b565b5b613f2b85828601613e28565b9150509250929050565b60008060408385031215613f4c57613f4b613876565b5b6000613f5a85828601613acc565b9250506020613f6b85828601613acc565b9150509250929050565b60008060408385031215613f8c57613f8b613876565b5b6000613f9a85828601613a17565b925050602083013567ffffffffffffffff811115613fbb57613fba61387b565b5b613fc785828601613e28565b9150509250929050565b7f4e487b7100000000000000000000000000000000000000000000000000000000600052602260045260246000fd5b6000600282049050600182168061401857607f821691505b6020821081141561402c5761402b613fd1565b5b50919050565b7f4552433732313a20617070726f76656420717565727920666f72206e6f6e657860008201527f697374656e7420746f6b656e0000000000000000000000000000000000000000602082015250565b600061408e602c83613946565b915061409982614032565b604082019050919050565b600060208201905081810360008301526140bd81614081565b9050919050565b7f4552433732313a20617070726f76616c20746f2063757272656e74206f776e6560008201527f7200000000000000000000000000000000000000000000000000000000000000602082015250565b6000614120602183613946565b915061412b826140c4565b604082019050919050565b6000602082019050818103600083015261414f81614113565b9050919050565b7f4552433732313a20617070726f76652063616c6c6572206973206e6f74206f7760008201527f6e6572206e6f7220617070726f76656420666f7220616c6c0000000000000000602082015250565b60006141b2603883613946565b91506141bd82614156565b604082019050919050565b600060208201905081810360008301526141e1816141a5565b9050919050565b7f4552433732313a207472616e736665722063616c6c6572206973206e6f74206f60008201527f776e6572206e6f7220617070726f766564000000000000000000000000000000602082015250565b6000614244603183613946565b915061424f826141e8565b604082019050919050565b6000602082019050818103600083015261427381614237565b9050919050565b7f455243373231456e756d657261626c653a206f776e657220696e646578206f7560008201527f74206f6620626f756e6473000000000000000000000000000000000000000000602082015250565b60006142d6602b83613946565b91506142e18261427a565b604082019050919050565b60006020820190508181036000830152614305816142c9565b9050919050565b7f4f776e61626c653a2063616c6c6572206973206e6f7420746865206f776e6572600082015250565b6000614342602083613946565b915061434d8261430c565b602082019050919050565b6000602082019050818103600083015261437181614335565b9050919050565b7f43616c6c6572206973206e6f74206f776e6572206e6f7220617070726f766564600082015250565b60006143ae602083613946565b91506143b982614378565b602082019050919050565b600060208201905081810360008301526143dd816143a1565b9050919050565b7f4e487b7100000000000000000000000000000000000000000000000000000000600052601160045260246000fd5b600061441e826139f6565b9150614429836139f6565b9250827fffffffffffffffffffffffffffffffffffffffffffffffffffffffffffffffff0382111561445e5761445d6143e4565b5b828201905092915050565b6000614474826139f6565b91507fffffffffffffffffffffffffffffffffffffffffffffffffffffffffffffffff8214156144a7576144a66143e4565b5b600182019050919050565b7f5468657265206973206e6f20616d6f756e74206c65667420746f20636c61696d600082015250565b60006144e8602083613946565b91506144f3826144b2565b602082019050919050565b60006020820190508181036000830152614517816144db565b9050919050565b60006040820190506145336000830185613a8b565b6145406020830184613b21565b9392505050565b7f455243373231456e756d657261626c653a20676c6f62616c20696e646578206f60008201527f7574206f6620626f756e64730000000000000000000000000000000000000000602082015250565b60006145a3602c83613946565b91506145ae82614547565b604082019050919050565b600060208201905081810360008301526145d281614596565b9050919050565b7f4e487b7100000000000000000000000000000000000000000000000000000000600052603260045260246000fd5b7f4552433732313a206f776e657220717565727920666f72206e6f6e657869737460008201527f656e7420746f6b656e0000000000000000000000000000000000000000000000602082015250565b6000614664602983613946565b915061466f82614608565b604082019050919050565b6000602082019050818103600083015261469381614657565b9050919050565b7f4552433732313a2062616c616e636520717565727920666f7220746865207a6560008201527f726f206164647265737300000000000000000000000000000000000000000000602082015250565b60006146f6602a83613946565b91506147018261469a565b604082019050919050565b60006020820190508181036000830152614725816146e9565b9050919050565b7f5061757361626c653a2070617573656400000000000000000000000000000000600082015250565b6000614762601083613946565b915061476d8261472c565b602082019050919050565b6000602082019050818103600083015261479181614755565b9050919050565b7f45786365656473206d6178696d756d20566f6f646f6c6c7a20737570706c7900600082015250565b60006147ce601f83613946565b91506147d982614798565b602082019050919050565b600060208201905081810360008301526147fd816147c1565b9050919050565b7f4578636565647320726573657276656420566f6f646f6c6c7a20737570706c79600082015250565b600061483a602083613946565b915061484582614804565b602082019050919050565b600060208201905081810360008301526148698161482d565b9050919050565b600061487b826139f6565b9150614886836139f6565b925082821015614899576148986143e4565b5b828203905092915050565b7f50726573616c6520636c6f736564000000000000000000000000000000000000600082015250565b60006148da600e83613946565b91506148e5826148a4565b602082019050919050565b60006020820190508181036000830152614909816148cd565b9050919050565b7f4552433732313a20617070726f766520746f2063616c6c657200000000000000600082015250565b6000614946601983613946565b915061495182614910565b602082019050919050565b6000602082019050818103600083015261497581614939565b9050919050565b7f4552433732314d657461646174613a2055524920717565727920666f72206e6f60008201527f6e6578697374656e7420746f6b656e0000000000000000000000000000000000602082015250565b60006149d8602f83613946565b91506149e38261497c565b604082019050919050565b60006020820190508181036000830152614a07816149cb565b9050919050565b600081905092915050565b6000614a248261393b565b614a2e8185614a0e565b9350614a3e818560208601613957565b80840191505092915050565b6000614a568285614a19565b9150614a628284614a19565b91508190509392505050565b7f4e6f206f776e6572730000000000000000000000000000000000000000000000600082015250565b6000614aa4600983613946565b9150614aaf82614a6e565b602082019050919050565b60006020820190508181036000830152614ad381614a97565b9050919050565b7f45746865722076616c75652073656e74206973206e6f7420636f727265637400600082015250565b6000614b10601f83613946565b9150614b1b82614ada565b602082019050919050565b60006020820190508181036000830152614b3f81614b03565b9050919050565b7f4e487b7100000000000000000000000000000000000000000000000000000000600052601260045260246000fd5b6000614b80826139f6565b9150614b8b836139f6565b925082614b9b57614b9a614b46565b5b828204905092915050565b60008160601b9050919050565b6000614bbe82614ba6565b9050919050565b6000614bd082614bb3565b9050919050565b614be8614be382613a79565b614bc5565b82525050565b6000614bfa8284614bd7565b60148201915081905092915050565b7f4f776e61626c653a206e6577206f776e657220697320746865207a65726f206160008201527f6464726573730000000000000000000000000000000000000000000000000000602082015250565b6000614c65602683613946565b9150614c7082614c09565b604082019050919050565b60006020820190508181036000830152614c9481614c58565b9050919050565b7f53616c6520636c6f736564000000000000000000000000000000000000000000600082015250565b6000614cd1600b83613946565b9150614cdc82614c9b565b602082019050919050565b60006020820190508181036000830152614d0081614cc4565b9050919050565b7f4e6f7420617574686f72697a656420746f206d696e7400000000000000000000600082015250565b6000614d3d601683613946565b9150614d4882614d07565b602082019050919050565b60006020820190508181036000830152614d6c81614d30565b9050919050565b7f4552433732313a206f70657261746f7220717565727920666f72206e6f6e657860008201527f697374656e7420746f6b656e0000000000000000000000000000000000000000602082015250565b6000614dcf602c83613946565b9150614dda82614d73565b604082019050919050565b60006020820190508181036000830152614dfe81614dc2565b9050919050565b7f4552433732313a207472616e73666572206f6620746f6b656e2074686174206960008201527f73206e6f74206f776e0000000000000000000000000000000000000000000000602082015250565b6000614e61602983613946565b9150614e6c82614e05565b604082019050919050565b60006020820190508181036000830152614e9081614e54565b9050919050565b7f4552433732313a207472616e7366657220746f20746865207a65726f2061646460008201527f7265737300000000000000000000000000000000000000000000000000000000602082015250565b6000614ef3602483613946565b9150614efe82614e97565b604082019050919050565b60006020820190508181036000830152614f2281614ee6565b9050919050565b7f5061757361626c653a206e6f7420706175736564000000000000000000000000600082015250565b6000614f5f601483613946565b9150614f6a82614f29565b602082019050919050565b60006020820190508181036000830152614f8e81614f52565b9050919050565b7f43616e206f6e6c79206d696e74203520746f6b656e732061742061646472657360008201527f7300000000000000000000000000000000000000000000000000000000000000602082015250565b6000614ff1602183613946565b9150614ffc82614f95565b604082019050919050565b6000602082019050818103600083015261502081614fe4565b9050919050565b6000615032826139f6565b915061503d836139f6565b9250817fffffffffffffffffffffffffffffffffffffffffffffffffffffffffffffffff0483118215151615615076576150756143e4565b5b828202905092915050565b7f4552433732313a207472616e7366657220746f206e6f6e20455243373231526560008201527f63656976657220696d706c656d656e7465720000000000000000000000000000602082015250565b60006150dd603283613946565b91506150e882615081565b604082019050919050565b6000602082019050818103600083015261510c816150d0565b9050919050565b600061511e826139f6565b9150615129836139f6565b92508261513957615138614b46565b5b828206905092915050565b7f19457468657265756d205369676e6564204d6573736167653a0a333200000000600082015250565b600061517a601c83614a0e565b915061518582615144565b601c82019050919050565b6000819050919050565b6000819050919050565b6151b56151b082615190565b61519a565b82525050565b60006151c68261516d565b91506151d282846151a4565b60208201915081905092915050565b600081519050919050565b600082825260208201905092915050565b6000615208826151e1565b61521281856151ec565b9350615222818560208601613957565b61522b8161398a565b840191505092915050565b600060808201905061524b6000830187613a8b565b6152586020830186613a8b565b6152656040830185613b21565b818103606083015261527781846151fd565b905095945050505050565b600081519050615291816138ac565b92915050565b6000602082840312156152ad576152ac613876565b5b60006152bb84828501615282565b91505092915050565b7f4e487b7100000000000000000000000000000000000000000000000000000000600052602160045260246000fd5b7f45434453413a20696e76616c6964207369676e61747572650000000000000000600082015250565b6000615329601883613946565b9150615334826152f3565b602082019050919050565b600060208201905081810360008301526153588161531c565b9050919050565b7f45434453413a20696e76616c6964207369676e6174757265206c656e67746800600082015250565b6000615395601f83613946565b91506153a08261535f565b602082019050919050565b600060208201905081810360008301526153c481615388565b9050919050565b7f45434453413a20696e76616c6964207369676e6174757265202773272076616c60008201527f7565000000000000000000000000000000000000000000000000000000000000602082015250565b6000615427602283613946565b9150615432826153cb565b604082019050919050565b600060208201905081810360008301526154568161541a565b9050919050565b7f45434453413a20696e76616c6964207369676e6174757265202776272076616c60008201527f7565000000000000000000000000000000000000000000000000000000000000602082015250565b60006154b9602283613946565b91506154c48261545d565b604082019050919050565b600060208201905081810360008301526154e8816154ac565b9050919050565b7f4e487b7100000000000000000000000000000000000000000000000000000000600052603160045260246000fd5b7f4552433732313a206d696e7420746f20746865207a65726f2061646472657373600082015250565b6000615554602083613946565b915061555f8261551e565b602082019050919050565b6000602082019050818103600083015261558381615547565b9050919050565b7f4552433732313a20746f6b656e20616c7265616479206d696e74656400000000600082015250565b60006155c0601c83613946565b91506155cb8261558a565b602082019050919050565b600060208201905081810360008301526155ef816155b3565b9050919050565b6155ff81615190565b82525050565b600060ff82169050919050565b61561b81615605565b82525050565b600060808201905061563660008301876155f6565b6156436020830186615612565b61565060408301856155f6565b61565d60608301846155f6565b9594505050505056fea26469706673582212203824facfe0ae71421555676ce563a4b7c914baf0e2b14d0eca8a6304b4145d8064736f6c63430008090033",
  "immutableReferences": {},
  "source": "// SPDX-License-Identifier: MIT\npragma solidity ^0.8.0;\n\nimport \"@openzeppelin/contracts/token/ERC721/extensions/ERC721Enumerable.sol\";\nimport \"@openzeppelin/contracts/access/Ownable.sol\";\nimport \"@openzeppelin/contracts/security/Pausable.sol\";\nimport \"@openzeppelin/contracts/utils/cryptography/ECDSA.sol\";\n\nimport \"./Presalable.sol\";\n\ncontract Voodollz is ERC721Enumerable, Ownable, Pausable, Presalable {\n    using ECDSA for bytes32;\n\n    event EthDeposited(uint256 amount);\n    event EthClaimed(address to, uint256 amount);\n\n    uint256 private constant _RESERVED = 150;\n    uint256 private _reservedLeft = _RESERVED;\n    mapping(uint256 => uint256) private _claimableEth;\n\n    string public baseTokenURI;\n    \n    uint256 public constant MAX_TOKEN_COUNT = 10000;\n    uint256 public constant PRICE = 0.05 ether;\n\n    constructor(string memory _baseTokenURI) ERC721(\"Voodollz\", \"Voodollz\")  {\n        setBaseURI(_baseTokenURI);\n        presale();\n    }\n\n    // Mint methods\n\n    function _mintVoodollz(uint256 _amount) private whenNotPaused {\n        require(balanceOf(msg.sender) + _amount <= 5, \"Can only mint 5 tokens at address\");\n        require(totalSupply() + _amount <= MAX_TOKEN_COUNT - _RESERVED, \"Exceeds maximum Voodollz supply\");\n        require(msg.value >= PRICE * _amount, \"Ether value sent is not correct\");\n    \n        for(uint256 i = 0; i < _amount; i++) {\n            uint256 mintIndex = totalSupply() + _RESERVED + 1;\n            if (totalSupply() < MAX_TOKEN_COUNT) {\n                _safeMint(msg.sender, mintIndex);\n            }\n        }\n    }\n\n    function mint(uint256 _amount) public payable whenNotPresaled {\n        _mintVoodollz(_amount);\n    }\n\n    function presaleMint(uint256 _amount, bytes memory _signature) public payable whenPresaled {        \n        address signer = recoverSigner(msg.sender, _signature);\n        require(signer == owner(), \"Not authorized to mint\");\n\n        _mintVoodollz(_amount);\n    }\n\n    function recoverSigner(address _wallet, bytes memory _signature) public pure returns (address){\n        return keccak256(abi.encodePacked(_wallet)).toEthSignedMessageHash().recover(_signature);\n    }\n\n    // Give methods\n    \n    function giveAway(address _to) public onlyOwner whenNotPaused {\n        require(totalSupply() < MAX_TOKEN_COUNT, \"Exceeds maximum Voodollz supply\");\n        require(_reservedLeft > 0, \"Exceeds reserved Voodollz supply\");\n\n        _safeMint(_to, _RESERVED - _reservedLeft + 1);\n\n        _reservedLeft -= 1;\n    }\n\n    // Community wallet methods\n\n    function deposit() public payable onlyOwner {\n        uint256 tokenCount = totalSupply();\n\n        require(tokenCount > 0, \"No owners\");\n        require(msg.value > 0, \"Ether value sent is not correct\");\n\n        uint256 claimableAmountPerToken = msg.value / tokenCount;\n\n        for(uint256 i = 0; i < tokenCount; i++) {\n            _claimableEth[tokenByIndex(i)] += claimableAmountPerToken;\n        }\n\n        emit EthDeposited(msg.value);\n    }\n\n    function claimableBalance(address owner) public view returns (uint256) {\n        uint256 balance = 0;\n        uint256 numTokens = balanceOf(owner);\n\n        for(uint256 i = 0; i < numTokens; i++) {\n            balance += _claimableEth[tokenOfOwnerByIndex(owner, i)];\n        }\n\n        return balance;\n    }\n\n    function claim() public {\n        uint256 amount = 0;\n        uint256 numTokens = balanceOf(msg.sender);\n\n        for(uint256 i = 0; i < numTokens; i++) {\n            uint256 tokenId = tokenOfOwnerByIndex(msg.sender, i);\n            amount += _claimableEth[tokenId];\n            _claimableEth[tokenId] = 0;\n        }\n\n        require(amount > 0, \"There is no amount left to claim\");\n\n        require(payable(msg.sender).send(amount));\n\n        emit EthClaimed(msg.sender, amount);\n    }\n\n    // Burn methods\n    \n    function burn(uint256 tokenId) public virtual {\n        require(_isApprovedOrOwner(msg.sender, tokenId), \"Caller is not owner nor approved\");\n        _burn(tokenId);\n    }\n\n    // Service methods\n    \n    function _baseURI() internal view virtual override returns (string memory) {\n        return baseTokenURI;\n    }\n\n    function setBaseURI(string memory _baseTokenURI) public onlyOwner {\n        baseTokenURI = _baseTokenURI;\n    }\n\n    function pause() public onlyOwner {\n        _pause();\n    }\n\n    function unpause() public onlyOwner {\n        _unpause();\n    }\n\n    function presale() public onlyOwner {\n        _presale();\n    }\n\n    function unpresale() public onlyOwner {\n        _unpresale();\n    }\n}",
  "sourcePath": "/home/doss/projects/voodollz/packages/contract/contracts/Voodollz.sol",
  "compiler": {
    "name": "solc",
    "version": "0.8.9+commit.e5eed63a.Emscripten.clang"
  },
  "schemaVersion": "3.4.3",
  "updatedAt": "2021-10-26T13:38:52.588Z",
  "networkType": "ethereum",
  "devdoc": {
    "kind": "dev",
    "methods": {
      "approve(address,uint256)": {
        "details": "See {IERC721-approve}."
      },
      "balanceOf(address)": {
        "details": "See {IERC721-balanceOf}."
      },
      "getApproved(uint256)": {
        "details": "See {IERC721-getApproved}."
      },
      "isApprovedForAll(address,address)": {
        "details": "See {IERC721-isApprovedForAll}."
      },
      "name()": {
        "details": "See {IERC721Metadata-name}."
      },
      "owner()": {
        "details": "Returns the address of the current owner."
      },
      "ownerOf(uint256)": {
        "details": "See {IERC721-ownerOf}."
      },
      "paused()": {
        "details": "Returns true if the contract is paused, and false otherwise."
      },
      "renounceOwnership()": {
        "details": "Leaves the contract without owner. It will not be possible to call `onlyOwner` functions anymore. Can only be called by the current owner. NOTE: Renouncing ownership will leave the contract without an owner, thereby removing any functionality that is only available to the owner."
      },
      "safeTransferFrom(address,address,uint256)": {
        "details": "See {IERC721-safeTransferFrom}."
      },
      "safeTransferFrom(address,address,uint256,bytes)": {
        "details": "See {IERC721-safeTransferFrom}."
      },
      "setApprovalForAll(address,bool)": {
        "details": "See {IERC721-setApprovalForAll}."
      },
      "supportsInterface(bytes4)": {
        "details": "See {IERC165-supportsInterface}."
      },
      "symbol()": {
        "details": "See {IERC721Metadata-symbol}."
      },
      "tokenByIndex(uint256)": {
        "details": "See {IERC721Enumerable-tokenByIndex}."
      },
      "tokenOfOwnerByIndex(address,uint256)": {
        "details": "See {IERC721Enumerable-tokenOfOwnerByIndex}."
      },
      "tokenURI(uint256)": {
        "details": "See {IERC721Metadata-tokenURI}."
      },
      "totalSupply()": {
        "details": "See {IERC721Enumerable-totalSupply}."
      },
      "transferFrom(address,address,uint256)": {
        "details": "See {IERC721-transferFrom}."
      },
      "transferOwnership(address)": {
        "details": "Transfers ownership of the contract to a new account (`newOwner`). Can only be called by the current owner."
      }
    },
    "version": 1
  },
  "userdoc": {
    "kind": "user",
    "methods": {},
    "version": 1
  }
}