{
  "contractName": "Voodollz",
  "abi": [
    {
      "inputs": [
        {
          "internalType": "string",
          "name": "_baseTokenURI",
          "type": "string"
        }
      ],
      "stateMutability": "nonpayable",
      "type": "constructor"
    },
    {
      "anonymous": false,
      "inputs": [
        {
          "indexed": true,
          "internalType": "address",
          "name": "owner",
          "type": "address"
        },
        {
          "indexed": true,
          "internalType": "address",
          "name": "approved",
          "type": "address"
        },
        {
          "indexed": true,
          "internalType": "uint256",
          "name": "tokenId",
          "type": "uint256"
        }
      ],
      "name": "Approval",
      "type": "event"
    },
    {
      "anonymous": false,
      "inputs": [
        {
          "indexed": true,
          "internalType": "address",
          "name": "owner",
          "type": "address"
        },
        {
          "indexed": true,
          "internalType": "address",
          "name": "operator",
          "type": "address"
        },
        {
          "indexed": false,
          "internalType": "bool",
          "name": "approved",
          "type": "bool"
        }
      ],
      "name": "ApprovalForAll",
      "type": "event"
    },
    {
      "anonymous": false,
      "inputs": [
        {
          "indexed": true,
          "internalType": "address",
          "name": "previousOwner",
          "type": "address"
        },
        {
          "indexed": true,
          "internalType": "address",
          "name": "newOwner",
          "type": "address"
        }
      ],
      "name": "OwnershipTransferred",
      "type": "event"
    },
    {
      "anonymous": false,
      "inputs": [
        {
          "indexed": false,
          "internalType": "address",
          "name": "account",
          "type": "address"
        }
      ],
      "name": "Paused",
      "type": "event"
    },
    {
      "anonymous": false,
      "inputs": [
        {
          "indexed": false,
          "internalType": "address",
          "name": "account",
          "type": "address"
        }
      ],
      "name": "Presaled",
      "type": "event"
    },
    {
      "anonymous": false,
      "inputs": [
        {
          "indexed": true,
          "internalType": "address",
          "name": "from",
          "type": "address"
        },
        {
          "indexed": true,
          "internalType": "address",
          "name": "to",
          "type": "address"
        },
        {
          "indexed": true,
          "internalType": "uint256",
          "name": "tokenId",
          "type": "uint256"
        }
      ],
      "name": "Transfer",
      "type": "event"
    },
    {
      "anonymous": false,
      "inputs": [
        {
          "indexed": false,
          "internalType": "address",
          "name": "account",
          "type": "address"
        }
      ],
      "name": "Unpaused",
      "type": "event"
    },
    {
      "anonymous": false,
      "inputs": [
        {
          "indexed": false,
          "internalType": "address",
          "name": "account",
          "type": "address"
        }
      ],
      "name": "Unpresaled",
      "type": "event"
    },
    {
      "inputs": [
        {
          "internalType": "address",
          "name": "to",
          "type": "address"
        },
        {
          "internalType": "uint256",
          "name": "tokenId",
          "type": "uint256"
        }
      ],
      "name": "approve",
      "outputs": [],
      "stateMutability": "nonpayable",
      "type": "function"
    },
    {
      "inputs": [
        {
          "internalType": "address",
          "name": "owner",
          "type": "address"
        }
      ],
      "name": "balanceOf",
      "outputs": [
        {
          "internalType": "uint256",
          "name": "",
          "type": "uint256"
        }
      ],
      "stateMutability": "view",
      "type": "function",
      "constant": true
    },
    {
      "inputs": [],
      "name": "baseTokenURI",
      "outputs": [
        {
          "internalType": "string",
          "name": "",
          "type": "string"
        }
      ],
      "stateMutability": "view",
      "type": "function",
      "constant": true
    },
    {
      "inputs": [
        {
          "internalType": "uint256",
          "name": "tokenId",
          "type": "uint256"
        }
      ],
      "name": "getApproved",
      "outputs": [
        {
          "internalType": "address",
          "name": "",
          "type": "address"
        }
      ],
      "stateMutability": "view",
      "type": "function",
      "constant": true
    },
    {
      "inputs": [
        {
          "internalType": "address",
          "name": "owner",
          "type": "address"
        },
        {
          "internalType": "address",
          "name": "operator",
          "type": "address"
        }
      ],
      "name": "isApprovedForAll",
      "outputs": [
        {
          "internalType": "bool",
          "name": "",
          "type": "bool"
        }
      ],
      "stateMutability": "view",
      "type": "function",
      "constant": true
    },
    {
      "inputs": [],
      "name": "name",
      "outputs": [
        {
          "internalType": "string",
          "name": "",
          "type": "string"
        }
      ],
      "stateMutability": "view",
      "type": "function",
      "constant": true
    },
    {
      "inputs": [],
      "name": "owner",
      "outputs": [
        {
          "internalType": "address",
          "name": "",
          "type": "address"
        }
      ],
      "stateMutability": "view",
      "type": "function",
      "constant": true
    },
    {
      "inputs": [
        {
          "internalType": "uint256",
          "name": "tokenId",
          "type": "uint256"
        }
      ],
      "name": "ownerOf",
      "outputs": [
        {
          "internalType": "address",
          "name": "",
          "type": "address"
        }
      ],
      "stateMutability": "view",
      "type": "function",
      "constant": true
    },
    {
      "inputs": [],
      "name": "paused",
      "outputs": [
        {
          "internalType": "bool",
          "name": "",
          "type": "bool"
        }
      ],
      "stateMutability": "view",
      "type": "function",
      "constant": true
    },
    {
      "inputs": [],
      "name": "presaled",
      "outputs": [
        {
          "internalType": "bool",
          "name": "",
          "type": "bool"
        }
      ],
      "stateMutability": "view",
      "type": "function",
      "constant": true
    },
    {
      "inputs": [],
      "name": "price",
      "outputs": [
        {
          "internalType": "uint256",
          "name": "",
          "type": "uint256"
        }
      ],
      "stateMutability": "view",
      "type": "function",
      "constant": true
    },
    {
      "inputs": [],
      "name": "renounceOwnership",
      "outputs": [],
      "stateMutability": "nonpayable",
      "type": "function"
    },
    {
      "inputs": [
        {
          "internalType": "address",
          "name": "from",
          "type": "address"
        },
        {
          "internalType": "address",
          "name": "to",
          "type": "address"
        },
        {
          "internalType": "uint256",
          "name": "tokenId",
          "type": "uint256"
        }
      ],
      "name": "safeTransferFrom",
      "outputs": [],
      "stateMutability": "nonpayable",
      "type": "function"
    },
    {
      "inputs": [
        {
          "internalType": "address",
          "name": "from",
          "type": "address"
        },
        {
          "internalType": "address",
          "name": "to",
          "type": "address"
        },
        {
          "internalType": "uint256",
          "name": "tokenId",
          "type": "uint256"
        },
        {
          "internalType": "bytes",
          "name": "_data",
          "type": "bytes"
        }
      ],
      "name": "safeTransferFrom",
      "outputs": [],
      "stateMutability": "nonpayable",
      "type": "function"
    },
    {
      "inputs": [
        {
          "internalType": "address",
          "name": "operator",
          "type": "address"
        },
        {
          "internalType": "bool",
          "name": "approved",
          "type": "bool"
        }
      ],
      "name": "setApprovalForAll",
      "outputs": [],
      "stateMutability": "nonpayable",
      "type": "function"
    },
    {
      "inputs": [
        {
          "internalType": "bytes4",
          "name": "interfaceId",
          "type": "bytes4"
        }
      ],
      "name": "supportsInterface",
      "outputs": [
        {
          "internalType": "bool",
          "name": "",
          "type": "bool"
        }
      ],
      "stateMutability": "view",
      "type": "function",
      "constant": true
    },
    {
      "inputs": [],
      "name": "symbol",
      "outputs": [
        {
          "internalType": "string",
          "name": "",
          "type": "string"
        }
      ],
      "stateMutability": "view",
      "type": "function",
      "constant": true
    },
    {
      "inputs": [
        {
          "internalType": "uint256",
          "name": "index",
          "type": "uint256"
        }
      ],
      "name": "tokenByIndex",
      "outputs": [
        {
          "internalType": "uint256",
          "name": "",
          "type": "uint256"
        }
      ],
      "stateMutability": "view",
      "type": "function",
      "constant": true
    },
    {
      "inputs": [
        {
          "internalType": "address",
          "name": "owner",
          "type": "address"
        },
        {
          "internalType": "uint256",
          "name": "index",
          "type": "uint256"
        }
      ],
      "name": "tokenOfOwnerByIndex",
      "outputs": [
        {
          "internalType": "uint256",
          "name": "",
          "type": "uint256"
        }
      ],
      "stateMutability": "view",
      "type": "function",
      "constant": true
    },
    {
      "inputs": [
        {
          "internalType": "uint256",
          "name": "tokenId",
          "type": "uint256"
        }
      ],
      "name": "tokenURI",
      "outputs": [
        {
          "internalType": "string",
          "name": "",
          "type": "string"
        }
      ],
      "stateMutability": "view",
      "type": "function",
      "constant": true
    },
    {
      "inputs": [],
      "name": "totalSupply",
      "outputs": [
        {
          "internalType": "uint256",
          "name": "",
          "type": "uint256"
        }
      ],
      "stateMutability": "view",
      "type": "function",
      "constant": true
    },
    {
      "inputs": [
        {
          "internalType": "address",
          "name": "from",
          "type": "address"
        },
        {
          "internalType": "address",
          "name": "to",
          "type": "address"
        },
        {
          "internalType": "uint256",
          "name": "tokenId",
          "type": "uint256"
        }
      ],
      "name": "transferFrom",
      "outputs": [],
      "stateMutability": "nonpayable",
      "type": "function"
    },
    {
      "inputs": [
        {
          "internalType": "address",
          "name": "newOwner",
          "type": "address"
        }
      ],
      "name": "transferOwnership",
      "outputs": [],
      "stateMutability": "nonpayable",
      "type": "function"
    },
    {
      "inputs": [
        {
          "internalType": "uint256",
          "name": "_amount",
          "type": "uint256"
        }
      ],
      "name": "mintVoodollz",
      "outputs": [],
      "stateMutability": "payable",
      "type": "function",
      "payable": true
    },
    {
      "inputs": [
        {
          "internalType": "string",
          "name": "_baseTokenURI",
          "type": "string"
        }
      ],
      "name": "setBaseURI",
      "outputs": [],
      "stateMutability": "nonpayable",
      "type": "function"
    },
    {
      "inputs": [
        {
          "internalType": "address",
          "name": "_owner",
          "type": "address"
        }
      ],
      "name": "walletOfOwner",
      "outputs": [
        {
          "internalType": "uint256[]",
          "name": "",
          "type": "uint256[]"
        }
      ],
      "stateMutability": "view",
      "type": "function",
      "constant": true
    },
    {
      "inputs": [
        {
          "internalType": "address",
          "name": "_to",
          "type": "address"
        },
        {
          "internalType": "uint256",
          "name": "_amount",
          "type": "uint256"
        }
      ],
      "name": "giveAway",
      "outputs": [],
      "stateMutability": "nonpayable",
      "type": "function"
    },
    {
      "inputs": [
        {
          "internalType": "address",
          "name": "wallet",
          "type": "address"
        },
        {
          "internalType": "bytes",
          "name": "_signature",
          "type": "bytes"
        }
      ],
      "name": "recoverSigner",
      "outputs": [
        {
          "internalType": "address",
          "name": "",
          "type": "address"
        }
      ],
      "stateMutability": "pure",
      "type": "function",
      "constant": true
    },
    {
      "inputs": [],
      "name": "pause",
      "outputs": [],
      "stateMutability": "nonpayable",
      "type": "function"
    },
    {
      "inputs": [],
      "name": "unpause",
      "outputs": [],
      "stateMutability": "nonpayable",
      "type": "function"
    },
    {
      "inputs": [],
      "name": "presale",
      "outputs": [],
      "stateMutability": "nonpayable",
      "type": "function"
    },
    {
      "inputs": [],
      "name": "unpresale",
      "outputs": [],
      "stateMutability": "nonpayable",
      "type": "function"
    }
  ],
  "bytecode": "0x6080604052612710600b55610190600c553480156200001d57600080fd5b506040516200575b3803806200575b8339818101604052810190620000439190620004cf565b6040518060400160405280600881526020017f566f6f646f6c6c7a0000000000000000000000000000000000000000000000008152506040518060400160405280600881526020017f566f6f646f6c6c7a0000000000000000000000000000000000000000000000008152508160009080519060200190620000c7929190620003a1565b508060019080519060200190620000e0929190620003a1565b50505062000103620000f76200014660201b60201c565b6200014e60201b60201c565b6000600a60146101000a81548160ff0219169083151502179055506200012e6200021460201b60201c565b6200013f81620002cc60201b60201c565b50620007fb565b600033905090565b6000600a60009054906101000a900473ffffffffffffffffffffffffffffffffffffffff16905081600a60006101000a81548173ffffffffffffffffffffffffffffffffffffffff021916908373ffffffffffffffffffffffffffffffffffffffff1602179055508173ffffffffffffffffffffffffffffffffffffffff168173ffffffffffffffffffffffffffffffffffffffff167f8be0079c531659141344cd1fd0a4f28419497f9722a3daafe3b4186f6b6457e060405160405180910390a35050565b600a60159054906101000a900460ff161562000267576040517f08c379a00000000000000000000000000000000000000000000000000000000081526004016200025e90620005be565b60405180910390fd5b6001600a60156101000a81548160ff0219169083151502179055507fb1412a7cd96bc4195d633c938189c320dcbeb2cff60c1b8bdd872678fb3514b4620002b36200014660201b60201c565b604051620002c291906200057f565b60405180910390a1565b620002dc6200014660201b60201c565b73ffffffffffffffffffffffffffffffffffffffff16620003026200037760201b60201c565b73ffffffffffffffffffffffffffffffffffffffff16146200035b576040517f08c379a000000000000000000000000000000000000000000000000000000000815260040162000352906200059c565b60405180910390fd5b80600d908051906020019062000373929190620003a1565b5050565b6000600a60009054906101000a900473ffffffffffffffffffffffffffffffffffffffff16905090565b828054620003af90620006ba565b90600052602060002090601f016020900481019282620003d357600085556200041f565b82601f10620003ee57805160ff19168380011785556200041f565b828001600101855582156200041f579182015b828111156200041e57825182559160200191906001019062000401565b5b5090506200042e919062000432565b5090565b5b808211156200044d57600081600090555060010162000433565b5090565b600062000468620004628462000609565b620005e0565b90508281526020810184848401111562000487576200048662000789565b5b6200049484828562000684565b509392505050565b600082601f830112620004b457620004b362000784565b5b8151620004c684826020860162000451565b91505092915050565b600060208284031215620004e857620004e762000793565b5b600082015167ffffffffffffffff8111156200050957620005086200078e565b5b62000517848285016200049c565b91505092915050565b6200052b8162000650565b82525050565b6000620005406020836200063f565b91506200054d82620007a9565b602082019050919050565b600062000567600e836200063f565b91506200057482620007d2565b602082019050919050565b600060208201905062000596600083018462000520565b92915050565b60006020820190508181036000830152620005b78162000531565b9050919050565b60006020820190508181036000830152620005d98162000558565b9050919050565b6000620005ec620005ff565b9050620005fa8282620006f0565b919050565b6000604051905090565b600067ffffffffffffffff82111562000627576200062662000755565b5b620006328262000798565b9050602081019050919050565b600082825260208201905092915050565b60006200065d8262000664565b9050919050565b600073ffffffffffffffffffffffffffffffffffffffff82169050919050565b60005b83811015620006a457808201518184015260208101905062000687565b83811115620006b4576000848401525b50505050565b60006002820490506001821680620006d357607f821691505b60208210811415620006ea57620006e962000726565b5b50919050565b620006fb8262000798565b810181811067ffffffffffffffff821117156200071d576200071c62000755565b5b80604052505050565b7f4e487b7100000000000000000000000000000000000000000000000000000000600052602260045260246000fd5b7f4e487b7100000000000000000000000000000000000000000000000000000000600052604160045260246000fd5b600080fd5b600080fd5b600080fd5b600080fd5b6000601f19601f8301169050919050565b7f4f776e61626c653a2063616c6c6572206973206e6f7420746865206f776e6572600082015250565b7f50726573616c6520636c6f736564000000000000000000000000000000000000600082015250565b614f50806200080b6000396000f3fe6080604052600436106101e35760003560e01c8063715018a611610102578063b88d4fde11610095578063e53e3a0411610064578063e53e3a04146106bf578063e985e9c5146106fc578063f2fde38b14610739578063fdea8e0b14610762576101e3565b8063b88d4fde14610605578063c87b56dd1461062e578063ca8001441461066b578063d547cfb714610694576101e3565b80639305d22e116100d15780639305d22e1461056a57806395d89b4114610586578063a035b1fe146105b1578063a22cb465146105dc576101e3565b8063715018a6146104fa5780638456cb591461051157806385493853146105285780638da5cb5b1461053f576101e3565b806342842e0e1161017a57806355f804b31161014957806355f804b31461042c5780635c975abb146104555780636352211e1461048057806370a08231146104bd576101e3565b806342842e0e1461035e578063438b6300146103875780634cb2f9ea146103c45780634f6ccce7146103ef576101e3565b806318160ddd116101b657806318160ddd146102b657806323b872dd146102e15780632f745c591461030a5780633f4ba83a14610347576101e3565b806301ffc9a7146101e857806306fdde0314610225578063081812fc14610250578063095ea7b31461028d575b600080fd5b3480156101f457600080fd5b5061020f600480360381019061020a91906135dd565b610779565b60405161021c9190613d79565b60405180910390f35b34801561023157600080fd5b5061023a6107f3565b6040516102479190613dd9565b60405180910390f35b34801561025c57600080fd5b5061027760048036038101906102729190613680565b610885565b6040516102849190613cf0565b60405180910390f35b34801561029957600080fd5b506102b460048036038101906102af919061359d565b61090a565b005b3480156102c257600080fd5b506102cb610a22565b6040516102d891906141bb565b60405180910390f35b3480156102ed57600080fd5b506103086004803603810190610303919061342b565b610a2f565b005b34801561031657600080fd5b50610331600480360381019061032c919061359d565b610a8f565b60405161033e91906141bb565b60405180910390f35b34801561035357600080fd5b5061035c610b34565b005b34801561036a57600080fd5b506103856004803603810190610380919061342b565b610bba565b005b34801561039357600080fd5b506103ae60048036038101906103a991906133be565b610bda565b6040516103bb9190613d57565b60405180910390f35b3480156103d057600080fd5b506103d9610c88565b6040516103e69190613d79565b60405180910390f35b3480156103fb57600080fd5b5061041660048036038101906104119190613680565b610c9f565b60405161042391906141bb565b60405180910390f35b34801561043857600080fd5b50610453600480360381019061044e9190613637565b610d10565b005b34801561046157600080fd5b5061046a610da6565b6040516104779190613d79565b60405180910390f35b34801561048c57600080fd5b506104a760048036038101906104a29190613680565b610dbd565b6040516104b49190613cf0565b60405180910390f35b3480156104c957600080fd5b506104e460048036038101906104df91906133be565b610e6f565b6040516104f191906141bb565b60405180910390f35b34801561050657600080fd5b5061050f610f27565b005b34801561051d57600080fd5b50610526610faf565b005b34801561053457600080fd5b5061053d611035565b005b34801561054b57600080fd5b506105546110bb565b6040516105619190613cf0565b60405180910390f35b610584600480360381019061057f9190613680565b6110e5565b005b34801561059257600080fd5b5061059b611364565b6040516105a89190613dd9565b60405180910390f35b3480156105bd57600080fd5b506105c66113f6565b6040516105d391906141bb565b60405180910390f35b3480156105e857600080fd5b5061060360048036038101906105fe9190613501565b611401565b005b34801561061157600080fd5b5061062c6004803603810190610627919061347e565b611582565b005b34801561063a57600080fd5b5061065560048036038101906106509190613680565b6115e4565b6040516106629190613dd9565b60405180910390f35b34801561067757600080fd5b50610692600480360381019061068d919061359d565b61168b565b005b3480156106a057600080fd5b506106a9611808565b6040516106b69190613dd9565b60405180910390f35b3480156106cb57600080fd5b506106e660048036038101906106e19190613541565b611896565b6040516106f39190613cf0565b60405180910390f35b34801561070857600080fd5b50610723600480360381019061071e91906133eb565b6118e1565b6040516107309190613d79565b60405180910390f35b34801561074557600080fd5b50610760600480360381019061075b91906133be565b611975565b005b34801561076e57600080fd5b50610777611a6d565b005b60007f780e9d63000000000000000000000000000000000000000000000000000000007bffffffffffffffffffffffffffffffffffffffffffffffffffffffff1916827bffffffffffffffffffffffffffffffffffffffffffffffffffffffff191614806107ec57506107eb82611af3565b5b9050919050565b606060008054610802906144bb565b80601f016020809104026020016040519081016040528092919081815260200182805461082e906144bb565b801561087b5780601f106108505761010080835404028352916020019161087b565b820191906000526020600020905b81548152906001019060200180831161085e57829003601f168201915b5050505050905090565b600061089082611bd5565b6108cf576040517f08c379a00000000000000000000000000000000000000000000000000000000081526004016108c69061409b565b60405180910390fd5b6004600083815260200190815260200160002060009054906101000a900473ffffffffffffffffffffffffffffffffffffffff169050919050565b600061091582610dbd565b90508073ffffffffffffffffffffffffffffffffffffffff168373ffffffffffffffffffffffffffffffffffffffff161415610986576040517f08c379a000000000000000000000000000000000000000000000000000000000815260040161097d9061413b565b60405180910390fd5b8073ffffffffffffffffffffffffffffffffffffffff166109a5611c41565b73ffffffffffffffffffffffffffffffffffffffff1614806109d457506109d3816109ce611c41565b6118e1565b5b610a13576040517f08c379a0000000000000000000000000000000000000000000000000000000008152600401610a0a90613ffb565b60405180910390fd5b610a1d8383611c49565b505050565b6000600880549050905090565b610a40610a3a611c41565b82611d02565b610a7f576040517f08c379a0000000000000000000000000000000000000000000000000000000008152600401610a769061415b565b60405180910390fd5b610a8a838383611de0565b505050565b6000610a9a83610e6f565b8210610adb576040517f08c379a0000000000000000000000000000000000000000000000000000000008152600401610ad290613e5b565b60405180910390fd5b600660008473ffffffffffffffffffffffffffffffffffffffff1673ffffffffffffffffffffffffffffffffffffffff168152602001908152602001600020600083815260200190815260200160002054905092915050565b610b3c611c41565b73ffffffffffffffffffffffffffffffffffffffff16610b5a6110bb565b73ffffffffffffffffffffffffffffffffffffffff1614610bb0576040517f08c379a0000000000000000000000000000000000000000000000000000000008152600401610ba7906140db565b60405180910390fd5b610bb861203c565b565b610bd583838360405180602001604052806000815250611582565b505050565b60606000610be783610e6f565b905060008167ffffffffffffffff811115610c0557610c046146e0565b5b604051908082528060200260200182016040528015610c335781602001602082028036833780820191505090505b50905060005b82811015610c7d57610c4b8582610a8f565b828281518110610c5e57610c5d6146b1565b5b6020026020010181815250508080610c759061451e565b915050610c39565b508092505050919050565b6000600a60159054906101000a900460ff16905090565b6000610ca9610a22565b8210610cea576040517f08c379a0000000000000000000000000000000000000000000000000000000008152600401610ce19061417b565b60405180910390fd5b60088281548110610cfe57610cfd6146b1565b5b90600052602060002001549050919050565b610d18611c41565b73ffffffffffffffffffffffffffffffffffffffff16610d366110bb565b73ffffffffffffffffffffffffffffffffffffffff1614610d8c576040517f08c379a0000000000000000000000000000000000000000000000000000000008152600401610d83906140db565b60405180910390fd5b80600d9080519060200190610da29291906131d2565b5050565b6000600a60149054906101000a900460ff16905090565b6000806002600084815260200190815260200160002060009054906101000a900473ffffffffffffffffffffffffffffffffffffffff169050600073ffffffffffffffffffffffffffffffffffffffff168173ffffffffffffffffffffffffffffffffffffffff161415610e66576040517f08c379a0000000000000000000000000000000000000000000000000000000008152600401610e5d9061403b565b60405180910390fd5b80915050919050565b60008073ffffffffffffffffffffffffffffffffffffffff168273ffffffffffffffffffffffffffffffffffffffff161415610ee0576040517f08c379a0000000000000000000000000000000000000000000000000000000008152600401610ed79061401b565b60405180910390fd5b600360008373ffffffffffffffffffffffffffffffffffffffff1673ffffffffffffffffffffffffffffffffffffffff168152602001908152602001600020549050919050565b610f2f611c41565b73ffffffffffffffffffffffffffffffffffffffff16610f4d6110bb565b73ffffffffffffffffffffffffffffffffffffffff1614610fa3576040517f08c379a0000000000000000000000000000000000000000000000000000000008152600401610f9a906140db565b60405180910390fd5b610fad60006120de565b565b610fb7611c41565b73ffffffffffffffffffffffffffffffffffffffff16610fd56110bb565b73ffffffffffffffffffffffffffffffffffffffff161461102b576040517f08c379a0000000000000000000000000000000000000000000000000000000008152600401611022906140db565b60405180910390fd5b6110336121a4565b565b61103d611c41565b73ffffffffffffffffffffffffffffffffffffffff1661105b6110bb565b73ffffffffffffffffffffffffffffffffffffffff16146110b1576040517f08c379a00000000000000000000000000000000000000000000000000000000081526004016110a8906140db565b60405180910390fd5b6110b9611035565b565b6000600a60009054906101000a900473ffffffffffffffffffffffffffffffffffffffff16905090565b6110ed610da6565b1561112d576040517f08c379a000000000000000000000000000000000000000000000000000000000815260040161112490613fdb565b60405180910390fd5b6014811115611171576040517f08c379a000000000000000000000000000000000000000000000000000000000815260040161116890613f9b565b60405180910390fd5b600c54600b5461118191906143ba565b8161118a610a22565b61119491906142d9565b11156111d5576040517f08c379a00000000000000000000000000000000000000000000000000000000081526004016111cc906140bb565b60405180910390fd5b8066b1a2bc2ec500006111e89190614360565b34101561122a576040517f08c379a000000000000000000000000000000000000000000000000000000000815260040161122190613f3b565b60405180910390fd5b611232610c88565b1561130d576000611294611244611c41565b61124c612247565b8080601f016020809104026020016040519081016040528093929190818152602001838380828437600081840152601f19601f82011690508083019250505050505050611896565b905061129e6110bb565b73ffffffffffffffffffffffffffffffffffffffff168173ffffffffffffffffffffffffffffffffffffffff161461130b576040517f08c379a000000000000000000000000000000000000000000000000000000000815260040161130290613fbb565b60405180910390fd5b505b60005b818110156113605760006001611324610a22565b61132e91906142d9565b9050600b5461133b610a22565b101561134c5761134b3382612254565b5b5080806113589061451e565b915050611310565b5050565b606060018054611373906144bb565b80601f016020809104026020016040519081016040528092919081815260200182805461139f906144bb565b80156113ec5780601f106113c1576101008083540402835291602001916113ec565b820191906000526020600020905b8154815290600101906020018083116113cf57829003601f168201915b5050505050905090565b66b1a2bc2ec5000081565b611409611c41565b73ffffffffffffffffffffffffffffffffffffffff168273ffffffffffffffffffffffffffffffffffffffff161415611477576040517f08c379a000000000000000000000000000000000000000000000000000000000815260040161146e90613f1b565b60405180910390fd5b8060056000611484611c41565b73ffffffffffffffffffffffffffffffffffffffff1673ffffffffffffffffffffffffffffffffffffffff16815260200190815260200160002060008473ffffffffffffffffffffffffffffffffffffffff1673ffffffffffffffffffffffffffffffffffffffff16815260200190815260200160002060006101000a81548160ff0219169083151502179055508173ffffffffffffffffffffffffffffffffffffffff16611531611c41565b73ffffffffffffffffffffffffffffffffffffffff167f17307eab39ab6107e8899845ad3d59bd9653f200f220920489ca2b5937696c31836040516115769190613d79565b60405180910390a35050565b61159361158d611c41565b83611d02565b6115d2576040517f08c379a00000000000000000000000000000000000000000000000000000000081526004016115c99061415b565b60405180910390fd5b6115de84848484612272565b50505050565b60606115ef82611bd5565b61162e576040517f08c379a00000000000000000000000000000000000000000000000000000000081526004016116259061411b565b60405180910390fd5b60006116386122ce565b905060008151116116585760405180602001604052806000815250611683565b8061166284612360565b604051602001611673929190613ca6565b6040516020818303038152906040525b915050919050565b611693611c41565b73ffffffffffffffffffffffffffffffffffffffff166116b16110bb565b73ffffffffffffffffffffffffffffffffffffffff1614611707576040517f08c379a00000000000000000000000000000000000000000000000000000000081526004016116fe906140db565b60405180910390fd5b61170f610da6565b1561174f576040517f08c379a000000000000000000000000000000000000000000000000000000000815260040161174690613fdb565b60405180910390fd5b600c54811115611794576040517f08c379a000000000000000000000000000000000000000000000000000000000815260040161178b90613ebb565b60405180910390fd5b6000600190505b8181116117ea57600060016117ae610a22565b6117b891906142d9565b9050600b546117c5610a22565b10156117d6576117d58482612254565b5b5080806117e29061451e565b91505061179b565b5080600c60008282546117fd91906143ba565b925050819055505050565b600d8054611815906144bb565b80601f0160208091040260200160405190810160405280929190818152602001828054611841906144bb565b801561188e5780601f106118635761010080835404028352916020019161188e565b820191906000526020600020905b81548152906001019060200180831161187157829003601f168201915b505050505081565b60006118d9826118cb856040516020016118b09190613c8b565b604051602081830303815290604052805190602001206124c1565b6124f190919063ffffffff16565b905092915050565b6000600560008473ffffffffffffffffffffffffffffffffffffffff1673ffffffffffffffffffffffffffffffffffffffff16815260200190815260200160002060008373ffffffffffffffffffffffffffffffffffffffff1673ffffffffffffffffffffffffffffffffffffffff16815260200190815260200160002060009054906101000a900460ff16905092915050565b61197d611c41565b73ffffffffffffffffffffffffffffffffffffffff1661199b6110bb565b73ffffffffffffffffffffffffffffffffffffffff16146119f1576040517f08c379a00000000000000000000000000000000000000000000000000000000081526004016119e8906140db565b60405180910390fd5b600073ffffffffffffffffffffffffffffffffffffffff168173ffffffffffffffffffffffffffffffffffffffff161415611a61576040517f08c379a0000000000000000000000000000000000000000000000000000000008152600401611a5890613e9b565b60405180910390fd5b611a6a816120de565b50565b611a75611c41565b73ffffffffffffffffffffffffffffffffffffffff16611a936110bb565b73ffffffffffffffffffffffffffffffffffffffff1614611ae9576040517f08c379a0000000000000000000000000000000000000000000000000000000008152600401611ae0906140db565b60405180910390fd5b611af1612518565b565b60007f80ac58cd000000000000000000000000000000000000000000000000000000007bffffffffffffffffffffffffffffffffffffffffffffffffffffffff1916827bffffffffffffffffffffffffffffffffffffffffffffffffffffffff19161480611bbe57507f5b5e139f000000000000000000000000000000000000000000000000000000007bffffffffffffffffffffffffffffffffffffffffffffffffffffffff1916827bffffffffffffffffffffffffffffffffffffffffffffffffffffffff1916145b80611bce5750611bcd826125c3565b5b9050919050565b60008073ffffffffffffffffffffffffffffffffffffffff166002600084815260200190815260200160002060009054906101000a900473ffffffffffffffffffffffffffffffffffffffff1673ffffffffffffffffffffffffffffffffffffffff1614159050919050565b600033905090565b816004600083815260200190815260200160002060006101000a81548173ffffffffffffffffffffffffffffffffffffffff021916908373ffffffffffffffffffffffffffffffffffffffff160217905550808273ffffffffffffffffffffffffffffffffffffffff16611cbc83610dbd565b73ffffffffffffffffffffffffffffffffffffffff167f8c5be1e5ebec7d5bd14f71427d1e84f3dd0314c0f7b2291e5b200ac8c7c3b92560405160405180910390a45050565b6000611d0d82611bd5565b611d4c576040517f08c379a0000000000000000000000000000000000000000000000000000000008152600401611d4390613f7b565b60405180910390fd5b6000611d5783610dbd565b90508073ffffffffffffffffffffffffffffffffffffffff168473ffffffffffffffffffffffffffffffffffffffff161480611dc657508373ffffffffffffffffffffffffffffffffffffffff16611dae84610885565b73ffffffffffffffffffffffffffffffffffffffff16145b80611dd75750611dd681856118e1565b5b91505092915050565b8273ffffffffffffffffffffffffffffffffffffffff16611e0082610dbd565b73ffffffffffffffffffffffffffffffffffffffff1614611e56576040517f08c379a0000000000000000000000000000000000000000000000000000000008152600401611e4d906140fb565b60405180910390fd5b600073ffffffffffffffffffffffffffffffffffffffff168273ffffffffffffffffffffffffffffffffffffffff161415611ec6576040517f08c379a0000000000000000000000000000000000000000000000000000000008152600401611ebd90613efb565b60405180910390fd5b611ed183838361262d565b611edc600082611c49565b6001600360008573ffffffffffffffffffffffffffffffffffffffff1673ffffffffffffffffffffffffffffffffffffffff1681526020019081526020016000206000828254611f2c91906143ba565b925050819055506001600360008473ffffffffffffffffffffffffffffffffffffffff1673ffffffffffffffffffffffffffffffffffffffff1681526020019081526020016000206000828254611f8391906142d9565b92505081905550816002600083815260200190815260200160002060006101000a81548173ffffffffffffffffffffffffffffffffffffffff021916908373ffffffffffffffffffffffffffffffffffffffff160217905550808273ffffffffffffffffffffffffffffffffffffffff168473ffffffffffffffffffffffffffffffffffffffff167fddf252ad1be2c89b69c2b068fc378daa952ba7f163c4a11628f55a4df523b3ef60405160405180910390a4505050565b612044610da6565b612083576040517f08c379a000000000000000000000000000000000000000000000000000000000815260040161207a90613e1b565b60405180910390fd5b6000600a60146101000a81548160ff0219169083151502179055507f5db9ee0a495bf2e6ff9c91a7834c1ba4fdd244a5e8aa4e537bd38aeae4b073aa6120c7611c41565b6040516120d49190613cf0565b60405180910390a1565b6000600a60009054906101000a900473ffffffffffffffffffffffffffffffffffffffff16905081600a60006101000a81548173ffffffffffffffffffffffffffffffffffffffff021916908373ffffffffffffffffffffffffffffffffffffffff1602179055508173ffffffffffffffffffffffffffffffffffffffff168173ffffffffffffffffffffffffffffffffffffffff167f8be0079c531659141344cd1fd0a4f28419497f9722a3daafe3b4186f6b6457e060405160405180910390a35050565b6121ac610da6565b156121ec576040517f08c379a00000000000000000000000000000000000000000000000000000000081526004016121e390613fdb565b60405180910390fd5b6001600a60146101000a81548160ff0219169083151502179055507f62e78cea01bee320cd4e420270b5ea74000d11b0c9f74754ebdbfc544b05a258612230611c41565b60405161223d9190613cf0565b60405180910390a1565b3660008036915091509091565b61226e828260405180602001604052806000815250612741565b5050565b61227d848484611de0565b6122898484848461279c565b6122c8576040517f08c379a00000000000000000000000000000000000000000000000000000000081526004016122bf90613e7b565b60405180910390fd5b50505050565b6060600d80546122dd906144bb565b80601f0160208091040260200160405190810160405280929190818152602001828054612309906144bb565b80156123565780601f1061232b57610100808354040283529160200191612356565b820191906000526020600020905b81548152906001019060200180831161233957829003601f168201915b5050505050905090565b606060008214156123a8576040518060400160405280600181526020017f300000000000000000000000000000000000000000000000000000000000000081525090506124bc565b600082905060005b600082146123da5780806123c39061451e565b915050600a826123d3919061432f565b91506123b0565b60008167ffffffffffffffff8111156123f6576123f56146e0565b5b6040519080825280601f01601f1916602001820160405280156124285781602001600182028036833780820191505090505b5090505b600085146124b55760018261244191906143ba565b9150600a856124509190614595565b603061245c91906142d9565b60f81b818381518110612472576124716146b1565b5b60200101907effffffffffffffffffffffffffffffffffffffffffffffffffffffffffffff1916908160001a905350600a856124ae919061432f565b945061242c565b8093505050505b919050565b6000816040516020016124d49190613cca565b604051602081830303815290604052805190602001209050919050565b60008060006125008585612933565b9150915061250d816129b6565b819250505092915050565b600a60159054906101000a900460ff1615612568576040517f08c379a000000000000000000000000000000000000000000000000000000000815260040161255f9061419b565b60405180910390fd5b6001600a60156101000a81548160ff0219169083151502179055507fb1412a7cd96bc4195d633c938189c320dcbeb2cff60c1b8bdd872678fb3514b46125ac611c41565b6040516125b99190613cf0565b60405180910390a1565b60007f01ffc9a7000000000000000000000000000000000000000000000000000000007bffffffffffffffffffffffffffffffffffffffffffffffffffffffff1916827bffffffffffffffffffffffffffffffffffffffffffffffffffffffff1916149050919050565b612638838383612b8b565b600073ffffffffffffffffffffffffffffffffffffffff168373ffffffffffffffffffffffffffffffffffffffff16141561267b5761267681612b90565b6126ba565b8173ffffffffffffffffffffffffffffffffffffffff168373ffffffffffffffffffffffffffffffffffffffff16146126b9576126b88382612bd9565b5b5b600073ffffffffffffffffffffffffffffffffffffffff168273ffffffffffffffffffffffffffffffffffffffff1614156126fd576126f881612d46565b61273c565b8273ffffffffffffffffffffffffffffffffffffffff168273ffffffffffffffffffffffffffffffffffffffff161461273b5761273a8282612e17565b5b5b505050565b61274b8383612e96565b612758600084848461279c565b612797576040517f08c379a000000000000000000000000000000000000000000000000000000000815260040161278e90613e7b565b60405180910390fd5b505050565b60006127bd8473ffffffffffffffffffffffffffffffffffffffff16613064565b15612926578373ffffffffffffffffffffffffffffffffffffffff1663150b7a026127e6611c41565b8786866040518563ffffffff1660e01b81526004016128089493929190613d0b565b602060405180830381600087803b15801561282257600080fd5b505af192505050801561285357506040513d601f19601f82011682018060405250810190612850919061360a565b60015b6128d6573d8060008114612883576040519150601f19603f3d011682016040523d82523d6000602084013e612888565b606091505b506000815114156128ce576040517f08c379a00000000000000000000000000000000000000000000000000000000081526004016128c590613e7b565b60405180910390fd5b805181602001fd5b63150b7a0260e01b7bffffffffffffffffffffffffffffffffffffffffffffffffffffffff1916817bffffffffffffffffffffffffffffffffffffffffffffffffffffffff19161491505061292b565b600190505b949350505050565b6000806041835114156129755760008060006020860151925060408601519150606086015160001a905061296987828585613077565b945094505050506129af565b6040835114156129a657600080602085015191506040850151905061299b868383613184565b9350935050506129af565b60006002915091505b9250929050565b600060048111156129ca576129c9614624565b5b8160048111156129dd576129dc614624565b5b14156129e857612b88565b600160048111156129fc576129fb614624565b5b816004811115612a0f57612a0e614624565b5b1415612a50576040517f08c379a0000000000000000000000000000000000000000000000000000000008152600401612a4790613dfb565b60405180910390fd5b60026004811115612a6457612a63614624565b5b816004811115612a7757612a76614624565b5b1415612ab8576040517f08c379a0000000000000000000000000000000000000000000000000000000008152600401612aaf90613e3b565b60405180910390fd5b60036004811115612acc57612acb614624565b5b816004811115612adf57612ade614624565b5b1415612b20576040517f08c379a0000000000000000000000000000000000000000000000000000000008152600401612b1790613f5b565b60405180910390fd5b600480811115612b3357612b32614624565b5b816004811115612b4657612b45614624565b5b1415612b87576040517f08c379a0000000000000000000000000000000000000000000000000000000008152600401612b7e9061405b565b60405180910390fd5b5b50565b505050565b6008805490506009600083815260200190815260200160002081905550600881908060018154018082558091505060019003906000526020600020016000909190919091505550565b60006001612be684610e6f565b612bf091906143ba565b9050600060076000848152602001908152602001600020549050818114612cd5576000600660008673ffffffffffffffffffffffffffffffffffffffff1673ffffffffffffffffffffffffffffffffffffffff168152602001908152602001600020600084815260200190815260200160002054905080600660008773ffffffffffffffffffffffffffffffffffffffff1673ffffffffffffffffffffffffffffffffffffffff168152602001908152602001600020600084815260200190815260200160002081905550816007600083815260200190815260200160002081905550505b6007600084815260200190815260200160002060009055600660008573ffffffffffffffffffffffffffffffffffffffff1673ffffffffffffffffffffffffffffffffffffffff16815260200190815260200160002060008381526020019081526020016000206000905550505050565b60006001600880549050612d5a91906143ba565b9050600060096000848152602001908152602001600020549050600060088381548110612d8a57612d896146b1565b5b906000526020600020015490508060088381548110612dac57612dab6146b1565b5b906000526020600020018190555081600960008381526020019081526020016000208190555060096000858152602001908152602001600020600090556008805480612dfb57612dfa614682565b5b6001900381819060005260206000200160009055905550505050565b6000612e2283610e6f565b905081600660008573ffffffffffffffffffffffffffffffffffffffff1673ffffffffffffffffffffffffffffffffffffffff168152602001908152602001600020600083815260200190815260200160002081905550806007600084815260200190815260200160002081905550505050565b600073ffffffffffffffffffffffffffffffffffffffff168273ffffffffffffffffffffffffffffffffffffffff161415612f06576040517f08c379a0000000000000000000000000000000000000000000000000000000008152600401612efd9061407b565b60405180910390fd5b612f0f81611bd5565b15612f4f576040517f08c379a0000000000000000000000000000000000000000000000000000000008152600401612f4690613edb565b60405180910390fd5b612f5b6000838361262d565b6001600360008473ffffffffffffffffffffffffffffffffffffffff1673ffffffffffffffffffffffffffffffffffffffff1681526020019081526020016000206000828254612fab91906142d9565b92505081905550816002600083815260200190815260200160002060006101000a81548173ffffffffffffffffffffffffffffffffffffffff021916908373ffffffffffffffffffffffffffffffffffffffff160217905550808273ffffffffffffffffffffffffffffffffffffffff16600073ffffffffffffffffffffffffffffffffffffffff167fddf252ad1be2c89b69c2b068fc378daa952ba7f163c4a11628f55a4df523b3ef60405160405180910390a45050565b600080823b905060008111915050919050565b6000807f7fffffffffffffffffffffffffffffff5d576e7357a4501ddfe92f46681b20a08360001c11156130b257600060039150915061317b565b601b8560ff16141580156130ca5750601c8560ff1614155b156130dc57600060049150915061317b565b6000600187878787604051600081526020016040526040516131019493929190613d94565b6020604051602081039080840390855afa158015613123573d6000803e3d6000fd5b505050602060405103519050600073ffffffffffffffffffffffffffffffffffffffff168173ffffffffffffffffffffffffffffffffffffffff1614156131725760006001925092505061317b565b80600092509250505b94509492505050565b6000806000807f7fffffffffffffffffffffffffffffffffffffffffffffffffffffffffffffff85169150601b8560ff1c0190506131c487828885613077565b935093505050935093915050565b8280546131de906144bb565b90600052602060002090601f0160209004810192826132005760008555613247565b82601f1061321957805160ff1916838001178555613247565b82800160010185558215613247579182015b8281111561324657825182559160200191906001019061322b565b5b5090506132549190613258565b5090565b5b80821115613271576000816000905550600101613259565b5090565b6000613288613283846141fb565b6141d6565b9050828152602081018484840111156132a4576132a3614714565b5b6132af848285614479565b509392505050565b60006132ca6132c58461422c565b6141d6565b9050828152602081018484840111156132e6576132e5614714565b5b6132f1848285614479565b509392505050565b60008135905061330881614ebe565b92915050565b60008135905061331d81614ed5565b92915050565b60008135905061333281614eec565b92915050565b60008151905061334781614eec565b92915050565b600082601f8301126133625761336161470f565b5b8135613372848260208601613275565b91505092915050565b600082601f8301126133905761338f61470f565b5b81356133a08482602086016132b7565b91505092915050565b6000813590506133b881614f03565b92915050565b6000602082840312156133d4576133d361471e565b5b60006133e2848285016132f9565b91505092915050565b600080604083850312156134025761340161471e565b5b6000613410858286016132f9565b9250506020613421858286016132f9565b9150509250929050565b6000806000606084860312156134445761344361471e565b5b6000613452868287016132f9565b9350506020613463868287016132f9565b9250506040613474868287016133a9565b9150509250925092565b600080600080608085870312156134985761349761471e565b5b60006134a6878288016132f9565b94505060206134b7878288016132f9565b93505060406134c8878288016133a9565b925050606085013567ffffffffffffffff8111156134e9576134e8614719565b5b6134f58782880161334d565b91505092959194509250565b600080604083850312156135185761351761471e565b5b6000613526858286016132f9565b92505060206135378582860161330e565b9150509250929050565b600080604083850312156135585761355761471e565b5b6000613566858286016132f9565b925050602083013567ffffffffffffffff81111561358757613586614719565b5b6135938582860161334d565b9150509250929050565b600080604083850312156135b4576135b361471e565b5b60006135c2858286016132f9565b92505060206135d3858286016133a9565b9150509250929050565b6000602082840312156135f3576135f261471e565b5b600061360184828501613323565b91505092915050565b6000602082840312156136205761361f61471e565b5b600061362e84828501613338565b91505092915050565b60006020828403121561364d5761364c61471e565b5b600082013567ffffffffffffffff81111561366b5761366a614719565b5b6136778482850161337b565b91505092915050565b6000602082840312156136965761369561471e565b5b60006136a4848285016133a9565b91505092915050565b60006136b98383613c5e565b60208301905092915050565b6136ce816143ee565b82525050565b6136e56136e0826143ee565b614567565b82525050565b60006136f68261426d565b613700818561429b565b935061370b8361425d565b8060005b8381101561373c57815161372388826136ad565b975061372e8361428e565b92505060018101905061370f565b5085935050505092915050565b61375281614400565b82525050565b6137618161440c565b82525050565b6137786137738261440c565b614579565b82525050565b600061378982614278565b61379381856142ac565b93506137a3818560208601614488565b6137ac81614723565b840191505092915050565b60006137c282614283565b6137cc81856142bd565b93506137dc818560208601614488565b6137e581614723565b840191505092915050565b60006137fb82614283565b61380581856142ce565b9350613815818560208601614488565b80840191505092915050565b600061382e6018836142bd565b915061383982614741565b602082019050919050565b60006138516014836142bd565b915061385c8261476a565b602082019050919050565b6000613874601f836142bd565b915061387f82614793565b602082019050919050565b6000613897601c836142ce565b91506138a2826147bc565b601c82019050919050565b60006138ba602b836142bd565b91506138c5826147e5565b604082019050919050565b60006138dd6032836142bd565b91506138e882614834565b604082019050919050565b60006139006026836142bd565b915061390b82614883565b604082019050919050565b60006139236020836142bd565b915061392e826148d2565b602082019050919050565b6000613946601c836142bd565b9150613951826148fb565b602082019050919050565b60006139696024836142bd565b915061397482614924565b604082019050919050565b600061398c6019836142bd565b915061399782614973565b602082019050919050565b60006139af601f836142bd565b91506139ba8261499c565b602082019050919050565b60006139d26022836142bd565b91506139dd826149c5565b604082019050919050565b60006139f5602c836142bd565b9150613a0082614a14565b604082019050919050565b6000613a186021836142bd565b9150613a2382614a63565b604082019050919050565b6000613a3b6016836142bd565b9150613a4682614ab2565b602082019050919050565b6000613a5e6010836142bd565b9150613a6982614adb565b602082019050919050565b6000613a816038836142bd565b9150613a8c82614b04565b604082019050919050565b6000613aa4602a836142bd565b9150613aaf82614b53565b604082019050919050565b6000613ac76029836142bd565b9150613ad282614ba2565b604082019050919050565b6000613aea6022836142bd565b9150613af582614bf1565b604082019050919050565b6000613b0d6020836142bd565b9150613b1882614c40565b602082019050919050565b6000613b30602c836142bd565b9150613b3b82614c69565b604082019050919050565b6000613b53601f836142bd565b9150613b5e82614cb8565b602082019050919050565b6000613b766020836142bd565b9150613b8182614ce1565b602082019050919050565b6000613b996029836142bd565b9150613ba482614d0a565b604082019050919050565b6000613bbc602f836142bd565b9150613bc782614d59565b604082019050919050565b6000613bdf6021836142bd565b9150613bea82614da8565b604082019050919050565b6000613c026031836142bd565b9150613c0d82614df7565b604082019050919050565b6000613c25602c836142bd565b9150613c3082614e46565b604082019050919050565b6000613c48600e836142bd565b9150613c5382614e95565b602082019050919050565b613c6781614462565b82525050565b613c7681614462565b82525050565b613c858161446c565b82525050565b6000613c9782846136d4565b60148201915081905092915050565b6000613cb282856137f0565b9150613cbe82846137f0565b91508190509392505050565b6000613cd58261388a565b9150613ce18284613767565b60208201915081905092915050565b6000602082019050613d0560008301846136c5565b92915050565b6000608082019050613d2060008301876136c5565b613d2d60208301866136c5565b613d3a6040830185613c6d565b8181036060830152613d4c818461377e565b905095945050505050565b60006020820190508181036000830152613d7181846136eb565b905092915050565b6000602082019050613d8e6000830184613749565b92915050565b6000608082019050613da96000830187613758565b613db66020830186613c7c565b613dc36040830185613758565b613dd06060830184613758565b95945050505050565b60006020820190508181036000830152613df381846137b7565b905092915050565b60006020820190508181036000830152613e1481613821565b9050919050565b60006020820190508181036000830152613e3481613844565b9050919050565b60006020820190508181036000830152613e5481613867565b9050919050565b60006020820190508181036000830152613e74816138ad565b9050919050565b60006020820190508181036000830152613e94816138d0565b9050919050565b60006020820190508181036000830152613eb4816138f3565b9050919050565b60006020820190508181036000830152613ed481613916565b9050919050565b60006020820190508181036000830152613ef481613939565b9050919050565b60006020820190508181036000830152613f148161395c565b9050919050565b60006020820190508181036000830152613f348161397f565b9050919050565b60006020820190508181036000830152613f54816139a2565b9050919050565b60006020820190508181036000830152613f74816139c5565b9050919050565b60006020820190508181036000830152613f94816139e8565b9050919050565b60006020820190508181036000830152613fb481613a0b565b9050919050565b60006020820190508181036000830152613fd481613a2e565b9050919050565b60006020820190508181036000830152613ff481613a51565b9050919050565b6000602082019050818103600083015261401481613a74565b9050919050565b6000602082019050818103600083015261403481613a97565b9050919050565b6000602082019050818103600083015261405481613aba565b9050919050565b6000602082019050818103600083015261407481613add565b9050919050565b6000602082019050818103600083015261409481613b00565b9050919050565b600060208201905081810360008301526140b481613b23565b9050919050565b600060208201905081810360008301526140d481613b46565b9050919050565b600060208201905081810360008301526140f481613b69565b9050919050565b6000602082019050818103600083015261411481613b8c565b9050919050565b6000602082019050818103600083015261413481613baf565b9050919050565b6000602082019050818103600083015261415481613bd2565b9050919050565b6000602082019050818103600083015261417481613bf5565b9050919050565b6000602082019050818103600083015261419481613c18565b9050919050565b600060208201905081810360008301526141b481613c3b565b9050919050565b60006020820190506141d06000830184613c6d565b92915050565b60006141e06141f1565b90506141ec82826144ed565b919050565b6000604051905090565b600067ffffffffffffffff821115614216576142156146e0565b5b61421f82614723565b9050602081019050919050565b600067ffffffffffffffff821115614247576142466146e0565b5b61425082614723565b9050602081019050919050565b6000819050602082019050919050565b600081519050919050565b600081519050919050565b600081519050919050565b6000602082019050919050565b600082825260208201905092915050565b600082825260208201905092915050565b600082825260208201905092915050565b600081905092915050565b60006142e482614462565b91506142ef83614462565b9250827fffffffffffffffffffffffffffffffffffffffffffffffffffffffffffffffff03821115614324576143236145c6565b5b828201905092915050565b600061433a82614462565b915061434583614462565b925082614355576143546145f5565b5b828204905092915050565b600061436b82614462565b915061437683614462565b9250817fffffffffffffffffffffffffffffffffffffffffffffffffffffffffffffffff04831182151516156143af576143ae6145c6565b5b828202905092915050565b60006143c582614462565b91506143d083614462565b9250828210156143e3576143e26145c6565b5b828203905092915050565b60006143f982614442565b9050919050565b60008115159050919050565b6000819050919050565b60007fffffffff0000000000000000000000000000000000000000000000000000000082169050919050565b600073ffffffffffffffffffffffffffffffffffffffff82169050919050565b6000819050919050565b600060ff82169050919050565b82818337600083830152505050565b60005b838110156144a657808201518184015260208101905061448b565b838111156144b5576000848401525b50505050565b600060028204905060018216806144d357607f821691505b602082108114156144e7576144e6614653565b5b50919050565b6144f682614723565b810181811067ffffffffffffffff82111715614515576145146146e0565b5b80604052505050565b600061452982614462565b91507fffffffffffffffffffffffffffffffffffffffffffffffffffffffffffffffff82141561455c5761455b6145c6565b5b600182019050919050565b600061457282614583565b9050919050565b6000819050919050565b600061458e82614734565b9050919050565b60006145a082614462565b91506145ab83614462565b9250826145bb576145ba6145f5565b5b828206905092915050565b7f4e487b7100000000000000000000000000000000000000000000000000000000600052601160045260246000fd5b7f4e487b7100000000000000000000000000000000000000000000000000000000600052601260045260246000fd5b7f4e487b7100000000000000000000000000000000000000000000000000000000600052602160045260246000fd5b7f4e487b7100000000000000000000000000000000000000000000000000000000600052602260045260246000fd5b7f4e487b7100000000000000000000000000000000000000000000000000000000600052603160045260246000fd5b7f4e487b7100000000000000000000000000000000000000000000000000000000600052603260045260246000fd5b7f4e487b7100000000000000000000000000000000000000000000000000000000600052604160045260246000fd5b600080fd5b600080fd5b600080fd5b600080fd5b6000601f19601f8301169050919050565b60008160601b9050919050565b7f45434453413a20696e76616c6964207369676e61747572650000000000000000600082015250565b7f5061757361626c653a206e6f7420706175736564000000000000000000000000600082015250565b7f45434453413a20696e76616c6964207369676e6174757265206c656e67746800600082015250565b7f19457468657265756d205369676e6564204d6573736167653a0a333200000000600082015250565b7f455243373231456e756d657261626c653a206f776e657220696e646578206f7560008201527f74206f6620626f756e6473000000000000000000000000000000000000000000602082015250565b7f4552433732313a207472616e7366657220746f206e6f6e20455243373231526560008201527f63656976657220696d706c656d656e7465720000000000000000000000000000602082015250565b7f4f776e61626c653a206e6577206f776e657220697320746865207a65726f206160008201527f6464726573730000000000000000000000000000000000000000000000000000602082015250565b7f4578636565647320726573657276656420566f6f646f6c6c7a20737570706c79600082015250565b7f4552433732313a20746f6b656e20616c7265616479206d696e74656400000000600082015250565b7f4552433732313a207472616e7366657220746f20746865207a65726f2061646460008201527f7265737300000000000000000000000000000000000000000000000000000000602082015250565b7f4552433732313a20617070726f766520746f2063616c6c657200000000000000600082015250565b7f45746865722076616c75652073656e74206973206e6f7420636f727265637400600082015250565b7f45434453413a20696e76616c6964207369676e6174757265202773272076616c60008201527f7565000000000000000000000000000000000000000000000000000000000000602082015250565b7f4552433732313a206f70657261746f7220717565727920666f72206e6f6e657860008201527f697374656e7420746f6b656e0000000000000000000000000000000000000000602082015250565b7f43616e206f6e6c79206d696e7420323020746f6b656e7320617420612074696d60008201527f6500000000000000000000000000000000000000000000000000000000000000602082015250565b7f4e6f7420617574686f72697a656420746f206d696e7400000000000000000000600082015250565b7f5061757361626c653a2070617573656400000000000000000000000000000000600082015250565b7f4552433732313a20617070726f76652063616c6c6572206973206e6f74206f7760008201527f6e6572206e6f7220617070726f76656420666f7220616c6c0000000000000000602082015250565b7f4552433732313a2062616c616e636520717565727920666f7220746865207a6560008201527f726f206164647265737300000000000000000000000000000000000000000000602082015250565b7f4552433732313a206f776e657220717565727920666f72206e6f6e657869737460008201527f656e7420746f6b656e0000000000000000000000000000000000000000000000602082015250565b7f45434453413a20696e76616c6964207369676e6174757265202776272076616c60008201527f7565000000000000000000000000000000000000000000000000000000000000602082015250565b7f4552433732313a206d696e7420746f20746865207a65726f2061646472657373600082015250565b7f4552433732313a20617070726f76656420717565727920666f72206e6f6e657860008201527f697374656e7420746f6b656e0000000000000000000000000000000000000000602082015250565b7f45786365656473206d6178696d756d20566f6f646f6c6c7a20737570706c7900600082015250565b7f4f776e61626c653a2063616c6c6572206973206e6f7420746865206f776e6572600082015250565b7f4552433732313a207472616e73666572206f6620746f6b656e2074686174206960008201527f73206e6f74206f776e0000000000000000000000000000000000000000000000602082015250565b7f4552433732314d657461646174613a2055524920717565727920666f72206e6f60008201527f6e6578697374656e7420746f6b656e0000000000000000000000000000000000602082015250565b7f4552433732313a20617070726f76616c20746f2063757272656e74206f776e6560008201527f7200000000000000000000000000000000000000000000000000000000000000602082015250565b7f4552433732313a207472616e736665722063616c6c6572206973206e6f74206f60008201527f776e6572206e6f7220617070726f766564000000000000000000000000000000602082015250565b7f455243373231456e756d657261626c653a20676c6f62616c20696e646578206f60008201527f7574206f6620626f756e64730000000000000000000000000000000000000000602082015250565b7f50726573616c6520636c6f736564000000000000000000000000000000000000600082015250565b614ec7816143ee565b8114614ed257600080fd5b50565b614ede81614400565b8114614ee957600080fd5b50565b614ef581614416565b8114614f0057600080fd5b50565b614f0c81614462565b8114614f1757600080fd5b5056fea2646970667358221220c1e34f65756c1c975cd67b8c4b8051417ab3ad5699616d3b34c73c652ba1ceff64736f6c63430008070033",
  "immutableReferences": {},
  "source": "// SPDX-License-Identifier: MIT\npragma solidity ^0.8.0;\n\nimport \"@openzeppelin/contracts/token/ERC721/extensions/ERC721Enumerable.sol\";\nimport \"@openzeppelin/contracts/access/Ownable.sol\";\nimport \"@openzeppelin/contracts/security/Pausable.sol\";\nimport \"@openzeppelin/contracts/utils/cryptography/ECDSA.sol\";\n\nimport \"./Presalable.sol\";\n\ncontract Voodollz is ERC721Enumerable, Ownable, Pausable, Presalable {\n    using ECDSA for bytes32;\n\n    uint256 private _maxTokenCount = 10000;\n    uint256 private _reserved = 400;\n    uint256 public constant price = 0.05 ether;\n\n    string public baseTokenURI;\n\n    constructor(string memory _baseTokenURI) ERC721(\"Voodollz\", \"Voodollz\")  {\n        setBaseURI(_baseTokenURI);\n    }\n\n    function mintVoodollz(uint256 _amount) public payable whenNotPaused {\n        require(_amount <= 20, \"Can only mint 20 tokens at a time\");\n        require(totalSupply() + _amount <= _maxTokenCount - _reserved, \"Exceeds maximum Voodollz supply\");\n        require(msg.value >= price * _amount, \"Ether value sent is not correct\");\n\n        if(presaled()) {\n            address signer = recoverSigner(_msgSender(), _msgData());\n            require(signer == owner(), \"Not authorized to mint\");\n        }\n\n        for(uint256 i = 0; i < _amount; i++) {\n            uint mintIndex = totalSupply() + 1;\n            if (totalSupply() < _maxTokenCount) {\n                _safeMint(msg.sender, mintIndex);\n            }\n        }\n    }\n\n    function _baseURI() internal view virtual override returns (string memory) {\n        return baseTokenURI;\n    }\n\n    function setBaseURI(string memory _baseTokenURI) public onlyOwner {\n        baseTokenURI = _baseTokenURI;\n    }\n\n    function walletOfOwner(address _owner) public view returns(uint256[] memory) {\n        uint256 tokenCount = balanceOf(_owner);\n        uint256[] memory tokensId = new uint256[](tokenCount);\n\n        for(uint256 i; i < tokenCount; i++){\n            tokensId[i] = tokenOfOwnerByIndex(_owner, i);\n        }\n\n        return tokensId;\n    }\n\n    function giveAway(address _to, uint256 _amount) public onlyOwner whenNotPaused {\n        require(_amount <= _reserved, \"Exceeds reserved Voodollz supply\");\n\n        for(uint256 i = 1; i <= _amount; i++) {\n            uint mintIndex = totalSupply() + 1;\n            if (totalSupply() < _maxTokenCount) {\n                _safeMint(_to, mintIndex);\n            }\n        }\n\n        _reserved -= _amount;\n    }\n\n    function recoverSigner(address wallet, bytes memory _signature) public pure returns (address){\n        return keccak256(abi.encodePacked(wallet)).toEthSignedMessageHash().recover(_signature);\n    }\n    \n    function pause() public onlyOwner {\n        _pause();\n    }\n\n    function unpause() public onlyOwner {\n        _unpause();\n    }\n\n    function presale() public onlyOwner {\n        _presale();\n    }\n\n    function unpresale() public onlyOwner {\n        unpresale();\n    }\n}",
  "sourcePath": "/home/doss/projects/voodollz/packages/contract/contracts/Voodollz.sol",
  "compiler": {
    "name": "solc",
    "version": "0.8.7+commit.e28d00a7.Emscripten.clang"
  },
  "schemaVersion": "3.4.3",
  "updatedAt": "2021-10-22T00:39:53.588Z",
  "networkType": "ethereum",
  "devdoc": {
    "kind": "dev",
    "methods": {
      "approve(address,uint256)": {
        "details": "See {IERC721-approve}."
      },
      "balanceOf(address)": {
        "details": "See {IERC721-balanceOf}."
      },
      "getApproved(uint256)": {
        "details": "See {IERC721-getApproved}."
      },
      "isApprovedForAll(address,address)": {
        "details": "See {IERC721-isApprovedForAll}."
      },
      "name()": {
        "details": "See {IERC721Metadata-name}."
      },
      "owner()": {
        "details": "Returns the address of the current owner."
      },
      "ownerOf(uint256)": {
        "details": "See {IERC721-ownerOf}."
      },
      "paused()": {
        "details": "Returns true if the contract is paused, and false otherwise."
      },
      "renounceOwnership()": {
        "details": "Leaves the contract without owner. It will not be possible to call `onlyOwner` functions anymore. Can only be called by the current owner. NOTE: Renouncing ownership will leave the contract without an owner, thereby removing any functionality that is only available to the owner."
      },
      "safeTransferFrom(address,address,uint256)": {
        "details": "See {IERC721-safeTransferFrom}."
      },
      "safeTransferFrom(address,address,uint256,bytes)": {
        "details": "See {IERC721-safeTransferFrom}."
      },
      "setApprovalForAll(address,bool)": {
        "details": "See {IERC721-setApprovalForAll}."
      },
      "supportsInterface(bytes4)": {
        "details": "See {IERC165-supportsInterface}."
      },
      "symbol()": {
        "details": "See {IERC721Metadata-symbol}."
      },
      "tokenByIndex(uint256)": {
        "details": "See {IERC721Enumerable-tokenByIndex}."
      },
      "tokenOfOwnerByIndex(address,uint256)": {
        "details": "See {IERC721Enumerable-tokenOfOwnerByIndex}."
      },
      "tokenURI(uint256)": {
        "details": "See {IERC721Metadata-tokenURI}."
      },
      "totalSupply()": {
        "details": "See {IERC721Enumerable-totalSupply}."
      },
      "transferFrom(address,address,uint256)": {
        "details": "See {IERC721-transferFrom}."
      },
      "transferOwnership(address)": {
        "details": "Transfers ownership of the contract to a new account (`newOwner`). Can only be called by the current owner."
      }
    },
    "version": 1
  },
  "userdoc": {
    "kind": "user",
    "methods": {},
    "version": 1
  }
}