{
  "contractName": "Voodollz",
  "abi": [
    {
      "inputs": [
        {
          "internalType": "string",
          "name": "_baseTokenURI",
          "type": "string"
        }
      ],
      "stateMutability": "nonpayable",
      "type": "constructor"
    },
    {
      "anonymous": false,
      "inputs": [
        {
          "indexed": true,
          "internalType": "address",
          "name": "owner",
          "type": "address"
        },
        {
          "indexed": true,
          "internalType": "address",
          "name": "approved",
          "type": "address"
        },
        {
          "indexed": true,
          "internalType": "uint256",
          "name": "tokenId",
          "type": "uint256"
        }
      ],
      "name": "Approval",
      "type": "event"
    },
    {
      "anonymous": false,
      "inputs": [
        {
          "indexed": true,
          "internalType": "address",
          "name": "owner",
          "type": "address"
        },
        {
          "indexed": true,
          "internalType": "address",
          "name": "operator",
          "type": "address"
        },
        {
          "indexed": false,
          "internalType": "bool",
          "name": "approved",
          "type": "bool"
        }
      ],
      "name": "ApprovalForAll",
      "type": "event"
    },
    {
      "anonymous": false,
      "inputs": [
        {
          "indexed": false,
          "internalType": "address",
          "name": "to",
          "type": "address"
        },
        {
          "indexed": false,
          "internalType": "uint256",
          "name": "amount",
          "type": "uint256"
        }
      ],
      "name": "EthClaimed",
      "type": "event"
    },
    {
      "anonymous": false,
      "inputs": [
        {
          "indexed": false,
          "internalType": "uint256",
          "name": "amount",
          "type": "uint256"
        }
      ],
      "name": "EthDeposited",
      "type": "event"
    },
    {
      "anonymous": false,
      "inputs": [
        {
          "indexed": true,
          "internalType": "address",
          "name": "previousOwner",
          "type": "address"
        },
        {
          "indexed": true,
          "internalType": "address",
          "name": "newOwner",
          "type": "address"
        }
      ],
      "name": "OwnershipTransferred",
      "type": "event"
    },
    {
      "anonymous": false,
      "inputs": [
        {
          "indexed": false,
          "internalType": "address",
          "name": "account",
          "type": "address"
        }
      ],
      "name": "Paused",
      "type": "event"
    },
    {
      "anonymous": false,
      "inputs": [
        {
          "indexed": false,
          "internalType": "address",
          "name": "account",
          "type": "address"
        }
      ],
      "name": "Presaled",
      "type": "event"
    },
    {
      "anonymous": false,
      "inputs": [
        {
          "indexed": true,
          "internalType": "address",
          "name": "from",
          "type": "address"
        },
        {
          "indexed": true,
          "internalType": "address",
          "name": "to",
          "type": "address"
        },
        {
          "indexed": true,
          "internalType": "uint256",
          "name": "tokenId",
          "type": "uint256"
        }
      ],
      "name": "Transfer",
      "type": "event"
    },
    {
      "anonymous": false,
      "inputs": [
        {
          "indexed": false,
          "internalType": "address",
          "name": "account",
          "type": "address"
        }
      ],
      "name": "Unpaused",
      "type": "event"
    },
    {
      "anonymous": false,
      "inputs": [
        {
          "indexed": false,
          "internalType": "address",
          "name": "account",
          "type": "address"
        }
      ],
      "name": "Unpresaled",
      "type": "event"
    },
    {
      "inputs": [],
      "name": "MAX_TOKEN_COUNT",
      "outputs": [
        {
          "internalType": "uint256",
          "name": "",
          "type": "uint256"
        }
      ],
      "stateMutability": "view",
      "type": "function",
      "constant": true
    },
    {
      "inputs": [],
      "name": "PRICE",
      "outputs": [
        {
          "internalType": "uint256",
          "name": "",
          "type": "uint256"
        }
      ],
      "stateMutability": "view",
      "type": "function",
      "constant": true
    },
    {
      "inputs": [
        {
          "internalType": "address",
          "name": "to",
          "type": "address"
        },
        {
          "internalType": "uint256",
          "name": "tokenId",
          "type": "uint256"
        }
      ],
      "name": "approve",
      "outputs": [],
      "stateMutability": "nonpayable",
      "type": "function"
    },
    {
      "inputs": [
        {
          "internalType": "address",
          "name": "owner",
          "type": "address"
        }
      ],
      "name": "balanceOf",
      "outputs": [
        {
          "internalType": "uint256",
          "name": "",
          "type": "uint256"
        }
      ],
      "stateMutability": "view",
      "type": "function",
      "constant": true
    },
    {
      "inputs": [],
      "name": "baseTokenURI",
      "outputs": [
        {
          "internalType": "string",
          "name": "",
          "type": "string"
        }
      ],
      "stateMutability": "view",
      "type": "function",
      "constant": true
    },
    {
      "inputs": [
        {
          "internalType": "uint256",
          "name": "tokenId",
          "type": "uint256"
        }
      ],
      "name": "getApproved",
      "outputs": [
        {
          "internalType": "address",
          "name": "",
          "type": "address"
        }
      ],
      "stateMutability": "view",
      "type": "function",
      "constant": true
    },
    {
      "inputs": [
        {
          "internalType": "address",
          "name": "owner",
          "type": "address"
        },
        {
          "internalType": "address",
          "name": "operator",
          "type": "address"
        }
      ],
      "name": "isApprovedForAll",
      "outputs": [
        {
          "internalType": "bool",
          "name": "",
          "type": "bool"
        }
      ],
      "stateMutability": "view",
      "type": "function",
      "constant": true
    },
    {
      "inputs": [],
      "name": "name",
      "outputs": [
        {
          "internalType": "string",
          "name": "",
          "type": "string"
        }
      ],
      "stateMutability": "view",
      "type": "function",
      "constant": true
    },
    {
      "inputs": [],
      "name": "owner",
      "outputs": [
        {
          "internalType": "address",
          "name": "",
          "type": "address"
        }
      ],
      "stateMutability": "view",
      "type": "function",
      "constant": true
    },
    {
      "inputs": [
        {
          "internalType": "uint256",
          "name": "tokenId",
          "type": "uint256"
        }
      ],
      "name": "ownerOf",
      "outputs": [
        {
          "internalType": "address",
          "name": "",
          "type": "address"
        }
      ],
      "stateMutability": "view",
      "type": "function",
      "constant": true
    },
    {
      "inputs": [],
      "name": "paused",
      "outputs": [
        {
          "internalType": "bool",
          "name": "",
          "type": "bool"
        }
      ],
      "stateMutability": "view",
      "type": "function",
      "constant": true
    },
    {
      "inputs": [],
      "name": "presaled",
      "outputs": [
        {
          "internalType": "bool",
          "name": "",
          "type": "bool"
        }
      ],
      "stateMutability": "view",
      "type": "function",
      "constant": true
    },
    {
      "inputs": [],
      "name": "renounceOwnership",
      "outputs": [],
      "stateMutability": "nonpayable",
      "type": "function"
    },
    {
      "inputs": [
        {
          "internalType": "address",
          "name": "from",
          "type": "address"
        },
        {
          "internalType": "address",
          "name": "to",
          "type": "address"
        },
        {
          "internalType": "uint256",
          "name": "tokenId",
          "type": "uint256"
        }
      ],
      "name": "safeTransferFrom",
      "outputs": [],
      "stateMutability": "nonpayable",
      "type": "function"
    },
    {
      "inputs": [
        {
          "internalType": "address",
          "name": "from",
          "type": "address"
        },
        {
          "internalType": "address",
          "name": "to",
          "type": "address"
        },
        {
          "internalType": "uint256",
          "name": "tokenId",
          "type": "uint256"
        },
        {
          "internalType": "bytes",
          "name": "_data",
          "type": "bytes"
        }
      ],
      "name": "safeTransferFrom",
      "outputs": [],
      "stateMutability": "nonpayable",
      "type": "function"
    },
    {
      "inputs": [
        {
          "internalType": "address",
          "name": "operator",
          "type": "address"
        },
        {
          "internalType": "bool",
          "name": "approved",
          "type": "bool"
        }
      ],
      "name": "setApprovalForAll",
      "outputs": [],
      "stateMutability": "nonpayable",
      "type": "function"
    },
    {
      "inputs": [
        {
          "internalType": "bytes4",
          "name": "interfaceId",
          "type": "bytes4"
        }
      ],
      "name": "supportsInterface",
      "outputs": [
        {
          "internalType": "bool",
          "name": "",
          "type": "bool"
        }
      ],
      "stateMutability": "view",
      "type": "function",
      "constant": true
    },
    {
      "inputs": [],
      "name": "symbol",
      "outputs": [
        {
          "internalType": "string",
          "name": "",
          "type": "string"
        }
      ],
      "stateMutability": "view",
      "type": "function",
      "constant": true
    },
    {
      "inputs": [
        {
          "internalType": "uint256",
          "name": "index",
          "type": "uint256"
        }
      ],
      "name": "tokenByIndex",
      "outputs": [
        {
          "internalType": "uint256",
          "name": "",
          "type": "uint256"
        }
      ],
      "stateMutability": "view",
      "type": "function",
      "constant": true
    },
    {
      "inputs": [
        {
          "internalType": "address",
          "name": "owner",
          "type": "address"
        },
        {
          "internalType": "uint256",
          "name": "index",
          "type": "uint256"
        }
      ],
      "name": "tokenOfOwnerByIndex",
      "outputs": [
        {
          "internalType": "uint256",
          "name": "",
          "type": "uint256"
        }
      ],
      "stateMutability": "view",
      "type": "function",
      "constant": true
    },
    {
      "inputs": [
        {
          "internalType": "uint256",
          "name": "tokenId",
          "type": "uint256"
        }
      ],
      "name": "tokenURI",
      "outputs": [
        {
          "internalType": "string",
          "name": "",
          "type": "string"
        }
      ],
      "stateMutability": "view",
      "type": "function",
      "constant": true
    },
    {
      "inputs": [],
      "name": "totalSupply",
      "outputs": [
        {
          "internalType": "uint256",
          "name": "",
          "type": "uint256"
        }
      ],
      "stateMutability": "view",
      "type": "function",
      "constant": true
    },
    {
      "inputs": [
        {
          "internalType": "address",
          "name": "from",
          "type": "address"
        },
        {
          "internalType": "address",
          "name": "to",
          "type": "address"
        },
        {
          "internalType": "uint256",
          "name": "tokenId",
          "type": "uint256"
        }
      ],
      "name": "transferFrom",
      "outputs": [],
      "stateMutability": "nonpayable",
      "type": "function"
    },
    {
      "inputs": [
        {
          "internalType": "address",
          "name": "newOwner",
          "type": "address"
        }
      ],
      "name": "transferOwnership",
      "outputs": [],
      "stateMutability": "nonpayable",
      "type": "function"
    },
    {
      "inputs": [
        {
          "internalType": "uint256",
          "name": "_amount",
          "type": "uint256"
        }
      ],
      "name": "mint",
      "outputs": [],
      "stateMutability": "payable",
      "type": "function",
      "payable": true
    },
    {
      "inputs": [
        {
          "internalType": "uint256",
          "name": "_amount",
          "type": "uint256"
        },
        {
          "internalType": "bytes",
          "name": "_signature",
          "type": "bytes"
        }
      ],
      "name": "presaleMint",
      "outputs": [],
      "stateMutability": "payable",
      "type": "function",
      "payable": true
    },
    {
      "inputs": [
        {
          "internalType": "address",
          "name": "_wallet",
          "type": "address"
        },
        {
          "internalType": "bytes",
          "name": "_signature",
          "type": "bytes"
        }
      ],
      "name": "recoverSigner",
      "outputs": [
        {
          "internalType": "address",
          "name": "",
          "type": "address"
        }
      ],
      "stateMutability": "pure",
      "type": "function",
      "constant": true
    },
    {
      "inputs": [
        {
          "internalType": "address",
          "name": "_to",
          "type": "address"
        },
        {
          "internalType": "uint256",
          "name": "_amount",
          "type": "uint256"
        }
      ],
      "name": "giveAway",
      "outputs": [],
      "stateMutability": "nonpayable",
      "type": "function"
    },
    {
      "inputs": [],
      "name": "deposit",
      "outputs": [],
      "stateMutability": "payable",
      "type": "function",
      "payable": true
    },
    {
      "inputs": [
        {
          "internalType": "address",
          "name": "owner",
          "type": "address"
        }
      ],
      "name": "claimableBalance",
      "outputs": [
        {
          "internalType": "uint256",
          "name": "",
          "type": "uint256"
        }
      ],
      "stateMutability": "view",
      "type": "function",
      "constant": true
    },
    {
      "inputs": [],
      "name": "claim",
      "outputs": [],
      "stateMutability": "nonpayable",
      "type": "function"
    },
    {
      "inputs": [
        {
          "internalType": "string",
          "name": "_baseTokenURI",
          "type": "string"
        }
      ],
      "name": "setBaseURI",
      "outputs": [],
      "stateMutability": "nonpayable",
      "type": "function"
    },
    {
      "inputs": [],
      "name": "pause",
      "outputs": [],
      "stateMutability": "nonpayable",
      "type": "function"
    },
    {
      "inputs": [],
      "name": "unpause",
      "outputs": [],
      "stateMutability": "nonpayable",
      "type": "function"
    },
    {
      "inputs": [],
      "name": "presale",
      "outputs": [],
      "stateMutability": "nonpayable",
      "type": "function"
    },
    {
      "inputs": [],
      "name": "unpresale",
      "outputs": [],
      "stateMutability": "nonpayable",
      "type": "function"
    }
  ],
  "bytecode": "0x6080604052610190600b553480156200001757600080fd5b5060405162005d0638038062005d0683398181016040528101906200003d919062000689565b6040518060400160405280600881526020017f566f6f646f6c6c7a0000000000000000000000000000000000000000000000008152506040518060400160405280600881526020017f566f6f646f6c6c7a0000000000000000000000000000000000000000000000008152508160009080519060200190620000c19291906200043c565b508060019080519060200190620000da9291906200043c565b505050620000fd620000f16200014060201b60201c565b6200014860201b60201c565b6000600a60146101000a81548160ff02191690831515021790555062000129816200020e60201b60201c565b62000139620002b960201b60201c565b5062000896565b600033905090565b6000600a60009054906101000a900473ffffffffffffffffffffffffffffffffffffffff16905081600a60006101000a81548173ffffffffffffffffffffffffffffffffffffffff021916908373ffffffffffffffffffffffffffffffffffffffff1602179055508173ffffffffffffffffffffffffffffffffffffffff168173ffffffffffffffffffffffffffffffffffffffff167f8be0079c531659141344cd1fd0a4f28419497f9722a3daafe3b4186f6b6457e060405160405180910390a35050565b6200021e6200014060201b60201c565b73ffffffffffffffffffffffffffffffffffffffff16620002446200035a60201b60201c565b73ffffffffffffffffffffffffffffffffffffffff16146200029d576040517f08c379a000000000000000000000000000000000000000000000000000000000815260040162000294906200073b565b60405180910390fd5b80600d9080519060200190620002b59291906200043c565b5050565b620002c96200014060201b60201c565b73ffffffffffffffffffffffffffffffffffffffff16620002ef6200035a60201b60201c565b73ffffffffffffffffffffffffffffffffffffffff161462000348576040517f08c379a00000000000000000000000000000000000000000000000000000000081526004016200033f906200073b565b60405180910390fd5b620003586200038460201b60201c565b565b6000600a60009054906101000a900473ffffffffffffffffffffffffffffffffffffffff16905090565b600a60159054906101000a900460ff1615620003d7576040517f08c379a0000000000000000000000000000000000000000000000000000000008152600401620003ce90620007ad565b60405180910390fd5b6001600a60156101000a81548160ff0219169083151502179055507fb1412a7cd96bc4195d633c938189c320dcbeb2cff60c1b8bdd872678fb3514b4620004236200014060201b60201c565b60405162000432919062000814565b60405180910390a1565b8280546200044a9062000860565b90600052602060002090601f0160209004810192826200046e5760008555620004ba565b82601f106200048957805160ff1916838001178555620004ba565b82800160010185558215620004ba579182015b82811115620004b95782518255916020019190600101906200049c565b5b509050620004c99190620004cd565b5090565b5b80821115620004e8576000816000905550600101620004ce565b5090565b6000604051905090565b600080fd5b600080fd5b600080fd5b600080fd5b6000601f19601f8301169050919050565b7f4e487b7100000000000000000000000000000000000000000000000000000000600052604160045260246000fd5b62000555826200050a565b810181811067ffffffffffffffff821117156200057757620005766200051b565b5b80604052505050565b60006200058c620004ec565b90506200059a82826200054a565b919050565b600067ffffffffffffffff821115620005bd57620005bc6200051b565b5b620005c8826200050a565b9050602081019050919050565b60005b83811015620005f5578082015181840152602081019050620005d8565b8381111562000605576000848401525b50505050565b6000620006226200061c846200059f565b62000580565b90508281526020810184848401111562000641576200064062000505565b5b6200064e848285620005d5565b509392505050565b600082601f8301126200066e576200066d62000500565b5b8151620006808482602086016200060b565b91505092915050565b600060208284031215620006a257620006a1620004f6565b5b600082015167ffffffffffffffff811115620006c357620006c2620004fb565b5b620006d18482850162000656565b91505092915050565b600082825260208201905092915050565b7f4f776e61626c653a2063616c6c6572206973206e6f7420746865206f776e6572600082015250565b600062000723602083620006da565b91506200073082620006eb565b602082019050919050565b60006020820190508181036000830152620007568162000714565b9050919050565b7f50726573616c6520636c6f736564000000000000000000000000000000000000600082015250565b600062000795600e83620006da565b9150620007a2826200075d565b602082019050919050565b60006020820190508181036000830152620007c88162000786565b9050919050565b600073ffffffffffffffffffffffffffffffffffffffff82169050919050565b6000620007fc82620007cf565b9050919050565b6200080e81620007ef565b82525050565b60006020820190506200082b600083018462000803565b92915050565b7f4e487b7100000000000000000000000000000000000000000000000000000000600052602260045260246000fd5b600060028204905060018216806200087957607f821691505b6020821081141562000890576200088f62000831565b5b50919050565b61546080620008a66000396000f3fe60806040526004361061020f5760003560e01c80638456cb5911610118578063ca800144116100a0578063e53e3a041161006f578063e53e3a0414610737578063e985e9c514610774578063f2fde38b146107b1578063fd24a854146107da578063fdea8e0b146107f65761020f565b8063ca800144146106ae578063d0bbb0d7146106d7578063d0e30db014610702578063d547cfb71461070c5761020f565b806395d89b41116100e757806395d89b41146105d8578063a0712d6814610603578063a22cb4651461061f578063b88d4fde14610648578063c87b56dd146106715761020f565b80638456cb5914610554578063854938531461056b5780638d859f3e146105825780638da5cb5b146105ad5761020f565b80634cb2f9ea1161019b5780635c975abb1161016a5780635c975abb1461045b57806360f3309b146104865780636352211e146104c357806370a0823114610500578063715018a61461053d5761020f565b80634cb2f9ea146103b35780634e71d92d146103de5780634f6ccce7146103f557806355f804b3146104325761020f565b806318160ddd116101e257806318160ddd146102e257806323b872dd1461030d5780632f745c59146103365780633f4ba83a1461037357806342842e0e1461038a5761020f565b806301ffc9a71461021457806306fdde0314610251578063081812fc1461027c578063095ea7b3146102b9575b600080fd5b34801561022057600080fd5b5061023b60048036038101906102369190613708565b61080d565b6040516102489190613750565b60405180910390f35b34801561025d57600080fd5b50610266610887565b6040516102739190613804565b60405180910390f35b34801561028857600080fd5b506102a3600480360381019061029e919061385c565b610919565b6040516102b091906138ca565b60405180910390f35b3480156102c557600080fd5b506102e060048036038101906102db9190613911565b61099e565b005b3480156102ee57600080fd5b506102f7610ab6565b6040516103049190613960565b60405180910390f35b34801561031957600080fd5b50610334600480360381019061032f919061397b565b610ac3565b005b34801561034257600080fd5b5061035d60048036038101906103589190613911565b610b23565b60405161036a9190613960565b60405180910390f35b34801561037f57600080fd5b50610388610bc8565b005b34801561039657600080fd5b506103b160048036038101906103ac919061397b565b610c4e565b005b3480156103bf57600080fd5b506103c8610c6e565b6040516103d59190613750565b60405180910390f35b3480156103ea57600080fd5b506103f3610c85565b005b34801561040157600080fd5b5061041c6004803603810190610417919061385c565b610db9565b6040516104299190613960565b60405180910390f35b34801561043e57600080fd5b5061045960048036038101906104549190613b03565b610e2a565b005b34801561046757600080fd5b50610470610ec0565b60405161047d9190613750565b60405180910390f35b34801561049257600080fd5b506104ad60048036038101906104a89190613b4c565b610ed7565b6040516104ba9190613960565b60405180910390f35b3480156104cf57600080fd5b506104ea60048036038101906104e5919061385c565b610f3e565b6040516104f791906138ca565b60405180910390f35b34801561050c57600080fd5b5061052760048036038101906105229190613b4c565b610ff0565b6040516105349190613960565b60405180910390f35b34801561054957600080fd5b506105526110a8565b005b34801561056057600080fd5b50610569611130565b005b34801561057757600080fd5b506105806111b6565b005b34801561058e57600080fd5b5061059761123c565b6040516105a49190613960565b60405180910390f35b3480156105b957600080fd5b506105c2611247565b6040516105cf91906138ca565b60405180910390f35b3480156105e457600080fd5b506105ed611271565b6040516105fa9190613804565b60405180910390f35b61061d6004803603810190610618919061385c565b611303565b005b34801561062b57600080fd5b5061064660048036038101906106419190613ba5565b61135f565b005b34801561065457600080fd5b5061066f600480360381019061066a9190613c86565b6114e0565b005b34801561067d57600080fd5b506106986004803603810190610693919061385c565b611542565b6040516106a59190613804565b60405180910390f35b3480156106ba57600080fd5b506106d560048036038101906106d09190613911565b6115e9565b005b3480156106e357600080fd5b506106ec611766565b6040516106f99190613960565b60405180910390f35b61070a61176c565b005b34801561071857600080fd5b50610721611916565b60405161072e9190613804565b60405180910390f35b34801561074357600080fd5b5061075e60048036038101906107599190613d09565b6119a4565b60405161076b91906138ca565b60405180910390f35b34801561078057600080fd5b5061079b60048036038101906107969190613d65565b6119ef565b6040516107a89190613750565b60405180910390f35b3480156107bd57600080fd5b506107d860048036038101906107d39190613b4c565b611a83565b005b6107f460048036038101906107ef9190613da5565b611b7b565b005b34801561080257600080fd5b5061080b611c5b565b005b60007f780e9d63000000000000000000000000000000000000000000000000000000007bffffffffffffffffffffffffffffffffffffffffffffffffffffffff1916827bffffffffffffffffffffffffffffffffffffffffffffffffffffffff19161480610880575061087f82611ce1565b5b9050919050565b60606000805461089690613e30565b80601f01602080910402602001604051908101604052809291908181526020018280546108c290613e30565b801561090f5780601f106108e45761010080835404028352916020019161090f565b820191906000526020600020905b8154815290600101906020018083116108f257829003601f168201915b5050505050905090565b600061092482611dc3565b610963576040517f08c379a000000000000000000000000000000000000000000000000000000000815260040161095a90613ed4565b60405180910390fd5b6004600083815260200190815260200160002060009054906101000a900473ffffffffffffffffffffffffffffffffffffffff169050919050565b60006109a982610f3e565b90508073ffffffffffffffffffffffffffffffffffffffff168373ffffffffffffffffffffffffffffffffffffffff161415610a1a576040517f08c379a0000000000000000000000000000000000000000000000000000000008152600401610a1190613f66565b60405180910390fd5b8073ffffffffffffffffffffffffffffffffffffffff16610a39611e2f565b73ffffffffffffffffffffffffffffffffffffffff161480610a685750610a6781610a62611e2f565b6119ef565b5b610aa7576040517f08c379a0000000000000000000000000000000000000000000000000000000008152600401610a9e90613ff8565b60405180910390fd5b610ab18383611e37565b505050565b6000600880549050905090565b610ad4610ace611e2f565b82611ef0565b610b13576040517f08c379a0000000000000000000000000000000000000000000000000000000008152600401610b0a9061408a565b60405180910390fd5b610b1e838383611fce565b505050565b6000610b2e83610ff0565b8210610b6f576040517f08c379a0000000000000000000000000000000000000000000000000000000008152600401610b669061411c565b60405180910390fd5b600660008473ffffffffffffffffffffffffffffffffffffffff1673ffffffffffffffffffffffffffffffffffffffff168152602001908152602001600020600083815260200190815260200160002054905092915050565b610bd0611e2f565b73ffffffffffffffffffffffffffffffffffffffff16610bee611247565b73ffffffffffffffffffffffffffffffffffffffff1614610c44576040517f08c379a0000000000000000000000000000000000000000000000000000000008152600401610c3b90614188565b60405180910390fd5b610c4c61222a565b565b610c69838383604051806020016040528060008152506114e0565b505050565b6000600a60159054906101000a900460ff16905090565b600080610c9133610ff0565b905060005b81811015610cfa576000610caa3383610b23565b9050600c60008281526020019081526020016000205484610ccb91906141d7565b93506000600c600083815260200190815260200160002081905550508080610cf29061422d565b915050610c96565b5060008211610d3e576040517f08c379a0000000000000000000000000000000000000000000000000000000008152600401610d35906142c2565b60405180910390fd5b3373ffffffffffffffffffffffffffffffffffffffff166108fc839081150290604051600060405180830381858888f19350505050610d7c57600080fd5b7f0d7976053781e071cecf47e898ad2a6dc87621ca33734e96eb4b92453319e8c93383604051610dad9291906142e2565b60405180910390a15050565b6000610dc3610ab6565b8210610e04576040517f08c379a0000000000000000000000000000000000000000000000000000000008152600401610dfb9061437d565b60405180910390fd5b60088281548110610e1857610e1761439d565b5b90600052602060002001549050919050565b610e32611e2f565b73ffffffffffffffffffffffffffffffffffffffff16610e50611247565b73ffffffffffffffffffffffffffffffffffffffff1614610ea6576040517f08c379a0000000000000000000000000000000000000000000000000000000008152600401610e9d90614188565b60405180910390fd5b80600d9080519060200190610ebc9291906135f9565b5050565b6000600a60149054906101000a900460ff16905090565b600080600090506000610ee984610ff0565b905060005b81811015610f3357600c6000610f048784610b23565b81526020019081526020016000205483610f1e91906141d7565b92508080610f2b9061422d565b915050610eee565b508192505050919050565b6000806002600084815260200190815260200160002060009054906101000a900473ffffffffffffffffffffffffffffffffffffffff169050600073ffffffffffffffffffffffffffffffffffffffff168173ffffffffffffffffffffffffffffffffffffffff161415610fe7576040517f08c379a0000000000000000000000000000000000000000000000000000000008152600401610fde9061443e565b60405180910390fd5b80915050919050565b60008073ffffffffffffffffffffffffffffffffffffffff168273ffffffffffffffffffffffffffffffffffffffff161415611061576040517f08c379a0000000000000000000000000000000000000000000000000000000008152600401611058906144d0565b60405180910390fd5b600360008373ffffffffffffffffffffffffffffffffffffffff1673ffffffffffffffffffffffffffffffffffffffff168152602001908152602001600020549050919050565b6110b0611e2f565b73ffffffffffffffffffffffffffffffffffffffff166110ce611247565b73ffffffffffffffffffffffffffffffffffffffff1614611124576040517f08c379a000000000000000000000000000000000000000000000000000000000815260040161111b90614188565b60405180910390fd5b61112e60006122cc565b565b611138611e2f565b73ffffffffffffffffffffffffffffffffffffffff16611156611247565b73ffffffffffffffffffffffffffffffffffffffff16146111ac576040517f08c379a00000000000000000000000000000000000000000000000000000000081526004016111a390614188565b60405180910390fd5b6111b4612392565b565b6111be611e2f565b73ffffffffffffffffffffffffffffffffffffffff166111dc611247565b73ffffffffffffffffffffffffffffffffffffffff1614611232576040517f08c379a000000000000000000000000000000000000000000000000000000000815260040161122990614188565b60405180910390fd5b61123a612435565b565b66b1a2bc2ec5000081565b6000600a60009054906101000a900473ffffffffffffffffffffffffffffffffffffffff16905090565b60606001805461128090613e30565b80601f01602080910402602001604051908101604052809291908181526020018280546112ac90613e30565b80156112f95780601f106112ce576101008083540402835291602001916112f9565b820191906000526020600020905b8154815290600101906020018083116112dc57829003601f168201915b5050505050905090565b600a60159054906101000a900460ff1615611353576040517f08c379a000000000000000000000000000000000000000000000000000000000815260040161134a9061453c565b60405180910390fd5b61135c816124df565b50565b611367611e2f565b73ffffffffffffffffffffffffffffffffffffffff168273ffffffffffffffffffffffffffffffffffffffff1614156113d5576040517f08c379a00000000000000000000000000000000000000000000000000000000081526004016113cc906145a8565b60405180910390fd5b80600560006113e2611e2f565b73ffffffffffffffffffffffffffffffffffffffff1673ffffffffffffffffffffffffffffffffffffffff16815260200190815260200160002060008473ffffffffffffffffffffffffffffffffffffffff1673ffffffffffffffffffffffffffffffffffffffff16815260200190815260200160002060006101000a81548160ff0219169083151502179055508173ffffffffffffffffffffffffffffffffffffffff1661148f611e2f565b73ffffffffffffffffffffffffffffffffffffffff167f17307eab39ab6107e8899845ad3d59bd9653f200f220920489ca2b5937696c31836040516114d49190613750565b60405180910390a35050565b6114f16114eb611e2f565b83611ef0565b611530576040517f08c379a00000000000000000000000000000000000000000000000000000000081526004016115279061408a565b60405180910390fd5b61153c8484848461267b565b50505050565b606061154d82611dc3565b61158c576040517f08c379a00000000000000000000000000000000000000000000000000000000081526004016115839061463a565b60405180910390fd5b60006115966126d7565b905060008151116115b657604051806020016040528060008152506115e1565b806115c084612769565b6040516020016115d1929190614696565b6040516020818303038152906040525b915050919050565b6115f1611e2f565b73ffffffffffffffffffffffffffffffffffffffff1661160f611247565b73ffffffffffffffffffffffffffffffffffffffff1614611665576040517f08c379a000000000000000000000000000000000000000000000000000000000815260040161165c90614188565b60405180910390fd5b61166d610ec0565b156116ad576040517f08c379a00000000000000000000000000000000000000000000000000000000081526004016116a490614706565b60405180910390fd5b600b548111156116f2576040517f08c379a00000000000000000000000000000000000000000000000000000000081526004016116e990614772565b60405180910390fd5b6000600190505b818111611748576000600161170c610ab6565b61171691906141d7565b9050612710611723610ab6565b10156117345761173384826128ca565b5b5080806117409061422d565b9150506116f9565b5080600b600082825461175b9190614792565b925050819055505050565b61271081565b611774611e2f565b73ffffffffffffffffffffffffffffffffffffffff16611792611247565b73ffffffffffffffffffffffffffffffffffffffff16146117e8576040517f08c379a00000000000000000000000000000000000000000000000000000000081526004016117df90614188565b60405180910390fd5b60006117f2610ab6565b905060008111611837576040517f08c379a000000000000000000000000000000000000000000000000000000000815260040161182e90614812565b60405180910390fd5b6000341161187a576040517f08c379a00000000000000000000000000000000000000000000000000000000081526004016118719061487e565b60405180910390fd5b6000813461188891906148cd565b905060005b828110156118da5781600c60006118a384610db9565b815260200190815260200160002060008282546118c091906141d7565b9250508190555080806118d29061422d565b91505061188d565b507f44863bc9b335caf97ca3a3ab6fb67776965a88292ed53b0679f8eae4a67b630c3460405161190a9190613960565b60405180910390a15050565b600d805461192390613e30565b80601f016020809104026020016040519081016040528092919081815260200182805461194f90613e30565b801561199c5780601f106119715761010080835404028352916020019161199c565b820191906000526020600020905b81548152906001019060200180831161197f57829003601f168201915b505050505081565b60006119e7826119d9856040516020016119be9190614946565b604051602081830303815290604052805190602001206128e8565b61291890919063ffffffff16565b905092915050565b6000600560008473ffffffffffffffffffffffffffffffffffffffff1673ffffffffffffffffffffffffffffffffffffffff16815260200190815260200160002060008373ffffffffffffffffffffffffffffffffffffffff1673ffffffffffffffffffffffffffffffffffffffff16815260200190815260200160002060009054906101000a900460ff16905092915050565b611a8b611e2f565b73ffffffffffffffffffffffffffffffffffffffff16611aa9611247565b73ffffffffffffffffffffffffffffffffffffffff1614611aff576040517f08c379a0000000000000000000000000000000000000000000000000000000008152600401611af690614188565b60405180910390fd5b600073ffffffffffffffffffffffffffffffffffffffff168173ffffffffffffffffffffffffffffffffffffffff161415611b6f576040517f08c379a0000000000000000000000000000000000000000000000000000000008152600401611b66906149d3565b60405180910390fd5b611b78816122cc565b50565b600a60159054906101000a900460ff16611bca576040517f08c379a0000000000000000000000000000000000000000000000000000000008152600401611bc190614a3f565b60405180910390fd5b6000611bd633836119a4565b9050611be0611247565b73ffffffffffffffffffffffffffffffffffffffff168173ffffffffffffffffffffffffffffffffffffffff1614611c4d576040517f08c379a0000000000000000000000000000000000000000000000000000000008152600401611c4490614aab565b60405180910390fd5b611c56836124df565b505050565b611c63611e2f565b73ffffffffffffffffffffffffffffffffffffffff16611c81611247565b73ffffffffffffffffffffffffffffffffffffffff1614611cd7576040517f08c379a0000000000000000000000000000000000000000000000000000000008152600401611cce90614188565b60405180910390fd5b611cdf61293f565b565b60007f80ac58cd000000000000000000000000000000000000000000000000000000007bffffffffffffffffffffffffffffffffffffffffffffffffffffffff1916827bffffffffffffffffffffffffffffffffffffffffffffffffffffffff19161480611dac57507f5b5e139f000000000000000000000000000000000000000000000000000000007bffffffffffffffffffffffffffffffffffffffffffffffffffffffff1916827bffffffffffffffffffffffffffffffffffffffffffffffffffffffff1916145b80611dbc5750611dbb826129ea565b5b9050919050565b60008073ffffffffffffffffffffffffffffffffffffffff166002600084815260200190815260200160002060009054906101000a900473ffffffffffffffffffffffffffffffffffffffff1673ffffffffffffffffffffffffffffffffffffffff1614159050919050565b600033905090565b816004600083815260200190815260200160002060006101000a81548173ffffffffffffffffffffffffffffffffffffffff021916908373ffffffffffffffffffffffffffffffffffffffff160217905550808273ffffffffffffffffffffffffffffffffffffffff16611eaa83610f3e565b73ffffffffffffffffffffffffffffffffffffffff167f8c5be1e5ebec7d5bd14f71427d1e84f3dd0314c0f7b2291e5b200ac8c7c3b92560405160405180910390a45050565b6000611efb82611dc3565b611f3a576040517f08c379a0000000000000000000000000000000000000000000000000000000008152600401611f3190614b3d565b60405180910390fd5b6000611f4583610f3e565b90508073ffffffffffffffffffffffffffffffffffffffff168473ffffffffffffffffffffffffffffffffffffffff161480611fb457508373ffffffffffffffffffffffffffffffffffffffff16611f9c84610919565b73ffffffffffffffffffffffffffffffffffffffff16145b80611fc55750611fc481856119ef565b5b91505092915050565b8273ffffffffffffffffffffffffffffffffffffffff16611fee82610f3e565b73ffffffffffffffffffffffffffffffffffffffff1614612044576040517f08c379a000000000000000000000000000000000000000000000000000000000815260040161203b90614bcf565b60405180910390fd5b600073ffffffffffffffffffffffffffffffffffffffff168273ffffffffffffffffffffffffffffffffffffffff1614156120b4576040517f08c379a00000000000000000000000000000000000000000000000000000000081526004016120ab90614c61565b60405180910390fd5b6120bf838383612a54565b6120ca600082611e37565b6001600360008573ffffffffffffffffffffffffffffffffffffffff1673ffffffffffffffffffffffffffffffffffffffff168152602001908152602001600020600082825461211a9190614792565b925050819055506001600360008473ffffffffffffffffffffffffffffffffffffffff1673ffffffffffffffffffffffffffffffffffffffff168152602001908152602001600020600082825461217191906141d7565b92505081905550816002600083815260200190815260200160002060006101000a81548173ffffffffffffffffffffffffffffffffffffffff021916908373ffffffffffffffffffffffffffffffffffffffff160217905550808273ffffffffffffffffffffffffffffffffffffffff168473ffffffffffffffffffffffffffffffffffffffff167fddf252ad1be2c89b69c2b068fc378daa952ba7f163c4a11628f55a4df523b3ef60405160405180910390a4505050565b612232610ec0565b612271576040517f08c379a000000000000000000000000000000000000000000000000000000000815260040161226890614ccd565b60405180910390fd5b6000600a60146101000a81548160ff0219169083151502179055507f5db9ee0a495bf2e6ff9c91a7834c1ba4fdd244a5e8aa4e537bd38aeae4b073aa6122b5611e2f565b6040516122c291906138ca565b60405180910390a1565b6000600a60009054906101000a900473ffffffffffffffffffffffffffffffffffffffff16905081600a60006101000a81548173ffffffffffffffffffffffffffffffffffffffff021916908373ffffffffffffffffffffffffffffffffffffffff1602179055508173ffffffffffffffffffffffffffffffffffffffff168173ffffffffffffffffffffffffffffffffffffffff167f8be0079c531659141344cd1fd0a4f28419497f9722a3daafe3b4186f6b6457e060405160405180910390a35050565b61239a610ec0565b156123da576040517f08c379a00000000000000000000000000000000000000000000000000000000081526004016123d190614706565b60405180910390fd5b6001600a60146101000a81548160ff0219169083151502179055507f62e78cea01bee320cd4e420270b5ea74000d11b0c9f74754ebdbfc544b05a25861241e611e2f565b60405161242b91906138ca565b60405180910390a1565b600a60159054906101000a900460ff16612484576040517f08c379a000000000000000000000000000000000000000000000000000000000815260040161247b90614a3f565b60405180910390fd5b6000600a60156101000a81548160ff0219169083151502179055507f9e209206b95275a497262e47a30901f0716b2d6d19618dd5e9b7b68237e7cb716124c8611e2f565b6040516124d591906138ca565b60405180910390a1565b6124e7610ec0565b15612527576040517f08c379a000000000000000000000000000000000000000000000000000000000815260040161251e90614706565b60405180910390fd5b601481111561256b576040517f08c379a000000000000000000000000000000000000000000000000000000000815260040161256290614d5f565b60405180910390fd5b600b5461271061257b9190614792565b81612584610ab6565b61258e91906141d7565b11156125cf576040517f08c379a00000000000000000000000000000000000000000000000000000000081526004016125c690614dcb565b60405180910390fd5b8066b1a2bc2ec500006125e29190614deb565b341015612624576040517f08c379a000000000000000000000000000000000000000000000000000000000815260040161261b9061487e565b60405180910390fd5b60005b81811015612677576000600161263b610ab6565b61264591906141d7565b9050612710612652610ab6565b10156126635761266233826128ca565b5b50808061266f9061422d565b915050612627565b5050565b612686848484611fce565b61269284848484612b68565b6126d1576040517f08c379a00000000000000000000000000000000000000000000000000000000081526004016126c890614eb7565b60405180910390fd5b50505050565b6060600d80546126e690613e30565b80601f016020809104026020016040519081016040528092919081815260200182805461271290613e30565b801561275f5780601f106127345761010080835404028352916020019161275f565b820191906000526020600020905b81548152906001019060200180831161274257829003601f168201915b5050505050905090565b606060008214156127b1576040518060400160405280600181526020017f300000000000000000000000000000000000000000000000000000000000000081525090506128c5565b600082905060005b600082146127e35780806127cc9061422d565b915050600a826127dc91906148cd565b91506127b9565b60008167ffffffffffffffff8111156127ff576127fe6139d8565b5b6040519080825280601f01601f1916602001820160405280156128315781602001600182028036833780820191505090505b5090505b600085146128be5760018261284a9190614792565b9150600a856128599190614ed7565b603061286591906141d7565b60f81b81838151811061287b5761287a61439d565b5b60200101907effffffffffffffffffffffffffffffffffffffffffffffffffffffffffffff1916908160001a905350600a856128b791906148cd565b9450612835565b8093505050505b919050565b6128e4828260405180602001604052806000815250612cff565b5050565b6000816040516020016128fb9190614f7f565b604051602081830303815290604052805190602001209050919050565b60008060006129278585612d5a565b9150915061293481612ddd565b819250505092915050565b600a60159054906101000a900460ff161561298f576040517f08c379a00000000000000000000000000000000000000000000000000000000081526004016129869061453c565b60405180910390fd5b6001600a60156101000a81548160ff0219169083151502179055507fb1412a7cd96bc4195d633c938189c320dcbeb2cff60c1b8bdd872678fb3514b46129d3611e2f565b6040516129e091906138ca565b60405180910390a1565b60007f01ffc9a7000000000000000000000000000000000000000000000000000000007bffffffffffffffffffffffffffffffffffffffffffffffffffffffff1916827bffffffffffffffffffffffffffffffffffffffffffffffffffffffff1916149050919050565b612a5f838383612fb2565b600073ffffffffffffffffffffffffffffffffffffffff168373ffffffffffffffffffffffffffffffffffffffff161415612aa257612a9d81612fb7565b612ae1565b8173ffffffffffffffffffffffffffffffffffffffff168373ffffffffffffffffffffffffffffffffffffffff1614612ae057612adf8382613000565b5b5b600073ffffffffffffffffffffffffffffffffffffffff168273ffffffffffffffffffffffffffffffffffffffff161415612b2457612b1f8161316d565b612b63565b8273ffffffffffffffffffffffffffffffffffffffff168273ffffffffffffffffffffffffffffffffffffffff1614612b6257612b61828261323e565b5b5b505050565b6000612b898473ffffffffffffffffffffffffffffffffffffffff166132bd565b15612cf2578373ffffffffffffffffffffffffffffffffffffffff1663150b7a02612bb2611e2f565b8786866040518563ffffffff1660e01b8152600401612bd49493929190614ffa565b602060405180830381600087803b158015612bee57600080fd5b505af1925050508015612c1f57506040513d601f19601f82011682018060405250810190612c1c919061505b565b60015b612ca2573d8060008114612c4f576040519150601f19603f3d011682016040523d82523d6000602084013e612c54565b606091505b50600081511415612c9a576040517f08c379a0000000000000000000000000000000000000000000000000000000008152600401612c9190614eb7565b60405180910390fd5b805181602001fd5b63150b7a0260e01b7bffffffffffffffffffffffffffffffffffffffffffffffffffffffff1916817bffffffffffffffffffffffffffffffffffffffffffffffffffffffff191614915050612cf7565b600190505b949350505050565b612d0983836132d0565b612d166000848484612b68565b612d55576040517f08c379a0000000000000000000000000000000000000000000000000000000008152600401612d4c90614eb7565b60405180910390fd5b505050565b600080604183511415612d9c5760008060006020860151925060408601519150606086015160001a9050612d908782858561349e565b94509450505050612dd6565b604083511415612dcd576000806020850151915060408501519050612dc28683836135ab565b935093505050612dd6565b60006002915091505b9250929050565b60006004811115612df157612df0615088565b5b816004811115612e0457612e03615088565b5b1415612e0f57612faf565b60016004811115612e2357612e22615088565b5b816004811115612e3657612e35615088565b5b1415612e77576040517f08c379a0000000000000000000000000000000000000000000000000000000008152600401612e6e90615103565b60405180910390fd5b60026004811115612e8b57612e8a615088565b5b816004811115612e9e57612e9d615088565b5b1415612edf576040517f08c379a0000000000000000000000000000000000000000000000000000000008152600401612ed69061516f565b60405180910390fd5b60036004811115612ef357612ef2615088565b5b816004811115612f0657612f05615088565b5b1415612f47576040517f08c379a0000000000000000000000000000000000000000000000000000000008152600401612f3e90615201565b60405180910390fd5b600480811115612f5a57612f59615088565b5b816004811115612f6d57612f6c615088565b5b1415612fae576040517f08c379a0000000000000000000000000000000000000000000000000000000008152600401612fa590615293565b60405180910390fd5b5b50565b505050565b6008805490506009600083815260200190815260200160002081905550600881908060018154018082558091505060019003906000526020600020016000909190919091505550565b6000600161300d84610ff0565b6130179190614792565b90506000600760008481526020019081526020016000205490508181146130fc576000600660008673ffffffffffffffffffffffffffffffffffffffff1673ffffffffffffffffffffffffffffffffffffffff168152602001908152602001600020600084815260200190815260200160002054905080600660008773ffffffffffffffffffffffffffffffffffffffff1673ffffffffffffffffffffffffffffffffffffffff168152602001908152602001600020600084815260200190815260200160002081905550816007600083815260200190815260200160002081905550505b6007600084815260200190815260200160002060009055600660008573ffffffffffffffffffffffffffffffffffffffff1673ffffffffffffffffffffffffffffffffffffffff16815260200190815260200160002060008381526020019081526020016000206000905550505050565b600060016008805490506131819190614792565b90506000600960008481526020019081526020016000205490506000600883815481106131b1576131b061439d565b5b9060005260206000200154905080600883815481106131d3576131d261439d565b5b906000526020600020018190555081600960008381526020019081526020016000208190555060096000858152602001908152602001600020600090556008805480613222576132216152b3565b5b6001900381819060005260206000200160009055905550505050565b600061324983610ff0565b905081600660008573ffffffffffffffffffffffffffffffffffffffff1673ffffffffffffffffffffffffffffffffffffffff168152602001908152602001600020600083815260200190815260200160002081905550806007600084815260200190815260200160002081905550505050565b600080823b905060008111915050919050565b600073ffffffffffffffffffffffffffffffffffffffff168273ffffffffffffffffffffffffffffffffffffffff161415613340576040517f08c379a00000000000000000000000000000000000000000000000000000000081526004016133379061532e565b60405180910390fd5b61334981611dc3565b15613389576040517f08c379a00000000000000000000000000000000000000000000000000000000081526004016133809061539a565b60405180910390fd5b61339560008383612a54565b6001600360008473ffffffffffffffffffffffffffffffffffffffff1673ffffffffffffffffffffffffffffffffffffffff16815260200190815260200160002060008282546133e591906141d7565b92505081905550816002600083815260200190815260200160002060006101000a81548173ffffffffffffffffffffffffffffffffffffffff021916908373ffffffffffffffffffffffffffffffffffffffff160217905550808273ffffffffffffffffffffffffffffffffffffffff16600073ffffffffffffffffffffffffffffffffffffffff167fddf252ad1be2c89b69c2b068fc378daa952ba7f163c4a11628f55a4df523b3ef60405160405180910390a45050565b6000807f7fffffffffffffffffffffffffffffff5d576e7357a4501ddfe92f46681b20a08360001c11156134d95760006003915091506135a2565b601b8560ff16141580156134f15750601c8560ff1614155b156135035760006004915091506135a2565b60006001878787876040516000815260200160405260405161352894939291906153e5565b6020604051602081039080840390855afa15801561354a573d6000803e3d6000fd5b505050602060405103519050600073ffffffffffffffffffffffffffffffffffffffff168173ffffffffffffffffffffffffffffffffffffffff161415613599576000600192509250506135a2565b80600092509250505b94509492505050565b6000806000807f7fffffffffffffffffffffffffffffffffffffffffffffffffffffffffffffff85169150601b8560ff1c0190506135eb8782888561349e565b935093505050935093915050565b82805461360590613e30565b90600052602060002090601f016020900481019282613627576000855561366e565b82601f1061364057805160ff191683800117855561366e565b8280016001018555821561366e579182015b8281111561366d578251825591602001919060010190613652565b5b50905061367b919061367f565b5090565b5b80821115613698576000816000905550600101613680565b5090565b6000604051905090565b600080fd5b600080fd5b60007fffffffff0000000000000000000000000000000000000000000000000000000082169050919050565b6136e5816136b0565b81146136f057600080fd5b50565b600081359050613702816136dc565b92915050565b60006020828403121561371e5761371d6136a6565b5b600061372c848285016136f3565b91505092915050565b60008115159050919050565b61374a81613735565b82525050565b60006020820190506137656000830184613741565b92915050565b600081519050919050565b600082825260208201905092915050565b60005b838110156137a557808201518184015260208101905061378a565b838111156137b4576000848401525b50505050565b6000601f19601f8301169050919050565b60006137d68261376b565b6137e08185613776565b93506137f0818560208601613787565b6137f9816137ba565b840191505092915050565b6000602082019050818103600083015261381e81846137cb565b905092915050565b6000819050919050565b61383981613826565b811461384457600080fd5b50565b60008135905061385681613830565b92915050565b600060208284031215613872576138716136a6565b5b600061388084828501613847565b91505092915050565b600073ffffffffffffffffffffffffffffffffffffffff82169050919050565b60006138b482613889565b9050919050565b6138c4816138a9565b82525050565b60006020820190506138df60008301846138bb565b92915050565b6138ee816138a9565b81146138f957600080fd5b50565b60008135905061390b816138e5565b92915050565b60008060408385031215613928576139276136a6565b5b6000613936858286016138fc565b925050602061394785828601613847565b9150509250929050565b61395a81613826565b82525050565b60006020820190506139756000830184613951565b92915050565b600080600060608486031215613994576139936136a6565b5b60006139a2868287016138fc565b93505060206139b3868287016138fc565b92505060406139c486828701613847565b9150509250925092565b600080fd5b600080fd5b7f4e487b7100000000000000000000000000000000000000000000000000000000600052604160045260246000fd5b613a10826137ba565b810181811067ffffffffffffffff82111715613a2f57613a2e6139d8565b5b80604052505050565b6000613a4261369c565b9050613a4e8282613a07565b919050565b600067ffffffffffffffff821115613a6e57613a6d6139d8565b5b613a77826137ba565b9050602081019050919050565b82818337600083830152505050565b6000613aa6613aa184613a53565b613a38565b905082815260208101848484011115613ac257613ac16139d3565b5b613acd848285613a84565b509392505050565b600082601f830112613aea57613ae96139ce565b5b8135613afa848260208601613a93565b91505092915050565b600060208284031215613b1957613b186136a6565b5b600082013567ffffffffffffffff811115613b3757613b366136ab565b5b613b4384828501613ad5565b91505092915050565b600060208284031215613b6257613b616136a6565b5b6000613b70848285016138fc565b91505092915050565b613b8281613735565b8114613b8d57600080fd5b50565b600081359050613b9f81613b79565b92915050565b60008060408385031215613bbc57613bbb6136a6565b5b6000613bca858286016138fc565b9250506020613bdb85828601613b90565b9150509250929050565b600067ffffffffffffffff821115613c0057613bff6139d8565b5b613c09826137ba565b9050602081019050919050565b6000613c29613c2484613be5565b613a38565b905082815260208101848484011115613c4557613c446139d3565b5b613c50848285613a84565b509392505050565b600082601f830112613c6d57613c6c6139ce565b5b8135613c7d848260208601613c16565b91505092915050565b60008060008060808587031215613ca057613c9f6136a6565b5b6000613cae878288016138fc565b9450506020613cbf878288016138fc565b9350506040613cd087828801613847565b925050606085013567ffffffffffffffff811115613cf157613cf06136ab565b5b613cfd87828801613c58565b91505092959194509250565b60008060408385031215613d2057613d1f6136a6565b5b6000613d2e858286016138fc565b925050602083013567ffffffffffffffff811115613d4f57613d4e6136ab565b5b613d5b85828601613c58565b9150509250929050565b60008060408385031215613d7c57613d7b6136a6565b5b6000613d8a858286016138fc565b9250506020613d9b858286016138fc565b9150509250929050565b60008060408385031215613dbc57613dbb6136a6565b5b6000613dca85828601613847565b925050602083013567ffffffffffffffff811115613deb57613dea6136ab565b5b613df785828601613c58565b9150509250929050565b7f4e487b7100000000000000000000000000000000000000000000000000000000600052602260045260246000fd5b60006002820490506001821680613e4857607f821691505b60208210811415613e5c57613e5b613e01565b5b50919050565b7f4552433732313a20617070726f76656420717565727920666f72206e6f6e657860008201527f697374656e7420746f6b656e0000000000000000000000000000000000000000602082015250565b6000613ebe602c83613776565b9150613ec982613e62565b604082019050919050565b60006020820190508181036000830152613eed81613eb1565b9050919050565b7f4552433732313a20617070726f76616c20746f2063757272656e74206f776e6560008201527f7200000000000000000000000000000000000000000000000000000000000000602082015250565b6000613f50602183613776565b9150613f5b82613ef4565b604082019050919050565b60006020820190508181036000830152613f7f81613f43565b9050919050565b7f4552433732313a20617070726f76652063616c6c6572206973206e6f74206f7760008201527f6e6572206e6f7220617070726f76656420666f7220616c6c0000000000000000602082015250565b6000613fe2603883613776565b9150613fed82613f86565b604082019050919050565b6000602082019050818103600083015261401181613fd5565b9050919050565b7f4552433732313a207472616e736665722063616c6c6572206973206e6f74206f60008201527f776e6572206e6f7220617070726f766564000000000000000000000000000000602082015250565b6000614074603183613776565b915061407f82614018565b604082019050919050565b600060208201905081810360008301526140a381614067565b9050919050565b7f455243373231456e756d657261626c653a206f776e657220696e646578206f7560008201527f74206f6620626f756e6473000000000000000000000000000000000000000000602082015250565b6000614106602b83613776565b9150614111826140aa565b604082019050919050565b60006020820190508181036000830152614135816140f9565b9050919050565b7f4f776e61626c653a2063616c6c6572206973206e6f7420746865206f776e6572600082015250565b6000614172602083613776565b915061417d8261413c565b602082019050919050565b600060208201905081810360008301526141a181614165565b9050919050565b7f4e487b7100000000000000000000000000000000000000000000000000000000600052601160045260246000fd5b60006141e282613826565b91506141ed83613826565b9250827fffffffffffffffffffffffffffffffffffffffffffffffffffffffffffffffff03821115614222576142216141a8565b5b828201905092915050565b600061423882613826565b91507fffffffffffffffffffffffffffffffffffffffffffffffffffffffffffffffff82141561426b5761426a6141a8565b5b600182019050919050565b7f5468657265206973206e6f20616d6f756e74206c65667420746f20636c61696d600082015250565b60006142ac602083613776565b91506142b782614276565b602082019050919050565b600060208201905081810360008301526142db8161429f565b9050919050565b60006040820190506142f760008301856138bb565b6143046020830184613951565b9392505050565b7f455243373231456e756d657261626c653a20676c6f62616c20696e646578206f60008201527f7574206f6620626f756e64730000000000000000000000000000000000000000602082015250565b6000614367602c83613776565b91506143728261430b565b604082019050919050565b600060208201905081810360008301526143968161435a565b9050919050565b7f4e487b7100000000000000000000000000000000000000000000000000000000600052603260045260246000fd5b7f4552433732313a206f776e657220717565727920666f72206e6f6e657869737460008201527f656e7420746f6b656e0000000000000000000000000000000000000000000000602082015250565b6000614428602983613776565b9150614433826143cc565b604082019050919050565b600060208201905081810360008301526144578161441b565b9050919050565b7f4552433732313a2062616c616e636520717565727920666f7220746865207a6560008201527f726f206164647265737300000000000000000000000000000000000000000000602082015250565b60006144ba602a83613776565b91506144c58261445e565b604082019050919050565b600060208201905081810360008301526144e9816144ad565b9050919050565b7f50726573616c6520636c6f736564000000000000000000000000000000000000600082015250565b6000614526600e83613776565b9150614531826144f0565b602082019050919050565b6000602082019050818103600083015261455581614519565b9050919050565b7f4552433732313a20617070726f766520746f2063616c6c657200000000000000600082015250565b6000614592601983613776565b915061459d8261455c565b602082019050919050565b600060208201905081810360008301526145c181614585565b9050919050565b7f4552433732314d657461646174613a2055524920717565727920666f72206e6f60008201527f6e6578697374656e7420746f6b656e0000000000000000000000000000000000602082015250565b6000614624602f83613776565b915061462f826145c8565b604082019050919050565b6000602082019050818103600083015261465381614617565b9050919050565b600081905092915050565b60006146708261376b565b61467a818561465a565b935061468a818560208601613787565b80840191505092915050565b60006146a28285614665565b91506146ae8284614665565b91508190509392505050565b7f5061757361626c653a2070617573656400000000000000000000000000000000600082015250565b60006146f0601083613776565b91506146fb826146ba565b602082019050919050565b6000602082019050818103600083015261471f816146e3565b9050919050565b7f4578636565647320726573657276656420566f6f646f6c6c7a20737570706c79600082015250565b600061475c602083613776565b915061476782614726565b602082019050919050565b6000602082019050818103600083015261478b8161474f565b9050919050565b600061479d82613826565b91506147a883613826565b9250828210156147bb576147ba6141a8565b5b828203905092915050565b7f4e6f206f776e6572730000000000000000000000000000000000000000000000600082015250565b60006147fc600983613776565b9150614807826147c6565b602082019050919050565b6000602082019050818103600083015261482b816147ef565b9050919050565b7f45746865722076616c75652073656e74206973206e6f7420636f727265637400600082015250565b6000614868601f83613776565b915061487382614832565b602082019050919050565b600060208201905081810360008301526148978161485b565b9050919050565b7f4e487b7100000000000000000000000000000000000000000000000000000000600052601260045260246000fd5b60006148d882613826565b91506148e383613826565b9250826148f3576148f261489e565b5b828204905092915050565b60008160601b9050919050565b6000614916826148fe565b9050919050565b60006149288261490b565b9050919050565b61494061493b826138a9565b61491d565b82525050565b6000614952828461492f565b60148201915081905092915050565b7f4f776e61626c653a206e6577206f776e657220697320746865207a65726f206160008201527f6464726573730000000000000000000000000000000000000000000000000000602082015250565b60006149bd602683613776565b91506149c882614961565b604082019050919050565b600060208201905081810360008301526149ec816149b0565b9050919050565b7f53616c6520636c6f736564000000000000000000000000000000000000000000600082015250565b6000614a29600b83613776565b9150614a34826149f3565b602082019050919050565b60006020820190508181036000830152614a5881614a1c565b9050919050565b7f4e6f7420617574686f72697a656420746f206d696e7400000000000000000000600082015250565b6000614a95601683613776565b9150614aa082614a5f565b602082019050919050565b60006020820190508181036000830152614ac481614a88565b9050919050565b7f4552433732313a206f70657261746f7220717565727920666f72206e6f6e657860008201527f697374656e7420746f6b656e0000000000000000000000000000000000000000602082015250565b6000614b27602c83613776565b9150614b3282614acb565b604082019050919050565b60006020820190508181036000830152614b5681614b1a565b9050919050565b7f4552433732313a207472616e73666572206f6620746f6b656e2074686174206960008201527f73206e6f74206f776e0000000000000000000000000000000000000000000000602082015250565b6000614bb9602983613776565b9150614bc482614b5d565b604082019050919050565b60006020820190508181036000830152614be881614bac565b9050919050565b7f4552433732313a207472616e7366657220746f20746865207a65726f2061646460008201527f7265737300000000000000000000000000000000000000000000000000000000602082015250565b6000614c4b602483613776565b9150614c5682614bef565b604082019050919050565b60006020820190508181036000830152614c7a81614c3e565b9050919050565b7f5061757361626c653a206e6f7420706175736564000000000000000000000000600082015250565b6000614cb7601483613776565b9150614cc282614c81565b602082019050919050565b60006020820190508181036000830152614ce681614caa565b9050919050565b7f43616e206f6e6c79206d696e7420323020746f6b656e7320617420612074696d60008201527f6500000000000000000000000000000000000000000000000000000000000000602082015250565b6000614d49602183613776565b9150614d5482614ced565b604082019050919050565b60006020820190508181036000830152614d7881614d3c565b9050919050565b7f45786365656473206d6178696d756d20566f6f646f6c6c7a20737570706c7900600082015250565b6000614db5601f83613776565b9150614dc082614d7f565b602082019050919050565b60006020820190508181036000830152614de481614da8565b9050919050565b6000614df682613826565b9150614e0183613826565b9250817fffffffffffffffffffffffffffffffffffffffffffffffffffffffffffffffff0483118215151615614e3a57614e396141a8565b5b828202905092915050565b7f4552433732313a207472616e7366657220746f206e6f6e20455243373231526560008201527f63656976657220696d706c656d656e7465720000000000000000000000000000602082015250565b6000614ea1603283613776565b9150614eac82614e45565b604082019050919050565b60006020820190508181036000830152614ed081614e94565b9050919050565b6000614ee282613826565b9150614eed83613826565b925082614efd57614efc61489e565b5b828206905092915050565b7f19457468657265756d205369676e6564204d6573736167653a0a333200000000600082015250565b6000614f3e601c8361465a565b9150614f4982614f08565b601c82019050919050565b6000819050919050565b6000819050919050565b614f79614f7482614f54565b614f5e565b82525050565b6000614f8a82614f31565b9150614f968284614f68565b60208201915081905092915050565b600081519050919050565b600082825260208201905092915050565b6000614fcc82614fa5565b614fd68185614fb0565b9350614fe6818560208601613787565b614fef816137ba565b840191505092915050565b600060808201905061500f60008301876138bb565b61501c60208301866138bb565b6150296040830185613951565b818103606083015261503b8184614fc1565b905095945050505050565b600081519050615055816136dc565b92915050565b600060208284031215615071576150706136a6565b5b600061507f84828501615046565b91505092915050565b7f4e487b7100000000000000000000000000000000000000000000000000000000600052602160045260246000fd5b7f45434453413a20696e76616c6964207369676e61747572650000000000000000600082015250565b60006150ed601883613776565b91506150f8826150b7565b602082019050919050565b6000602082019050818103600083015261511c816150e0565b9050919050565b7f45434453413a20696e76616c6964207369676e6174757265206c656e67746800600082015250565b6000615159601f83613776565b915061516482615123565b602082019050919050565b600060208201905081810360008301526151888161514c565b9050919050565b7f45434453413a20696e76616c6964207369676e6174757265202773272076616c60008201527f7565000000000000000000000000000000000000000000000000000000000000602082015250565b60006151eb602283613776565b91506151f68261518f565b604082019050919050565b6000602082019050818103600083015261521a816151de565b9050919050565b7f45434453413a20696e76616c6964207369676e6174757265202776272076616c60008201527f7565000000000000000000000000000000000000000000000000000000000000602082015250565b600061527d602283613776565b915061528882615221565b604082019050919050565b600060208201905081810360008301526152ac81615270565b9050919050565b7f4e487b7100000000000000000000000000000000000000000000000000000000600052603160045260246000fd5b7f4552433732313a206d696e7420746f20746865207a65726f2061646472657373600082015250565b6000615318602083613776565b9150615323826152e2565b602082019050919050565b600060208201905081810360008301526153478161530b565b9050919050565b7f4552433732313a20746f6b656e20616c7265616479206d696e74656400000000600082015250565b6000615384601c83613776565b915061538f8261534e565b602082019050919050565b600060208201905081810360008301526153b381615377565b9050919050565b6153c381614f54565b82525050565b600060ff82169050919050565b6153df816153c9565b82525050565b60006080820190506153fa60008301876153ba565b61540760208301866153d6565b61541460408301856153ba565b61542160608301846153ba565b9594505050505056fea26469706673582212202ef5235ae061a4f0ba693798a1b49438c9711daabc6f472365b96fb454936f5064736f6c63430008090033",
  "immutableReferences": {},
  "source": "// SPDX-License-Identifier: MIT\npragma solidity ^0.8.0;\n\nimport \"@openzeppelin/contracts/token/ERC721/extensions/ERC721Enumerable.sol\";\nimport \"@openzeppelin/contracts/access/Ownable.sol\";\nimport \"@openzeppelin/contracts/security/Pausable.sol\";\nimport \"@openzeppelin/contracts/utils/cryptography/ECDSA.sol\";\n\nimport \"./Presalable.sol\";\n\ncontract Voodollz is ERC721Enumerable, Ownable, Pausable, Presalable {\n    using ECDSA for bytes32;\n\n    event EthDeposited(uint256 amount);\n    event EthClaimed(address to, uint256 amount);\n\n    uint256 private _reserved = 400;\n    mapping(uint256 => uint256) private _claimableEth;\n\n    string public baseTokenURI;\n    \n    uint256 public constant MAX_TOKEN_COUNT = 10000;\n    uint256 public constant PRICE = 0.05 ether;\n\n    constructor(string memory _baseTokenURI) ERC721(\"Voodollz\", \"Voodollz\")  {\n        setBaseURI(_baseTokenURI);\n        presale();\n    }\n\n    // Mint methods\n\n    function _mintVoodollz(uint256 _amount) private whenNotPaused {\n        require(_amount <= 20, \"Can only mint 20 tokens at a time\");\n        require(totalSupply() + _amount <= MAX_TOKEN_COUNT - _reserved, \"Exceeds maximum Voodollz supply\");\n        require(msg.value >= PRICE * _amount, \"Ether value sent is not correct\");\n    \n        for(uint256 i = 0; i < _amount; i++) {\n            uint mintIndex = totalSupply() + 1;\n            if (totalSupply() < MAX_TOKEN_COUNT) {\n                _safeMint(msg.sender, mintIndex);\n            }\n        }\n    }\n\n    function mint(uint256 _amount) public payable whenNotPresaled {\n        _mintVoodollz(_amount);\n    }\n\n    function presaleMint(uint256 _amount, bytes memory _signature) public payable whenPresaled {\n        address signer = recoverSigner(msg.sender, _signature);\n        require(signer == owner(), \"Not authorized to mint\");\n\n        _mintVoodollz(_amount);\n    }\n\n    function recoverSigner(address _wallet, bytes memory _signature) public pure returns (address){\n        return keccak256(abi.encodePacked(_wallet)).toEthSignedMessageHash().recover(_signature);\n    }\n\n    // Give methods\n    \n    function giveAway(address _to, uint256 _amount) public onlyOwner whenNotPaused {\n        require(_amount <= _reserved, \"Exceeds reserved Voodollz supply\");\n\n        for(uint256 i = 1; i <= _amount; i++) {\n            uint mintIndex = totalSupply() + 1;\n            if (totalSupply() < MAX_TOKEN_COUNT) {\n                _safeMint(_to, mintIndex);\n            }\n        }\n\n        _reserved -= _amount;\n    }\n\n    // Community wallet methods\n\n    function deposit() public payable onlyOwner {\n        uint256 tokenCount = totalSupply();\n\n        require(tokenCount > 0, \"No owners\");\n        require(msg.value > 0, \"Ether value sent is not correct\");\n\n        uint256 claimableAmountPerToken = msg.value / tokenCount;\n\n        for(uint256 i = 0; i < tokenCount; i++) {\n            _claimableEth[tokenByIndex(i)] += claimableAmountPerToken;\n        }\n\n        emit EthDeposited(msg.value);\n    }\n\n    function claimableBalance(address owner) public view returns (uint256) {\n        uint256 balance = 0;\n        uint256 numTokens = balanceOf(owner);\n\n        for(uint256 i = 0; i < numTokens; i++) {\n            balance += _claimableEth[tokenOfOwnerByIndex(owner, i)];\n        }\n\n        return balance;\n    }\n\n    function claim() public {\n        uint256 amount = 0;\n        uint256 numTokens = balanceOf(msg.sender);\n\n        for(uint256 i = 0; i < numTokens; i++) {\n            uint256 tokenId = tokenOfOwnerByIndex(msg.sender, i);\n            amount += _claimableEth[tokenId];\n            _claimableEth[tokenId] = 0;\n        }\n\n        require(amount > 0, \"There is no amount left to claim\");\n\n        require(payable(msg.sender).send(amount));\n\n        emit EthClaimed(msg.sender, amount);\n    }\n\n    // Service methods\n    \n    function _baseURI() internal view virtual override returns (string memory) {\n        return baseTokenURI;\n    }\n\n    function setBaseURI(string memory _baseTokenURI) public onlyOwner {\n        baseTokenURI = _baseTokenURI;\n    }\n\n    function pause() public onlyOwner {\n        _pause();\n    }\n\n    function unpause() public onlyOwner {\n        _unpause();\n    }\n\n    function presale() public onlyOwner {\n        _presale();\n    }\n\n    function unpresale() public onlyOwner {\n        _unpresale();\n    }\n}",
  "sourcePath": "/home/doss/projects/voodollz/packages/contract/contracts/Voodollz.sol",
  "compiler": {
    "name": "solc",
    "version": "0.8.9+commit.e5eed63a.Emscripten.clang"
  },
  "schemaVersion": "3.4.3",
  "updatedAt": "2021-10-24T00:27:35.839Z",
  "networkType": "ethereum",
  "devdoc": {
    "kind": "dev",
    "methods": {
      "approve(address,uint256)": {
        "details": "See {IERC721-approve}."
      },
      "balanceOf(address)": {
        "details": "See {IERC721-balanceOf}."
      },
      "getApproved(uint256)": {
        "details": "See {IERC721-getApproved}."
      },
      "isApprovedForAll(address,address)": {
        "details": "See {IERC721-isApprovedForAll}."
      },
      "name()": {
        "details": "See {IERC721Metadata-name}."
      },
      "owner()": {
        "details": "Returns the address of the current owner."
      },
      "ownerOf(uint256)": {
        "details": "See {IERC721-ownerOf}."
      },
      "paused()": {
        "details": "Returns true if the contract is paused, and false otherwise."
      },
      "renounceOwnership()": {
        "details": "Leaves the contract without owner. It will not be possible to call `onlyOwner` functions anymore. Can only be called by the current owner. NOTE: Renouncing ownership will leave the contract without an owner, thereby removing any functionality that is only available to the owner."
      },
      "safeTransferFrom(address,address,uint256)": {
        "details": "See {IERC721-safeTransferFrom}."
      },
      "safeTransferFrom(address,address,uint256,bytes)": {
        "details": "See {IERC721-safeTransferFrom}."
      },
      "setApprovalForAll(address,bool)": {
        "details": "See {IERC721-setApprovalForAll}."
      },
      "supportsInterface(bytes4)": {
        "details": "See {IERC165-supportsInterface}."
      },
      "symbol()": {
        "details": "See {IERC721Metadata-symbol}."
      },
      "tokenByIndex(uint256)": {
        "details": "See {IERC721Enumerable-tokenByIndex}."
      },
      "tokenOfOwnerByIndex(address,uint256)": {
        "details": "See {IERC721Enumerable-tokenOfOwnerByIndex}."
      },
      "tokenURI(uint256)": {
        "details": "See {IERC721Metadata-tokenURI}."
      },
      "totalSupply()": {
        "details": "See {IERC721Enumerable-totalSupply}."
      },
      "transferFrom(address,address,uint256)": {
        "details": "See {IERC721-transferFrom}."
      },
      "transferOwnership(address)": {
        "details": "Transfers ownership of the contract to a new account (`newOwner`). Can only be called by the current owner."
      }
    },
    "version": 1
  },
  "userdoc": {
    "kind": "user",
    "methods": {},
    "version": 1
  }
}